:100000000000012075030000A1020000A102000011
:10001000A1020000A1020000A1020000A102000054
:10002000A1020000A1020000A1020000A102000044
:10003000A1020000A1020000A1020000A102000034
:10004000A1020000A1020000A1020000A102000024
:10005000A1020000A1020000A1020000A102000014
:10006000A1020000A1020000A1020000A102000004
:10007000A1020000A1020000A1020000A1020000F4
:10008000A1020000A1020000A102000095A1000051
:10009000A1020000A1020000A1020000A1020000D4
:1000A000A1020000A1020000A1020000A1020000C4
:1000B000A1020000A1020000A1020000A1020000B4
:1000C000A1020000A1020000A1020000A1020000A4
:1002980062B6704772B67047684600F001F8FEE72C
:1002A80070B5044600F078FC0546224806F096FB37
:1002B8000F2D9DBF204B214853F82510A5F11001A3
:1002C80088BF1F4806F08AFB22681E481E4906F0B0
:1002D80085FB62681D491B4806F080FB1C4806F038
:1002E8007DFBA26817481B4906F078FBE2681A49AB
:1002F800144806F073FB164806F070FB2269114893
:10030800164906F06BFB626915490E4806F066FB54
:100318000F4806F063FBA2690A48124906F05EFB23
:10032800E2690848104906F059FB0948BDE87040E1
:1003380006F054BB782A0100382A01004455010010
:10034800902A01009C2A0100A82A0100AC2A010079
:1003580064540100B02A0100B42A0100B82A01003F
:10036800BC2A0100C02A0100C42A010010B572B6D7
:1003780009480A4A0A49121A00F086FA09480A493D
:100388000A1A002100F012FA084A094B1A60BDE85F
:10039800104000F059BE00BF00000020680E002089
:1003A8006C7D0100680E00205C49002000F00020F0
:1003B800680E00200023CA5CC2540133002AFAD117
:1003C800704700BF002312F0010F10B404D00C785E
:1003D800013A047001237CB172B1CC5C03F1010CC9
:1003E800C454013A44B111F80C400CF1010300F86F
:1003F8000C40013A002CEFD110BC704790F9003046
:1004080010B463B1024612F9014F002CFBD100234E
:10041800CC5CD4540133002CFAD110BC704702468E
:10042800F5E700BF70B41346002A32D090F90020D7
:10043800002A30D0024612F9014F002CFBD10C786B
:1004480003F1FF3C0CF00106147014B34FF0010CDB
:100458009C4502EB0C051AD04EB111F80C4002F87D
:100468000C40B4B14FF0020C01359C450FD011F887
:100478000C600CF10104013502F80C60013504F13F
:10048800010C36B10E5D16551EB19C45EFD1002307
:100498002B7070BC70470246D1E700BF10B4002330
:1004A800C25CCC5C0133141BE4B224B9002AF7D136
:1004B800104610BC704760B2FBE700BF70B413462B
:1004C800AAB104780A78A21AD2B2002A30D174B13B
:1004D8005C1E14F0010F944627D045784A782346CD
:1004E800AA1AD2B2002A23D14FF0010CEDB900208C
:1004F80070BC704701EB0C0500EB0C046A7864785B
:100508000CF1010CA21AD2B200EB0C0601EB0C059F
:1005180072B9002CEBD074786A78013BA21AD2B277
:1005280032B90CF1010C002CE1D0013BE2D1DEE73D
:1005380050B2DDE7037849B25AB28A4208D033B1E3
:1005480010F8013F4FFA83FC8C45F8D17047002022
:10055800704700BF90F9002003462AB1024612F9FD
:10056800010F0028FBD1D21A981890F900C049B29F
:100578008C4502F0010215D00138834210D832B1FF
:1005880090F900208A420CD00138834208D890F9AB
:1005980000208A4205D010F901CD8C45F4D170476E
:1005A80000207047704700BF90F9003033B1034610
:1005B80013F9012F002AFBD1181A70471846704703
:1005C800D9B190F90020C2B14B1E13F0010F0246B9
:1005D8000CD1013243B192F90010013B21B112F95B
:1005E800011F013B0029F4D1101A7047024612F985
:1005F800011F013B0029ECD1F6E70020704700BF3E
:1006080070B403780246C3B10E78B6B176B2002052
:100618005BB29E4218BF0C4602D109E0634507D081
:10062800657801344FFA85FC002DF7D170BC70470E
:100638000130135C002BEBD1F8E70020F6E700BF90
:10064800F0B40378ABB10E78054677B2284666B1A8
:100658005BB29F420ED00A4601E063450AD0547847
:1006680001324FFA84FC002CF7D115F8013F002B1A
:10067800ECD10020F0BC70472DE9F004002844D0EC
:10068800274E0478002C45D00D78002D45D0002742
:100698004FFA85FA64B2A24518BF0A4602D124E08F
:1006A800A44522D0537801324FFA83FC002BF7D1AE
:1006B800C0190378002B2DD007464FFA85FA65B18B
:1006C8005BB29A4516D00A4601E09C4512D0547890
:1006D80001324FFA84FC002CF7D117F8013F002BA8
:1006E800EDD13360BDE8F00470470137C45D002CDC
:1006F800D0D1DDE73B46002FF3D097F90020002A40
:10070800EFD0002103F8011BEBE7054E3068002805
:10071800E8D0B6E700203060E4E72F46C8E700BF1E
:100728006C0E002003682DE9F004CBB11D78ADB143
:100738000F781E464FFA87FA67B16DB2AA4513D0F3
:100748000A4601E0AC450FD0547801324FFA84FCD8
:10075800002CF7D116F8015F002DEDD100220260C0
:100768001846BDE8F00470473246002EF7D0002145
:1007780002F8011B0260F3E7034608B91846704700
:10078800017879B140780028F8D01A4603E0D0788B
:1007980002320028F2D05170917810700029F6D1F9
:1007A800184670470B461846704700BF10F0030FF5
:1007B80030B404462AD101F0FF0343EA032C43EA8C
:1007C8000C25032A43EA052520D9A2F1040C0423A9
:1007D800BCF1030F0560CCF3800410D92CB1A2F151
:1007E80008040823032C456009D903F1040CC550FB
:1007F8000CF10403D41A032C40F80C50F5D8043A31
:1008080022F00304231DC41802F00302AAB1531EE8
:1008180003F001050123C9B29A4221700DD01DB120
:1008280002239A42617008D003F1010CE1540CF1E3
:1008380001039A4204F80C10F6D130BC704700BF8F
:10084800034610B41046E2B11C7802F1FF3C0122C5
:1008580082420C700CEA020413D034B193F801C040
:100868000222824281F801C00BD09C5C02F1010C8B
:100878008C5413F80C400CF10102824201F80C4030
:10088800F3D1084610BC704741EA000313F0030F88
:1008980030B404460D4628D1032A26D90C68A2F1A3
:1008A800040C0423BCF1030F0460CCF3800414D9B6
:1008B80034B14D68A2F108040823032C45600CD913
:1008C800CC5803F1040CC4500CF1040351F80C503B
:1008D800D41A032C40F80C50F2D8043A22F003053D
:1008E8002B1DCD1802F00302C418CAB12978531E73
:1008F800217003F0010101239A4211D021B16978D6
:1009080002239A4261700BD015F803C0591C04F8F1
:1009180003C015F801C04B1C9A4204F801C0F3D17A
:1009280030BC70478842F0B41FD8E2B10C7801237C
:1009380002F1FF3C934204700CEA030413D034B173
:1009480091F801C00223934280F801C00BD0CC5C1F
:1009580003F1010CC45411F80C400CF1010393424B
:1009680000F80C40F3D1F0BC7047002AFBD089187E
:1009780011F8013C8418551E04F8013C05F00106E5
:100988004FF0FF33002DEED03EB111F802CC022A11
:100998006FF0010304F802CCE5D0CD1815F8017CFE
:1009A80003F1FF3CE61806F8017C01EB0C0515F88D
:1009B800017C0CF1FF3304EB0C069D1806F8017C52
:1009C800002DEAD1CFE700BFF0B403469446002AD1
:1009D80030D005780A78AD1A29D10CF1FF3616F017
:1009E800010F2A4618D0447848780122201AB446C4
:1009F8001ED19C18881801329F188E180132BCF13C
:100A0800010C0CF1FF3C12D064784078201A0FD109
:100A18007C787078201A0BD19C18881801329F189E
:100A28008E180132BCF1010C0CF1FF3CECD12846C8
:100A3800F0BC70471046FBE71346CAB102788A42F9
:100A480019D05A1E12F0010F0DD010F801CF13461D
:100A58008C4508D1704790F800C08C4509D010F833
:100A6800012F8A4206D00130013B03F1FF33F2D156
:100A780070477047704770472DE9F00E91F90030C4
:100A880083B081463BB10B4613F9012F002AFBD1F5
:100A9800B3EB010A04D1484603B0BDE8F00E704735
:100AA80099F90030002B40D04B4613F9010F00286C
:100AB800FBD1C9EB030BD34535DB4846BAF1000F30
:100AC800EAD00B784FF0000C019319F80C30019A1A
:100AD8009A421FD10AF1FF34002314F0010F524645
:100AE8000AD046784D780123AE42224604D011E060
:100AF8007C787578AC420DD1C518CC180133C7186D
:100B0800CE180133013A02F1FF32C5D06D7864780E
:100B1800A542EDD00CF1010CCCEB0B00824502DCB8
:100B280009EB0C00D1E70020B6E79B46C3E700BFFE
:100B380012F0010FC9B205D090F800C0013A8C45F7
:100B48000DD00130531E4AB190F800C05A1E8C4592
:100B580005D010F8013F8B42F3D17047104670471B
:100B680010B5044600B910BD90F9003083B110F9F2
:100B7800011F0029FBD1001B013006F051F9014685
:100B880029B10023E25CCA540133002AFAD110BD0E
:100B98000120F2E7002070474EF60053CEF2000322
:100BA8005868C0B2704700BF4EF69053CEF20003AB
:100BB8009860D9601A6170474EF69053002814BFA8
:100BC80003200020CEF20003586070474EF6905381
:100BD80040F23F00CEF200030021C0F200300322B1
:100BE8009960D96018615A60704700BF08B500F075
:100BF800ADF900F065F800F0E5F843461A6841F2EF
:100C08005E11D16000F0A4F9404603684FF020421D
:100C18001A61002008BD00BF012A2DE9F0441546DD
:100C28001C4637D00021102258680BF0A5F9022D78
:100C38008246D8BF1C4F16DC1C4E00251C48216874
:100C480005F0CCFE2B46504639463246194DA8478A
:100C580010B90020BDE8F0842168174805F0BEFEF1
:100C68000020BDE8F08400211022A0680BF084F970
:100C7800032D0746E0D000211022E0680BF07CF934
:100C8800042D06460DD02069002110220BF0DAF958
:100C98000546D3E71968094805F0A0FE0020BDE81D
:100CA800F084043DCAE700BF008000200040000037
:100CB8005C2B0100850C0020802B0100382B0100E3
:100CC80030B44EF210034FF6FE74CEF20003C0F2B9
:100CD800FF0406495C60002000240025012298607A
:100CE800C1E900451A6030BC704700BF700E002093
:100CF8004EF21000CEF200008268034B0020002163
:100D08009A60C3E900017047700E0020012000F0CE
:100D18000DB900BF10B50446012000F007F94DF6E3
:100D2800836CC4F21B3CACFB00218B0C04FB03F46A
:100D38004EF21001CEF200018A6894420AD902F1FB
:100D48008073981E041B88688242FCD88B68A34273
:100D5800F9D810BD141B8868A04202D98B689A4242
:100D6800F9D210BD2DE9D04C154B4EF21004CEF23D
:100D780000049F68A2680446BA4284BF07F18077DE
:100D8800023FBE1AD3E9000110EB060A41F1000B3D
:100D98005F465646C3E900679A60012000F0C6F82E
:100DA80044F6D351C1F26201A1FB00B200235046C0
:100DB8003946920911F088F9001BBDE8D08C00BFB4
:100DC800700E002048F20003C4F2030310B4D3F8F5
:100DD8009400194620F00402C3F89420D1F8504139
:100DE80048F2000314F0010FC4F20303F6D0D3F85D
:100DF8009400194620F00102C3F89420D1F850411C
:100E080048F2000314F0020FC4F20303F6D0D3F83B
:100E18009840444A24F48051C3F89810D3F89810A5
:100E280046F60000C1F3422CC0F68910BCF1070F4A
:100E38001060D3F890003BD146F6000C0124C0F6B0
:100E4800891CC0F30240BCFBF4F3072853603DD172
:100E580046F6000C0120C0F6891CBCFBF0F3C1F378
:100E68008200072893603FD146F6000C0120C0F6A7
:100E7800891CBCFBF0F3C1F342100728D36041D1B1
:100E880046F6000C0120C0F6891CC1F34231BCFBB8
:100E9800F0F30729136143D0234850F8211046F690
:100EA800000CC0F6891CBCFBF1F3536110BC704701
:100EB8001D4BC0F3024053F82C4046F6000CC0F618
:100EC800891CBCFBF4F307285360C1D0164B46F6C7
:100ED800000C53F82000C0F6891CBCFBF0F3C1F3EA
:100EE800820007289360BFD00F4B46F6000C53F8DA
:100EF8002000C0F6891CBCFBF0F3C1F342100728A0
:100F0800D360BDD0084B46F6000C53F82000C0F65D
:100F1800891CC1F34231BCFBF0F307291361BBD133
:100F28000121BCE7800E0020DC2B0100052803D836
:100F3800024B53F82000704700207047800E0020B5
:100F4800014B43F820107047800E0020704700BF07
:100F580048F20003C4F20303012098619A6C42F03E
:100F680080019964986C20F080029A64FFF72EBE85
:100F7800704700BF704700BF704700BF704700BF91
:100F8800704700BF704700BF704700BF704700BF81
:100F9800704700BF08B5024805F008FDFEE700BF2E
:100FA800382C010008B50748074905F017FD074A1E
:100FB8000748084B11681B680268074805F00EFDD2
:100FC800002008BD642C0100F82B0100680E0020E9
:100FD800680E00205C4900206C2C010008B5094807
:100FE80005F0E4FC4246116807484A69002105F00B
:100FF800F5FC40460368054998690AF005FD00209C
:1010080008BD00BF982C0100AC2C010064540100FD
:1010180070B590B040220B48694604F0C5FC4446C0
:1010280000286D462668D8BF4FF4E13004DD6846D5
:1010380000210A220AF0A0FFA060A3680020336004
:1010480010B070BDC02C010038B5324C2268A2F532
:101058004058A8F12008002120224046FFF7A6FBAF
:101068004546A8F11C002860286800211C22FFF7CB
:101078009DFB4246D2F804C0274B284D19682068CA
:101088004CF0010CC2F804C02B68254A091A1160FB
:101098001BB908E055F8043F23B198470028F9D058
:1010A800FFF778FF2068A0F540504FF4405106F054
:1010B800F9F906F0DDFB1B4841460C6804F0E8FC32
:1010C8000AF0FAFE606008F09DF806F06DFC05F085
:1010D800DDFC00F033F8144804F0DAFC28B10021F4
:1010E80010220AF049FF114B1860114804F0D0FC97
:1010F800014618B10F48802200F05EFC0E4805F04A
:1011080055FC4546286800F023FB07F071FC07F002
:101118006FFCFAE7680E0020680E0020000000202F
:10112800980E0020CC2C0100D42C01005400002083
:10113800E02C010000280020EC2C0100704700BFC3
:101148000020704770B5A2B0044680222C4902A83E
:10115800FFF79AFB266BE56AE16BA26B636B294884
:1011680000960195256C05F039FCA16A626A236A2C
:10117800254805F033FC2669E169A26963692348BB
:10118800009605F02BFC2668E168A2686368204891
:10119800009605F023FC15F0804F14BF5A227A22DE
:1011A80015F0005F14BF4323632305F0704C15F05E
:1011B800805F14BF562676261648BCF1000FB4BFD0
:1011C8004E216E21009605F009FC206C22AA00F041
:1011D8001F01114C02EB8103104A10F0800F14BF5D
:1011E8002146114610F0400F18BF22460C4C53F808
:1011F800803C0C48009405F0F1FB22B070BD00BFA4
:10120800F42C0100742D0100BC2D0100E02D01001B
:10121800102E0100402E0100542E0100502E010016
:1012280040360100582E010008B503480BF02CF891
:101238000020024B984708BD782E0100650C00205D
:1012480010B50446044805F0C9FB2046FFF77AFFAD
:10125800BDE81040E8E700BF8C2E010010B5044639
:10126800044805F0BBFB2046FFF76CFFBDE81040C3
:10127800DAE700BFA02E010010B50446044805F0C7
:10128800ADFB2046FFF75EFFBDE81040CCE700BF8E
:10129800B82E010010B50446044805F09FFB20460F
:1012A800FFF750FFBDE81040BEE700BFC42E0100A5
:1012B80010B50446044805F091FB2046FFF742FFAD
:1012C800BDE81040B0E700BFD02E010010B50446BD
:1012D800044805F083FB2046FFF734FFBDE81040C3
:1012E800A2E700BFE02E010010B50446044805F04F
:1012F80075FB2046FFF726FFBDE8104094E700BFC6
:10130800F42E01004FF0FF30704700BF014B186802
:10131800704700BF9C0E0020104B5A689AB1D8B194
:10132800136B9A420FD0012110F0010F0DD08842A3
:1013380001F1010C0ED01B6B0CF101019A4202D095
:101348001B6B9A42F3D1002070471B6B9A42FAD06C
:101358000221ECE718467047104670479C0E0020A3
:101368000B4A536883B11268934209D0002001E008
:10137800934206D01B6B0130002BF9D10020704737
:101388000020002AFAD070474FF0FF30704700BFA6
:101398009C0E002010B5054C23682BB11846D96A5D
:1013A800884723680122DA6110BD00BF9C0E002027
:1013B80008B5064B84461B680A4623B118466146A1
:1013C8005B6A984708BD4FF0FF3008BD9C0E0020AF
:1013D80008B5054B1B681BB11846996A884708BDB4
:1013E8004FF0FF3008BD00BF9C0E00200349044B9E
:1013F8000868002808BF1846704700BF9C0E0020E8
:101408001430010070B5084D06466C6844B1214699
:101418003046FFF743F828B1246B6B689C42F6D13D
:10142800002070BD204670BD9C0E002070B5154C84
:101438002368002B21D004F091FAA168054611B168
:10144800E068854206D0104804F022FBE5600146BA
:10145800A06098B125680B4E284600E0B168FFF7F8
:101468001DF850B12268106B85422060F6D10648FD
:101478002946BDE8704004F02BBD70BD01490D68D8
:10148800F5E700BF9C0E00201C30010038B505466A
:10149800144804F0FDFA18B11349FEF7FFFF90B1A4
:1014A800124C23687BB17DB91B6B1148236004F093
:1014B800EFFA58B10D4A1168FEF7F0FF30B921680C
:1014C800206988420AD038BD2361EDE721680848C1
:1014D80004F0FEFC216820698842F4D1054B012202
:1014E8001A6038BD24300100303001009C0E002005
:1014F8001C3001000C0F002038B50F4D04466968F8
:1015080051B10A4600E01A46136B9942FBD11463A5
:1015180000202163E06138BD08486C602C6004F04D
:10152800B7FA18B12968FEF7B9FF18B10348296856
:1015380004F0CEFC6968EBE79C0E00201C3001002B
:1015480030B587B001AC0A460546054920460BF080
:10155800EFFD2846214604F0BBFC07B030BD00BFB4
:101568003430010030B50C4683B0002855D001ADA9
:10157800102229460AF000FD019B207093F90020F3
:10158800002A48D1621C002B4AD01846294610224E
:101598000AF0F2FC019B607093F90000002838D132
:1015A800A21C002B3FD01846102229460AF0E4FC62
:1015B800019BA07093F90020002A28D1E21C002B7F
:1015C80034D01846294610220AF0D6FC019BE07058
:1015D80093F90000C8B9221D002B2AD01846102202
:1015E80029460AF0C9FC019B207193F9002052B9E1
:1015F800621D002B20D01846294610220AF0BCFC98
:10160800607103B030BD0133F2E70133E3E7013322
:10161800D4E70133C4E70133B4E70A4602F8010B03
:1016280000231370A21C00211170E21C0023137008
:10163800221D00211170621D00231370E1E700BF15
:1016480010B50C4604F024FA2146FFF78BFF2378E7
:1016580013F0010F01D0002010BD607894F802C08B
:10166800E27840EA0C010B432179134362790B437A
:101678001A430CBF0020012010BD00BF30B5024640
:10168800084B094889B0002A18BF03460D4668462A
:1016980019460BF04DFD684629466C46FFF7D0FF0A
:1016A80009B030BD38300100403001002DE9F04468
:1016B800234E82B033688246002B3BD074680025E5
:1016C8006F4605E0246B70681D4A844211D00135CD
:1016D80069462846FFF7D2FF0028F3D0062204F116
:1016E80010006946FFF7D0F8246B7068144A8442EA
:1016F800EDD1146815462146124805F06FF9336894
:10170800514618461A6A904700280F480CDA05F027
:1017180065F90020FFF7BAFE29688C42ECD14FF03A
:10172800FF3002B0BDE8F084054A02211068C161AB
:101738000020F6E7054805F039F94FF0FF30F0E7EB
:101748009C0E0020603001006C3001004C3001001C
:101758002DE9F04E574F002382B03B607B60044672
:10176800402006F0E7FD07F0F1F9204609F0F6FF02
:101778000028C0F28F807C68002C00F092804E48D0
:1017880004F086F98146412006F0D4FD21464B48F5
:1017980005F024F900256E46DFF818B149462046C1
:1017A800B9F1000F02D0FEF779FE00B3284669466A
:1017B800FFF764FF684642490622FFF705F901353D
:1017C80028BB246B79683F488C4232D005F0EEF88C
:1017D80021463A4805F002F9DFF8D8B049462046D4
:1017E800B9F1000FE2D0FEF759FE0028DED13648E5
:1017F8003C6005F0DBF828466946FFF73FFF68467E
:101808002F490622FFF7E0F801350028D9D004F166
:10181800100A2B4906225046FFF7D6F8E8B9694660
:1018280006225046FFF730F8246B796825488C4229
:10183800CCD1DBF80010002928D0244804F028F97E
:10184800F8B1DBF80010FEF729FED0B90A2005F040
:1018580089F9284602B0BDE8F08E0622694650464E
:10186800FFF7B2F80028DAD02146194805F0B6F893
:101878005146184805F0B2F81748694605F0AEF821
:10188800CDE73968114804F023FBDFE70F4804F07F
:101898001FFBDBE72046FFF735FD7C68002C7FF453
:1018A8006EAF0E4805F082F86FF03F0006F042FD7B
:1018B8002546CEE79C0E0020743001002C660100FE
:1018C8000C30010080300100843001001C30010020
:1018D80090300100BC300100DC3001004C300100C8
:1018E800014B02221A607047B00E0020704700BFFB
:1018F800014B5860704700BFB00E0020002910B49B
:101908002DDD01234A1E8B4202EA0304028812D00D
:101918002CB1022330F803C08B4262440BD003F190
:10192800010C30F8133030F81C40D2180CF10103C8
:1019380012198B42F3D191B201EB124C1FFA8CF3BE
:1019480003EB1C404FF6FE71421CC0F2000102EA94
:101958000100D0F1010038BF002010BC7047012001
:10196800FBE700BF002910B423DD01234A1E8B4288
:1019780002EA0304028812D02CB1022330F803C013
:101988008B4262440BD003F1010C30F8133030F86D
:101998001C40D2180CF1010312198B42F3D11FFA23
:1019A80082FC0CEB124290B200EB124188B210BCE0
:1019B80070470020FBE700BF10B491F90030222BDC
:1019C8002ED0013A002A12DD0B7883B1222B0ED0DB
:1019D80002F1FF3C1CF0010F1BD0BCF1000200F823
:1019E800013B04DD4B7813B10131222B11D10021C9
:1019F800017010BC70474B78611C002BF7D0222B6C
:101A0800F5D000F8013B6378013A002BEFD0222B88
:101A1800EDD0013A4C1C002A00F8013BEBDCE6E76C
:101A28000131013ACDE700BF08B520B1017830395E
:101A3800CBB2092B02D94FF60F7008BD0A2200213C
:101A48000AF09AFA82B2130243EA122080B208BD61
:101A580010B504F01DF8BDE81040E5E7094A108804
:101A68004FF6FF72010A41EA00239BB2934207D066
:101A78001805030D40F6FF7C634501D0122070471E
:101A88000E20704730000020020A42EA002C1FFA9C
:101A98008CF24FF6FF739A4209D040F6FF708242EB
:101AA80005D01305084604491A0D0BF041BB08463A
:101AB8000249FEF77FBC00BF0C3101000431010070
:101AC80030B5020642EA106500F47F4345EA032474
:101AD80000F47F0044EA102283B0C2F3072502F025
:101AE800FF04C2F307430846120E03490095019408
:101AF8000BF01EFB03B030BD103101000422FEF7CD
:101B0800C3BE00BF70B51B4E4FF6FF733488164630
:101B1800220A42EA0425ADB29D4204461BD00622A1
:101B2800FEF7B2FE2D050622A01D1349FEF7ACFEF6
:101B38002A0D15F5801F16D0B6B22D0F330A45EAC7
:101B4800022543EA06264FF0810C2682E581A4F897
:101B58000CC0122070BD0622FEF796FEA01D064995
:101B68000622FEF791FEB0B2010A41EA0026A681DC
:101B78000E2070BD30000020B80E0020FFF718BC02
:101B88002DE9F04E934D0D2984B004462861696112
:101B980033DD914E8389728830884FEA122C070A08
:101BA8001E0A47EA00204CEA022C46EA032640F6C1
:101BB800FF724FF6FF7380B21FFA8CFCB6B240F288
:101BC800E9579C4508BF9446984214BF03461346FC
:101BD800BE4215DDB6F5014F4AD00E3904F10E07A5
:101BE8001B051B0D40F6FF70834217D0824204BFCD
:101BF8004FEA0C52120D934210D004B0BDE8F08E9B
:101C0800A08A1B05060A46EA00271B0D40F6FF704E
:101C180016398342BEB204F11607E7D140F6060C26
:101C280066453AD048F23502964211D0B6F5006FB3
:101C3800E3D11B29E1D97888020A42EA002C1FFA6D
:101C48008CF28A4240F3D680644804F0C7FED4E799
:101C58001B2940F3B980F888020A42EA002C0FFADF
:101C68008CFEBEF1040F7DD05D4804F09FFEC4E7F2
:101C78001129C2DD0005000D9042BED0E789208AF7
:101C88003E0A46EA0722060A46EA00271205BEB2BD
:101C9800120D123904F11207A2E71B2940F39480B0
:101CA8003B881A0A42EA032001B20129A5D17888A3
:101CB800030A43EA00210FFA81FCBCF5006F9CD1AE
:101CC80097F804A0BAF1060F97D17A79042A94D12B
:101CD800A969DFF8009100298FD007F1180103AB3B
:101CE8000191184601990093FEF7CEFDD9F8180026
:101CF800039A07F1080B9042009B7FF47EAFF888A7
:101D0800020A42EA002E1FFA8EF2012A00F0D88059
:101D1800022A7FF472AFE9692E4C00293FF46DAFB7
:101D2800206A00283FF469AF042218460BF1060127
:101D3800FEF7AAFD626A039B9A427FF45EAF59469A
:101D48000622206AFEF7A0FD216A0622A06AFEF795
:101D58009BFDE16AA06AFFF72BFB00212162E1618C
:101D6800E1624AE73888020A42EA00210BB2012BF5
:101D78007FF47AAF7B88190A41EA032C0FFA8CFEAC
:101D8800BEF5006F7FF470AFB88840F2064290420B
:101D98007FF46AAF134807F11801FFF7AFFE2B6B0A
:101DA80007F1080423B907F10E010F48FFF7A6FE53
:101DB800214606220D48FEF767FD00206C680146A3
:101DC80002460346A04718E709481C2204F006FE0D
:101DD80013E700BFB00E002030000020483101009A
:101DE80030310100C80E0020E00E0020E40E002073
:101DF8001C3101003B7803F0F00140297FF4FDAE6F
:101E080003F00F03052B3FF7F8AE38460A21FFF71A
:101E180075FD00283CD0042203A807F11001FEF745
:101E280033FDAB69039A6BB1B3EB020E18BF4FF0E9
:101E3800010EB2F1FF3F0CBF00200EF00100002898
:101E48007FF4DBAEF888020A42EA002399048A0C80
:101E5800002A7FF4D2AE7B7A012B1DD0112B7FF4A0
:101E6800CCAE3B8BB7F816E0BA8A190A41EA0324CC
:101E7800100A4FEA1E2C4CEA0E2140EA0222A3B2B5
:101E880007F11C006C6889B292B2083BA047B4E61F
:101E98001F4804F08BFDB0E697F814C007F114034F
:101EA800BCF1050F7FF4A9AE93F801E0BEF1010F74
:101EB8007FF4A3AE07F11801164804F08FFD9CE6E5
:101EC8003246A11D2046FFF71DFE4FF4007CA7F8FF
:101ED80006C05246064607F10E05594607F112009C
:101EE800FEF7D2FC01982946FFF708FE524609F191
:101EF80008015846FEF7C8FC284609F11801FFF703
:101F0800FDFD204606F11C01FFF752FA75E600BFF9
:101F18005C3101006C3101002DE9F044294D82B09B
:101F2800EE6B294940F606023046FFF7EBFD4FF409
:101F380080723418062332524FF0080C4FF0040A0E
:101F48004FF4807604F108071A462371A4F802C0FA
:101F5800E68005F1080184F805A03846FEF794FCF0
:101F6800A96902AE46F8041D5246314604F10E0036
:101F7800FEF78AFC0023E375A374E3742375637585
:101F8800A375EB69A8692A6C83EA0001114201D0A4
:101F98006B6C83B16B62314607F110000422019328
:101FA800FEF772FCE86BC0F11C010919FFF700FA93
:101FB80002B0BDE8F084054804F0F8FCEB696B62F8
:101FC800E9E700BFB00E0020340000208C3101008A
:101FD80038B5044610B9054B986438BD034D002048
:101FE800A964FEF7BFFE2C65E86438BDB00E00207A
:101FF80038B5254803F04CFD044618B12349FEF7CF
:102008004DFAE8B9224D6B6D5C1C6C65FFF7C2F99F
:10201800AA6D1F4CD2F1010038BF0020FFF736FA35
:1020280041460868FFF742FBE86D30B1236E002097
:10203800E065DBB90422226038BD0223236038BD85
:1020480020461449FEF72AFA28B9114DFFF7A2F9DC
:1020580004232B6038BD20460F49FEF71FFA68B9E4
:1020680001200B4D6B6D9842CED8EFE70B4942F239
:102078001070FFF7ADFF0A49616038BD00212046A6
:102088000A4609F079FFECE7B8310100C4310100D4
:10209800B00E002030300100C8310100E9180000FE
:1020A800F518000010B50F4CE36903B910BD002006
:1020B800FEF758FE636E41F28831C21A8A42F5D99A
:1020C800A16E4A1C042AA26603DC6066BDE81040C3
:1020D80022E7054804F06AFC0020A066BDE810402D
:1020E80086E700BFB00E0020D03101002DE9F04492
:1020F80082B0089F019117F0010F044615469A46D1
:1021080003D007F11C030022C2540026334945239B
:1021180023706670CB6EBFB207F11C0290B29AB200
:102128004FEA122C4FEA102E4EEA002001334CEAF7
:10213800022ECB66A4F804E04FF0FF334FF0400EB8
:1021480011222372608062721831A4F806E004221A
:10215800668104F10C000837FEF796FB1FFA8AFA2D
:1021680001A90422ADB2BFB204F11000FEF78CFB46
:102178004FEA1A2C280A3B0A4CEA0A2A40EA0525A3
:1021880043EA0727A4F814A0E58227836683A21CE4
:102198002088638851880232C318508802325B183D
:1021A800518802321B18508802325B18518802325B
:1021B8001B18508802325B1851881B1892885B18CC
:1021C800D31898B200EB134C1FFA8CF202EB1C41A7
:1021D800C843608102B0BDE8F08400BFB00E0020A3
:1021E8002DE9F04E84B0934699460C9D0E46002981
:1021F80028D1344F344C384604F170010622FEF7DA
:10220800E3FB4FF0FF36844600282AD0D4F83CA0E0
:1022180039464FF400625046FFF774FC0AEB00079A
:10222800384631465A464B460095FFF75FFFE06B4C
:1022380005F11C033F1AD919FFF7BAF8002004B0BA
:10224800BDE8F08E1F4F204CB1F1FF3F18BF074685
:10225800384604F170010622FEF7B6FB84460028D2
:10226800D4D1D4F828A039464FF400625046CDF8AE
:102278000CC0E6612762FFF745FC0AEB00074B46F6
:10228800314638465A460095FFF730FFA26AE06BA0
:10229800B91A1C3109182A4607F11C00FEF7F4FA8E
:1022A800A36ADDF80CC0FF1A1C3560460126ED193B
:1022B800E562A666FEF756FD6066FFF72DFE30461E
:1022C800BDE700BF34000020B00E00202DE9F04E1D
:1022D800934D944C05F5E273DE1C04F19709002335
:1022E80029F01F02414626F01F07012602F5406C1F
:1022F80002F5C06E88B0E362A36523662362E361DA
:102308006362E263A76266650F68C5F8A0E1C5F875
:10231800A4C18146FFF73EF8FFF788F83846FFF773
:10232800C5F90028C0F2F78006FA09F240F2131B3B
:10233800C0F2000B02EA0B00B24600922646834622
:10234800FEF7E4FF062200F110017748FEF79CFA39
:1023580043461F68C4F800A0019703F0FFFAD5F8B8
:10236800C8170746884224D001980422011D6F48E7
:10237800FEF78AFA6E4803F08BFB09F09DFD706446
:102388006C4803F085FB09F097FD30646A4803F058
:102398007FFB09F091FD30636848FFF759FB684BF4
:1023A80058806848FFF754FB5D49654AC1F8C8770B
:1023B8001080B9F1090F09D9C4F860A0B9F1040F68
:1023C80035D8DFE809F06B2E34686100BBF1000FE7
:1023D80013D055485C490622FEF7F6FA0028EBD1DF
:1023E800FEF7BEFFB0F1FF3F7AD000287ED15748F4
:1023F80004F0DCFAFFF7FCFD1CE0009A12F4027FFF
:10240800DAD0216B002978D0B369002BE1D150488C
:1024180004F0CCFAFEF7BEFF4FF0FF3008B0BDE87D
:10242800F08E4C4F0023A3613B6000F0A9F8002018
:10243800C5F8CC07FEF7CCFF04F0B2FB074600282E
:1024480061D1FFF72FFEA16C384631B1FEF78AFC47
:10245800F16C336D421A9A4212D82368032B07D0C5
:10246800042BD9D0022BE5D12E4FC7F858A067E727
:10247800D5F8CC17C9B9FEF78DFFD5F8CC07CDE74D
:10248800B06CB7648047E8E7334800270760A76166
:1024980000F018FECBE700F09DF9C8E72E4A0021AE
:1024A8001160A16100F044FDC1E70A462B4804F021
:1024B80095FA1B4903ACD1F8CC27204628490AF0E5
:1024C80037FE2146274803F003FD274B24491A68A5
:1024D80020460AF02DFE2146244803F0F9FCCAE7FD
:1024E800234804F063FAFEF755FF95E701462148B3
:1024F80004F074FAFFF77CFD9CE71F4804F056FAD5
:10250800FEF748FF88E7FEF745FF1C4804F04EFA3F
:102518004FF0FF3082E7FEF73DFF4FF0FF307DE7D9
:10252800A81F0020B00E0020B80E0020C80E002002
:10253800FC31010008320100103201001C32010098
:102548003000002024320100FC3001008C320100F0
:102558004C320100802800203C290020D4320100A0
:10256800F8320100FC320100540000200833010059
:102578006C320100AC3201002C320100CC32010077
:102588002DE9F047264DDFF8B4902E682548741CD5
:1025980021462C6004F022FAD9F80060224948F25A
:1025A80035023046FFF7AEFA204F4FF4807C3418DE
:1025B80026F800C006254FF0040A4FF008024FF431
:1025C80040706280E08039462A46257184F805A06B
:1025D80004F10800FEF758F95246154904F10E00B7
:1025E800FEF752F92A46394604F11200FEF74CF973
:1025F8004FF0FF33E37623766376A376D9F80000AD
:10260800C0F11C010919FFF7B9FA41F288300949EC
:10261800FFF7DEFC0848BDE8F047FFF769B900BFDF
:10262800802800201433010034000020B80E002058
:10263800C80E00207D26000049260000EC0E002070
:10264800094810B504F0CAF9084803F021FA18B18E
:1026580090F900306E2B03D0BDE8104000F0BAB8F6
:1026680003480322026010BD2833010038330100FB
:10267800B00E0020094810B50368042B07DC41F2AE
:1026880088300749FFF7A4FCBDE8104078E7054803
:1026980004F08CF9BDE81040FFF7AABC80280020A0
:1026A8007D26000044330100F0B53E4883B007683A
:1026B800FFF7D4F93C4C1C3021683D184B1E042B05
:1026C8006DD8DFE803F034271A0327004FF4A06120
:1026D8004FF400733952281D6B803449FDF76AFEA8
:1026E8001725D4F89030D4F88810D4F88C203048C6
:1026F8000095FFF775FD03B0F0BD4FF4A0624FF4ED
:10270800407E3A522B49281DA5F802E0FDF752FEFB
:102718001325E6E7B4F884104FF4806C27F800C05E
:10272800080A40EA01239AB26A800425D9E74FF4DF
:10273800807EAE1C27F800E01F493046FDF73AFEC0
:102748001D48FDF731FF411C76181C4F1C493046C7
:10275800FDF730FE1B49B01DFDF72CFE386844F626
:10276800D35CC1F2620CACFB00130E369A09164911
:1027780030460AF0DDFC3146144804F02FF93046A3
:10278800FDF712FF421CBB88B618002730463A46B0
:102798000F4900970AF0CCFC3618751BA1E70025F5
:1027A8009FE700BFEC0E002084280020B43301000E
:1027B800E40E0020A4330100882800203C000020FB
:1027C8006C330100DC3301007433010078330100FD
:1027D80094330100F0B5724883B003F059F900282A
:1027E80000F0D38000210A2209F02CFC6D4DA8804E
:1027F8006D4803F04DF9002800F0BA800A22002144
:1028080009F020FC0246B2F57A7F2860C0F0B58056
:102818006648A98804F0E2F8654F6648664C036884
:1028280097F90060C4F88830002E40F08180634931
:1028380004F194000A686249C2F3074CC2F3072303
:10284800170ED2B2CDF800C001970AF071FC04F15E
:102858009401201D8022FDF7B5FD5A48211D84F8FA
:10286800836004F0BBF8FEF7C1FD534E534F014699
:10287800554804F0B3F806F1880154483A4604F084
:10288800ADF853490B681BB152480368002B63D15C
:102898000A20514E04F066F95049514804F09EF858
:1028A800318841B149024F4804F098F833884E49BD
:1028B800580209F0A9F80A2004F054F94B4A4C4888
:1028C800116804F08BF84B4804F070F8EE684A4938
:1028D8002868AE60FFF77CFB00264848FFF708F839
:1028E800452301223046C4F88C302260C4F8A46025
:1028F800FEF738FA4AF6AB2CCAF6AA2CACFB003124
:10290800CB0A03EB4302A0EB822101F58063062288
:1029180031463B48C4F89030C4F88460FDF746FF60
:102928004FF4007CA5F810C003B0BDE8F040BBE64A
:1029380038463A21FDF7FEFD064640B3384609F011
:10294800BBFA711CC4F888008022201D0026FDF700
:1029580039FD84F8836086E73A68D6F8880003EA88
:10296800020E03409E4593D0264804F037F88FE7BF
:102978002A68B2F57A7FBFF44BAF1146224804F0BB
:102988002DF84FF47A722A6042E7064D30E739464F
:10299800201D8022FDF716FD84F8836063E700BFE1
:1029A800C83301003C000020D83301001C3401006A
:1029B80000280020E00E002084280020C80E0020F7
:1029C80044340100603401008C340100A03401005B
:1029D800F40E0020F00E0020FC270020882800209C
:1029E800F034010000350100403601005400002099
:1029F8001835010030350100152A0000612A000051
:102A0800E40E0020D0340100E43301000D4A10B573
:102A18000D4CD2F8A400A168431C8B42C2F8A43024
:102A280009DC0A4803F0C2FF20680949FFF7D0FA19
:102A3800BDE8104038E6074803F0B8FFBDE810408D
:102A4800FFF7D6BA842800203C0000203C3501005E
:102A5800152A0000443301002DE9F046A04C064633
:102A6800D4F8900083B08842154602D003B0BDE880
:102A7800F0862268012A03D0D4F88C10A942F5D137
:102A8800012BF3D9374637F8021BA3F1020A080ACB
:102A980040EA012C1FFA8CF1052900F0E68006298E
:102AA80079D00329E2D1BAF1010FDFD973888C4EAE
:102AB800190A41EA032083B2C4F88430002B00F0DD
:102AC80038814CF6CD41581ECCF6CC41A1FB00C153
:102AD800C90801EB810CB0EB4C0F00F03E8143F2CA
:102AE800FD3CCCF6A61CACFB030140F28A20490A47
:102AF80000FB1133002B00F03E81012A00F04081D9
:102B0800012A14BF00230123052A14BF1A4643F0E3
:102B18000102002A00F0CD80D4F884300020022180
:102B2800012B2160C4F88C50C4F8AC00C4F8B00084
:102B3800C4F8A80040F016816A4DC4F8B0300A23E2
:102B480069492868AB60FFF743FAD4F88420B5F8E0
:102B580010C0D4F8AC30501E00FB0C346349AAF105
:102B6800020A0A68B91CA0185246FDF78DFE604B90
:102B780054441868844288BF1C60FFF795FDB5F877
:102B880010C0E245BFF472AF5A4803F00FFF5A482D
:102B9800032101606AE738460193FDF705FD431CF0
:102BA800FA185648394603F019FF0522BAF1080FFA
:102BB800C4F88C502260019B53D90B3B50493846CE
:102BC80003F00105FDF76AFCDFF8189101460028BB
:102BD80077D00126BC19BAF1090F42D9DDB14849AD
:102BE8002046FDF75BFC0146002800F09380013683
:102BF80006F1080E0134F2450DD832E04049284666
:102C0800FDF74CFC01360146E8B106F109026C1CDF
:102C18000136924525D93A492046FDF73FFC651C07
:102C280001460028EAD104F108070A22384609F0CB
:102C3800A3F91FFA80FC394662463248A9F810C049
:102C480003F0CCFEDAE709340A22204609F094F9A9
:102C580083B221461A462B48A9F8103003F0BEFE6D
:102C6800D3E703B0BDE8F0461EE57388B91C1A0A1D
:102C780042EA032E1FFA8EF2234803F0AFFE718852
:102C8800080A40EA012C1FFA8CF35A1E012A08D8B8
:102C98001E4803F08BFEFEF77DFB174804210160F8
:102CA800E4E61B4803F082FE03B0BDE8F046FFF7F8
:102CB8009FB9D4F88430D4F8B02093423FF4D6AE0C
:102CC8003AE70A360A22304609F056F984B2314604
:102CD80022460C48A9F8104003F080FE79E700BFAF
:102CE800842800203C000020152A00005400002001
:102CF80074270020FC350100B00E0020403501008B
:102D0800543501005C350100043601001C36010011
:102D18003036010009370A22384609F02DF91FFA22
:102D280080FC394662461948A9F810C003F056FEDF
:102D38005DE71749D6F8A800D6F8AC30B1F810E02E
:102D4800421C03EB0E43C6F8A820190D1148C6F81B
:102D5800AC3003F043FE3268CFE6232003F002FFD5
:102D68003268CAE619460C4803F038FE03B0BDE8DD
:102D7800F046FFF73DB9094803F018FE3268BCE693
:102D8800074803F02BFE2268BAE600BF5C35010055
:102D98003C00002074350100BC3501008C35010071
:102DA8009035010000B583B00146042201A8FDF763
:102DB8006BFD019803B000BD2DE9F00E4FF0630CD8
:102DC800044604F801CB661C751C6F1C07F1010A48
:102DD8000AF1010987B009F1010B01970BF101070D
:102DE800049701370397013705976FF07D07477000
:102DF8004FF05307677086F801C04FF0350C85F81F
:102E080001C0019C4FF0010C84F801C04FF002078B
:102E18008AF80110392189F801108BF80170049D96
:102E280040216F70039C6170059F07EB0C0194466D
:102E38003AB3120642EA1C664F1C0CF47F4546EA78
:102E480005297E1C751C6C1C03940CF47F0B059CD7
:102E580049EA1B224FF0360A84F801A04FEA226C97
:102E68004FEA22494FEA222B4FF0040A81F801A0C9
:102E780087F801C086F8019085F801B0039F7A7041
:102E8800B91C0BB30A461D06322402F8014B45EA69
:102E9800136903F47F4649EA062A03F47F07561CA0
:102EA8004AEA1723751C6C1C4FEA236A1F144FEA61
:102EB800232C4FF0040981F8019082F801A0A11C8D
:102EC800777085F801C063700A46372502F8015B00
:102ED800541C631C1B1A4FF0000C4FF0FF35402B9D
:102EE80081F801C055701EDC0B1D181A034681F8C5
:102EF80003C0C0F14100591C402B00F0010012DC56
:102F080038B10B460131481E402882F803C02246DA
:102F180009DC501C4B1C82F803C0591C421C402B76
:102F280080F803C0F5DD184607B0BDE8F00E70471D
:102F38002DE9F04E5B4EDFF888B1706886B0421C10
:102F48000025114658483560726003F047FDDBF8EC
:102F58000040294640F2EE522046FDF727FC53492F
:102F68004FF400622046FEF7CDFD241804F11C0939
:102F780001274FF0060A277789F8017089F802A01F
:102F880089F8035028460297CDF80CA0FDF7EAFE11
:102F980044F6D353C1F26203A3FB001CCCF38F1297
:102FA8000DF1180A110A4AF8045D41EA0227A9F846
:102FB80008705146042204F12800FDF765FC5146CB
:102FC800042204F12C000595FDF75EFC514604220D
:102FD80004F130000595FDF757FC5146042204F131
:102FE8003400334F0595FDF74FFCDDF80CA039464A
:102FF800524604F13800FDF747FC04F188008022AE
:103008002C49FEF7D9FC029B2A46194604F5847020
:103018002B46FFF7D1FE8246F878BA78030479790F
:1030280043EA026097F804C0084340EA0C212846A6
:10303800B160FDF797FEB3683146C3181A0642EA35
:10304800136503F47F4003F47F0C45EA002242EA4B
:103058001C2541F8085F042204F12000FDF714FC48
:10306800DBF80000432244230AF1EC05C0EB090910
:103078004FF0FF3120460095FFF738F80E4940F62B
:10308800B830FEF7A5FFA94403230C483360FEF7C8
:103098002FFCDBF800004946FEF770FD06B0BDE8DE
:1030A800F08E00BF3829002044360100340000208B
:1030B800B80E002000280020D1300000A532000002
:1030C800EC0E002034E700BF094810B54368042B14
:1030D80007DC41F288300749FEF77AFFBDE8104067
:1030E80026E7054803F062FCBDE81040FEF780BF04
:1030F80038290020D1300000443301002DE9F04E7A
:10310800037882B0FF2B0446894600F509763FD044
:103118006C31DFF874B1019100275A1E6578422A94
:103128004BD8DFE802F0444A3E4A4A384A4A4A4AFB
:103138004A224A4A2E4A784A4A4A4A4A4A4A4A4AFD
:103148004A4A4A4A4A4A4A4A4A4A4A4A4A4A4A4AD7
:103158004A4A4A4A4A4A4A4A724A2E4F4A4A4A2ED2
:103168002E4A4A4A4A4A4A2E55001F2DDCBF2A4693
:10317800AA4666DC3C48A11CFDF786FB3A4B03F8DF
:103188000A7002356419A64202D92378FF2BC4D1EC
:1031980002B0BDE8F08EA11C04223448FDF774FB90
:1031A800EFE7A11C04223248FDF76EFBE9E7A11CFA
:1031B80004223048FDF768FBE3E719462E4803F080
:1031C8000DFCDEE7A11C04222C48FDF75DFBD8E7C7
:1031D8007F2D2CDC2A1E18BF0122AA4699F96CC043
:1031E800BCF1000F14BF002102F001010029C8D072
:1031F800234803F0F3FB0198A11C5246FDF744FB5A
:103208000AEB090383F86C70BBE7A11C04221D4874
:10321800FDF73AFBB5E73F2DDCBF2A46AA4619DC85
:103228001948A11CFDF730FB0BF80A70A9E72A46DC
:1032380016481749802303F0D1FB4FF07F0A01227B
:10324800CCE72A4611481349202303F0C7FB1F2265
:1032580092468FE72A460D480F49402303F0BEFBEC
:103268003F229246DCE700BF9C27002078270020F9
:10327800F40E0020F00E0020E83601004829002056
:10328800B836010044290020BC2700205836010028
:10329800A8360100903601009C3601002DE9F04E59
:1032A800AB4E0D461446D6F800C011462A46443D9A
:1032B80018BF012586B00746432C0CBF2C4645F0A5
:1032C8000104A448CDF800C09A4603F087FB3CB13E
:1032D8004FF0FF31A04803F081FB06B0BDE8F08E47
:1032E800BAF1EB0F98BF6FF00101F3D93B78591E83
:1032F800C8B2591F18BF0121012894BF002201F04C
:10330800010222B1062B18BF6FF00201E2D17B78CF
:10331800012B18BF6FF00301DCD197F802E0BEF172
:10332800060F18BF6FF00401D4D107F1040B5846FB
:10333800FFF738FDB268864C904202D06FF0050165
:10334800C8E70021844803F049FB25685346432118
:1033580044228248009503F041FB2368042B07D0E0
:10336800062BBAD0032B69D07D4803F01FFBB4E7C6
:103378007C4807F1EC0403F031FB2046FFF712FD0F
:1033880048F2632CC6F2533C6045A6D197F8F0305A
:1033980007F1F005FF2BA0D0352B2B4607D0597825
:1033A800881C1B181A78FF2A97D0352AF7D193F86A
:1033B80002E0BEF1050F90D12046FFF7F3FC48F27A
:1033C8006323C6F25333984200F0FD8007F11001E1
:1033D8000422654807F11404FDF756FA042204A8EC
:1033E8002146FDF751FA049A002A40F0E6805F482A
:1033F8006C37046806225E48A11DFDF745FA384679
:10340800FDF7D2F8002840F0D1805A4C59495A4863
:1034180003F0E4FA94F9001019B15848554902F03C
:1034280057FD0622326056484F4903F0D7FA5548EF
:1034380002F02EFB544B03221A604EE707F16C0191
:10344800524803F0CBFA0425514803F0C7FA07F1B4
:10345800EC002560FFF7A6FC48F26329C6F2533951
:1034680048456ED0DFF840A14A4941F28830FEF75E
:10347800AFFD494803F0B2FADAF8004000212046CF
:1034880040F2EE52FDF792F9204644494FF40062AB
:10349800FEF738FB241804F11C05002101224FF027
:1034A8000609E9706A70227785F802900846039148
:1034B800FDF758FC44F6D353C1F26203A3FB001C8A
:1034C800CCF38F12039B100A40EA022C06A9A5F838
:1034D80008C041F8083D042204F13400FDF7D4F98E
:1034E8004A4604F138002E49FDF7CEF95946042220
:1034F80004F12000FDF7C8F907F11001042205A81E
:10350800FDF7C2F93269059B032104F58470FFF7C2
:1035180053FCDAF8001000F1EC06681A851943220A
:10352800204644234FF0FF310096FEF7DFFD294681
:103538001C4803F053FADAF800002946FEF71EFB90
:10354800CBE607F1F0003946FFF7D8FD8AE700BF60
:103558003829002014370100543701007038010061
:10356800583801000C380100C80E0020C00E002099
:10357800E40E00200028002024380100E02C01007F
:103588003438010038330100B00E002068370100DC
:1035980090370100D1300000B4370100340000201A
:1035A800B80E0020E0370100EC0E0020084C394628
:1035B80020468022FEF700FA28E721460422054823
:1035C800FDF762F913E728463946FFF797FDFDE650
:1035D80000280020E00E002008B50320FDF7A6FC17
:1035E80043469A68996800EBC2000B01B0FBF3F000
:1035F80008BD00BF064B013810B553F820402046DF
:10360800FFF7EAFF01462046BDE8104000F078B811
:10361800B43801000120EDE7024B013853F82000CF
:1036280000F098B8B43801000120F5E708B5044B5C
:10363800013853F8200000F085F840B208BD00BFFB
:10364800B43801000120F1E7034A0139034652F872
:103658002100194600F06EB8B43801000121F3E7E3
:103668000A2870B5044609D0094B013953F821508E
:1036780028462146BDE8704000F05CB8044A481E60
:1036880052F820500D21284600F054F8F0E700BF0A
:10369800B43801000121E3E738B503780D4643B19A
:1036A800044658B22946FFF7DBFF14F8013F002B08
:1036B800F7D138BD0121EFE708B54FF08040FFF79B
:1036C8008BFF01464FF0804000F002F8002008BD53
:1036D80000226FF07C0C0271032380F80CC010B438
:1036E8000270C1F307240271C9B20722037303747D
:1036F800027280F80CC001700471037310BC70472B
:10370800002210B46FF07C0402710323047302706A
:10371800027107220373C1F3072C0374C9B2027242
:103728006FF07F020273017080F804C0037310BC4D
:10373800704700BF037D13F0200FFBD0C9B20170A2
:10374800704700BF037D13F0010FFBD0007840B233
:10375800704700BF007D00F00100704730B5434658
:103768001C6885B0E2681C481C4903F037F9A26858
:1037780019481B4903F032F922691748194903F01F
:103788002DF900221448184903F028F962691248F3
:10379800164903F023F901ADA2690F48144903F053
:1037A8001DF914492846FCF705FE284602F070F971
:1037B800114A2946002818BF0246104803F00EF99E
:1037C800211D0F4803F00AF921680E4803F006F995
:1037D800002005B030BD00BFC4380100D438010056
:1037E800E0380100E8380100F43801000039010030
:1037F8000C3901003830010014390100203901006A
:103808002C3901004039010008B503460846114625
:10381800984708BD012A70B5144619DD586810226A
:1038280000211D1D08F0A8FB064601460B4803F0C1
:10383800D5F8611E2A463046FFF7E6FF04460146E2
:10384800003C18BF0124064803F0C8F8204670BDA4
:10385800012402F0DBFD204670BD00BF7C39010069
:10386800A4390100704700BF021E18BF012280283A
:103878000CBF002202F0010210B552B91C6E0648B6
:10388800214603F0ABF80F2004F054FD43461868B6
:10389800A047012010BD00BF643A01002DE9F04E99
:1038A800B0F1000C18BF4FF0010C84B080280CBF99
:1038B80000200CF001000C461546009300287ED12C
:1038C80093F82230009A042B166800F084800026B2
:1038D8000196022C77DDA868FCF766FE0326A4F1A2
:1038E800030A471CB4420AF0010A1ADDBAF1000FB4
:1038F80007D0E868FCF758FE0426C1194F1CB442EB
:103908000FDD55F82600FCF74FFE0136C31955F8B0
:1039180026005F1CFCF748FE0136C7190137B44280
:10392800EFDC384603F07CFA14F0010F4FF002097F
:103938004FF0000A4FF0200B064620D1A968FCF78B
:1039480039FD4FF00309A868FCF72EFE4C4527DD2A
:1039580006F800B000F1010A043510E006F80AB0D4
:10396800B968FCF727FDB868FCF71EFE00EB050CEC
:1039780009F1010906F80CB00CF1010A3D1DA9680E
:1039880006EB0A00FCF716FDA868FCF70DFE82445A
:103998002F1D09F101090AF1010570194C45DDDCFB
:1039A8000098046E1248214603F018F80F2004F01E
:1039B800C1FC42461068019933460E4AA0470120CF
:1039C80004B0BDE8F08E0C4802F062F8094E0028F9
:1039D80018BF0646E4E70121304603AA02AB04F00B
:1039E80057F9029900293FF472AF019671E700BFB9
:1039F800AC3A010040360100A03A010084B02DE93C
:103A0800F04E82B00DF1280C8CE80F009DF83D10A7
:103A18009DF83CB00D9B064608460193109DDDF8C5
:103A280044A00E9C0B9FDDF8309004F0A9F8BBF180
:103A3800000F26D1A64201465DD0394802F0CEFFDC
:103A4800A14506D049462046019A4FF4803304F038
:103A5800B1F9019B3348E2182A6002F0A7FF314808
:103A680002F0A4FF304821462A6802F0B7FFBAF1F5
:103A7800000F2ED0072004F05DFCA7422BD80020B1
:103A880008E0BBF1010F0AD02848594602F0A6FF0A
:103A98006FF0020002B0BDE8F04E04B07047014676
:103AA800234802F09BFF20464A464FF4000101AB31
:103AB80008F0B0F918BB019960182860194802F09D
:103AC80075FF194821462A6802F088FFBAF1000FED
:103AD800D0D1A742D3D92A68B242D0D931463A4682
:103AE800144802F07BFF144821462A6802F076FF4A
:103AF8006FF00100CEE7114802F070FFA9E7104807
:103B080002F054FFBAF1000F02D14FF0FF30C1E7C5
:103B18006FF0050004F00EFC4FF0FF30BAE700BF6D
:103B2800083B01001C3B0100B43B0100903B010035
:103B3800203B0100E03B0100103C0100F83A010085
:103B48003C3B01002DE9F04EAD4C002182B01746F8
:103B580081468C2220469A46FCF728FEA94804F0A4
:103B68003DF9012FC4F8840040F3E6800021DAF81B
:103B78000400102208F000FA05460146A24802F0A7
:103B88002DFF012004F0D6FB284604F029F84FF059
:103B9800000B0646C4F854B0C4F850B0054604F00B
:103BA80061F8012818D0D9F80010984802F016FFDB
:103BB8006FF06B0004F0BEFB5D46626D904E002A0C
:103BC80054D0284604F04EF80128834653D0904834
:103BD80002F0ECFE012097E08E48314602F0FEFE2E
:103BE800336841F65612190641EA136103F47F401F
:103BF80041EA002C03F47F0B4CEA1B20C2F2057249
:103C08007F499042D1F884B040F0B180022004F09E
:103C180091FB304604F0FEF8002800F0DF80032016
:103C280004F088FB304604F03DF9BBF1000F0BD0DF
:103C3800794802F0BBFE304604F00EF9002800F087
:103C4800D680764802F0B2FE042004F073FB717F40
:103C580002295CD0724802F0C1FE6FF0030004F044
:103C680069FB0025626D664E002AAAD16D4802F0F4
:103C78009DFE012048E0A97F86F85D10E87F86F860
:103C88005C00287F86F85E00EA682B694FEA0269C3
:103C980049EA126E02F47F4C4EEA0C2902F47F02C4
:103CA8004FEA036C4CEA136E49EA122203F47F4987
:103CB8004EEA092C03F47F0E4CEA1E234032B3650A
:103CC800736C5219F264002B00F08380B3690229E7
:103CD80014BF002201224FEA036949EA136E03F474
:103CE8007F494EEA092C03F47F0E4CEA1E2304296F
:103CF80014BF114642F001013366002923D1012087
:103D0800C4F88800A564002002B0BDE8F08E052044
:103D180004F010FBB37F022B4AD0042B30D0012BC8
:103D280046D0D9F80010404802F058FE6FF0040061
:103D380004F000FB002540E73C4B3D481D68294640
:103D480002F04CFE1DE70528D9D13846324606F167
:103D580064075146683602230097019604F0E4F997
:103D68000028CCD0334802F021FE5846CCE7324830
:103D780002F01CFE4FF0FF3004F0DCFA002571E77A
:103D88002E4A30460021131D03F082FF314640229F
:103D98002B48FCF7C7FD062026600126666404F060
:103DA800C9FA626D2748216D134602F017FE04E731
:103DB800F36806F14002190641EA136103F47F40F3
:103DC80041EA002C03F47F0E4CEA1E23226563654A
:103DD800DCE71D4802F0EAFD584695E71B4802F06B
:103DE800E5FD6FF0010004F0A5FA00253AE7184850
:103DF80002F0F4FD6FF0020004F09CFA002531E7B0
:103E08004C2900203C3C0100783C0100A43D010005
:103E1800E83D0100A43C0100043D01001C3B0100F9
:103E2800303D0100C83D0100503D01005400002014
:103E3800443C0100303E0100D83C01009C29002090
:103E480050290020743D01000C3E0100EC3C0100AB
:103E5800203D01002DE9F044044686B058680D461F
:103E68001746404906221E4602F0DCFA331D002898
:103E780032D0D0F80CA0BAF1010F6BD03A4DD5F87A
:103E880088309A4525DD4AEA030095F85E20374BCD
:103E9800BAF1200FC5F8880053F8224024D007DC77
:103EA800BAF1020F2CD0BAF1100F47D0002417E056
:103EB800BAF1400F36D0BAF1800FF7D1FDF740F9CB
:103EC800FFF7D0FC5046394632462B46A04700241F
:103ED80006E0274802F082FD204602F097FA012406
:103EE800204606B0BDE8F0845046394632462B4697
:103EF800A04704460028F3D01E4802F06FFDEFE704
:103F080005F1480CEE46583595E803008EE80300A5
:103F180005AC9CE80F00029400240394FFF76EFDA3
:103F28000446DDE75046394632462B46A04704464C
:103F38000028D5D0104802F051FDD1E75046394647
:103F480032462B46A04704460028C9D00B4802F049
:103F580045FDC5E7204629467A1EFFF7F3FD0446CE
:103F6800BEE700BF580000204C290020183A010085
:103F7800583E0100A83E0100C83E0100843E0100F1
:103F88002DE9F04E144690B00022012C0F920746FE
:103F98008A461D4612DD58680EA9102207F0ECFF6C
:103FA8000E9B93F90030181E18BF01203A2B0CBF46
:103FB800002000F0010008B1232B6AD13846514691
:103FC80022462B46FFF7BEFD18B1012010B0BDE810
:103FD800F08EFDF7B5F8DFF86C916A4609F15803E1
:103FE800834693E8030082E8030009F1480C0FAE0A
:103FF8009CE80F00029601260396FFF7FFFC0028B5
:104008004EDB99F85D004F4B012821D0082005931D
:1040180004F090F9059B4C4A93F85E0052F8206032
:10402800002E51D00593FFF71DFC059B21462A461B
:104038000020B0476FF0080004F07CF9434802F014
:10404800B5FC3846514622462B460CF087FEBCE7A5
:10405800BBF1000F01D0FDF771F83D4801F018FDE4
:1040680028B13C49FCF71AFA064600284FD0D9F87F
:104078006020601E130643EA126E02F47F414EEA86
:10408800012302F47F0243EA122C291DE047002095
:104098009CE73846514622462B46FFF7DBFE95E75C
:1040A800B0F1FF3F47D010F1020F23D010F1030FFA
:1040B800A7D1BBF1000F01D0FDF740F86FF0060063
:1040C80004F038F9012081E7BBF1000F04D0FDF7B7
:1040D80035F8059991F85E0003F026FD99F85E2001
:1040E80001461D4802F07AFC6FF0070004F022F93F
:1040F80001206BE7D9F84410B1B199F822E0BEF17C
:10410800040F7FF47EAF154802F050FC79E706AC47
:10411800D9F854201249204609F00AF821461148D6
:1041280001F0D6FE304651E70F4802F03FFC6FF031
:10413800700004F0FFF83846514622462B460CF032
:104148000DFE5EE74C290020183A0100A83F010047
:104158006C3F010030300100783F0100E83E01006B
:10416800F8320100FC320100243F010030B50D4C4B
:104178000D4D8646281B801000EB400505EB051CFD
:104188000CEB0C2583B08C4605EB0545009201939A
:1041980000EB850172462046634602F0DDF903B064
:1041A80030BD00BFD48B0100408E0100C3B203F0C4
:1041B8006002402A06D003F07F033F2B08BF40F07F
:1041C8004000704720F04000704700BF037863B19B
:1041D800002259B210F8013F5218002BF9D1C2F34E
:1041E8008110821802F03F0070471846704700BFE0
:1041F800024B00219A6819605A607047D82900203C
:10420800034B1A681AB9596801F8010B59607047CD
:10421800D82900200348002208B5C26003699847DE
:1042280008BD00BFD8290020034BD8681A68596810
:104238005861D9619A617047D8290020034B5869A1
:104248009A69D969D86059601A607047D8290020DE
:1042580010B5114C0346E2689AB1C1B201F0600092
:104268004028226A08BF23F0400305D001F07F01EF
:104278003F2908BF43F04003184690470023E360F6
:1042880010BD94F924C0844502D0216A884710BD26
:104298000122E26010BD00BFD829002070B5124D80
:1042A800AC6A002C1CDD013C95F92C0004F00106D9
:1042B80002F058FC002C14DD36B1013C95F92C00B5
:1042C80002F050FC002C0DDD013C95F92C0002F0A9
:1042D80049FC013C95F92C0002F044FC002CF3DC6D
:1042E80070BD70BD70BD00BFD829002010B5044650
:1042F800FFF7D4FF237833B158B202F033FC14F837
:10430800013F002BF8D110BD6C4B00211A6B30B463
:1043180099620D2403F1470583F82C10674983F847
:104328002D402324AA4208BF03F1460201F1340CB0
:1043380008BF1A63CCEB0202002A83F8244066DD2A
:104348004FF07E0C013A81F84CC000F09C8021258A
:10435800013A81F84D5000F08F8091F93640203CA9
:1043680004F0FF05013A4FF020048D6281F84E40B9
:1043780000F08D8091F837105FFA81FC0CF0600531
:10438800402D08BF0CF0BF0106D00CF07F0CBCF12B
:104398003F0F08BF41F0400183F82C104021013A3B
:1043A80083F84F10454C79D094F838102D252039D2
:1043B800C9B2013A84F8505084F82D1060D094F8AE
:1043C80039504FF0230C013A84F8245084F851C036
:1043D8006BD04FF04E0C013A84F852C068D03125AA
:1043E800013A84F8535066D0012A84F854C059D051
:1043F8007E2222254FF0200C84F8555084F858204E
:1044080084F856C084F857201125302402E00D2185
:104418000425232400F1200C83F84940EA1883F886
:104428004AC0002001244FF0590C83F8484083F813
:104438004BC082F8480093F84920002A2BD0204C22
:104448004FFA82FC14F8012F6044002AF8D1C0F317
:10445800811C0CEB000202F03F0000F1200C681CEC
:10446800C218EB18174883F848C0002382F849306F
:1044780082F8481030BC39E70D2106252524C9E704
:1044880009252824C6E70D2105252424C2E70D2186
:1044980007252624BEE74FF0200CE0E70D2108256C
:1044A8002724B7E70D252C24B4E70A252924B1E7EA
:1044B8000B252A24AEE70C252B24ABE7D8290020AE
:1044C800212A0020202A0020154A203023230021F9
:1044D8004FF0010C82F84A004E2082F84B0082F817
:1044E80048C082F8493082F84C1002F149004FFA6E
:1044F80083FC10F8013F6144002BF8D1C1F381100F
:1045080000EB010C0CF03F0000F1200C92F82D108C
:10451800044882F84E3082F84CC082F84D10E5E627
:10452800D8290020202A0020154A203023230021E2
:104538004FF0010C82F84A00592082F84B0082F8AB
:1045480048C082F8493082F84C1002F149004FFA0D
:1045580083FC10F8013F6144002BF8D1C1F38110AE
:1045680000EB010C0CF03F0000F1200C92F82D102C
:10457800044882F84E3082F84CC082F84D10B5E6F7
:10458800D8290020202A00202DE9F044ADF5866DB9
:104598000DF5846A0AF10C0A0223074651460DF507
:1045A8008460CDF8243405F05BFB0446002833D141
:1045B80005466E4603E0ED18E418FCF765F94FF47C
:1045C80080615246304605F08DF9E119031E1A46FE
:1045D80008463146EFDC2C46504604F005FF002023
:1045E800134904F04FFF384621460CF0B5FB0DF592
:1045F800806429462A460F4802F0F0F92A460E49F7
:10460800204608F095FD21460C4801F061FC38462B
:104618000DF5866DBDE8F084DDF82C0404F0C2FECB
:1046280000240146064802F0D9F92546D4E700BF20
:104638004D4600006040010088400100FC32010046
:104648004455010010B502F097FA10B94FF0FF3049
:1046580010BDBDE8104002F099BA00BF2DE9F04E38
:10466800AB488CB016461F4601F012FA002800F03D
:104678007A810021102207F07FFC04464346012E70
:104688009D6808DD00211022786807F075FC032E6C
:10469800044600F06B812E4638689E49FBF7FEFE03
:1046A8000746002821D19C482146324602F096F957
:1046B8002046FFF769FFAE4213D02946974802F01B
:1046C8008DF94CF2503007F045FC43469D60FEF7EB
:1046D800A1FF4CF2503007F03DFC02F057FA1B28BE
:1046E800FBD138460CB0BDE8F08E8D4821463246E5
:1046F8008C4F02F073F98C498C4A0D234FF0000A55
:10470800232039613A6287F82D3087F82400BC608D
:10471800C7F828A087F82CA0FFF77CFDF9683A684D
:104728007B687961BA61FB614FF0FF3B07F134099F
:1047380002940395C7F8309002F028FA012852D065
:104748000328F9D1029C039D00274FF0000A0FE0CF
:104758004FF47A7007F0FEFB02F00EFAC0B90AF1C6
:10476800010A4FF47A7007F0F5FBBAF1640F1AD01A
:104778000AF1010A02F000FA0028E9D002F006FA6C
:104788004FF47A7007F0E6FB02F0F6F90028E6D05D
:1047980002F0FCF90AF1010A4FF47A7007F0DAFB2B
:1047A800BAF1640FE4D1204639460CF0D5FA0DF180
:1047B800100A5F4839463A4602F010F93A465D4910
:1047C800504608F0B5FC51465B4801F081FBB4F156
:1047D800FF3F00F0EC805948214602F0FFF85848A6
:1047E8000027046067E702F0D1F944B214F0E00F43
:1047F80000F0AB8002F0CAF945B215F0E00F00F006
:10480800A480A5F1200A0AF0FF0ADA4500F0168113
:10481800F9683B6878687961BB61F86102F0B6F9BC
:104828004FFA80FB1BF0E00F00F08E8005F0FF03CD
:10483800A4F1200C04F0FF020BF0FF059C180CF00B
:10484800FF006419851E002800F0BC80012D40F38C
:10485800FF8002F09BF9C1B248B210F0E00F05F0FA
:10486800010371D000F0FF02A418013DBBF1440F11
:1048780000F02A81BBF1530F00F01A81012D40F39B
:10488800E780ABB102F082F9C1B248B210F0E00F94
:104898005AD000F0FF03E418013DBBF1440F00F0CB
:1048A8008E80BBF1530F00F0F780012D40F3D080CC
:1048B80002F06CF9C3B258B210F0E00F44D000F027
:1048C800FF016418013DBBF1440F00F0BE80BBF14D
:1048D800530F00F0A88002F059F9C3B258B210F093
:1048E800E00F31D000F0FF02A418013DBBF1440FE6
:1048F80065D0BBF1530FD8D1396B084600F8013B9E
:10490800104B38639842D0D3064A1163CDE700BFF5
:10491800D42C0100C0400100C840010090410100B2
:1049280008410100D8290020F9410000094200008F
:104938006040010088400100FC3201007041010024
:1049480054000020202A0020D3467969BD69FC69FB
:104958005046F9603D607C60FFF7B6FD5346DA4685
:10496800D3469A46E6E64FF0204487E6B868002129
:104978000A2207F001FB064600283FF48CAE854268
:104988003FF48AAE0146584802F028F84CF25030FD
:1049980007F0E0FA40468660FEF73CFE4CF25030E5
:1049A80007F0D8FA02F0F2F80D28FBD174E64F4A66
:1049B800002717604E4802F011F801277BE6FFF741
:1049C80047FC72E702F0E2F843B213F0E00FBBD005
:1049D800019302F0DBF845B215F0E00FB4D002F015
:1049E800D5F840B210F0E00F019BADD003F0FF0204
:1049F800111905F0FF028A18941104F003018C18AC
:104A080004F03F01203188429ED1A5F12004203BCB
:104A180004F0FF0C03F0FF0E00F0FF005F2303FB20
:104A28000EC5841812E7386B024602F8013B314B79
:104A38003A639A4224BF304A10634CE77A69BB69EB
:104A4800F869FA603B607860E8E6FFF701FC42E746
:104A580002F09CF840B210F0E00F3FF475AFA311DC
:104A680003F00302111901F03F052035A8427FF435
:104A78006BAF02F08BF84FFA80FCBCF10D0F7FF49E
:104A880063AFBBF1530F504629D0FFF74DFDBBF183
:104A9800420F1ED0534663E73A6B1648134603F895
:104AA800011B83423B63FFF400AF13490A63FCE632
:104AB800386B024602F8011B0E493A638A42FFF43A
:104AC800DDAE0D490863D9E60193FFF7C1FB019BF1
:104AD800D4E6BA687968029C039D8F1A35E6FFF719
:104AE80013FC53463CE700BF8C40010054000020F3
:104AF80048410100202A0020D82900202DE9F04E45
:104B0800ADF5527D06AC48F21F590027C5F2EB19E6
:104B18004FF0FF3A04F501724E4D04903E46039261
:104B2800CDF808A0CDF81490BB46B246274602F04F
:104B38002DF82968C6B200297ED14FFA86F9B9F155
:104B48000D0F08D8DFE809F0830707830707070771
:104B58000707160707163E704146CB693E4A586854
:104B68000137904203D002F01BF800286FD1039E52
:104B7800BE42DCD83A46101B0023002856465F4642
:104B8800137064DB2046D1A9D0AA88AB04F04AFA96
:104B980000285CDB013808281AD8DFE800F0050592
:104BA800051919192A2A2A00D09B049888A900EB0C
:104BB800030BD19A5846FBF767FED199029A4B1E10
:104BC80003EB0B095A4528BF5A464E45029200D3BB
:104BD800B1462E685EB9059B013783FB073EF8177F
:104BE800C0EB6E1C642202FB1C7100292AD04E46C1
:104BF8009AE7DDF808A0741CCAEB040442F21070AE
:104C080007F0A8F92346324614485146C8AD009427
:104C180001F0E4FE504621460CF09EF82246104969
:104C2800284608F085FA29460E4801F051F9D0982F
:104C38000DF5527DBDE8F08E4FFA86F9484601F031
:104C480091FF7CE72E2001F08DFF4E466CE74FF078
:104C5800FF30EDE7D0000020956B0000C041010057
:104C6800F8320100FC32010038B52D4814461D46C3
:104C780000F00EFF18B190F90030312B3FD0294BCE
:104C88000021022C19603FD00024274801F0A6FE1D
:104C98002046FFF733FF002504460DE04FF47A70F5
:104CA80007F058F901F068FFA8B901354FF47A7098
:104CB80007F050F9642D17D0013501F05DFF002889
:104CC800ECD001F063FF4FF47A7007F043F901F07C
:104CD80053FF0028E9D001F059FF01354FF47A70ED
:104CE80007F038F9642DE7D1B4F1FF3F13D00F482E
:104CF800214601F073FE0E4A0020146038BD0948B1
:104D08000122022C0260BFD168680021102207F03E
:104D180099F90446B9E7074801F060FE012038BD5B
:104D280028420100D00000203442010070410100F7
:104D38005400002058420100022A2DE9F04414468C
:104D48001D4629DD00211022586807F015F9154B7A
:104D580000211F681022C719A86807F00DF9394605
:104D680002468246002006F047FE0AF1FF32064658
:104D7800D21939460C48334601F030FE032C02D1D3
:104D88000020BDE8F084E8680021102207F0F4F85C
:104D980006600020BDE8F08401F038FB0120BDE882
:104DA800F08400BF382A00202C430100012A08B5EE
:104DB8000CDD58680021102207F0DEF8014607488C
:104DC8000160074801F00AFE002008BD034B0448B3
:104DD800196801F003FE002008BD00BF382A002032
:104DE800544301002DE9F04E012A8AB015461F46AA
:104DF80023DD00211022586807F0BEF8022D044672
:104E080008BF05461CD000211022B86807F0B4F886
:104E1800032D064600F0728100211022F86807F081
:104E2800ABF8042D069000F06B8138690021102240
:104E380007F0A2F82546009007E04FF020452C46E1
:104E48004FF030460020069000902946324691489F
:104E580001F0C4FD711B8E08002501964FF0010B6F
:104E68002E4601F09DFE002840F00381009A171E8F
:104E780018BF01279345D4BF002707F00107002F6B
:104E880040F0FE808448594601F0A8FDAA46B9467C
:104E98002546824C54F8097027B3FC432F603460D0
:104EA8002B683946BB421A467D4808D001F096FD6A
:104EB80001F076FE002840F0DC800AF1010A2C603F
:104EC80037602B6822469C421946764808D001F084
:104ED80085FD01F065FE002840F0CB800AF1010A4B
:104EE8007F00DAD109F10409B9F1200FD1D1019A73
:104EF8004FF0AA314FF0553009922C46069155468D
:104F08000490012305E00898069A44F8202008999F
:104F18004B0008930898099B9842F4D30022079203
:104F2800079B049944F82310012317E0089A5E4868
:104F380054F822100591059A069B9A420CD00899BC
:104F4800069A04EB8101059B01F048FD01F028FE5B
:104F5800002840F08E80013508984300089308988F
:104F680009998842E2D307980699012744F8201046
:104F78000797079A099B9A4233D20798049944F8ED
:104F880020100897089A099B9A421FD2089854F84B
:104F980020100591059A069B9A4210D0089A079B03
:104FA80042489A420BD00899069A04EB8101059B66
:104FB80001F014FD01F0F4FD00285AD101350899DB
:104FC8004B0008930898099A9042DFD3079A0698ED
:104FD80044F8220007994B0007930798099A9042D2
:104FE800CBD30199012303910693013B08E0089B69
:104FF800069A44F823200698411C0691089B013321
:1050080008930898039A9042F1D3012106914B1E08
:105018001FE00899264854F8212005920599069B17
:1050280099420AD00899069A04EB8101059B01F080
:10503800D5FC01F0B5FDE0B90135069AD3430493D8
:105048000898049944F82010069A531C0693089867
:10505800431C08930898039A9042DAD30120411E12
:1050680006900891089A039B9A4225D30BF1010BED
:10507800F7E60A2001F076FD01200AB0BDE8F08EBF
:105088000C480BF1FF312A4601F0A8FC281E18BF76
:105098000120F2E76C430100B44301000C43010016
:1050A800C4430100F843010028440100784401008A
:1050B800D04401008843010006991348CB43049368
:1050C800089A54F822100591059A049B9A420BD02D
:1050D8000899049A04EB8101059B01F07FFC01F01B
:1050E8005FFD0028C5D10135089844F8206006996D
:1050F8004B1C0693089A501C0890B3E72546A1E676
:10510800002325460093A0E614450100022A70B545
:105118001E462EDD0421186801F056F9051E2ADB0B
:1051280000211022706806F027FF00211022044693
:10513800B06806F021FF01281FD0042D2AD0022DC7
:1051480040D0002857D0461E224612F8011B06F010
:1051580001053146002EF6D01DB10132711E63786B
:10516800F1D0134613F801CB52785A1C0239EAD011
:10517800F7E701F04BF9012070BD042D04D0022D92
:1051880005D023782378FCE723682368FCE7238885
:105198002388FCE700282DD0431E224652F8041B22
:1051A80003F001051946002BF6D01DB10432013970
:1051B8006368F1D0164656F8045B5268321D02390E
:1051C800EAD0F7E7A8B1431E224632F8021B03F0E3
:1051D80001051946002BF6D01DB10232013963884A
:1051E800F1D0154635F802CB5288AA1C0239EAD00C
:1051F800F7E7FEE7FEE7FEE72DE9F046042A83B06D
:105208001D4606D001F002F90126304603B0BDE87C
:10521800F0861146186801F0D7F8041E68DB0021F3
:105228001022686806F0A8FE434E0021102282462C
:10523800A868376806F0A0FE002181461022E868B9
:10524800356806F099FE8446002853D009EB05031B
:10525800002510F0010F0AEB070123D1042C42D0DE
:10526800022C60D00A781E78B24256D109191B194F
:105278000125042C18D0022C26D00A781E78B242B8
:105288004BD10135AC45284635D009191B19042CDA
:1052980015D0022C22D00A781E78B2423DD1451C86
:1052A80009191B19042CE6D10A681E68B242E8D015
:1052B8002248009601F092FB0126214A23E00A6861
:1052C8001E68B242EBD0F3E70A881E88B242D8D0F3
:1052D8001C48009601F082FB01260FE00A881E8810
:1052E800B242DCD0F4E70A681E68B242BED0DFE7FB
:1052F80001268AE70546042C1AD00026124B134AC9
:10530800022C18BF1A461248124B2946012D08BF15
:105318000346114801F062FB77E71048009601F058
:105328005DFB0126EAE70A881E88B2429ED0CFE7D5
:105338000026034AE7E700BF382A00205C45010041
:1053480018460100944501000C460100144601006E
:10535800403601007C42010020460100D44501008E
:105368002DE9F0441446033A012A9A4604D901F07B
:105378004DF80120BDE8F0840421186801F024F8F4
:10538800051E41DD00211022DAF8040006F0F4FDC4
:10539800244B00211E6810228619DAF8080006F04E
:1053A800EBFD042C074632D0002313F0010F17D170
:1053B800042D08BF376005D0022D0BBF39463A4689
:1053C80031803270EBB1013B7219042D15D0022DDA
:1053D80015BF39463946117011805619013BE7E768
:1053E800042D08BF376005D0022D15BF39463A464F
:1053F800317032807619013BDAE77751013B561953
:10540800D6E70020BDE8F0840120BDE8F084DAF892
:105418000C000021102206F0AFFD0028F1D0431E39
:10542800C3E700BF382A0020042A2DE9F8461D46A4
:1054380004D000F0EBFF0120BDE8F886114618689B
:1054480000F0C2FF041E47DB00211022686806F046
:1054580093FD264E002110228246A868376806F080
:105468008BFD002181461022E868356806F084FD2E
:10547800034600282DD010F0010F57444D4420D189
:10548800042C2FD0022C15BF3A783A882A702A802B
:10549800013B3F192D1914E0022C0BBF38883A78CC
:1054A80028802A70013B1AD039192A19042C0DD0EA
:1054B800022C15BF0878088810701080013B0F195E
:1054C8001519042CE8D13A682A60EBE738592851B5
:1054D800F4E7074801F06AFA0120BDE8F8861846A3
:1054E800BDE8F8863A682A60D2E700BF382A00206B
:1054F800444601002DE9F04E022B82B00C46DDF83F
:1055080028A056D1384F12F001097D68BE6854D0E2
:10551800DFF8E8A00DF10409C6F1000B334829466D
:1055280001F05CFA042E2CD0022E0BBF3048314813
:105538002988297801F052FA2F4803F051FA0346D6
:10554800002828D0012803D19AF900202D2A22D03A
:1055580049461022294806F00FFD0199514522D0ED
:10556800042E08BF286003D0022E0CBF28802870A4
:10557800002CD3D0AD191D48294601F02FFA042E6E
:10558800D2D11F48296801F029FA1B4803F028FAEC
:1055980003460028D6D1002CC0D0002B0CBF3346C0
:1055A8005B46ED18BAE7BE607D60002002B0BDE83A
:1055B800F08E00F02BFF0120F8E70421DAF8000054
:1055C80000F002FF061E0CDBDAF804004946102240
:1055D80006F0D2FC3D68DFF824A045190DF1040956
:1055E8009AE70120E2E700BF382A00205846010068
:1055F800684601007046010078460100A42A002090
:105608006046010000B5944683B000930A4663469D
:105618000021FFF76FFF03B000BD00BF00B594463F
:1056280083B000930A4663460121FFF763FF03B086
:1056380000BD00BF2DE9F04E214CDFF888A0012AFB
:1056480084B091469B46E6682569DAF8007033DD38
:1056580011F00101039110D10421186800F0B4FE83
:10566800051E27DB1022DBF80400039906F084FCF2
:1056780026688619B9F1020F14D1102090FBF5FCA9
:105688003146304607FB05662A463B46CDF800C042
:1056980006F006FACAF800702561E660002004B03A
:1056A800BDE8F08EDBF808000399102206F064FCD0
:1056B8000746E2E70120F2E700F0A8FE0120EEE746
:1056C800382A0020D40000202DE9F044054688B08F
:1056D80084480E4614461F4600F0DAF928B1002126
:1056E800102206F049FC804B1860022C0FD0032CC6
:1056F8006ED0012C1DD0304600F088FE6FF04F00B0
:1057080002F018FE0124204608B0BDE8F08407A97D
:105718001022786806F030FC7C6882462046FAF74A
:1057280043FF07992018884240F0BE806E4AC2F8AD
:1057380000A0502002F0FEFD2846FCF7C7FD041E1D
:105748005ADB512002F0F6FD68490868002866D146
:10575800674A106800286ED1664991F90000002850
:1057680076D1654991F90030002B79D163490868F1
:10577800002840F08B80624A1068002842D1614BB3
:105788001868002874D1604991F90000D0B9A4B113
:10579800554D214628680BF0DFFA5C4800F078F98F
:1057A80030B15B49FAF77AFE0446002800F082809F
:1057B8000024542002F0BEFDA5E76FF0510002F06E
:1057C800B9FDA0E7534800F083FB002CE0D1F4E7D3
:1057D80000211022786806F0CFFB434B8022186026
:1057E800B9684D48FCF7E8F8502002F0A3FD2846B8
:1057F800FCF76CFD041EA4DA6FF0500002F09AFD6D
:10580800012480E701AD2946FCF75AF929464348A7
:1058180000F05EFB3B4B18680028B4D028E001ADCF
:105828002946FCF74DF929463D4800F051FB304A1E
:105838001068002890D001AD2946FCF741F92946A7
:10584800384800F045FB2B4991F90000002888D022
:10585800354800F03DFB284991F90030002B85D0F0
:10586800324800F035FB25490868002883D00DE050
:1058780001AD2946FCF724F929462D4800F028FBFC
:10588800214991F90000002881D09BE701AD294604
:10589800FCF716F92946274800F01AFB184A106841
:1058A80000283FF46CAFADE71B4879688022FCF70D
:1058B80083F83EE73A6829681F480192029401F08C
:1058C8008DF8522002F036FD21460122304601AB08
:1058D800FEF756FB041EBFF66CAF6FF0520002F0E5
:1058E80029FD10E7D42C010054000020F40E0020FC
:1058F800F00E00209C270020BC270020C80E0020A6
:10590800E00E0020782700207C2700206C3F010053
:10591800C4310100D44701000028002010320100E2
:10592800FC31010008320100B4470100C047010002
:10593800CC470100CC2C0100DC47010001460420C3
:10594800C2E600BF01460120BEE600BF01460320B3
:10595800BAE600BF01460020B6E600BF014B186852
:10596800704700BFD8000020F8B504460D4600E097
:1059780001342846277801F03BFF6E1C874205D189
:10598800237835463D2BF3D13046F8BD207818B141
:105998004FF0FF363046F8BD284601F029FF3D2874
:1059A800F2D04FF0FF36F5E72DE9F84605460C46EC
:1059B80092464FF0000940F6FF77484601F018FF7D
:1059C80000284DD019F0010F4E4614D0484601F07A
:1059D8000FFFA8B1B94543DC09F10106304601F0D3
:1059E80007FF68B1BE4206F10106304638DC01F017
:1059F800FFFE28B10136304601F0FAFE0028F1D149
:105A080049462846FFF7B0FFB0F100092CDB002516
:105A18001AF0010F08D00125BAF1000F19D001F0D2
:105A2800E7FE04F8010BA0B105EB090001356B1E78
:105A38009A450ED901F0DCFE014604F8011B05EB7E
:105A4800090031B101F0D4FE013504F8010B00283A
:105A5800EAD15545284605D100222270BDE8F886CE
:105A68004FF0FF30BDE8F88606F10109A5E700BF51
:105A780008B5054B0548196800F0B0FF01F02AFF8A
:105A8800003818BF012008BDB0070020F448010005
:105A98002DE9F0410646002740F6FF75384601F02B
:105AA800A7FE002823D017F0010F3C4610D0384637
:105AB80001F09EFE88B1AF4219DC7C1C08E0AC42C4
:105AC80004F10104204612DC01F092FE28B10134F1
:105AD800204601F08DFE0028F1D139463046FFF707
:105AE80043FF002806DBBDE8F04101F075BE002049
:105AF800BDE8F081671CD1E72DE9F04E44462368E4
:105B080084B0002089469246019301F065FE07465D
:105B1800002800F08980DAF804603D213046FAF761
:105B280009FD40B13146844800F058FF0124204661
:105B380004B0BDE8F08E814801684A1C02603B78D9
:105B480093B13D463C461BB114F8013F002BFBD1F5
:105B5800E91B3046FFF708FFB0F1000B08DA63785D
:105B6800651C2BB12C46EEE71C463D464FF0FF3B2B
:105B780030467349FAF792FC002840F0BF80B9F12B
:105B8800020F53DDDAF8081000F0E6FE00284BDBC0
:105B9800BBF1000F12DB6B49DAF80400FAF77EFC60
:105BA800014618B36378621C002B40F0B480AF4202
:105BB80028BF2B70C0F0218100246C70B9F1020F4E
:105BC80040F3A580DAF80820002A00F0A0803B46C0
:105BD80013F8012B3C462AB962786AB301330134C1
:105BE800002AF9D0627801330134F9E70A22DAF899
:105BF800080006F0C1F9B0F5165F834600F033815E
:105C0800B0F5964F00F02F81B0F5164F00F02B81BC
:105C1800B0F5614F00F02781B0F5E13F00F0238136
:105C28000146494800F0DAFE012480E7314647483A
:105C380000F0D4FE01247AE73046A74238BF1C465C
:105C4800FAF7B2FCA9F1030B851C0BF00101DAF895
:105C580008000091FAF7A8FC013000EB050B0325BA
:105C6800A945009B19DD43B1DAF80C00FAF79CFC52
:105C780004250130A94583440FDD5AF82500FAF7B9
:105C880093FC0135421C5AF825009344FAF78CFC22
:105C98000135431CA9459B44EFDC07F57E671C379B
