:1000000000000120D1030000A1020000A1020000B5
:10001000A1020000A1020000A1020000A102000054
:10002000A1020000A1020000A1020000A102000044
:10003000A1020000A1020000A1020000A102000034
:10004000A1020000A1020000A1020000A102000024
:10005000A1020000A1020000A1020000A102000014
:10006000A1020000A1020000A1020000A102000004
:10007000A1020000A1020000A1020000A1020000F4
:10008000A1020000A1020000A10200008D470000B3
:10009000A1020000A1020000A1020000A1020000D4
:1000A000A1020000A1020000A1020000A1020000C4
:1000B000A102000045460000A1020000A1020000CC
:1000C000A1020000A1020000A1020000A1020000A4
:1000D000A1020000A1020000A1020000A102000094
:1000E000A1020000A1020000A1020000A102000084
:1000F000A1020000A1020000A1020000A102000074
:10010000A1020000A1020000A1020000A102000063
:10011000A1020000A1020000A1020000A102000053
:10012000A1020000A1020000A1020000A102000043
:10013000A1020000A1020000A1020000A102000033
:10014000A1020000A1020000A1020000A102000023
:10015000A1020000A1020000A1020000A102000013
:10016000A1020000A1020000A1020000A102000003
:10017000A1020000A1020000A1020000A1020000F3
:10018000A1020000A1020000A1020000A1020000E3
:10019000A1020000A1020000A1020000A1020000D3
:1001A000A1020000A1020000A1020000A1020000C3
:1001B000A1020000A1020000A1020000A1020000B3
:1001C000A1020000A1020000A1020000A1020000A3
:1001D000A1020000A1020000A1020000A102000093
:1001E000A1020000A1020000A1020000A102000083
:1001F000A1020000A1020000A1020000A102000073
:10020000A1020000A1020000A1020000A102000062
:10021000A1020000A1020000A1020000A102000052
:10022000A1020000A1020000A1020000A102000042
:10023000A1020000A1020000A1020000A102000032
:10024000A1020000A1020000A1020000A102000022
:10025000A1020000A1020000A1020000A102000012
:10026000A1020000A1020000A1020000A102000002
:10027000A1020000A1020000A1020000A1020000F2
:10028000A1020000A1020000A1020000A1020000E2
:08029000A1020000A102000020
:1002980062B6704772B67047684600F001F8FEE72C
:1002A80070B5044600F0A6FC0546344807F04EFD3C
:1002B8000F2D9DBF324B334853F82510A5F110017F
:1002C80088BF314807F042FD22683048304907F0BE
:1002D8003DFD62682F492D4807F038FD2E4807F08C
:1002E80035FDA26829482D4907F030FDE2682C4900
:1002F800264807F02BFD284807F028FD22692348E7
:10030800284907F023FD62692749204807F01EFDA8
:10031800214807F01BFDA2691C48244907F016FD77
:10032800E2692349194807F011FD1B4807F00EFD43
:10033800204807F00BFD40F21803C4F202031968C5
:100348001D4807F003FD40F2E802C4F202021168FA
:100358001A4807F0FBFC40F2EC00C4F20200016806
:10036800174807F0F3FC40F23C13C4F20203196883
:100378001448BDE8704007F0E9BC00BF802C0100BC
:10038800202C0100C05F0100982C0100A42C010062
:10039800B02C0100B42C0100E85E0100B82C01006B
:1003A800BC2C0100C02C0100C42C0100C82C010089
:1003B800CC2C0100D02C0100E82C0100042D0100F8
:1003C800302D01005C2D010010B572B609480A4AAB
:1003D8000A49121A00F086FA09480A490A1A00213D
:1003E80000F012FA084A094B1A60BDE8104000F004
:1003F80059BE00BF00000020700E0020848101005B
:10040800700E00205C4B002000F00020700E0020D1
:100418000023CA5CC2540133002AFAD1704700BFD6
:10042800002312F0010F10B404D00C78013A0470C4
:1004380001237CB172B1CC5C03F1010CC454013AC4
:1004480044B111F80C400CF1010300F80C40013ADA
:10045800002CEFD110BC704790F9003010B463B194
:10046800024612F9014F002CFBD10023CC5CD45476
:100478000133002CFAD110BC70470246F5E700BFE3
:1004880070B41346002A32D090F90020002A30D0E8
:10049800024612F9014F002CFBD10C7803F1FF3C06
:1004A8000CF00106147014B34FF0010C9C4502EBDC
:1004B8000C051AD04EB111F80C4002F80C40B4B13A
:1004C8004FF0020C01359C450FD011F80C600CF16F
:1004D8000104013502F80C60013504F1010C36B154
:1004E8000E5D16551EB19C45EFD100232B7070BCD4
:1004F80070470246D1E700BF10B40023C25CCC5C51
:100508000133141BE4B224B9002AF7D1104610BCF9
:10051800704760B2FBE700BF70B41346AAB1047815
:100528000A78A21AD2B2002A30D174B15C1E14F033
:10053800010F944627D045784A782346AA1AD2B2A2
:10054800002A23D14FF0010CEDB9002070BC704790
:1005580001EB0C0500EB0C046A7864780CF1010CD3
:10056800A21AD2B200EB0C0601EB0C0572B9002CF2
:10057800EBD074786A78013BA21AD2B232B90CF186
:10058800010C002CE1D0013BE2D1DEE750B2DDE7FF
:10059800037849B25AB28A4208D033B110F8013F01
:1005A8004FFA83FC8C45F8D170470020704700BF94
:1005B80090F9002003462AB1024612F9010F0028DB
:1005C800FBD1D21A981890F900C049B28C4502F0B4
:1005D800010215D00138834210D832B190F90020B9
:1005E8008A420CD00138834208D890F900208A4208
:1005F80005D010F901CD8C45F4D170470020704723
:10060800704700BF90F9003033B1034613F9012F4A
:10061800002AFBD1181A704718467047D9B190F9CB
:100628000020C2B14B1E13F0010F02460CD101325B
:1006380043B192F90010013B21B112F9011F013BAE
:100648000029F4D1101A7047024612F9011F013B24
:100658000029ECD1F6E70020704700BF70B403789A
:100668000246C3B10E78B6B176B200205BB29E42A4
:1006780018BF0C4602D109E0634507D065780134FC
:100688004FFA85FC002DF7D170BC70470130135C20
:10069800002BEBD1F8E70020F6E700BFF0B40378B1
:1006A800ABB10E78054677B2284666B15BB29F4279
:1006B8000ED00A4601E063450AD0547801324FFA59
:1006C80084FC002CF7D115F8013F002BECD1002059
:1006D800F0BC70472DE9F004002844D0274E047878
:1006E800002C45D00D78002D45D000274FFA85FA0B
:1006F80064B2A24518BF0A4602D124E0A44522D01C
:10070800537801324FFA83FC002BF7D1C0190378D4
:10071800002B2DD007464FFA85FA65B15BB29A4592
:1007280016D00A4601E09C4512D0547801324FFA9F
:1007380084FC002CF7D117F8013F002BEDD1336072
:10074800BDE8F00470470137C45D002CD0D1DDE767
:100758003B46002FF3D097F90020002AEFD0002164
:1007680003F8011BEBE7054E30680028E8D0B6E730
:1007780000203060E4E72F46C8E700BF740E002071
:1007880003682DE9F004CBB11D78ADB10F781E4692
:100798004FFA87FA67B16DB2AA4513D00A4601E04D
:1007A800AC450FD0547801324FFA84FC002CF7D1B5
:1007B80016F8015F002DEDD1002202601846BDE851
:1007C800F00470473246002EF7D0002102F8011BD2
:1007D8000260F3E7034608B918467047017879B113
:1007E80040780028F8D01A4603E0D0780232002872
:1007F800F2D05170917810700029F6D118467047E0
:100808000B461846704700BF10F0030F30B404467B
:100818002AD101F0FF0343EA032C43EA0C25032AFB
:1008280043EA052520D9A2F1040C0423BCF1030FE7
:100838000560CCF3800410D92CB1A2F10804082378
:10084800032C456009D903F1040CC5500CF10403CD
:10085800D41A032C40F80C50F5D8043A22F00304BB
:10086800231DC41802F00302AAB1531E03F00105A8
:100878000123C9B29A4221700DD01DB102239A42B8
:10088800617008D003F1010CE1540CF101039A42A4
:1008980004F80C10F6D130BC704700BF034610B402
:1008A8001046E2B11C7802F1FF3C012282420C7032
:1008B8000CEA020413D034B193F801C00222824238
:1008C80081F801C00BD09C5C02F1010C8C5413F828
:1008D8000C400CF10102824201F80C40F3D10846A9
:1008E80010BC704741EA000313F0030F30B404460C
:1008F8000D4628D1032A26D90C68A2F1040C04233A
:10090800BCF1030F0460CCF3800414D934B14D68F2
:10091800A2F108040823032C45600CD9CC5803F134
:10092800040CC4500CF1040351F80C50D41A032CD5
:1009380040F80C50F2D8043A22F003052B1DCD18CC
:1009480002F00302C418CAB12978531E217003F0BB
:10095800010101239A4211D021B1697802239A42F8
:1009680061700BD015F803C0591C04F803C015F8C2
:1009780001C04B1C9A4204F801C0F3D130BC704747
:100988008842F0B41FD8E2B10C78012302F1FF3C91
:10099800934204700CEA030413D034B191F801C0F7
:1009A8000223934280F801C00BD0CC5C03F1010C08
:1009B800C45411F80C400CF10103934200F80C40A8
:1009C800F3D1F0BC7047002AFBD0891811F8013C1C
:1009D8008418551E04F8013C05F001064FF0FF335A
:1009E800002DEED03EB111F802CC022A6FF00103BF
:1009F80004F802CCE5D0CD1815F8017C03F1FF3CD2
:100A0800E61806F8017C01EB0C0515F8017C0CF1E1
:100A1800FF3304EB0C069D1806F8017C002DEAD183
:100A2800CFE700BFF0B403469446002A30D00578DB
:100A38000A78AD1A29D10CF1FF3616F0010F2A46B3
:100A480018D0447848780122201AB4461ED19C1840
:100A5800881801329F188E180132BCF1010C0CF174
:100A6800FF3C12D064784078201A0FD17C787078D7
:100A7800201A0BD19C18881801329F188E18013241
:100A8800BCF1010C0CF1FF3CECD12846F0BC7047DE
:100A98001046FBE71346CAB102788A4219D05A1E9B
:100AA80012F0010F0DD010F801CF13468C4508D174
:100AB800704790F800C08C4509D010F8012F8A4281
:100AC80006D00130013B03F1FF33F2D17047704784
:100AD800704770472DE9F00E91F9003083B08146D8
:100AE8003BB10B4613F9012F002AFBD1B3EB010AE6
:100AF80004D1484603B0BDE8F00E704799F90030BC
:100B0800002B40D04B4613F9010F0028FBD1C9EB4D
:100B1800030BD34535DB4846BAF1000FEAD00B7812
:100B28004FF0000C019319F80C30019A9A421FD12A
:100B38000AF1FF34002314F0010F52460AD0467818
:100B48004D780123AE42224604D011E07C787578B6
:100B5800AC420DD1C518CC180133C718CE180133D3
:100B6800013A02F1FF32C5D06D786478A542EDD024
:100B78000CF1010CCCEB0B00824502DC09EB0C00FC
:100B8800D1E70020B6E79B46C3E700BF12F0010F8C
:100B9800C9B205D090F800C0013A8C450DD001309B
:100BA800531E4AB190F800C05A1E8C4505D010F863
:100BB800013F8B42F3D170471046704710B5044689
:100BC80000B910BD90F9003083B110F9011F002958
:100BD800FBD1001B013007F0DBFA014629B10023E5
:100BE800E25CCA540133002AFAD110BD0120F2E7B1
:100BF800002070474EF60053CEF200035868C0B28A
:100C0800704700BF4EF69053CEF200039860D9604B
:100C18001A6170474EF69053002814BF0320002035
:100C2800CEF20003586070474EF6905340F23F00F2
:100C3800CEF200030021C0F2003003229960D9608F
:100C480018615A60704700BF08B500F0ADF900F0B0
:100C580065F800F0E5F843461A6841F25E11D16084
:100C680000F0A4F9404603684FF020421A610020C2
:100C780008BD00BF012A2DE9F04415461C4637D0AF
:100C88000021102258680BF07BFA022D8246D8BF4B
:100C98001C4F16DC1C4E00251C48216807F056F82E
:100CA8002B46504639463246194DA84710B9002000
:100CB800BDE8F0842168174807F048F80020BDE82F
:100CC800F08400211022A0680BF05AFA032D074681
:100CD800E0D000211022E0680BF052FA042D0646FD
:100CE8000DD02069002110220BF0B0FA0546D3E799
:100CF8001968094807F02AF80020BDE8F084043D87
:100D0800CAE700BF0080002000400000102E01004C
:100D18008D0C0020342E0100EC2D010030B44EF271
:100D280010034FF6FE74CEF20003C0F2FF0406492A
:100D38005C6000200024002501229860C1E900457C
:100D48001A6030BC704700BF780E00204EF21000C9
:100D5800CEF200008268034B002000219A60C3E9AC
:100D680000017047780E0020012000F00DB900BF87
:100D780010B50446012000F007F94DF6836CC4F263
:100D88001B3CACFB00218B0C04FB03F44EF210015E
:100D9800CEF200018A6894420AD902F18073981E43
:100DA800041B88688242FCD88B68A342F9D810BD1E
:100DB800141B8868A04202D98B689A42F9D210BDE8
:100DC8002DE9D04C154B4EF21004CEF200049F686A
:100DD800A2680446BA4284BF07F18077023FBE1A70
:100DE800D3E9000110EB060A41F1000B5F465646B5
:100DF800C3E900679A60012000F0C6F844F6D351B1
:100E0800C1F26201A1FB00B20023504639469209A3
:100E180011F04EFA001BBDE8D08C00BF780E002000
:100E280048F20003C4F2030310B4D3F8940019463F
:100E380020F00402C3F89420D1F8504148F200038E
:100E480014F0010FC4F20303F6D0D3F89400194646
:100E580020F00102C3F89420D1F8504148F2000371
:100E680014F0020FC4F20303F6D0D3F89840444AB2
:100E780024F48051C3F89810D3F8981046F600006F
:100E8800C1F3422CC0F68910BCF1070F1060D3F8EB
:100E980090003BD146F6000C0124C0F6891CC0F333
:100EA8000240BCFBF4F3072853603DD146F6000C22
:100EB8000120C0F6891CBCFBF0F3C1F382000728AF
:100EC80093603FD146F6000C0120C0F6891CBCFB9C
:100ED800F0F3C1F342100728D36041D146F6000C65
:100EE8000120C0F6891CC1F34231BCFBF0F307298D
:100EF800136143D0234850F8211046F6000CC0F681
:100F0800891CBCFBF1F3536110BC70471D4BC0F347
:100F1800024053F82C4046F6000CC0F6891CBCFB76
:100F2800F4F307285360C1D0164B46F6000C53F86B
:100F38002000C0F6891CBCFBF0F3C1F3820007282F
:100F48009360BFD00F4B46F6000C53F82000C0F654
:100F5800891CBCFBF0F3C1F342100728D360BDD055
:100F6800084B46F6000C53F82000C0F6891CC1F364
:100F78004231BCFBF0F307291361BBD10121BCE767
:100F8800880E0020902E0100052803D8024B53F844
:100F98002000704700207047880E0020014B43F85E
:100FA80020107047880E0020704700BF48F20003E9
:100FB800C4F20303012098619A6C42F0800199649D
:100FC800986C20F080029A64FFF72EBE704700BF2D
:100FD800704700BF704700BF704700BF704700BF31
:100FE800704700BF704700BF704700BF704700BF21
:100FF80008B5024806F092FEFEE700BFEC2E01009D
:1010080008B50748074906F0A1FE074A0748084BF4
:1010180011681B680268074806F098FE002008BDA2
:10102800182F0100AC2E0100700E0020700E002059
:101038005C4B0020202F010008B5094806F06EFE21
:101048004246116807484A69002106F07FFE40467B
:101058000368054998690AF0DDFD002008BD00BF56
:101068004C2F0100602F0100E85E010070B590B0C0
:1010780040220B48694605F04FFE444600286D465D
:101088002668D8BF4FF4E13004DD684600210A2203
:101098000BF076F8A060A3680020336010B070BD34
:1010A800742F010038B5384C2268A2F54058A8F1D1
:1010B8002008002120224046FFF7A6FB4546A8F15C
:1010C8001C002860286800211C22FFF79DFB42466F
:1010D800D2F804C02D4B2E4D196820684CF0010C35
:1010E800C2F804C02B682B4A091A11601BB908E022
:1010F80055F8043F23B198470028F9D0FFF778FF47
:101108002068A0F540504FF4405107F083FB07F0EA
:1011180067FD214841460C6805F072FE0AF0D2FFCF
:10112800606009F027FA07F0F7FD06F067FE00F0A7
:1011380041F81A4805F064FE28B1002110220BF08E
:101148001FF8174B1860174805F05AFE014618B1EA
:101158001548802200F06CFC144806F0DFFD444678
:10116800206800F031FB124806F0F0FD48F200005C
:10117800C4F20300026E22F00105056608F0F0FDD6
:1011880008F0EEFDFAE700BF700E0020700E002098
:1011980000000020A00E0020802F0100882F0100F1
:1011A80054000020942F010008280020A02F0100DF
:1011B800A82F0100704700BF0020704770B5A2B08B
:1011C800044680222C4902A8FFF78CFB266BE56AAF
:1011D800E16BA26B636B294800960195256C06F0BC
:1011E800B5FDA16A626A236A254806F0AFFD266943
:1011F800E169A26963692348009606F0A7FD26689D
:10120800E168A26863682048009606F09FFD15F023
:10121800804F14BF5A227A2215F0005F14BF43236F
:10122800632305F0704C15F0805F14BF56267626B0
:101238001648BCF1000FB4BF4E216E21009606F08F
:1012480085FD206C22AA00F01F01114C02EB8103DE
:10125800104A10F0800F14BF2146114610F0400FBD
:1012680018BF22460C4C53F8803C0C48009406F0FA
:101278006DFD22B070BD00BFC42F010044300100D5
:101288008C300100B0300100E03001001031010065
:1012980024310100203101001039010028310100FA
:1012A80008B503480BF0F4F80020024B984708BD36
:1012B800483101006D0C002010B50446044806F0C2
:1012C80045FD2046FFF77AFFBDE81040E8E700BF7C
:1012D8005C31010010B50446044806F037FD20468D
:1012E800FFF76CFFBDE81040DAE700BF703101007E
:1012F80010B50446044806F029FD2046FFF75EFFB6
:10130800BDE81040CCE700BF8831010010B50446A5
:10131800044806F01BFD2046FFF750FFBDE81040CB
:10132800BEE700BF9431010010B50446044806F03A
:101338000DFD2046FFF742FFBDE81040B0E700BFB3
:10134800A031010010B50446044806F0FFFC204611
:10135800FFF734FFBDE81040A2E700BFB03101003D
:1013680010B50446044806F0F1FC2046FFF726FFB6
:10137800BDE8104094E700BFC43101004FF0FF30D2
:10138800704700BF014B1868704700BFA40E0020CB
:10139800104B5A689AB1D8B1136B9A420FD00121F9
:1013A80010F0010F0DD0884201F1010C0ED01B6B1B
:1013B8000CF101019A4202D01B6B9A42F3D1002032
:1013C80070471B6B9A42FAD00221ECE71846704727
:1013D80010467047A40E00200B4A536883B1126868
:1013E800934209D0002001E0934206D01B6B0130E4
:1013F800002BF9D1002070470020002AFAD070474E
:101408004FF0FF30704700BFA40E002010B5054C08
:1014180023682BB11846D96A884723680122DA6104
:1014280010BD00BFA40E002008B5064B84461B68FB
:101438000A4623B1184661465B6A984708BD4FF0D3
:10144800FF3008BDA40E002008B5054B1B681BB172
:101458001846996A884708BD4FF0FF3008BD00BF9D
:10146800A40E00200349044B0868002808BF18464A
:10147800704700BFA40E0020E432010070B5084D8B
:1014880006466C6844B121463046FFF735F828B166
:10149800246B6B689C42F6D1002070BD204670BD5D
:1014A800A40E002070B5154C2368002B21D005F040
:1014B8000DFCA168054611B1E068854206D01048C8
:1014C80005F09EFCE5600146A06098B125680B4ECA
:1014D800284600E0B168FFF70FF850B12268106B9A
:1014E80085422060F6D106482946BDE8704005F0DF
:1014F800A7BE70BD01490D68F5E700BFA40E002026
:10150800EC32010038B50546144805F079FC18B1ED
:101518001349FEF7F1FF90B1124C23687BB17DB9F6
:101528001B6B1148236005F06BFC58B10D4A11681C
:10153800FEF7E2FF30B92168206988420AD038BD39
:101548002361EDE72168084805F07AFE21682069E3
:101558008842F4D1054B01221A6038BDF4320100EB
:1015680000330100A40E0020EC320100140F00200B
:1015780038B50F4D0446696851B10A4600E01A466D
:10158800136B9942FBD1146300202163E06138BDDD
:1015980008486C602C6005F033FC18B12968FEF728
:1015A800ABFF18B10348296805F04AFE6968EBE704
:1015B800A40E0020EC32010030B587B001AC0A4619
:1015C8000546054920460BF0B7FE2846214605F09A
:1015D80037FE07B030BD00BF0433010030B50C46FC
:1015E80083B0002855D001AD102229460AF0C8FD65
:1015F800019B207093F90020002A48D1621C002B1F
:101608004AD01846294610220AF0BAFD019B60709C
:1016180093F90000002838D1A21C002B3FD01846AF
:10162800102229460AF0ACFD019BA07093F9002016
:10163800002A28D1E21C002B34D018462946102253
:101648000AF09EFD019BE07093F90000C8B9221DC5
:10165800002B2AD01846102229460AF091FD019B3A
:10166800207193F9002052B9621D002B20D0184632
:10167800294610220AF084FD607103B030BD0133A1
:10168800F2E70133E3E70133D4E70133C4E7013379
:10169800B4E70A4602F8010B00231370A21C0021CC
:1016A8001170E21C00231370221D00211170621DAD
:1016B80000231370E1E700BF10B50C4605F0A0FB4E
:1016C8002146FFF78BFF237813F0010F01D000208C
:1016D80010BD607894F802C0E27840EA0C010B4330
:1016E8002179134362790B431A430CBF0020012070
:1016F80010BD00BF30B50246084B094889B0002A22
:1017080018BF03460D46684619460BF015FE684695
:1017180029466C46FFF7D0FF09B030BD08330100F9
:10172800103301002DE9F044234E82B0336882461D
:10173800002B3BD0746800256F4605E0246B706869
:101748001D4A844211D0013569462846FFF7D2FF69
:101758000028F3D0062204F110006946FFF7C2F80A
:10176800246B7068144A8442EDD1146815462146EA
:10177800124806F0EBFA3368514618461A6A904741
:1017880000280F480CDA06F0E1FA0020FFF7BAFE4D
:1017980029688C42ECD14FF0FF3002B0BDE8F084EC
:1017A800054A02211068C1610020F6E7054806F0E5
:1017B800B5FA4FF0FF30F0E7A40E002030330100F7
:1017C8003C3301001C3301002DE9F04E574F002334
:1017D80082B03B607B600446402007F063FF08F05E
:1017E8006DFB20460AF0C0F80028C0F28F807C68A4
:1017F800002C00F092804E4805F002FB8146412003
:1018080007F050FF21464B4806F0A0FA00256E4627
:10181800DFF818B149462046B9F1000F02D0FEF7AB
:101828006BFE00B328466946FFF764FF68464249E5
:101838000622FFF7F7F8013528BB246B79683F4883
:101848008C4232D006F06AFA21463A4806F07EFA0F
:10185800DFF8D8B049462046B9F1000FE2D0FEF7CC
:101868004BFE0028DED136483C6006F057FA284681
:101878006946FFF73FFF68462F490622FFF7D2F86F
:1018880001350028D9D004F1100A2B490622504608
:10189800FFF7C8F8E8B9694606225046FFF722F86C
:1018A800246B796825488C42CCD1DBF800100029DC
:1018B80028D0244805F0A4FAF8B1DBF80010FEF7A8
:1018C8001BFED0B90A2006F005FB284602B0BDE889
:1018D800F08E062269465046FFF7A4F80028DAD0B1
:1018E8002146194806F032FA5146184806F02EFAF1
:1018F8001748694606F02AFACDE73968114805F015
:101908009FFCDFE70F4805F09BFCDBE72046FFF76D
:1019180035FD7C68002C7FF46EAF0E4806F0FEF9AA
:101928006FF03F0007F0BEFE2546CEE7A40E00206C
:1019380044330100A86A0100DC3201005033010081
:1019480054330100EC320100603301008C33010094
:10195800AC3301001C330100014B02221A607047AE
:10196800B80E0020704700BF014B5860704700BF99
:10197800B80E0020002910B42DDD01234A1E8B4229
:1019880002EA0304028812D02CB1022330F803C003
:101998008B4262440BD003F1010C30F8133030F85D
:1019A8001C40D2180CF1010312198B42F3D191B2E9
:1019B80001EB124C1FFA8CF303EB1C404FF6FE713F
:1019C800421CC0F2000102EA0100D0F1010038BF58
:1019D800002010BC70470120FBE700BF002910B4AD
:1019E80023DD01234A1E8B4202EA0304028812D037
:1019F8002CB1022330F803C08B4262440BD003F1B0
:101A0800010C30F8133030F81C40D2180CF10103E7
:101A180012198B42F3D11FFA82FC0CEB124290B2DE
:101A280000EB124188B210BC70470020FBE700BFF2
:101A380010B491F90030222B2ED0013A002A12DD81
:101A48000B7883B1222B0ED002F1FF3C1CF0010F62
:101A58001BD0BCF1000200F8013B04DD4B7813B148
:101A68000131222B11D10021017010BC70474B7835
:101A7800611C002BF7D0222BF5D000F8013B6378CE
:101A8800013A002BEFD0222BEDD0013A4C1C002A52
:101A980000F8013BEBDCE6E70131013ACDE700BF96
:101AA80008B520B101783039CBB2092B02D94FF6ED
:101AB8000F7008BD0A2200210AF062FB82B21302ED
:101AC80043EA122080B208BD10B505F099F9BDE8C7
:101AD8001040E5E7094A10884FF6FF72010A41EA0B
:101AE80000239BB2934207D01805030D40F6FF7CF4
:101AF800634501D0122070470E2070473000002047
:101B0800020A42EA002C1FFA8CF24FF6FF739A423F
:101B180009D040F6FF70824205D0130508460449F3
:101B28001A0D0BF009BC08460249FEF771BC00BF4C
:101B3800DC330100D433010030B5020642EA1065F7
:101B480000F47F4345EA032400F47F0044EA1022AE
:101B580083B0C2F3072502F0FF04C2F30743084627
:101B6800120E0349009501940BF0E6FB03B030BD5B
:101B7800E03301000422FEF7B5BE00BF70B51B4E6E
:101B88004FF6FF7334881646220A42EA0425ADB29E
:101B98009D4204461BD00622FEF7A4FE2D05062210
:101BA800A01D1349FEF79EFE2A0D15F5801F16D0BD
:101BB800B6B22D0F330A45EA022543EA06264FF04E
:101BC800810C2682E581A4F80CC0122070BD062283
:101BD800FEF788FEA01D06490622FEF783FEB0B276
:101BE800010A41EA0026A6810E2070BD30000020BF
:101BF800C00E0020FFF718BC2DE9F04E934D0D29BB
:101C080084B004462861696133DD914E8389728806
:101C180030884FEA122C070A1E0A47EA00204CEACD
:101C2800022C46EA032640F6FF724FF6FF7380B295
:101C38001FFA8CFCB6B240F2E9579C4508BF94469F
:101C4800984214BF03461346BE4215DDB6F5014F50
:101C58004AD00E3904F10E071B051B0D40F6FF7024
:101C6800834217D0824204BF4FEA0C52120D9342AE
:101C780010D004B0BDE8F08EA08A1B05060A46EA1B
:101C880000271B0D40F6FF7016398342BEB204F1DF
:101C98001607E7D140F6060C66453AD048F23502F9
:101CA800964211D0B6F5006FE3D11B29E1D97888A7
:101CB800020A42EA002C1FFA8CF28A4240F3D680CC
:101CC800644806F043F8D4E71B2940F3B980F88844
:101CD800020A42EA002C0FFA8CFEBEF1040F7DD0F6
:101CE8005D4806F01BF8C4E71129C2DD0005000DA8
:101CF8009042BED0E789208A3E0A46EA0722060AB1
:101D080046EA00271205BEB2120D123904F1120775
:101D1800A2E71B2940F394803B881A0A42EA032071
:101D280001B20129A5D17888030A43EA00210FFAF4
:101D380081FCBCF5006F9CD197F804A0BAF1060F9E
:101D480097D17A79042A94D1A969DFF800910029FA
:101D58008FD007F1180103AB019118460199009340
:101D6800FEF7C0FDD9F81800039A07F1080B904256
:101D7800009B7FF47EAFF888020A42EA002E1FFA21
:101D88008EF2012A00F0D880022A7FF472AFE96946
:101D98002E4C00293FF46DAF206A00283FF469AF4C
:101DA800042218460BF10601FEF79CFD626A039BAC
:101DB8009A427FF45EAF59460622206AFEF792FDEA
:101DC800216A0622A06AFEF78DFDE16AA06AFFF784
:101DD8002BFB00212162E161E1624AE73888020AAF
:101DE80042EA00210BB2012B7FF47AAF7B88190AF3
:101DF80041EA032C0FFA8CFEBEF5006F7FF470AF3A
:101E0800B88840F2064290427FF46AAF134807F15F
:101E18001801FFF7AFFE2B6B07F1080423B907F190
:101E28000E010F48FFF7A6FE214606220D48FEF7D1
:101E380059FD00206C68014602460346A04718E792
:101E480009481C2205F082FF13E700BFB80E0020E6
:101E5800300000201834010000340100D00E0020AA
:101E6800E80E0020EC0E0020EC3301003B7803F074
:101E7800F00140297FF4FDAE03F00F03052B3FF777
:101E8800F8AE38460A21FFF775FD00283CD0042239
:101E980003A807F11001FEF725FDAB69039A6BB1A2
:101EA800B3EB020E18BF4FF0010EB2F1FF3F0CBFAB
:101EB80000200EF0010000287FF4DBAEF888020A4B
:101EC80042EA002399048A0C002A7FF4D2AE7B7A76
:101ED800012B1DD0112B7FF4CCAE3B8BB7F816E04D
:101EE800BA8A190A41EA0324100A4FEA1E2C4CEA5E
:101EF8000E2140EA0222A3B207F11C006C6889B2E5
:101F080092B2083BA047B4E61F4805F007FFB0E6C9
:101F180097F814C007F11403BCF1050F7FF4A9AEBC
:101F280093F801E0BEF1010F7FF4A3AE07F11801A9
:101F3800164805F00BFF9CE63246A11D2046FFF728
:101F48001DFE4FF4007CA7F806C05246064607F16E
:101F58000E05594607F11200FEF7C4FC0198294600
:101F6800FFF708FE524609F108015846FEF7BAFC89
:101F7800284609F11801FFF7FDFD204606F11C016E
:101F8800FFF752FA75E600BF2C3401003C3401001B
:101F98002DE9F044294D82B0EE6B294940F606023E
:101FA8003046FFF7EBFD4FF48072341806233252A7
:101FB8004FF0080C4FF0040A4FF4807604F108073C
:101FC8001A462371A4F802C0E68005F1080184F8D6
:101FD80005A03846FEF786FCA96902AE46F8041D3E
:101FE8005246314604F10E00FEF77CFC0023E375EF
:101FF800A374E37423756375A375EB69A8692A6CE8
:1020080083EA0001114201D06B6C83B16B623146E7
:1020180007F1100004220193FEF764FCE86BC0F19D
:102028001C010919FFF700FA02B0BDE8F084054861
:1020380005F074FEEB696B62E9E700BFB80E00209B
:10204800340000205C34010038B5044610B9054B53
:10205800986438BD034D0020A964FEF7B1FE2C65D5
:10206800E86438BDB80E002038B5254804F0C8FE2D
:10207800044618B12349FEF73FFAE8B9224D6B6DC3
:102088005C1C6C65FFF7C2F9AA6D1F4CD2F1010008
:1020980038BF0020FFF736FA41460868FFF742FBD1
:1020A800E86D30B1236E0020E065DBB904222260C0
:1020B80038BD0223236038BD20461449FEF71CFAB8
:1020C80028B9114DFFF7A2F904232B6038BD20462B
:1020D8000F49FEF711FA68B901200B4D6B6D984254
:1020E800CED8EFE70B4942F21070FFF7ADFF0A496F
:1020F800616038BD002120460A460AF041F8ECE745
:102108008834010094340100B80E00200033010027
:1021180098340100611900006D19000010B50F4CCA
:10212800E36903B910BD0020FEF74AFE636E41F271
:102138008831C21A8A42F5D9A16E4A1C042AA266BD
:1021480003DC6066BDE8104022E7054805F0E6FDBF
:102158000020A066BDE8104086E700BFB80E00204A
:10216800A03401002DE9F04482B0089F019117F0D6
:10217800010F044615469A4603D007F11C030022B6
:10218800C25400263349452323706670CB6EBFB214
:1021980007F11C0290B29AB24FEA122C4FEA102EA5
:1021A8004EEA002001334CEA022ECB66A4F804E084
:1021B8004FF0FF334FF0400E11222372608062729D
:1021C8001831A4F806E00422668104F10C000837EF
:1021D800FEF788FB1FFA8AFA01A90422ADB2BFB242
:1021E80004F11000FEF77EFB4FEA1A2C280A3B0A7E
:1021F8004CEA0A2A40EA052543EA0727A4F814A06E
:10220800E58227836683A21C20886388518802326E
:10221800C318508802325B18518802321B18508844
:1022280002325B18518802321B18508802325B1840
:1022380051881B1892885B18D31898B200EB134C7E
:102248001FFA8CF202EB1C41C843608102B0BDE862
:10225800F08400BFB80E00202DE9F04E84B09346FC
:1022680099460C9D0E46002928D1344F344C3846E7
:1022780004F170010622FEF7D5FB4FF0FF368446C5
:1022880000282AD0D4F83CA039464FF400625046C2
:10229800FFF774FC0AEB0007384631465A464B46AE
:1022A8000095FFF75FFFE06B05F11C033F1AD91992
:1022B800FFF7BAF8002004B0BDE8F08E1F4F204C9D
:1022C800B1F1FF3F18BF0746384604F170010622F6
:1022D800FEF7A8FB84460028D4D1D4F828A03946B4
:1022E8004FF400625046CDF80CC0E6612762FFF754
:1022F80045FC0AEB00074B46314638465A460095DE
:10230800FFF730FFA26AE06BB91A1C3109182A4698
:1023180007F11C00FEF7E6FAA36ADDF80CC0FF1A05
:102328001C3560460126ED19E562A666FEF748FDF4
:102338006066FFF72DFE3046BDE700BF3400002081
:10234800B80E00202DE9F04E934D944C05F5E2733C
:10235800DE1C04F19709002329F01F02414626F0EC
:102368001F07012602F5406C02F5C06E88B0E362D3
:10237800A36523662362E3616362E263A76266651D
:102388000F68C5F8A0E1C5F8A4C18146FFF73EF87B
:10239800FFF788F83846FFF7C5F90028C0F2F7803C
:1023A80006FA09F240F2131BC0F2000B02EA0B0016
:1023B800B246009226468346FEF7E4FF062200F165
:1023C80010017748FEF78EFA43461F68C4F800A04C
:1023D800019704F07BFCD5F8C8170746884224D03B
:1023E80001980422011D6F48FEF77CFA6E4804F03C
:1023F80007FD09F067FE70646C4804F001FD09F000
:1024080061FE30646A4804F0FBFC09F05BFE30634F
:102418006848FFF759FB684B58806848FFF754FB3A
:102428005D49654AC1F8C8771080B9F1090F09D923
:10243800C4F860A0B9F1040F35D8DFE809F06B2EB5
:1024480034686100BBF1000F13D055485C4906227F
:10245800FEF7E8FA0028EBD1FEF7BEFFB0F1FF3F28
:102468007AD000287ED1574805F058FCFFF7FCFDCC
:102478001CE0009A12F4027FDAD0216B002978D090
:10248800B369002BE1D1504805F048FCFEF7BEFFC8
:102498004FF0FF3008B0BDE8F08E4C4F0023A36129
:1024A8003B6000F0A9F80020C5F8CC07FEF7CCFF88
:1024B80005F02EFD0746002861D1FFF72FFEA16C1D
:1024C800384631B1FEF77CFCF16C336D421A9A4202
:1024D80012D82368032B07D0042BD9D0022BE5D1BF
:1024E8002E4FC7F858A067E7D5F8CC17C9B9FEF73B
:1024F8008DFFD5F8CC07CDE7B06CB7648047E8E727
:10250800334800270760A76100F018FECBE700F00A
:102518009DF9C8E72E4A00211160A16100F044FD31
:10252800C1E70A462B4805F011FC1B4903ACD1F85A
:10253800CC27204628490AF0FFFE2146274804F008
:102548007FFE274B24491A6820460AF0F5FE2146EB
:10255800244804F075FECAE7234805F0DFFBFEF7C0
:1025680055FF95E70146214805F0F0FBFFF77CFD94
:102578009CE71F4805F0D2FBFEF748FF88E7FEF707
:1025880045FF1C4805F0CAFB4FF0FF3082E7FEF715
:102598003DFF4FF0FF307DE7B01F0020B80E002050
:1025A800C00E0020D00E0020CC340100D834010029
:1025B800E0340100EC34010030000020F434010064
:1025C800CC3301005C3501001C350100882800204F
:1025D80044290020A4350100C8350100CC3501008C
:1025E80054000020D83501003C3501007C3501003D
:1025F800FC3401009C3501002DE9F047264DDFF839
:10260800B4902E682548741C21462C6005F09EFB6A
:10261800D9F80060224948F235023046FFF7AEFA91
:10262800204F4FF4807C341826F800C006254FF060
:10263800040A4FF008024FF440706280E080394687
:102648002A46257184F805A004F10800FEF74AF926
:102658005246154904F10E00FEF744F92A46394658
:1026680004F11200FEF73EF94FF0FF33E3762376CC
:102678006376A376D9F80000C0F11C010919FFF7A9
:10268800B9FA41F288300949FFF7DEFC0848BDE88D
:10269800F047FFF769B900BF88280020E43501003A
:1026A80034000020C00E0020D00E0020F5260000C7
:1026B800C1260000F40E0020094810B505F046FBBD
:1026C800084804F09DFB18B190F900306E2B03D038
:1026D800BDE8104000F0BAB803480322026010BDFC
:1026E800F835010008360100B80E0020094810B579
:1026F8000368042B07DC41F288300749FFF7A4FC84
:10270800BDE8104078E7054805F008FBBDE8104033
:10271800FFF7AABC88280020F5260000143601001F
:10272800F0B53E4883B00768FFF7D4F93C4C1C303D
:1027380021683D184B1E042B6DD8DFE803F03427C1
:102748001A0327004FF4A0614FF400733952281D73
:102758006B803449FDF75CFE1725D4F89030D4F827
:102768008810D4F88C2030480095FFF775FD03B029
:10277800F0BD4FF4A0624FF4407E3A522B49281D19
:10278800A5F802E0FDF744FE1325E6E7B4F8841047
:102798004FF4806C27F800C0080A40EA01239AB277
:1027A8006A800425D9E74FF4807EAE1C27F800E044
:1027B8001F493046FDF72CFE1D48FDF723FF411C3D
:1027C80076181C4F1C493046FDF722FE1B49B01DE8
:1027D800FDF71EFE386844F6D35CC1F2620CACFB10
:1027E80000130E369A09164930460AF0A5FD3146FF
:1027F800144805F0ABFA3046FDF704FF421CBB88CD
:10280800B618002730463A460F4900970AF094FD5B
:102818003618751BA1E700259FE700BFF40E0020BE
:102828008C28002084360100EC0E0020743601004C
:10283800902800203C0000203C360100AC36010006
:10284800443601004836010064360100F0B572488C
:1028580083B004F0D5FA002800F0D38000210A22C2
:1028680009F0F4FC6D4DA8806D4804F0C9FA002801
:1028780000F0BA800A22002109F0E8FC0246B2F50D
:102888007A7F2860C0F0B5806648A98805F05EFAAE
:10289800654F6648664C036897F90060C4F888304D
:1028A800002E40F08180634904F194000A6862496F
:1028B800C2F3074CC2F30723170ED2B2CDF800C0FB
:1028C80001970AF039FD04F19401201D8022FDF7DB
:1028D800A7FD5A48211D84F8836005F037FAFEF7F2
:1028E800C1FD534E534F0146554805F02FFA06F1E6
:1028F800880154483A4605F029FA53490B681BB138
:1029080052480368002B63D10A20514E05F0E2FAC1
:102918005049514805F01AFA318841B149024F48E7
:1029280005F014FA33884E49580209F073F90A2061
:1029380005F0D0FA4B4A4C48116805F007FA4B48A5
:1029480005F0ECF9EE684A492868AE60FFF77CFBB1
:1029580000264848FFF708F8452301223046C4F806
:102968008C302260C4F8A460FEF72AFA4AF6AB2C31
:10297800CAF6AA2CACFB0031CB0A03EB4302A0EB4E
:10298800822101F58063062231463B48C4F8903025
:10299800C4F88460FDF738FF4FF4007CA5F810C038
:1029A80003B0BDE8F040BBE638463A21FDF7F0FD3C
:1029B800064640B3384609F085FB711CC4F8880008
:1029C8008022201D0026FDF72BFD84F8836086E712
:1029D8003A68D6F8880003EA020E03409E4593D071
:1029E800264805F0B3F98FE72A68B2F57A7FBFF475
:1029F8004BAF1146224805F0A9F94FF47A722A60C4
:102A080042E7064D30E73946201D8022FDF708FDD4
:102A180084F8836063E700BF983601003C0000201B
:102A2800A8360100EC36010008280020E80E002036
:102A38008C280020D00E0020143701003037010008
:102A48005C37010070370100FC0E0020F80E0020F2
:102A58000428002090280020C0370100D03701004A
:102A68001039010054000020E83701000038010047
:102A78008D2A0000D92A0000EC0E0020A0370100A2
:102A8800B43601000D4A10B50D4CD2F8A400A16867
:102A9800431C8B42C2F8A43009DC0A4805F03EF911
:102AA80020680949FFF7D0FABDE8104038E6074822
:102AB80005F034F9BDE81040FFF7D6BA8C2800209D
:102AC8003C0000200C3801008D2A0000143601005B
:102AD8002DE9F046A04C0646D4F8900083B0884211
:102AE800154602D003B0BDE8F0862268012A03D05B
:102AF800D4F88C10A942F5D1012BF3D9374637F811
:102B0800021BA3F1020A080A40EA012C1FFA8CF101
:102B1800052900F0E680062979D00329E2D1BAF127
:102B2800010FDFD973888C4E190A41EA032083B25A
:102B3800C4F88430002B00F038814CF6CD41581E83
:102B4800CCF6CC41A1FB00C1C90801EB810CB0EB6C
:102B58004C0F00F03E8143F2FD3CCCF6A61CACFBCA
:102B6800030140F28A20490A00FB1133002B00F0D0
:102B78003E81012A00F04081012A14BF002301236D
:102B8800052A14BF1A4643F00102002A00F0CD803E
:102B9800D4F8843000200221012B2160C4F88C5025
:102BA800C4F8AC00C4F8B000C4F8A80040F016811E
:102BB8006A4DC4F8B0300A2369492868AB60FFF74A
:102BC80043FAD4F88420B5F810C0D4F8AC30501EBD
:102BD80000FB0C346349AAF1020A0A68B91CA01860
:102BE8005246FDF77FFE604B54441868844288BF04
:102BF8001C60FFF795FDB5F810C0E245BFF472AF51
:102C08005A4805F08BF85A48032101606AE73846AC
:102C18000193FDF7F7FC431CFA185648394605F0AE
:102C280095F80522BAF1080FC4F88C502260019B70
:102C380053D90B3B5049384603F00105FDF75CFCBE
:102C4800DFF818910146002877D00126BC19BAF19F
:102C5800090F42D9DDB148492046FDF74DFC014630
:102C6800002800F09380013606F1080E0134F24581
:102C78000DD832E040492846FDF73EFC01360146B2
:102C8800E8B106F109026C1C0136924525D93A498A
:102C98002046FDF731FC651C01460028EAD104F105
:102CA80008070A22384609F06BFA1FFA80FC3946F1
:102CB80062463248A9F810C005F048F8DAE7093446
:102CC8000A22204609F05CFA83B221461A462B48AC
:102CD800A9F8103005F03AF8D3E703B0BDE8F0469C
:102CE8001EE57388B91C1A0A42EA032E1FFA8EF2EF
:102CF800234805F02BF87188080A40EA012C1FFACE
:102D08008CF35A1E012A08D81E4805F007F8FEF76A
:102D18007DFB174804210160E4E61B4804F0FEFF30
:102D280003B0BDE8F046FFF79FB9D4F88430D4F873
:102D3800B02093423FF4D6AE3AE70A360A2230462C
:102D480009F01EFA84B2314622460C48A9F8104010
:102D580004F0FCFF79E700BF8C2800203C0000202D
:102D68008D2A0000540000207C270020CC38010068
:102D7800B80E002010380100243801002C3801005A
:102D8800D4380100EC3801000039010009370A2263
:102D9800384609F0F5F91FFA80FC394662461948A9
:102DA800A9F810C004F0D2FF5DE71749D6F8A800CB
:102DB800D6F8AC30B1F810E0421C03EB0E43C6F86D
:102DC800A820190D1148C6F8AC3004F0BFFF3268CE
:102DD800CFE6232005F07EF83268CAE619460C488B
:102DE80004F0B4FF03B0BDE8F046FFF73DB9094869
:102DF80004F094FF3268BCE6074804F0A7FF226895
:102E0800BAE600BF2C3801003C000020443801001D
:102E18008C3801005C3801006038010000B583B0CF
:102E28000146042201A8FDF75DFD019803B000BD2D
:102E38002DE9F00E4FF0630C044604F801CB661C34
:102E4800751C6F1C07F1010A0AF1010987B009F125
:102E5800010B01970BF1010704970137039701371D
:102E680005976FF07D0747704FF05307677086F836
:102E780001C04FF0350C85F801C0019C4FF0010CE2
:102E880084F801C04FF002078AF80110392189F847
:102E980001108BF80170049D40216F70039C6170D4
:102EA800059F07EB0C0194463AB3120642EA1C66EA
:102EB8004F1C0CF47F4546EA05297E1C751C6C1CCA
:102EC80003940CF47F0B059C49EA1B224FF0360A49
:102ED80084F801A04FEA226C4FEA22494FEA222BDC
:102EE8004FF0040A81F801A087F801C086F8019024
:102EF80085F801B0039F7A70B91C0BB30A461D060A
:102F0800322402F8014B45EA136903F47F4649EA83
:102F1800062A03F47F07561C4AEA1723751C6C1C03
:102F28004FEA236A1F144FEA232C4FF0040981F853
:102F3800019082F801A0A11C777085F801C0637028
:102F48000A46372502F8015B541C631C1B1A4FF014
:102F5800000C4FF0FF35402B81F801C055701EDC86
:102F68000B1D181A034681F803C0C0F14100591C13
:102F7800402B00F0010012DC38B10B460131481E2D
:102F8800402882F803C0224609DC501C4B1C82F8FA
:102F980003C0591C421C402B80F803C0F5DD1846BD
:102FA80007B0BDE8F00E70472DE9F04E5B4EDFF834
:102FB80088B1706886B0421C0025114658483560B3
:102FC800726004F0C3FEDBF80040294640F2EE527E
:102FD8002046FDF719FC53494FF400622046FEF7DE
:102FE800CDFD241804F11C0901274FF0060A2777A4
:102FF80089F8017089F802A089F8035028460297D9
:10300800CDF80CA0FDF7DCFE44F6D353C1F2620301
:10301800A3FB001CCCF38F120DF1180A110A4AF811
:10302800045D41EA0227A9F808705146042204F118
:103038002800FDF757FC5146042204F12C000595A1
:10304800FDF750FC5146042204F130000595FDF7C8
:1030580049FC5146042204F13400334F0595FDF72D
:1030680041FCDDF80CA03946524604F13800FDF762
:1030780039FC04F1880080222C49FEF7D9FC029B18
:103088002A46194604F584702B46FFF7D1FE82467E
:10309800F878BA780304797943EA026097F804C0AB
:1030A800084340EA0C212846B160FDF789FEB36861
:1030B8003146C3181A0642EA136503F47F4003F445
:1030C8007F0C45EA002242EA1C2541F8085F0422E9
:1030D80004F12000FDF706FCDBF80000432244233E
:1030E8000AF1EC05C0EB09094FF0FF3120460095C5
:1030F800FFF738F80E4940F6B830FEF7A5FFA944A7
:1031080003230C483360FEF72FFCDBF80000494628
:10311800FEF770FD06B0BDE8F08E00BF4029002024
:103128001439010034000020C00E002008280020B7
:10313800493100001D330000F40E002034E700BFC1
:10314800094810B54368042B07DC41F28830074969
:10315800FEF77AFFBDE8104026E7054804F0DEFDDB
:10316800BDE81040FEF780BF40290020493100002B
:10317800143601002DE9F04E037882B0FF2B044687
:10318800894600F509763FD06C31DFF874B10191BA
:1031980000275A1E6578422A4BD8DFE802F0444AD5
:1031A8003E4A4A384A4A4A4A4A224A4A2E4A784AAB
:1031B8004A4A4A4A4A4A4A4A4A4A4A4A4A4A4A4A67
:1031C8004A4A4A4A4A4A4A4A4A4A4A4A4A4A4A4A57
:1031D800724A2E4F4A4A4A2E2E4A4A4A4A4A4A2E8A
:1031E80055001F2DDCBF2A46AA4666DC3C48A11CB8
:1031F800FDF778FB3A4B03F80A7002356419A642CA
:1032080002D92378FF2BC4D102B0BDE8F08EA11CEF
:1032180004223448FDF766FBEFE7A11C042232487C
:10322800FDF760FBE9E7A11C04223048FDF75AFBD3
:10323800E3E719462E4804F089FDDEE7A11C0422C5
:103248002C48FDF74FFBD8E77F2D2CDC2A1E18BF32
:103258000122AA4699F96CC0BCF1000F14BF0021E5
:1032680002F001010029C8D0234804F06FFD01983D
:10327800A11C5246FDF736FB0AEB090383F86C7074
:10328800BBE7A11C04221D48FDF72CFBB5E73F2D29
:10329800DCBF2A46AA4619DC1948A11CFDF722FB07
:1032A8000BF80A70A9E72A4616481749802304F044
:1032B8004DFD4FF07F0A0122CCE72A4611481349F9
:1032C800202304F043FD1F2292468FE72A460D482B
:1032D8000F49402304F03AFD3F229246DCE700BF45
:1032E800A427002080270020FC0E0020F80E0020D4
:1032F800B839010050290020883901004C290020E4
:10330800C4270020283901007839010060390100FC
:103318006C3901002DE9F04EAB4E0D461446D6F837
:1033280000C011462A46443D18BF012586B007460D
:10333800432C0CBF2C4645F00104A448CDF800C02E
:103348009A4604F003FD3CB14FF0FF31A04804F069
:10335800FDFC06B0BDE8F08EBAF1EB0F98BF6FF038
:103368000101F3D93B78591EC8B2591F18BF012172
:10337800012894BF002201F0010222B1062B18BFD8
:103388006FF00201E2D17B78012B18BF6FF00301C7
:10339800DCD197F802E0BEF1060F18BF6FF0040108
:1033A800D4D107F1040B5846FFF738FDB268864CB4
:1033B800904202D06FF00501C8E70021844804F06C
:1033C800C5FC25685346432144228248009504F0F1
:1033D800BDFC2368042B07D0062BBAD0032B69D079
:1033E8007D4804F09BFCB4E77C4807F1EC0404F04A
:1033F800ADFC2046FFF712FD48F2632CC6F2533CA1
:103408006045A6D197F8F03007F1F005FF2BA0D062
:10341800352B2B4607D05978881C1B181A78FF2A99
:1034280097D0352AF7D193F802E0BEF1050F90D175
:103438002046FFF7F3FC48F26323C6F25333984261
:1034480000F0FD8007F110010422654807F114041B
:10345800FDF748FA042204A82146FDF743FA049A26
:10346800002A40F0E6805F486C37046806225E4810
:10347800A11DFDF737FA3846FDF7C4F8002840F0DB
:10348800D1805A4C59495A4804F060FC94F900100C
:1034980019B15848554903F0D3FE06223260564800
:1034A8004F4904F053FC554803F0AAFC544B03223F
:1034B8001A604EE707F16C01524804F047FC0425F6
:1034C800514804F043FC07F1EC002560FFF7A6FC27
:1034D80048F26329C6F2533948456ED0DFF840A157
:1034E8004A4941F28830FEF7AFFD494804F02EFC06
:1034F800DAF800400021204640F2EE52FDF784F948
:10350800204644494FF40062FEF738FB241804F1C2
:103518001C05002101224FF00609E9706A70227724
:1035280085F8029008460391FDF74AFC44F6D35308
:10353800C1F26203A3FB001CCCF38F12039B100A99
:1035480040EA022C06A9A5F808C041F8083D042263
:1035580004F13400FDF7C6F94A4604F138002E4953
:10356800FDF7C0F95946042204F12000FDF7BAF925
:1035780007F11001042205A8FDF7B4F93269059B8B
:10358800032104F58470FFF753FCDAF8001000F10A
:10359800EC06681A85194322204644234FF0FF3170
:1035A8000096FEF7DFFD29461C4804F0CFFBDAF849
:1035B80000002946FEF71EFBCBE607F1F00039466E
:1035C800FFF7D8FD8AE700BF40290020E439010051
:1035D800243A0100403B0100283B0100DC3A01008D
:1035E800D00E0020C80E0020EC0E00200828002075
:1035F800F43A0100942F0100043B01000836010051
:10360800B80E0020383A0100603A01004931000044
:10361800843A010034000020C00E0020B03A0100B6
:10362800F40E0020084C394620468022FEF700FAA6
:1036380028E7214604220548FDF754F913E72846F0
:103648003946FFF797FDFDE608280020E80E002020
:1036580008B50320FDF798FC43469A68996800EB83
:10366800C2000B01B0FBF3F008BD00BF064B0138E8
:1036780010B553F820402046FFF7EAFF01462046E0
:10368800BDE8104000F078B8843B01000120EDE768
:10369800024B013853F8200000F098B8843B010031
:1036A8000120F5E708B5044B013853F8200000F075
:1036B80085F840B208BD00BF843B01000120F1E756
:1036C800034A0139034652F82100194600F06EB842
:1036D800843B01000121F3E70A2870B5044609D0AC
:1036E800094B013953F8215028462146BDE870405E
:1036F80000F05CB8044A481E52F820500D212846B4
:1037080000F054F8F0E700BF843B01000121E3E733
:1037180038B503780D4643B1044658B22946FFF739
:10372800DBFF14F8013F002BF7D138BD0121EFE78B
:1037380008B54FF08040FFF78BFF01464FF08040FF
:1037480000F002F8002008BD00226FF07C0C027126
:10375800032380F80CC010B40270C1F3072402716F
:10376800C9B2072203730374027280F80CC0017097
:103778000471037310BC7047002210B46FF07C040E
:103788000271032304730270027107220373C1F3E9
:10379800072C0374C9B202726FF07F0202730170C2
:1037A80080F804C0037310BC704700BF037D13F09A
:1037B800200FFBD0C9B20170704700BF037D13F022
:1037C800010FFBD0007840B2704700BF007D00F0C9
:1037D8000100704730B543461C6885B0E2681C4854
:1037E8001C4904F0B3FAA26819481B4904F0AEFA60
:1037F80022691748194904F0A9FA002214481849FF
:1038080004F0A4FA62691248164904F09FFA01AD5F
:10381800A2690F48144904F099FA14492846FCF79C
:10382800F7FD284603F0ECFA114A2946002818BF8C
:103838000246104804F08AFA211D0F4804F086FA5F
:1038480021680E4804F082FA002005B030BD00BFA0
:10385800943B0100A43B0100B03B0100B83B0100D0
:10386800C43B0100D03B0100DC3B010008330100F0
:10387800E43B0100F03B0100FC3B0100103C01006F
:1038880008B5034608461146984708BD012A70B591
:10389800144619DD5868102200211D1D08F070FC1F
:1038A800064601460B4804F051FA611E2A46304686
:1038B800FFF7E6FF04460146003C18BF012406480E
:1038C80004F044FA204670BD012403F057FF204657
:1038D80070BD00BF4C3C0100743C0100704700BF44
:1038E800021E18BF012280280CBF002202F001022C
:1038F80010B552B91C6E0648214604F027FA0F206D
:1039080005F0D0FE43461868A047012010BD00BF4F
:10391800343D01002DE9F04EB0F1000C18BF4FF016
:10392800010C84B080280CBF00200CF001000C466C
:103938001546009300287ED193F82230009A042B74
:10394800166800F0848000260196022C77DDA868AE
:10395800FCF758FE0326A4F1030A471CB4420AF0F8
:10396800010A1ADDBAF1000F07D0E868FCF74AFE31
:103978000426C1194F1CB4420FDD55F82600FCF788
:1039880041FE0136C31955F826005F1CFCF73AFEC4
:103998000136C7190137B442EFDC384604F0F8FBAA
:1039A80014F0010F4FF002094FF0000A4FF0200BFE
:1039B800064620D1A968FCF72BFD4FF00309A8683B
:1039C800FCF720FE4C4527DD06F800B000F1010A9F
:1039D800043510E006F80AB0B968FCF719FDB868B4
:1039E800FCF710FE00EB050C09F1010906F80CB014
:1039F8000CF1010A3D1DA96806EB0A00FCF708FD59
:103A0800A868FCF7FFFD82442F1D09F101090AF19E
:103A1800010570194C45DDDC0098046E12482146FA
:103A280004F094F90F2005F03DFE42461068019914
:103A380033460E4AA047012004B0BDE8F08E0C487A
:103A480003F0DEF9094E002818BF0646E4E7012115
:103A5800304603AA02AB05F0D3FA029900293FF4D5
:103A680072AF019671E700BF7C3D0100103901007B
:103A7800703D010084B02DE9F04E82B00DF1280CA4
:103A88008CE80F009DF83D109DF83CB00D9B064654
:103A980008460193109DDDF844A00E9C0B9FDDF8AD
:103AA800309005F025FABBF1000F26D1A642014659
:103AB8005DD0394804F04AF9A14506D04946204668
:103AC800019A4FF4803305F02DFB019B3348E2182F
:103AD8002A6004F023F9314804F020F930482146DF
:103AE8002A6804F033F9BAF1000F2ED0072005F048
:103AF800D9FDA7422BD8002008E0BBF1010F0AD05E
:103B08002848594604F022F96FF0020002B0BDE8D7
:103B1800F04E04B070470146234804F017F92046D8
:103B28004A464FF4000101AB08F07AFA18BB019934
:103B380060182860194804F0F1F8194821462A68E5
:103B480004F004F9BAF1000FD0D1A742D3D92A68FA
:103B5800B242D0D931463A46144804F0F7F814482E
:103B680021462A6804F0F2F86FF00100CEE7114808
:103B780004F0ECF8A9E7104804F0D0F8BAF1000F07
:103B880002D14FF0FF30C1E76FF0050005F08AFD64
:103B98004FF0FF30BAE700BFD83D0100EC3D01000F
:103BA800843E0100603E0100F03D0100B03E01008E
:103BB800E03E0100C83D01000C3E01002DE9F04E39
:103BC800AD4C002182B0174681468C2220469A4689
:103BD800FCF71AFEA94805F0B9FA012FC4F88400C9
:103BE80040F3E6800021DAF80400102208F0C8FA51
:103BF80005460146A24804F0A9F8012005F052FD47
:103C0800284605F0A5F94FF0000B0646C4F854B055
:103C1800C4F850B0054605F0DDF9012818D0D9F8E8
:103C28000010984804F092F86FF06B0005F03AFD28
:103C38005D46626D904E002A54D0284605F0CAF9B8
:103C48000128834653D0904804F068F8012097E093
:103C58008E48314604F07AF8336841F65612190650
:103C680041EA136103F47F4041EA002C03F47F0B1F
:103C78004CEA1B20C2F205727F499042D1F884B009
:103C880040F0B180022005F00DFD304605F07AFACB
:103C9800002800F0DF80032005F004FD304605F021
:103CA800B9FABBF1000F0BD0794804F037F8304669
:103CB80005F08AFA002800F0D680764804F02EF83D
:103CC800042005F0EFFC717F02295CD0724804F0F3
:103CD8003DF86FF0030005F0E5FC0025626D664EC7
:103CE800002AAAD16D4804F019F8012048E0A97FFC
:103CF80086F85D10E87F86F85C00287F86F85E000D
:103D0800EA682B694FEA026949EA126E02F47F4CAD
:103D18004EEA0C2902F47F024FEA036C4CEA136E58
:103D280049EA122203F47F494EEA092C03F47F0E74
:103D38004CEA1E234032B365736C5219F264002BAF
:103D480000F08380B369022914BF002201224FEAE0
:103D5800036949EA136E03F47F494EEA092C03F418
:103D68007F0E4CEA1E23042914BF114642F00101BC
:103D78003366002923D10120C4F88800A5640020F7
:103D880002B0BDE8F08E052005F08CFCB37F022B55
:103D98004AD0042B30D0012B46D0D9F80010404827
:103DA80003F0D4FF6FF0040005F07CFC002540E729
:103DB8003C4B3D481D68294603F0C8FF1DE7052810
:103DC800D9D13846324606F164075146683602238F
:103DD8000097019605F060FB0028CCD0334803F02B
:103DE8009DFF5846CCE7324803F098FF4FF0FF306C
:103DF80005F058FC002571E72E4A30460021131DB6
:103E080005F0FEF8314640222B48FCF7B9FD0620A4
:103E180026600126666405F045FC626D2748216D21
:103E2800134603F093FF04E7F36806F1400219060E
:103E380041EA136103F47F4041EA002C03F47F0E4A
:103E48004CEA1E2322656365DCE71D4803F066FF24
:103E5800584695E71B4803F061FF6FF0010005F035
:103E680021FC00253AE7184803F070FF6FF00200C4
:103E780005F018FC002531E7542900200C3F01000B
:103E8800483F010074400100B8400100743F010040
:103E9800D43F0100EC3D01000040010098400100C2
:103EA8002040010054000020143F0100004101009F
:103EB800A83F0100A42900205829002044400100FF
:103EC800DC400100BC3F0100F03F01002DE9F04457
:103ED800044686B058680D461746404906221E46D5
:103EE80003F058FC331D002832D0D0F80CA0BAF1EA
:103EF800010F6BD03A4DD5F888309A4525DD4AEA4E
:103F0800030095F85E20374BBAF1200FC5F88800FA
:103F180053F8224024D007DCBAF1020F2CD0BAF1B2
:103F2800100F47D0002417E0BAF1400F36D0BAF18D
:103F3800800FF7D1FDF740F9FFF7D0FC504639461E
:103F480032462B46A047002406E0274803F0FEFE31
:103F5800204603F013FC0124204606B0BDE8F08497
:103F68005046394632462B46A04704460028F3D02F
:103F78001E4803F0EBFEEFE705F1480CEE46583516
:103F880095E803008EE8030005AC9CE80F00029456
:103F980000240394FFF76EFD0446DDE750463946DA
:103FA80032462B46A04704460028D5D0104803F0D7
:103FB800CDFED1E75046394632462B46A047044647
:103FC8000028C9D00B4803F0C1FEC5E720462946A2
:103FD8007A1EFFF7F3FD0446BEE700BF5800002035
:103FE80054290020E83C01002841010078410100E3
:103FF80098410100544101002DE9F04E144690B05B
:104008000022012C0F9207468A461D4612DD586889
:104018000EA9102208F0B4F80E9B93F90030181E70
:1040280018BF01203A2B0CBF002000F0010008B196
:10403800232B6AD13846514622462B46FFF7BEFD50
:1040480018B1012010B0BDE8F08EFDF7B5F8DFF823
:104058006C916A4609F15803834693E8030082E8A5
:10406800030009F1480C0FAE9CE80F0002960126E8
:104078000396FFF7FFFC00284EDB99F85D004F4BD5
:10408800012821D00820059305F00CFB059B4C4A1C
:1040980093F85E0052F82060002E51D00593FFF788
:1040A8001DFC059B21462A460020B0476FF00800FA
:1040B80005F0F8FA434803F031FE384651462246E7
:1040C8002B460CF051FFBCE7BBF1000F01D0FDF708
:1040D80071F83D4802F094FE28B13C49FCF70CFA0F
:1040E800064600284FD0D9F86020601E130643EA20
:1040F800126E02F47F414EEA012302F47F0243EA82
:10410800122C291DE04700209CE7384651462246DC
:104118002B46FFF7DBFE95E7B0F1FF3F47D010F1E4
:10412800020F23D010F1030FA7D1BBF1000F01D06C
:10413800FDF740F86FF0060005F0B4FA012081E7BA
:10414800BBF1000F04D0FDF735F8059991F85E0032
:1041580004F0A2FE99F85E2001461D4803F0F6FD22
:104168006FF0070005F09EFA01206BE7D9F84410BC
:10417800B1B199F822E0BEF1040F7FF47EAF154883
:1041880003F0CCFD79E706ACD9F854201249204653
:1041980009F0D2F82146114803F052F8304651E7A9
:1041A8000F4803F0BBFD6FF0700005F07BFA38464E
:1041B800514622462B460CF0D7FE5EE754290020D4
:1041C800E83C0100784201003C4201000033010054
:1041D80048420100B8410100C8350100CC35010052
:1041E800F441010030B50D4C0D4D8646281B80105A
:1041F80000EB400505EB051C0CEB0C2583B08C4649
:1042080005EB05450092019300EB850172462046B7
:10421800634603F059FB03B030BD00BFF48F0100C3
:104228006092010048F20001C4F20301D1F898201D
:104238002D4BC2F3422CBCF1070F10B4D1F89010EB
:10424800186027D10124C1F30241B0FBF4F4072917
:104258005C6029D10124C2F38201B0FBF4F4072980
:104268009C602BD10124C2F34211B0FBF4F407295E
:10427800DC602DD10121C2F34232B0FBF1F1072AF3
:1042880019612FD0194951F82220B0FBF2F058617A
:1042980010BC7047154CC1F3024154F82C40072953
:1042A800B0FBF4F45C60D5D0104C54F82140C2F354
:1042B8008201B0FBF4F407299C60D3D00B4C54F86E
:1042C8002140C2F34211B0FBF4F40729DC60D1D0DD
:1042D800064CC2F3423254F82110072AB0FBF1F120
:1042E8001961CFD10122D0E7E02900203043010035
:1042F800704700BF2DE9F04E46F20006C4F20106F1
:1043080088B031686C4803F021FD48F20002C4F21D
:104318000302916C694803F019FD4EF20403CEF2D2
:1043280000031D684EF2001205F01F00411C4901F0
:104338004FEA511C01232024CEF200026FF0704096
:104348000CF1FF3E634542F824000EEA030412D044
:1043580034B102234FF02109634542F829000AD0FD
:1043680003F1200903F121070233634542F82900CC
:1043780042F82700F4D14EF200148E0801204FF0C5
:10438800000ECEF20004B04284F800E3754621D056
:1043980001254DB14EF201130220CEF20003B042C6
:1043A80083F800E3754615D04EF20014CEF20004EF
:1043B80000F1010C02190CEB04050CF101004EF29E
:1043C800001482F800E385F800E30025B042CEF23D
:1043D8000004E9D1D4F880204EF2004694F8007326
:1043E800CEF20006009701964EF280134EF6005664
:1043F8004EF20407CEF20006CEF20007CEF200031A
:104408002F4803F0A3FC31682E4872683B68019777
:10441800009703F09BFC2C4F46F20003C4F2010303
:104428004FF40021C4F880109D60C4F880113D76D7
:104438003D84BD627D8687F8345018684EF2802C22
:1044480040F010021A6018684EF2002E20F0200288
:104458001A6098684EF2801220F0010098609868FF
:10446800CEF2000C40F0020098602160D4F8801071
:10447800D4F88031D4F800A0D4F80091D6F804B06C
:104488007669CEF2000ECEF200021048CDF800C0D8
:10449800CDF804A00294CDF80C90CDF810E0CDF83A
:1044A80014B0FD617D62FD623D86069603F04EFC08
:1044B80008B0BDE8F08E00BF50430100744301000E
:1044C8009C430100DC430100E02900201C4401005A
:1044D80070B5564E82B00546152355488DF8043000
:1044E80086F835508DF805504EF2001403F02EFC76
:1044F80046F20003C4F201034FF40021CEF2000497
:104508000022C4F880109A60C4F88011186819460F
:1045180040F001021A600C6846F2000304F0010042
:104528000090009AC4F20103002AF4D102A911F8FC
:10453800040D4FF0020E3076A6F820E0B2627286C3
:10454800307E1C68F16124F004013A4C4FF0030CF2
:104558001960F4627262A6F830C019464A6846F2D9
:10456800000302F001040094009AC4F20103002A37
:10457800F4D09861196821F004021A605C6804F0AC
:10458800010000900099002943D09DF805204FF0C4
:10459800000C1A615C6804F001000090009B052380
:1045A800A6F820C086F8343046F20003C4F20103AE
:1045B8009A684EF2001042F00304CEF200004FF465
:1045C80000219C600160B6F832E0184CBEF1020F81
:1045D800F9D1B4F832C018481FFA8CF294F839109F
:1045E80094F8383003F0B2FB4DB1012D0CD0022DF8
:1045F80003D194F8393084F83E3002B070BD94F895
:10460800390084F83C00F8E794F8391084F83D1034
:10461800F3E7318C0DF10502481E1FFA80FE0124D4
:10462800A6F820E0F26186F83440BDE7E0290020D2
:1046380084440100182A0020A444010010B51B4836
:1046480048F20004C4F2030403F080FB184803F0A6
:104658007DFBA16B174803F079FBA16F164803F0A7
:1046680075FBD4F8F010154803F070FBD4F8F4107B
:10467800134803F06BFBD4F80C11124803F066FBE7
:10468800D4F81011104803F061FBD4F890110F48CA
:1046980003F05CFB4EF20013CEF200034FF0005221
:1046A800C3F88021C3F8802010BD00BFEC4401008E
:1046B8000C45010024450100444501006C450100FA
:1046C80094450100BC450100E44501000C46010089
:1046D80070B5E02886B003D0E1282FD006B070BDB1
:1046E80048F2000142F210730593C4F20301D1F8B5
:1046F8009800059C621E10F4805F059202D1059D0A
:10470800002DF4D11A4848F20006C4F20306D6F880
:1047180098104FF28004D6F89C200669059DC3685E
:10472800C0F2FA24134800960194029503F00EFB98
:10473800114806B0BDE8704003F008BB0C4C48F2C5
:104748000003C4F20303D3F898102569D3F89C201A
:10475800E3684FF28004C0F2FA24084800950194F7
:1047680003F0F4FA064806B0BDE8704003F0EEBA6C
:10477800E02900202C460100704601009046010007
:10478800CC46010046F20003C4F201032DE9F04EC5
:104798005C689A68E4B2144014F0020F86B01CD129
:1047A80014F0010F02D106B0BDE8F08E914C94F8D8
:1047B8003420022A00F0A080052A21D0012A00F026
:1047C800ED8046F20003C4F201039A68002022F04B
:1047D8000101996084F83400E5E7864A186992F87F
:1047E800343085B2E8B205F40045052B00F2558156
:1047F800DFE813F057014D014D01330175012D011B
:10480800A26A002A31D1276C636CA56C07F5806E0B
:10481800EA1896459CBF4FF48066039601D9D61BCB
:1048280003969742C0F09C8173490020039002913F
:10483800029E94F8351094F850206662FF1A6F486B
:10484800039B0097019503F081FA039BA362A06A7A
:1048580058B946F20003C4F201039A68654922F088
:1048680001000322986081F83420A16A614B002975
:1048780000F06A8146F20002C4F201029D6A1068E3
:10488800596A20F004031360536803F0010005908F
:10489800059B002B00F08A81002D00F087810B78A2
:1048A800136150686B1E00F001060596059803F029
:1048B80001060123D0B1012D18D926B14878022369
:1048C8000CE09D4212D9C85C01331061506800F0B9
:1048D80001000590059848B1C85C01331061506823
:1048E80000F00100059005980028EAD1A26AC918CD
:1048F800D31A6162A36256E7A16A00293FF453AF55
:1049080046F20001C4F20101A56A0B68606A23F04F
:1049180004030B604B6803F001030593059B002B10
:1049280000F04881002D00F0458103780B614E6846
:104938006B1E06F001070597059E03F0010701238A
:10494800DEB1012D19D92FB1467813460E610DE05D
:104958009D4212D9C25C01330A614A6802F0010221
:104968000592059A4AB1C25C01330A614A6802F0AD
:1049780001020592059A002AEAD1A16A1D4A9942C4
:1049880000F2D58046F20003C4F20103996821F0D1
:1049980001009860032082F8340004E7238C002B80
:1049A8003FF401AF46F20001C4F20101258C0B6807
:1049B800ADB223F0040008604B68E06903F001031E
:1049C8000593059B002B00F0F380002D00F0F0808C
:1049D80003780B614E686B1E06F001070597059E6C
:1049E80003F00107134606B3012D1ED957B14278CB
:1049F800022312E0E0290020302A0020E8460100C6
:104A08009D4212D9C25C01330A614A6802F0010270
:104A18000592059A4AB1C25C01330A614A6802F0FC
:104A280001020592059A002AEAD1218C6B4A1FFAE5
:104A380081FC9C4500F281804FF0000CA2F820C058
:104A4800906A0028A6D0022382F83430ABE60DBB6A
:104A5800D16A487082F83450A2E6002D3FF4A0AE27
:104A6800127E5E4B904215D14FF0000159865A8E46
:104A7800D96A1FFA82FC01F80C005A8E0421501CD6
:104A88001FFA80FCA3F832C083F8341088E6002DA2
:104A98003FF486AEFFF71CFE82E6002082F8340061
:104AA8007EE6002D3FF47CAEF128F3D14FF00001F3
:104AB8005186508ED36A80B26FF00E0C03F800C096
:104AC800508E01301FFA80FCA2F832C0508E1FFAB7
:104AD80080FC03F80C10042182F8341060E6002DE5
:104AE800D8D1B2F832C0D16A1FFA8CF3CE1816F8B2
:104AF800013C3A4EF12B5FD0B6F832C0338E1FFA24
:104B08008CFC9C4509D2B6F832C01FFA8CFC01F81F
:104B18000C00718E481C81B27186508E82B293420D
:104B28007FF43EAE2D4B002183F8341038E6916AAD
:104B3800C018CB1A5062936235E6118CC018CB1A94
:104B48009BB2D06113842EE646F20002C4F2010241
:104B5800906820F001010320916083F8340022E678
:104B6800D4F84CA01E4B3D4602935746DDF80C90F6
:104B78004FF0000BAA4601E0AA44AB44029A4FF654
:104B8800FA75A94538BF4D4602EB0B035146FE683E
:104B980038462A46B04710B9B9EB0509ECD1276C5D
:104BA8000399636CCF19A56C276441E600239DE641
:104BB80000233AE70023E0E6B6F832C01FFA8CF388
:104BC800C854B6F832E01FFA8EF00A1812F8010C31
:104BD800FFF77EFD86F83450E2E500BFE0290020AB
:104BE800302A002070B51A4D82B0E96C06460A6872
:104BF800184803F0ABF8402003F0CAFA044600282E
:104C080021D0EB6C31461846DD6840222346A84780
:104C1800A0B92146104803F099F804250F4803F07D
:104C280095F82A46214610232046009507F03EF8BD
:104C3800204603F0E1F9012002B070BD084803F0F6
:104C480085F80020F8E7074803F080F80120F3E72B
:104C5800E02900201847010080470100E85E0100B4
:104C6800684701004847010070B51C4D0446E86CD0
:104C780082B008B10CF0A0F94EF20012CEF2000298
:104C8800042148F20003C2F88010C4F203039E6CAA
:104C9800002046F400769E64C2F88011996C224682
:104CA80021F400719964014603230CF061FA04466B
:104CB80058B1426880680026810A33460848EC6487
:104CC800009603F043F802B070BD0146054822463D
:104CD80002B0BDE8704003F039B800BFE0290020F9
:104CE800CC470100A04701002D4830B5056848F2BF
:104CF8000004C4F20304E560416883B0C4F8981066
:104D0800826842F21073C4F89C2021460193D1F8BE
:104D18009830019C621E13F4805F019202D0019DBD
:104D2800002DF4D1426848F200051E4CC4F2030578
:104D380046F60000C5F89820C0F68910FFF772FA09
:104D480021694BF2C53C01F56123C9F2A21CACFBF9
:104D58000310010D4FF08040FEF7F6FC002021689B
:104D6800FCF71CF901206168FCF718F90220A1681A
:104D7800FCF714F90320E168FCF710F90420216915
:104D8800FCF70CF961690520FCF708F9D5F89810CB
:104D98000548D5F89C2003B0BDE8304002F0D6BFE6
:104DA800D0000020E0290020F84701002DE9F04458
:104DB8004A4888B002F0CAFF494848F2000105682D
:104DC800C4F2030145F4FF54CC60D1F89C200022C2
:104DD800C1F89C20D1F89C3043F40077C1F89C704E
:104DE800D1F89C6042F2107346F48065C1F89C507B
:104DF800D1F89C4044F00202C1F89C200693069F1B
:104E08007E1E069606990029F9D148F2000142F261
:104E180010730793C4F20301D1F89840079D6A1EE6
:104E280014F4805F079202D1079E002EF4D14FF050
:104E3800000A48F2000780F80CA0C4F20307D7F86C
:104E480098504FF2800425F46E6E2EF01C02254E09
:104E5800C0F2FA24C7F898202046FFF7E3F9316931
:104E68004BF2C53C01F56123C9F2A21CACFB03104F
:104E7800050D29464FF08040FEF766FC5046316824
:104E8800FCF78CF801207168FCF788F80220B168FB
:104E9800FCF784F80320F168FCF780F804203169F6
:104EA800FCF77CF871690520FCF778F80320D6F840
:104EB8000CA0FCF769F8D7F89810D7F89C20079F42
:104EC800069E00905346084801950294039704965D
:104ED80002F03CFF08B0BDE8F08400BF14480100B0
:104EE800D0000020E029002028480100F0B446F254
:104EF80000034EF20017C4F201034FF40024CEF26F
:104F080000070026C7F880409E60C7F880411D68EA
:104F180082B045F001041C601F6846F2000407F0E7
:104F280001050095009DC4F20104002DF4D1214E25
:104F3800274630763584B5627586307E2368F262FE
:104F480023F004024FF006032260F5617562338690
:104F58007A6846F2000302F001020092009AC4F255
:104F68000103002AF4D098611A68184642F0040236
:104F78001A60426846F2000302F001020192019AA7
:104F8800C4F20103002AF4D059611968032021F002
:104F980004021A6086F8340099684EF2001041F055
:104FA8000202CEF200004FF400219A60016002B0C4
:104FB800F0BC7047E0290020F0B585B0224C03AE64
:104FC80000230520314601AA84F850348DF80C30AE
:104FD8008DF80D30FFF78AFF608E1B4D0628FBD138
:104FE800698E9DF80420062913D0638E17489BB25A
:104FF800C82102F0ABFE314615489DF80C209DF8FB
:105008000D3002F0A3FE4FF0FF3E84F854E405B0E3
:10501800F0BD052AE9D19DF80570B5F832C00B48F6
:105028001FFA8CF3394602F091FE314608489DF884
:105038000C209DF80D3002F089FE002FE3D19DF879
:105048000C2085F85424E2E7E02900208448010078
:10505800D84801002DE9F04E94B00EAC0023251D70
:1050680045F8043B45F8043B0120214612AA2B6071
:105078000E93FFF73BFF2948428E062AFCD1274FA3
:105088009DF848207E8E062E41D0C821B0F8329077
:1050980023481FFA89F302F059FE9DF841509DF804
:1050A80042009DF8431007959DF8445008900991D7
:1050B8009DF845009DF846109DF83AC09DF83B7054
:1050C8009DF83C609DF83DE09DF83EA09DF83F901E
:1050D8009DF840B00A959DF847500B900C919DF8AB
:1050E80038209DF8393021460E48CDF800C0019788
:1050F8000296CDF80CE0CDF810A0CDF81490CDF8BC
:1051080018B00D9502F022FE14B0BDE8F08E012A09
:105118000CBF9DF84910C821B8E700BFE02900205E
:105128000C4901005C490100F0B5012A89B0054627
:105138006FDD5E6862B648F20003C4F20303DC6800
:10514800964F97483C60D3F89820964C7A60D3F8ED
:105158009C10B960396802F0F9FD7968924802F04C
:10516800F5FD9248B96802F0F1FD4FF0FF33904821
:1051780084F83E3084F83C3084F83D3001F040FE3D
:10518800002850D000210A2206F0FAFFA0648948BE
:1051980001F036FE002853D000210A2206F0F0FF65
:1051A800606430468449FBF7A7F948B9FFF7A2F8CD
:1051B800FFF750FFFFF700FF72B6012009B0F0BDFE
:1051C80030467E49FBF798F940B330467C49FBF7F7
:1051D80093F900283BD1FFF78DF844F64030C0F230
:1051E8004C00FFF741FD606CFFF7FCFC754802F0CE
:1051F800ADFDFFF7DBFD734802F0A8FDFFF77AF875
:10520800606CFFF7EFFC6F4802F0A0FDFFF76CFD44
:10521800D2E772B6284602F0B1FACEE7FFF76AF88D
:10522800FFF7C4FDC8E7684802F090FD4EF6D000CD
:10523800C0F22400A0645F4801F0E2FD0028ABD171
:10524800624802F083FD4FF482016164A9E73046A9
:105258005F49FBF751F920BB4FF28000C0F2FA20FA
:10526800FFF702FD606CFFF7BDFC606C4030FFF794
:10527800B9FC606C8030FFF7B5FC606CC030FFF79C
:10528800B1FC606C00F58070FFF7ACFC626C02F555
:10529800A070FFF7A7FC636C03F5C070FFF7A2FCD2
:1052A8008AE730464B49FBF727F9074618BBFFF753
:1052B80021F844F64030C0F24C00FFF7D5FC656C8D
:1052C80038462564FFF704F994F83C2094F83D30FB
:1052D80094F83E5003AC20463F49009508F02CF85E
:1052E80021463E4801F0ACFF3D493E4801F0A8FF89
:1052F80003F0A8FC60E730463B49FBF7FDF878B9B6
:10530800FEF7F8FFFFF752FD4FF28000C0F2FA20D7
:10531800FFF7AAFC616C01202164FFF7D9F84BE77D
:1053280030463249FBF7E8F878B9FEF7E3FFFFF7B4
:105338003DFD4FF28000C0F2FA20FFF795FC636C48
:1053480002202364FFF7C4F836E730462849FBF704
:10535800D3F800284ED1FEF7CDFF44F64030C0F216
:105368004C00FFF781FCFFF721FD656C01202564E7
:10537800FFF7AEF894F839200A4D002A7FF41CAFE5
:10538800696C02202964FFF7A3F895F83900002812
:105398007FF412AFFFF7A8FC96E700BFD00000200B
:1053A800D4490100E0290020EC4901000C4A010021
:1053B8002C4A0100604A010070360100784D010056
:1053C800A44D0100944A01003C4A0100704A0100C2
:1053D800B43B0100F05C0100A04A0100C04A010092
:1053E800D84A0100D04A0100CC520100E84A010025
:1053F800EC4A010030463F49FBF77EF8002833D1DC
:10540800FEF778FFFFF726FEFFF7D6FD44F640309B
:10541800C0F24C00FFF728FC606CE56C00F5BE722A
:10542800511C354B01222846ED68A847334894F8AB
:10543800541494F8552402F089FC94F854C494F850
:1054480055349C4508D0636C00202364FFF740F86E
:1054580094F839102A4C79B172B62A4801F0D0FC78
:10546800002104F073F9A8E630462749FBF744F811
:10547800B0B9FFF739FC9FE6FFF798FC616C012093
:105488002164FFF725F894F83920002A7FF494AEB8
:10549800636C02202364FFF71BF8FFF725FCDBE7AA
:1054A80030461A49FBF728F80028D5D03046184965
:1054B800FBF722F860B948F20001C4F203010A6E52
:1054C80022F00100086605F071FE05F0F3FE73E6B0
:1054D80030461049FBF710F810B906F051F86BE6A2
:1054E80030460D49FBF708F800287FF492AE05F026
:1054F800E1FE61E624590100352E0020F04A010042
:10550800E0290020D04A010018330100805301002F
:105518000C3301002C4B01003C4B0100C3B203F0DB
:105528006002402A06D003F07F033F2B08BF40F0FB
:105538004000704720F04000704700BF037863B117
:10554800002259B210F8013F5218002BF9D1C2F3CA
:105558008110821802F03F0070471846704700BF5C
:10556800024B00219A6819605A607047382E002053
:10557800034B1A681AB9596801F8010B596070474A
:10558800382E00200348002208B5C26003699847F6
:1055980008BD00BF382E0020034BD8681A68596828
:1055A8005861D9619A617047382E0020034B5869B9
:1055B8009A69D969D86059601A607047382E0020F6
:1055C80010B5114C0346E2689AB1C1B201F060000F
:1055D8004028226A08BF23F0400305D001F07F016C
:1055E8003F2908BF43F04003184690470023E36073
:1055F80010BD94F924C0844502D0216A884710BDA3
:105608000122E26010BD00BF382E002070B5124D97
:10561800AC6A002C1CDD013C95F92C0004F0010655
:1056280002F058FC002C14DD36B1013C95F92C0031
:1056380002F050FC002C0DDD013C95F92C0002F025
:1056480049FC013C95F92C0002F044FC002CF3DCE9
:1056580070BD70BD70BD00BF382E002010B5044667
:10566800FFF7D4FF237833B158B202F033FC14F8B3
:10567800013F002BF8D110BD6C4B00211A6B30B4E0
:1056880099620D2403F1470583F82C10674983F8C4
:105698002D402324AA4208BF03F1460201F1340C2D
:1056A80008BF1A63CCEB0202002A83F8244066DDA7
:1056B8004FF07E0C013A81F84CC000F09C80212507
:1056C800013A81F84D5000F08F8091F93640203C26
:1056D80004F0FF05013A4FF020048D6281F84E4036
:1056E80000F08D8091F837105FFA81FC0CF06005AE
:1056F800402D08BF0CF0BF0106D00CF07F0CBCF1A8
:105708003F0F08BF41F0400183F82C104021013AB7
:1057180083F84F10454C79D094F838102D2520394E
:10572800C9B2013A84F8505084F82D1060D094F82A
:1057380039504FF0230C013A84F8245084F851C0B2
:105748006BD04FF04E0C013A84F852C068D0312526
:10575800013A84F8535066D0012A84F854C059D0CD
:105768007E2222254FF0200C84F8555084F85820CA
:1057780084F856C084F857201125302402E00D2102
:105788000425232400F1200C83F84940EA1883F803
:105798004AC0002001244FF0590C83F8484083F890
:1057A8004BC082F8480093F84920002A2BD0204C9F
:1057B8004FFA82FC14F8012F6044002AF8D1C0F394
:1057C800811C0CEB000202F03F0000F1200C681C69
:1057D800C218EB18174883F848C0002382F84930EC
:1057E80082F8481030BC39E70D2106252524C9E781
:1057F80009252824C6E70D2105252424C2E70D2103
:1058080007252624BEE74FF0200CE0E70D210825E8
:105818002724B7E70D252C24B4E70A252924B1E766
:105828000B252A24AEE70C252B24ABE7382E0020C5
:10583800812E0020802E0020154A203023230021AD
:105848004FF0010C82F84A004E2082F84B0082F893
:1058580048C082F8493082F84C1002F149004FFAEA
:1058680083FC10F8013F6144002BF8D1C1F381108B
:1058780000EB010C0CF03F0000F1200C92F82D1009
:10588800044882F84E3082F84CC082F84D10E5E6A4
:10589800382E0020802E0020154A20302323002196
:1058A8004FF0010C82F84A00592082F84B0082F828
:1058B80048C082F8493082F84C1002F149004FFA8A
:1058C80083FC10F8013F6144002BF8D1C1F381102B
:1058D80000EB010C0CF03F0000F1200C92F82D10A9
:1058E800044882F84E3082F84CC082F84D10B5E674
:1058F800382E0020802E00202DE9F044ADF5866D6D
:105908000DF5846A0AF10C0A0223074651460DF583
:105918008460CDF8243405F05BFB0546002833D1BC
:1059280004466E4603E0ED18E418FAF7DBFF4FF47F
:1059380080615246304605F08DF9E119031E1A467A
:1059480008463146EFDC2C46504604F005FF00209F
:10595800134904F04FFF384621460BF003FB0DF5C1
:10596800806429462A460F4802F0F0F92A460E4973
:10597800204607F0E1FC21460C4801F061FC38465E
:105988000DF5866DBDE8F084DDF82C0404F0C2FE48
:1059980000240146064802F0D9F92546D4E700BF9D
:1059A800BD5900005C4B0100844B0100CC3501005F
:1059B800C05F010010B502F097FA10B94FF0FF3040
:1059C80010BDBDE8104002F099BA00BF2DE9F04EB5
:1059D800AB488CB016461F4601F012FA002800F0BA
:1059E8007A810021102206F0CBFB04464346012EA3
:1059F8009D6808DD00211022786806F0C1FB032E9F
:105A0800044600F06B812E4638689E49FAF774FD0B
:105A18000746002821D19C482146324602F096F9D3
:105A28002046FFF769FFAE4213D02946974802F097
:105A38008DF94CF2503006F093FB43469D60FDF71C
:105A480025FE4CF2503006F08BFB02F057FA1B286B
:105A5800FBD138460CB0BDE8F08E8D482146324661
:105A68008C4F02F073F98C498C4A0D234FF0000AD1
:105A7800232039613A6287F82D3087F82400BC600A
:105A8800C7F828A087F82CA0FFF77CFDF9683A68CA
:105A98007B687961BA61FB614FF0FF3B07F134091C
:105AA80002940395C7F8309002F028FA012852D0E2
:105AB8000328F9D1029C039D00274FF0000A0FE04C
:105AC8004FF47A7006F04CFB02F00EFAC0B90AF1F6
