:100000000000012075030000A1020000A102000011
:10001000A1020000A1020000A1020000A102000054
:10002000A1020000A1020000A1020000A102000044
:10003000A1020000A1020000A1020000A102000034
:10004000A1020000A1020000A1020000A102000024
:10005000A1020000A1020000A1020000A102000014
:10006000A1020000A1020000A1020000A102000004
:10007000A1020000A1020000A1020000A1020000F4
:10008000A1020000A1020000A102000071460000D0
:10009000A1020000A1020000A1020000A1020000D4
:1000A000A1020000A1020000A1020000A1020000C4
:1000B000A1020000A1020000A1020000A1020000B4
:1000C000A1020000A1020000A1020000A1020000A4
:1002980062B6704772B67047684600F001F8FEE72C
:1002A80070B5044600F078FC0546224807F062FC69
:1002B8000F2D9DBF204B214853F82510A5F11001A3
:1002C80088BF1F4807F056FC22681E481E4907F0E1
:1002D80051FC62681D491B4807F04CFC1C4807F09C
:1002E80049FCA26817481B4907F044FCE2681A4910
:1002F800144807F03FFC164807F03CFC22691148F7
:10030800164907F037FC626915490E4807F032FCB8
:100318000F4807F02FFCA2690A48124907F02AFC87
:10032800E2690848104907F025FC0948BDE8704013
:1003380007F020BCE8270100A8270100E8580100C1
:10034800002801000C280100182801001C280100C1
:10035800085801002028010024280100282801004D
:100368002C280100302801003428010010B572B68D
:1003780009480A4A0A49121A00F086FA09480A493D
:100388000A1A002100F012FA084A094B1A60BDE85F
:10039800104000F059BE00BF00000020700E002081
:1003A800AC7A0100700E0020584B002000F00020AD
:1003B800700E00200023CA5CC2540133002AFAD10F
:1003C800704700BF002312F0010F10B404D00C785E
:1003D800013A047001237CB172B1CC5C03F1010CC9
:1003E800C454013A44B111F80C400CF1010300F86F
:1003F8000C40013A002CEFD110BC704790F9003046
:1004080010B463B1024612F9014F002CFBD100234E
:10041800CC5CD4540133002CFAD110BC704702468E
:10042800F5E700BF70B41346002A32D090F90020D7
:10043800002A30D0024612F9014F002CFBD10C786B
:1004480003F1FF3C0CF00106147014B34FF0010CDB
:100458009C4502EB0C051AD04EB111F80C4002F87D
:100468000C40B4B14FF0020C01359C450FD011F887
:100478000C600CF10104013502F80C60013504F13F
:10048800010C36B10E5D16551EB19C45EFD1002307
:100498002B7070BC70470246D1E700BF10B4002330
:1004A800C25CCC5C0133141BE4B224B9002AF7D136
:1004B800104610BC704760B2FBE700BF70B413462B
:1004C800AAB104780A78A21AD2B2002A30D174B13B
:1004D8005C1E14F0010F944627D045784A782346CD
:1004E800AA1AD2B2002A23D14FF0010CEDB900208C
:1004F80070BC704701EB0C0500EB0C046A7864785B
:100508000CF1010CA21AD2B200EB0C0601EB0C059F
:1005180072B9002CEBD074786A78013BA21AD2B277
:1005280032B90CF1010C002CE1D0013BE2D1DEE73D
:1005380050B2DDE7037849B25AB28A4208D033B1E3
:1005480010F8013F4FFA83FC8C45F8D17047002022
:10055800704700BF90F9002003462AB1024612F9FD
:10056800010F0028FBD1D21A981890F900C049B29F
:100578008C4502F0010215D00138834210D832B1FF
:1005880090F900208A420CD00138834208D890F9AB
:1005980000208A4205D010F901CD8C45F4D170476E
:1005A80000207047704700BF90F9003033B1034610
:1005B80013F9012F002AFBD1181A70471846704703
:1005C800D9B190F90020C2B14B1E13F0010F0246B9
:1005D8000CD1013243B192F90010013B21B112F95B
:1005E800011F013B0029F4D1101A7047024612F985
:1005F800011F013B0029ECD1F6E70020704700BF3E
:1006080070B403780246C3B10E78B6B176B2002052
:100618005BB29E4218BF0C4602D109E0634507D081
:10062800657801344FFA85FC002DF7D170BC70470E
:100638000130135C002BEBD1F8E70020F6E700BF90
:10064800F0B40378ABB10E78054677B2284666B1A8
:100658005BB29F420ED00A4601E063450AD0547847
:1006680001324FFA84FC002CF7D115F8013F002B1A
:10067800ECD10020F0BC70472DE9F004002844D0EC
:10068800274E0478002C45D00D78002D45D0002742
:100698004FFA85FA64B2A24518BF0A4602D124E08F
:1006A800A44522D0537801324FFA83FC002BF7D1AE
:1006B800C0190378002B2DD007464FFA85FA65B18B
:1006C8005BB29A4516D00A4601E09C4512D0547890
:1006D80001324FFA84FC002CF7D117F8013F002BA8
:1006E800EDD13360BDE8F00470470137C45D002CDC
:1006F800D0D1DDE73B46002FF3D097F90020002A40
:10070800EFD0002103F8011BEBE7054E3068002805
:10071800E8D0B6E700203060E4E72F46C8E700BF1E
:10072800740E002003682DE9F004CBB11D78ADB13B
:100738000F781E464FFA87FA67B16DB2AA4513D0F3
:100748000A4601E0AC450FD0547801324FFA84FCD8
:10075800002CF7D116F8015F002DEDD100220260C0
:100768001846BDE8F00470473246002EF7D0002145
:1007780002F8011B0260F3E7034608B91846704700
:10078800017879B140780028F8D01A4603E0D0788B
:1007980002320028F2D05170917810700029F6D1F9
:1007A800184670470B461846704700BF10F0030FF5
:1007B80030B404462AD101F0FF0343EA032C43EA8C
:1007C8000C25032A43EA052520D9A2F1040C0423A9
:1007D800BCF1030F0560CCF3800410D92CB1A2F151
:1007E80008040823032C456009D903F1040CC550FB
:1007F8000CF10403D41A032C40F80C50F5D8043A31
:1008080022F00304231DC41802F00302AAB1531EE8
:1008180003F001050123C9B29A4221700DD01DB120
:1008280002239A42617008D003F1010CE1540CF1E3
:1008380001039A4204F80C10F6D130BC704700BF8F
:10084800034610B41046E2B11C7802F1FF3C0122C5
:1008580082420C700CEA020413D034B193F801C040
:100868000222824281F801C00BD09C5C02F1010C8B
:100878008C5413F80C400CF10102824201F80C4030
:10088800F3D1084610BC704741EA000313F0030F88
:1008980030B404460D4628D1032A26D90C68A2F1A3
:1008A800040C0423BCF1030F0460CCF3800414D9B6
:1008B80034B14D68A2F108040823032C45600CD913
:1008C800CC5803F1040CC4500CF1040351F80C503B
:1008D800D41A032C40F80C50F2D8043A22F003053D
:1008E8002B1DCD1802F00302C418CAB12978531E73
:1008F800217003F0010101239A4211D021B16978D6
:1009080002239A4261700BD015F803C0591C04F8F1
:1009180003C015F801C04B1C9A4204F801C0F3D17A
:1009280030BC70478842F0B41FD8E2B10C7801237C
:1009380002F1FF3C934204700CEA030413D034B173
:1009480091F801C00223934280F801C00BD0CC5C1F
:1009580003F1010CC45411F80C400CF1010393424B
:1009680000F80C40F3D1F0BC7047002AFBD089187E
:1009780011F8013C8418551E04F8013C05F00106E5
:100988004FF0FF33002DEED03EB111F802CC022A11
:100998006FF0010304F802CCE5D0CD1815F8017CFE
:1009A80003F1FF3CE61806F8017C01EB0C0515F88D
:1009B800017C0CF1FF3304EB0C069D1806F8017C52
:1009C800002DEAD1CFE700BFF0B403469446002AD1
:1009D80030D005780A78AD1A29D10CF1FF3616F017
:1009E800010F2A4618D0447848780122201AB446C4
:1009F8001ED19C18881801329F188E180132BCF13C
:100A0800010C0CF1FF3C12D064784078201A0FD109
:100A18007C787078201A0BD19C18881801329F189E
:100A28008E180132BCF1010C0CF1FF3CECD12846C8
:100A3800F0BC70471046FBE71346CAB102788A42F9
:100A480019D05A1E12F0010F0DD010F801CF13461D
:100A58008C4508D1704790F800C08C4509D010F833
:100A6800012F8A4206D00130013B03F1FF33F2D156
:100A780070477047704770472DE9F00E91F90030C4
:100A880083B081463BB10B4613F9012F002AFBD1F5
:100A9800B3EB010A04D1484603B0BDE8F00E704735
:100AA80099F90030002B40D04B4613F9010F00286C
:100AB800FBD1C9EB030BD34535DB4846BAF1000F30
:100AC800EAD00B784FF0000C019319F80C30019A1A
:100AD8009A421FD10AF1FF34002314F0010F524645
:100AE8000AD046784D780123AE42224604D011E060
:100AF8007C787578AC420DD1C518CC180133C7186D
:100B0800CE180133013A02F1FF32C5D06D7864780E
:100B1800A542EDD00CF1010CCCEB0B00824502DCB8
:100B280009EB0C00D1E70020B6E79B46C3E700BFFE
:100B380012F0010FC9B205D090F800C0013A8C45F7
:100B48000DD00130531E4AB190F800C05A1E8C4592
:100B580005D010F8013F8B42F3D17047104670471B
:100B680010B5044600B910BD90F9003083B110F9F2
:100B7800011F0029FBD1001B013007F01DFA0146B7
:100B880029B10023E25CCA540133002AFAD110BD0E
:100B98000120F2E7002070474EF60053CEF2000322
:100BA8005868C0B2704700BF4EF69053CEF20003AB
:100BB8009860D9601A6170474EF69053002814BFA8
:100BC80003200020CEF20003586070474EF6905381
:100BD80040F23F00CEF200030021C0F200300322B1
:100BE8009960D96018615A60704700BF08B500F075
:100BF800ADF900F065F800F0E5F843461A6841F2EF
:100C08005E11D16000F0A4F9404603684FF020421D
:100C18001A61002008BD00BF012A2DE9F0441546DD
:100C28001C4637D00021102258680BF07DF8022DA1
:100C38008246D8BF1C4F16DC1C4E00251C48216874
:100C480006F098FF2B46504639463246194DA847BC
:100C580010B90020BDE8F0842168174806F08AFF23
:100C68000020BDE8F08400211022A0680BF05CF899
:100C7800032D0746E0D000211022E0680BF054F85D
:100C8800042D06460DD02069002110220BF0B2F881
:100C98000546D3E71968094806F06CFF0020BDE84F
:100CA800F084043DCAE700BF008000200040000037
:100CB800CC2801008D0C0020F0280100A828010094
:100CC80030B44EF210034FF6FE74CEF20003C0F2B9
:100CD800FF0406495C60002000240025012298607A
:100CE800C1E900451A6030BC704700BF780E00208B
:100CF8004EF21000CEF200008268034B0020002163
:100D08009A60C3E900017047780E0020012000F0C6
:100D18000DB900BF10B50446012000F007F94DF6E3
:100D2800836CC4F21B3CACFB00218B0C04FB03F46A
:100D38004EF21001CEF200018A6894420AD902F1FB
:100D48008073981E041B88688242FCD88B68A34273
:100D5800F9D810BD141B8868A04202D98B689A4242
:100D6800F9D210BD2DE9D04C154B4EF21004CEF23D
:100D780000049F68A2680446BA4284BF07F18077DE
:100D8800023FBE1AD3E9000110EB060A41F1000B3D
:100D98005F465646C3E900679A60012000F0C6F82E
:100DA80044F6D351C1F26201A1FB00B200235046C0
:100DB8003946920911F042F8001BBDE8D08C00BFFB
:100DC800780E002048F20003C4F2030310B4D3F8ED
:100DD8009400194620F00402C3F89420D1F8504139
:100DE80048F2000314F0010FC4F20303F6D0D3F85D
:100DF8009400194620F00102C3F89420D1F850411C
:100E080048F2000314F0020FC4F20303F6D0D3F83B
:100E18009840444A24F48051C3F89810D3F89810A5
:100E280046F60000C1F3422CC0F68910BCF1070F4A
:100E38001060D3F890003BD146F6000C0124C0F6B0
:100E4800891CC0F30240BCFBF4F3072853603DD172
:100E580046F6000C0120C0F6891CBCFBF0F3C1F378
:100E68008200072893603FD146F6000C0120C0F6A7
:100E7800891CBCFBF0F3C1F342100728D36041D1B1
:100E880046F6000C0120C0F6891CC1F34231BCFBB8
:100E9800F0F30729136143D0234850F8211046F690
:100EA800000CC0F6891CBCFBF1F3536110BC704701
:100EB8001D4BC0F3024053F82C4046F6000CC0F618
:100EC800891CBCFBF4F307285360C1D0164B46F6C7
:100ED800000C53F82000C0F6891CBCFBF0F3C1F3EA
:100EE800820007289360BFD00F4B46F6000C53F8DA
:100EF8002000C0F6891CBCFBF0F3C1F342100728A0
:100F0800D360BDD0084B46F6000C53F82000C0F65D
:100F1800891CC1F34231BCFBF0F307291361BBD133
:100F28000121BCE7880E00204C290100052803D8C0
:100F3800024B53F82000704700207047880E0020AD
:100F4800014B43F820107047880E0020704700BFFF
:100F580048F20003C4F20303012098619A6C42F03E
:100F680080019964986C20F080029A64FFF72EBE85
:100F7800704700BF704700BF704700BF704700BF91
:100F8800704700BF704700BF704700BF704700BF81
:100F9800704700BF08B5024806F0D4FDFEE700BF61
:100FA800A829010008B50748074906F0E3FD074AE4
:100FB8000748084B11681B680268074806F0DAFD05
:100FC800002008BDD429010068290100700E002006
:100FD800700E0020584B0020DC29010008B5094894
:100FE80006F0B0FD4246116807484A69002106F03C
:100FF800C1FD40460368054998690AF0DFFB0020F7
:1010080008BD00BF082A01001C2A01000858010079
:1010180070B590B040220B48694605F091FD4446F2
:1010280000286D462668D8BF4FF4E13004DD6846D5
:1010380000210A220AF078FEA060A368002033602D
:1010480010B070BD302A010038B5384C2268A2F5BE
:101058004058A8F12008002120224046FFF7A6FBAF
:101068004546A8F11C002860286800211C22FFF7CB
:101078009DFB4246D2F804C02D4B2E4D19682068BE
:101088004CF0010CC2F804C02B682B4A091A1160F5
:101098001BB908E055F8043F23B198470028F9D058
:1010A800FFF778FF2068A0F540504FF4405107F053
:1010B800C5FA07F0A9FC214841460C6805F0B4FDC3
:1010C8000AF0D4FD606009F069F907F039FD06F00F
:1010D800A9FD00F041F81A4805F0A6FD28B1002145
:1010E80010220AF021FE174B1860174805F09CFDE6
:1010F800014618B11548802200F06CFC144806F02F
:1011080021FD4446206800F031FB124806F032FD0C
:1011180048F20000C4F20300026E22F001050566E1
:1011280008F032FD08F030FDFAE700BF700E00202D
:10113800700E002000000020A00E00203C2A0100B4
:10114800442A010054000020502A010008280020E9
:101158005C2A0100642A0100704700BF0020704724
:1011680070B5A2B0044680222C4902A8FFF78CFB78
:10117800266BE56AE16BA26B636B294800960195C3
:10118800256C06F0F7FCA16A626A236A254806F016
:10119800F1FC2669E169A26963692348009606F0B3
:1011A800E9FC2668E168A26863682048009606F0B2
:1011B800E1FC15F0804F14BF5A227A2215F0005F27
:1011C80014BF4323632305F0704C15F0805F14BFF0
:1011D800562676261648BCF1000FB4BF4E216E2164
:1011E800009606F0C7FC206C22AA00F01F01114CE3
:1011F80002EB8103104A10F0800F14BF21461146FC
:1012080010F0400F18BF22460C4C53F8803C0C4895
:10121800009406F0AFFC22B070BD00BF802A010028
:10122800002B0100482B01006C2B01009C2B0100B6
:10123800CC2B0100E02B0100DC2B0100CC3301009A
:10124800E42B010008B503480AF0F6FE0020024B23
:10125800984708BD042C01006D0C002010B5044609
:10126800044806F087FC2046FFF77AFFBDE81040E7
:10127800E8E700BF182C010010B50446044806F042
:1012880079FC2046FFF76CFFBDE81040DAE700BFA5
:101298002C2C010010B50446044806F06BFC2046CF
:1012A800FFF75EFFBDE81040CCE700BF442C01000B
:1012B80010B50446044806F05DFC2046FFF750FFD1
:1012C800BDE81040BEE700BF502C010010B5044631
:1012D800044806F04FFC2046FFF742FFBDE81040E7
:1012E800B0E700BF5C2C010010B50446044806F0C6
:1012F80041FC2046FFF734FFBDE81040A2E700BFDD
:101308006C2C010010B50446044806F033FC204656
:10131800FFF726FFBDE8104094E700BF802C0100CE
:101328004FF0FF30704700BF014B1868704700BF8F
:10133800A40E0020104B5A689AB1D8B1136B9A4288
:101348000FD0012110F0010F0DD0884201F1010CDE
:101358000ED01B6B0CF101019A4202D01B6B9A4212
:10136800F3D1002070471B6B9A42FAD00221ECE7B8
:101378001846704710467047A40E00200B4A536861
:1013880083B11268934209D0002001E0934206D04D
:101398001B6B0130002BF9D1002070470020002A78
:1013A800FAD070474FF0FF30704700BFA40E0020FE
:1013B80010B5054C23682BB11846D96A88472368AD
:1013C8000122DA6110BD00BFA40E002008B5064B4B
:1013D80084461B680A4623B1184661465B6A9847EB
:1013E80008BD4FF0FF3008BDA40E002008B5054B1E
:1013F8001B681BB11846996A884708BD4FF0FF3033
:1014080008BD00BFA40E00200349044B086800284B
:1014180008BF1846704700BFA40E0020A02D010089
:1014280070B5084D06466C6844B121463046FFF752
:1014380035F828B1246B6B689C42F6D1002070BD4A
:10144800204670BDA40E002070B5154C2368002BF3
:1014580021D005F04FFBA168054611B1E06885422F
:1014680006D0104805F0E0FBE5600146A06098B1A1
:1014780025680B4E284600E0B168FFF70FF850B119
:101488002268106B85422060F6D106482946BDE8DF
:10149800704005F0E9BD70BD01490D68F5E700BF72
:1014A800A40E0020A82D010038B50546144805F003
:1014B800BBFB18B11349FEF7F1FF90B1124C23683A
:1014C8007BB17DB91B6B1148236005F0ADFB58B1AA
:1014D8000D4A1168FEF7E2FF30B921682069884299
:1014E8000AD038BD2361EDE72168084805F0BCFD46
:1014F800216820698842F4D1054B01221A6038BD61
:10150800B02D0100BC2D0100A40E0020A82D010063
:10151800140F002038B50F4D0446696851B10A46CA
:1015280000E01A46136B9942FBD114630020216333
:10153800E06138BD08486C602C6005F075FB18B197
:101548002968FEF7ABFF18B10348296805F08CFD40
:101558006968EBE7A40E0020A82D010030B587B01C
:1015680001AC0A460546054920460BF0B9FC284659
:10157800214605F079FD07B030BD00BFC02D010040
:1015880030B50C4683B0002855D001AD102229464D
:101598000AF0CAFB019B207093F90020002A48D169
:1015A800621C002B4AD01846294610220AF0BCFBC0
:1015B800019B607093F90000002838D1A21C002B11
:1015C8003FD01846102229460AF0AEFB019BA070B6
:1015D80093F90020002A28D1E21C002B34D01846A9
:1015E800294610220AF0A0FB019BE07093F9000045
:1015F800C8B9221D002B2AD01846102229460AF005
:1016080093FB019B207193F9002052B9621D002BB6
:1016180020D01846294610220AF086FB607103B0D4
:1016280030BD0133F2E70133E3E70133D4E7013397
:10163800C4E70133B4E70A4602F8010B002313702C
:10164800A21C00211170E21C00231370221D00212E
:101658001170621D00231370E1E700BF10B50C463E
:1016680005F0E2FA2146FFF78BFF237813F0010F0C
:1016780001D0002010BD607894F802C0E27840EAFA
:101688000C010B432179134362790B431A430CBFB6
:101698000020012010BD00BF30B50246084B0948A4
:1016A80089B0002A18BF03460D46684619460BF054
:1016B80017FC684629466C46FFF7D0FF09B030BDD5
:1016C800C42D0100CC2D01002DE9F044234E82B039
:1016D80033688246002B3BD0746800256F4605E0CE
:1016E800246B70681D4A844211D00135694628462A
:1016F800FFF7D2FF0028F3D0062204F11000694654
:10170800FFF7C2F8246B7068144A8442EDD114685C
:1017180015462146124806F02DFA336851461846F8
:101728001A6A904700280F480CDA06F023FA0020BE
:10173800FFF7BAFE29688C42ECD14FF0FF3002B0B7
:10174800BDE8F084054A02211068C1610020F6E76F
:10175800054806F0F7F94FF0FF30F0E7A40E002037
:10176800EC2D0100F82D0100D82D01002DE9F04ED7
:10177800574F002382B03B607B600446402007F04F
:10178800A5FE08F0AFFA204609F0C2FE0028C0F214
:101798008F807C68002C00F092804E4805F044FA57
:1017A8008146412007F092FE21464B4806F0E2F9B7
:1017B80000256E46DFF818B149462046B9F1000FFA
:1017C80002D0FEF76BFE00B328466946FFF764FFB8
:1017D800684642490622FFF7F7F8013528BB246B13
:1017E80079683F488C4232D006F0ACF921463A4835
:1017F80006F0C0F9DFF8D8B049462046B9F1000F25
:10180800E2D0FEF74BFE0028DED136483C6006F0F9
:1018180099F928466946FFF73FFF68462F4906228F
:10182800FFF7D2F801350028D9D004F1100A2B4966
:1018380006225046FFF7C8F8E8B96946062250461E
:10184800FFF722F8246B796825488C42CCD1DBF865
:101858000010002928D0244805F0E6F9F8B1DBF893
:101868000010FEF71BFED0B90A2006F047FA2846FA
:1018780002B0BDE8F08E062269465046FFF7A4F88C
:101888000028DAD02146194806F074F9514618485C
:1018980006F070F91748694606F06CF9CDE7396823
:1018A800114805F0E1FBDFE70F4805F0DDFBDBE75A
:1018B8002046FFF735FD7C68002C7FF46EAF0E489C
:1018C80006F040F96FF03F0007F000FE2546CEE72E
:1018D800A40E0020002E0100E4630100982D0100F1
:1018E8000C2E0100102E0100A82D01001C2E010055
:1018F800482E0100682E0100D82D0100014B02225C
:101908001A607047B80E0020704700BF014B58603E
:10191800704700BFB80E0020002910B42DDD012348
:101928004A1E8B4202EA0304028812D02CB1022319
:1019380030F803C08B4262440BD003F1010C30F83D
:10194800133030F81C40D2180CF1010312198B42E5
:10195800F3D191B201EB124C1FFA8CF303EB1C404C
:101968004FF6FE71421CC0F2000102EA0100D0F1FC
:10197800010038BF002010BC70470120FBE700BF02
:10198800002910B423DD01234A1E8B4202EA030416
:10199800028812D02CB1022330F803C08B42624473
:1019A8000BD003F1010C30F8133030F81C40D2187A
:1019B8000CF1010312198B42F3D11FFA82FC0CEBD4
:1019C800124290B200EB124188B210BC704700205E
:1019D800FBE700BF10B491F90030222B2ED0013A5A
:1019E800002A12DD0B7883B1222B0ED002F1FF3CC6
:1019F8001CF0010F1BD0BCF1000200F8013B04DD14
:101A08004B7813B10131222B11D10021017010BC88
:101A180070474B78611C002BF7D0222BF5D000F8CB
:101A2800013B6378013A002BEFD0222BEDD0013A2D
:101A38004C1C002A00F8013BEBDCE6E70131013AD7
:101A4800CDE700BF08B520B101783039CBB2092BFA
:101A580002D94FF60F7008BD0A2200210AF064F976
:101A680082B2130243EA122080B208BD10B505F015
:101A7800DBF8BDE81040E5E7094A10884FF6FF7229
:101A8800010A41EA00239BB2934207D01805030DCF
:101A980040F6FF7C634501D0122070470E20704746
:101AA80030000020020A42EA002C1FFA8CF24FF69E
:101AB800FF739A4209D040F6FF70824205D01305A1
:101AC800084604491A0D0BF00BBA08460249FEF7FE
:101AD80071BC00BF982E0100902E010030B502069F
:101AE80042EA106500F47F4345EA032400F47F00CE
:101AF80044EA102283B0C2F3072502F0FF04C2F3C0
:101B080007430846120E0349009501940BF0E8F9C3
:101B180003B030BD9C2E01000422FEF7B5BE00BF05
:101B280070B51B4E4FF6FF7334881646220A42EAF8
:101B38000425ADB29D4204461BD00622FEF7A4FE42
:101B48002D050622A01D1349FEF79EFE2A0D15F548
:101B5800801F16D0B6B22D0F330A45EA022543EA94
:101B680006264FF0810C2682E581A4F80CC01220CD
:101B780070BD0622FEF788FEA01D06490622FEF764
:101B880083FEB0B2010A41EA0026A6810E2070BD8C
:101B980030000020C00E0020FFF718BC2DE9F04EE1
:101BA800934D0D2984B004462861696133DD914E57
:101BB8008389728830884FEA122C070A1E0A47EA7E
:101BC80000204CEA022C46EA032640F6FF724FF644
:101BD800FF7380B21FFA8CFCB6B240F2E9579C45FD
:101BE80008BF9446984214BF03461346BE4215DD0B
:101BF800B6F5014F4AD00E3904F10E071B051B0D2F
:101C080040F6FF70834217D0824204BF4FEA0C525D
:101C1800120D934210D004B0BDE8F08EA08A1B05C7
:101C2800060A46EA00271B0D40F6FF701639834264
:101C3800BEB204F11607E7D140F6060C66453AD065
:101C480048F23502964211D0B6F5006FE3D11B2950
:101C5800E1D97888020A42EA002C1FFA8CF28A42FB
:101C680040F3D680644805F085FFD4E71B2940F38C
:101C7800B980F888020A42EA002C0FFA8CFEBEF1FD
:101C8800040F7DD05D4805F05DFFC4E71129C2DD72
:101C98000005000D9042BED0E789208A3E0A46EA38
:101CA8000722060A46EA00271205BEB2120D1239AB
:101CB80004F11207A2E71B2940F394803B881A0A13
:101CC80042EA032001B20129A5D17888030A43EA30
:101CD80000210FFA81FCBCF5006F9CD197F804A095
:101CE800BAF1060F97D17A79042A94D1A969DFF855
:101CF800009100298FD007F1180103AB0191184614
:101D080001990093FEF7C0FDD9F81800039A07F16E
:101D1800080B9042009B7FF47EAFF888020A42EAE3
:101D2800002E1FFA8EF2012A00F0D880022A7FF4D2
:101D380072AFE9692E4C00293FF46DAF206A002884
:101D48003FF469AF042218460BF10601FEF79CFD2B
:101D5800626A039B9A427FF45EAF59460622206A64
:101D6800FEF792FD216A0622A06AFEF78DFDE16A60
:101D7800A06AFFF72BFB00212162E161E1624AE7DB
:101D88003888020A42EA00210BB2012B7FF47AAFAD
:101D98007B88190A41EA032C0FFA8CFEBEF5006F06
:101DA8007FF470AFB88840F2064290427FF46AAF81
:101DB800134807F11801FFF7AFFE2B6B07F1080472
:101DC80023B907F10E010F48FFF7A6FE21460622A8
:101DD8000D48FEF759FD00206C680146024603468F
:101DE800A04718E709481C2205F0C4FE13E700BF06
:101DF800B80E002030000020D42E0100BC2E0100B7
:101E0800D00E0020E80E0020EC0E0020A82E0100C5
:101E18003B7803F0F00140297FF4FDAE03F00F0397
:101E2800052B3FF7F8AE38460A21FFF775FD002865
:101E38003CD0042203A807F11001FEF725FDAB6989
:101E4800039A6BB1B3EB020E18BF4FF0010EB2F15B
:101E5800FF3F0CBF00200EF0010000287FF4DBAE2E
:101E6800F888020A42EA002399048A0C002A7FF4BF
:101E7800D2AE7B7A012B1DD0112B7FF4CCAE3B8BDD
:101E8800B7F816E0BA8A190A41EA0324100A4FEA99
:101E98001E2C4CEA0E2140EA0222A3B207F11C00D4
:101EA8006C6889B292B2083BA047B4E61F4805F0B7
:101EB80049FEB0E697F814C007F11403BCF1050F0A
:101EC8007FF4A9AE93F801E0BEF1010F7FF4A3AE51
:101ED80007F11801164805F04DFE9CE63246A11D93
:101EE8002046FFF71DFE4FF4007CA7F806C05246B7
:101EF800064607F10E05594607F11200FEF7C4FC25
:101F080001982946FFF708FE524609F1080158468C
:101F1800FEF7BAFC284609F11801FFF7FDFD204637
:101F280006F11C01FFF752FA75E600BFE82E010022
:101F3800F82E01002DE9F044294D82B0EE6B2949B5
:101F480040F606023046FFF7EBFD4FF48072341876
:101F5800062332524FF0080C4FF0040A4FF48076F3
:101F680004F108071A462371A4F802C0E68005F1B7
:101F7800080184F805A03846FEF786FCA96902AE78
:101F880046F8041D5246314604F10E00FEF77CFC6B
:101F98000023E375A374E37423756375A375EB6974
:101FA800A8692A6C83EA0001114201D06B6C83B1E5
:101FB8006B62314607F1100004220193FEF764FCBE
:101FC800E86BC0F11C010919FFF700FA02B0BDE87F
:101FD800F084054805F0B6FDEB696B62E9E700BFE0
:101FE800B80E002034000020182F010038B5044630
:101FF80010B9054B986438BD034D0020A964FEF75D
:10200800B1FE2C65E86438BDB80E002038B5254807
:1020180004F00AFE044618B12349FEF73FFAE8B96E
:10202800224D6B6D5C1C6C65FFF7C2F9AA6D1F4CE5
:10203800D2F1010038BF0020FFF736FA41460868A0
:10204800FFF742FBE86D30B1236E0020E065DBB995
:102058000422226038BD0223236038BD204614497B
:10206800FEF71CFA28B9114DFFF7A2F904232B60DB
:1020780038BD20460F49FEF711FA68B901200B4D0B
:102088006B6D9842CED8EFE70B4942F21070FFF71C
:10209800ADFF0A49616038BD002120460A4609F0B3
:1020A80043FEECE7442F0100502F0100B80E00203A
:1020B800BC2D0100542F0100051900001119000062
:1020C80010B50F4CE36903B910BD0020FEF74AFEB6
:1020D800636E41F28831C21A8A42F5D9A16E4A1C50
:1020E800042AA26603DC6066BDE8104022E70548C2
:1020F80005F028FD0020A066BDE8104086E700BF77
:10210800B80E00205C2F01002DE9F04482B0089F32
:10211800019117F0010F044615469A4603D007F1BE
:102128001C030022C25400263349452323706670DD
:10213800CB6EBFB207F11C0290B29AB24FEA122CD2
:102148004FEA102E4EEA002001334CEA022ECB66ED
:10215800A4F804E04FF0FF334FF0400E1122237231
:10216800608062721831A4F806E00422668104F1E6
:102178000C000837FEF788FB1FFA8AFA01A9042227
:10218800ADB2BFB204F11000FEF77EFB4FEA1A2C85
:10219800280A3B0A4CEA0A2A40EA052543EA0727A7
:1021A800A4F814A0E58227836683A21C208863888C
:1021B80051880232C318508802325B1851880232A3
:1021C8001B18508802325B18518802321B1850883D
:1021D80002325B1851881B1892885B18D31898B282
:1021E80000EB134C1FFA8CF202EB1C41C8436081D0
:1021F80002B0BDE8F08400BFB80E00202DE9F04E13
:1022080084B0934699460C9D0E46002928D1344F38
:10221800344C384604F170010622FEF7D5FB4FF026
:10222800FF36844600282AD0D4F83CA039464FF41B
:1022380000625046FFF774FC0AEB00073846314647
:102248005A464B460095FFF75FFFE06B05F11C030C
:102258003F1AD919FFF7BAF8002004B0BDE8F08E8C
:102268001F4F204CB1F1FF3F18BF0746384604F115
:1022780070010622FEF7A8FB84460028D4D1D4F8C2
:1022880028A039464FF400625046CDF80CC0E661EC
:102298002762FFF745FC0AEB00074B4631463846F4
:1022A8005A460095FFF730FFA26AE06BB91A1C3155
:1022B80009182A4607F11C00FEF7E6FAA36ADDF8BA
:1022C8000CC0FF1A1C3560460126ED19E562A666AA
:1022D800FEF748FD6066FFF72DFE3046BDE700BFFC
:1022E80034000020B80E00202DE9F04E934D944C98
:1022F80005F5E273DE1C04F19709002329F01F029B
:10230800414626F01F07012602F5406C02F5C06E13
:1023180088B0E362A36523662362E3616362E263D4
:10232800A76266650F68C5F8A0E1C5F8A4C1814633
:10233800FFF73EF8FFF788F83846FFF7C5F9002899
:10234800C0F2F78006FA09F240F2131BC0F2000B44
:1023580002EA0B00B246009226468346FEF7E4FFE7
:10236800062200F110017748FEF78EFA43461F68EF
:10237800C4F800A0019704F0BDFBD5F8C8170746BC
:10238800884224D001980422011D6F48FEF77CFA88
:102398006E4804F049FC09F069FC70646C4804F06C
:1023A80043FC09F063FC30646A4804F03DFC09F022
:1023B8005DFC30636848FFF759FB684B58806848F4
:1023C800FFF754FB5D49654AC1F8C8771080B9F139
:1023D800090F09D9C4F860A0B9F1040F35D8DFE8AE
:1023E80009F06B2E34686100BBF1000F13D055481B
:1023F8005C490622FEF7E8FA0028EBD1FEF7BEFF9B
:10240800B0F1FF3F7AD000287ED1574805F09AFBFB
:10241800FFF7FCFD1CE0009A12F4027FDAD0216B72
:10242800002978D0B369002BE1D1504805F08AFB28
:10243800FEF7BEFF4FF0FF3008B0BDE8F08E4C4FFE
:102448000023A3613B6000F0A9F80020C5F8CC0781
:10245800FEF7CCFF05F070FC0746002861D1FFF7B6
:102468002FFEA16C384631B1FEF77CFCF16C336D60
:10247800421A9A4212D82368032B07D0042BD9D0CA
:10248800022BE5D12E4FC7F858A067E7D5F8CC172F
:10249800C9B9FEF78DFFD5F8CC07CDE7B06CB764A6
:1024A8008047E8E7334800270760A76100F018FE77
:1024B800CBE700F09DF9C8E72E4A00211160A16121
:1024C80000F044FDC1E70A462B4805F053FB1B49C1
:1024D80003ACD1F8CC27204628490AF001FD214653
:1024E800274804F0C1FD274B24491A6820460AF002
:1024F800F7FC2146244804F0B7FDCAE7234805F055
:1025080021FBFEF755FF95E70146214805F032FB10
:10251800FFF77CFD9CE71F4805F014FBFEF748FF1A
:1025280088E7FEF745FF1C4805F00CFB4FF0FF302D
:1025380082E7FEF73DFF4FF0FF307DE7B01F002038
:10254800B80E0020C00E0020D00E0020882F0100F9
:10255800942F01009C2F0100A82F010030000020BB
:10256800B02F0100882E010018300100D82F01007B
:1025780088280020442900206030010084300100B0
:10258800883001005400002094300100F82F010029
:1025980038300100B82F0100583001002DE9F0470C
:1025A800264DDFF8B4902E682548741C21462C600F
:1025B80005F0E0FAD9F80060224948F235023046C1
:1025C800FFF7AEFA204F4FF4807C341826F800C08D
:1025D80006254FF0040A4FF008024FF4407062805D
:1025E800E08039462A46257184F805A004F10800E0
:1025F800FEF74AF95246154904F10E00FEF744F970
:102608002A46394604F11200FEF73EF94FF0FF332F
:10261800E37623766376A376D9F80000C0F11C012F
:102628000919FFF7B9FA41F288300949FFF7DEFCCA
:102638000848BDE8F047FFF769B900BF88280020BF
:10264800A030010034000020C00E0020D00E002071
:102658009926000065260000F40E0020094810B5F0
:1026680005F088FA084804F0DFFA18B190F900304C
:102678006E2B03D0BDE8104000F0BAB8034803221F
:10268800026010BDB4300100C4300100B80E002053
:10269800094810B50368042B07DC41F28830074964
:1026A800FFF7A4FCBDE8104078E7054805F04AFAB2
:1026B800BDE81040FFF7AABC882800209926000032
:1026C800D0300100F0B53E4883B00768FFF7D4F971
:1026D8003C4C1C3021683D184B1E042B6DD8DFE89C
:1026E80003F034271A0327004FF4A0614FF4007356
:1026F8003952281D6B803449FDF75CFE1725D4F844
:102708009030D4F88810D4F88C2030480095FFF722
:1027180075FD03B0F0BD4FF4A0624FF4407E3A520D
:102728002B49281DA5F802E0FDF744FE1325E6E72E
:10273800B4F884104FF4806C27F800C0080A40EA07
:1027480001239AB26A800425D9E74FF4807EAE1C33
:1027580027F800E01F493046FDF72CFE1D48FDF71D
:1027680023FF411C76181C4F1C493046FDF722FEFA
:102778001B49B01DFDF71EFE386844F6D35CC1F254
:10278800620CACFB00130E369A09164930460AF063
:10279800A7FB3146144805F0EDF93046FDF704FF74
:1027A800421CBB88B618002730463A460F490097A6
:1027B8000AF096FB3618751BA1E700259FE700BFB6
:1027C800F40E00208C28002040310100EC0E00207F
:1027D80030310100902800203C000020F830010032
:1027E800683101000031010004310100203101008D
:1027F800F0B5724883B004F017FA002800F0D380CF
:1028080000210A2209F0F6FA6D4DA8806D4804F0FF
:102818000BFA002800F0BA800A22002109F0EAFA2F
:102828000246B2F57A7F2860C0F0B5806648A9886C
:1028380005F0A0F9654F6648664C036897F9006093
:10284800C4F88830002E40F08180634904F1940078
:102858000A686249C2F3074CC2F30723170ED2B2C3
:10286800CDF800C001970AF03BFB04F19401201D4C
:102878008022FDF7A7FD5A48211D84F8836005F0E2
:1028880079F9FEF7C1FD534E534F0146554805F0FF
:1028980071F906F1880154483A4605F06BF9534935
:1028A8000B681BB152480368002B63D10A20514EB4
:1028B80005F024FA5049514805F05CF9318841B1D6
:1028C80049024F4805F056F933884E49580208F036
:1028D80075FF0A2005F012FA4B4A4C48116805F0BA
:1028E80049F94B4805F02EF9EE684A492868AE6068
:1028F800FFF77CFB00264848FFF708F8452301222C
:102908003046C4F88C302260C4F8A460FEF72AFA76
:102918004AF6AB2CCAF6AA2CACFB0031CB0A03EB67
:102928004302A0EB822101F58063062231463B4831
:10293800C4F89030C4F88460FDF738FF4FF4007C89
:10294800A5F810C003B0BDE8F040BBE638463A2110
:10295800FDF7F0FD064640B3384609F087F9711CCB
:10296800C4F888008022201D0026FDF72BFD84F87E
:10297800836086E73A68D6F8880003EA020E0340C7
:102988009E4593D0264805F0F5F88FE72A68B2F5FA
:102998007A7FBFF44BAF1146224805F0EBF84FF4AD
:1029A8007A722A6042E7064D30E73946201D8022B8
:1029B800FDF708FD84F8836063E700BF5431010028
:1029C8003C00002064310100A831010008280020E3
:1029D800E80E00208C280020D00E0020D031010005
:1029E800EC310100183201002C320100FC0E0020ED
:1029F800F80E002004280020902800207C320100D6
:102A08008C320100CC33010054000020A4320100B4
:102A1800BC320100312A00007D2A0000EC0E0020A3
:102A28005C320100703101000D4A10B50D4CD2F82E
:102A3800A400A168431C8B42C2F8A43009DC0A48F0
:102A480005F080F820680949FFF7D0FABDE8104082
:102A580038E6074805F076F8BDE81040FFF7D6BA23
:102A68008C2800203C000020C8320100312A0000D8
:102A7800D03001002DE9F046A04C0646D4F890006D
:102A880083B08842154602D003B0BDE8F0862268BC
:102A9800012A03D0D4F88C10A942F5D1012BF3D91F
:102AA800374637F8021BA3F1020A080A40EA012C4C
:102AB8001FFA8CF1052900F0E680062979D0032950
:102AC800E2D1BAF1010FDFD973888C4E190A41EAB5
:102AD800032083B2C4F88430002B00F038814CF610
:102AE800CD41581ECCF6CC41A1FB00C1C90801EB71
:102AF800810CB0EB4C0F00F03E8143F2FD3CCCF66C
:102B0800A61CACFB030140F28A20490A00FB1133E2
:102B1800002B00F03E81012A00F04081012A14BFF9
:102B280000230123052A14BF1A4643F00102002A94
:102B380000F0CD80D4F8843000200221012B2160E0
:102B4800C4F88C50C4F8AC00C4F8B000C4F8A800AD
:102B580040F016816A4DC4F8B0300A2369492868E4
:102B6800AB60FFF743FAD4F88420B5F810C0D4F866
:102B7800AC30501E00FB0C346349AAF1020A0A6803
:102B8800B91CA0185246FDF77FFE604B54441868E4
:102B9800844288BF1C60FFF795FDB5F810C0E24578
:102BA800BFF472AF5A4804F0CDFF5A4803210160C0
:102BB8006AE738460193FDF7F7FC431CFA185648B4
:102BC800394604F0D7FF0522BAF1080FC4F88C5033
:102BD8002260019B53D90B3B5049384603F001054D
:102BE800FDF75CFCDFF818910146002877D0012634
:102BF800BC19BAF1090F42D9DDB148492046FDF7A1
:102C08004DFC0146002800F09380013606F1080EBD
:102C18000134F2450DD832E040492846FDF73EFC24
:102C280001360146E8B106F109026C1C01369245ED
:102C380025D93A492046FDF731FC651C0146002894
:102C4800EAD104F108070A22384609F06DF81FFA9C
:102C580080FC394662463248A9F810C004F08AFF61
:102C6800DAE709340A22204609F05EF883B22146E1
:102C78001A462B48A9F8103004F07CFFD3E703B0BC
:102C8800BDE8F0461EE57388B91C1A0A42EA032E0D
:102C98001FFA8EF2234804F06DFF7188080A40EA93
:102CA800012C1FFA8CF35A1E012A08D81E4804F07A
:102CB80049FFFEF77DFB174804210160E4E61B4845
:102CC80004F040FF03B0BDE8F046FFF79FB9D4F821
:102CD8008430D4F8B02093423FF4D6AE3AE70A36AF
:102CE8000A22304609F020F884B2314622460C48C0
:102CF800A9F8104004F03EFF79E700BF8C280020B7
:102D08003C000020312A0000540000207C270020CD
:102D180088330100B80E0020CC320100E0320100F7
:102D2800E832010090330100A8330100BC330100F0
:102D380009370A22384608F0F7FF1FFA80FC39469F
:102D480062461948A9F810C004F014FF5DE7174956
:102D5800D6F8A800D6F8AC30B1F810E0421C03EB66
:102D68000E43C6F8A820190D1148C6F8AC3004F077
:102D780001FF3268CFE6232004F0C0FF3268CAE6BC
:102D880019460C4804F0F6FE03B0BDE8F046FFF71C
:102D98003DB9094804F0D6FE3268BCE6074804F09D
:102DA800E9FE2268BAE600BFE83201003C000020D4
:102DB8000033010048330100183301001C330100BF
:102DC80000B583B00146042201A8FDF75DFD019816
:102DD80003B000BD2DE9F00E4FF0630C044604F873
:102DE80001CB661C751C6F1C07F1010A0AF1010969
:102DF80087B009F1010B01970BF10107049701371F
:102E08000397013705976FF07D0747704FF0530719
:102E1800677086F801C04FF0350C85F801C0019C39
:102E28004FF0010C84F801C04FF002078AF8011036
:102E3800392189F801108BF80170049D40216F70C9
:102E4800039C6170059F07EB0C0194463AB3120688
:102E580042EA1C664F1C0CF47F4546EA05297E1C95
:102E6800751C6C1C03940CF47F0B059C49EA1B220F
:102E78004FF0360A84F801A04FEA226C4FEA224943
:102E88004FEA222B4FF0040A81F801A087F801C00D
:102E980086F8019085F801B0039F7A70B91C0BB3CE
:102EA8000A461D06322402F8014B45EA136903F469
:102EB8007F4649EA062A03F47F07561C4AEA172385
:102EC800751C6C1C4FEA236A1F144FEA232C4FF021
:102ED800040981F8019082F801A0A11C777085F897
:102EE80001C063700A46372502F8015B541C631C55
:102EF8001B1A4FF0000C4FF0FF35402B81F801C032
:102F080055701EDC0B1D181A034681F803C0C0F16A
:102F18004100591C402B00F0010012DC38B10B466F
:102F28000131481E402882F803C0224609DC501CA3
:102F38004B1C82F803C0591C421C402B80F803C06C
:102F4800F5DD184607B0BDE8F00E70472DE9F04EE4
:102F58005B4EDFF888B1706886B0421C00251146C8
:102F680058483560726004F005FEDBF800402946D9
:102F780040F2EE522046FDF719FC53494FF4006227
:102F88002046FEF7CDFD241804F11C0901274FF057
:102F9800060A277789F8017089F802A089F8035092
:102FA80028460297CDF80CA0FDF7DCFE44F6D35373
:102FB800C1F26203A3FB001CCCF38F120DF1180AB7
:102FC800110A4AF8045D41EA0227A9F80870514637
:102FD800042204F12800FDF757FC5146042204F1AD
:102FE8002C000595FDF750FC5146042204F13000F1
:102FF8000595FDF749FC5146042204F13400334F8E
:103008000595FDF741FCDDF80CA03946524604F160
:103018003800FDF739FC04F1880080222C49FEF7BE
:10302800D9FC029B2A46194604F584702B46FFF703
:10303800D1FE8246F878BA780304797943EA0260C7
:1030480097F804C0084340EA0C212846B160FDF710
:1030580089FEB3683146C3181A0642EA136503F4B9
:103068007F4003F47F0C45EA002242EA1C2541F820
:10307800085F042204F12000FDF706FCDBF80000DD
:10308800432244230AF1EC05C0EB09094FF0FF3154
:1030980020460095FFF738F80E4940F6B830FEF79D
:1030A800A5FFA94403230C483360FEF72FFCDBF887
:1030B80000004946FEF770FD06B0BDE8F08E00BF7F
:1030C80040290020D033010034000020C00E002029
:1030D80008280020ED300000C1320000F40E002066
:1030E80034E700BF094810B54368042B07DC41F2F8
:1030F80088300749FEF77AFFBDE8104026E7054803
:1031080004F020FDBDE81040FEF780BF40290020F4
:10311800ED300000D03001002DE9F04E037882B088
:10312800FF2B0446894600F509763FD06C31DFF85D
:1031380074B1019100275A1E6578422A4BD8DFE8FE
:1031480002F0444A3E4A4A384A4A4A4A4A224A4AC5
:103158002E4A784A4A4A4A4A4A4A4A4A4A4A4A4AB5
:103168004A4A4A4A4A4A4A4A4A4A4A4A4A4A4A4AB7
:103178004A4A4A4A724A2E4F4A4A4A2E2E4A4A4ACE
:103188004A4A4A2E55001F2DDCBF2A46AA4666DC4D
:103198003C48A11CFDF778FB3A4B03F80A7002354E
:1031A8006419A64202D92378FF2BC4D102B0BDE826
:1031B800F08EA11C04223448FDF766FBEFE7A11C42
:1031C80004223248FDF760FBE9E7A11C04223048DD
:1031D800FDF75AFBE3E719462E4804F0CBFCDEE77F
:1031E800A11C04222C48FDF74FFBD8E77F2D2CDCCF
:1031F8002A1E18BF0122AA4699F96CC0BCF1000F1B
:1032080014BF002102F001010029C8D0234804F0AE
:10321800B1FC0198A11C5246FDF736FB0AEB0903E5
:1032280083F86C70BBE7A11C04221D48FDF72CFB3A
:10323800B5E73F2DDCBF2A46AA4619DC1948A11C70
:10324800FDF722FB0BF80A70A9E72A46164817492A
:10325800802304F08FFC4FF07F0A0122CCE72A4636
:1032680011481349202304F085FC1F2292468FE75A
:103278002A460D480F49402304F07CFC3F22924621
:10328800DCE700BFA427002080270020FC0E0020D8
:10329800F80E002074340100502900204434010045
:1032A8004C290020C4270020E433010034340100F5
:1032B8001C340100283401002DE9F04EAB4E0D46B8
:1032C8001446D6F800C011462A46443D18BF0125C9
:1032D80086B00746432C0CBF2C4645F00104A44891
:1032E800CDF800C09A4604F045FC3CB14FF0FF31E0
:1032F800A04804F03FFC06B0BDE8F08EBAF1EB0F31
:1033080098BF6FF00101F3D93B78591EC8B2591F15
:1033180018BF0121012894BF002201F0010222B147
:10332800062B18BF6FF00201E2D17B78012B18BF82
:103338006FF00301DCD197F802E0BEF1060F18BF69
:103348006FF00401D4D107F1040B5846FFF738FD9C
:10335800B268864C904202D06FF00501C8E70021A0
:10336800844804F007FC25685346432144228248D8
:10337800009504F0FFFB2368042B07D0062BBAD076
:10338800032B69D07D4804F0DDFBB4E77C4807F1E6
:10339800EC0404F0EFFB2046FFF712FD48F2632C23
:1033A800C6F2533C6045A6D197F8F03007F1F00516
:1033B800FF2BA0D0352B2B4607D05978881C1B181B
:1033C8001A78FF2A97D0352AF7D193F802E0BEF190
:1033D800050F90D12046FFF7F3FC48F26323C6F2AD
:1033E8005333984200F0FD8007F11001042265482C
:1033F80007F11404FDF748FA042204A82146FDF752
:1034080043FA049A002A40F0E6805F486C37046863
:1034180006225E48A11DFDF737FA3846FDF7C4F8C5
:10342800002840F0D1805A4C59495A4804F0A2FB70
:1034380094F9001019B15848554903F015FE0622B1
:10344800326056484F4904F095FB554803F0ECFBB1
:10345800544B03221A604EE707F16C01524804F0FE
:1034680089FB0425514804F085FB07F1EC00256031
:10347800FFF7A6FC48F26329C6F2533948456ED0D7
:10348800DFF840A14A4941F28830FEF7AFFD4948CC
:1034980004F070FBDAF800400021204640F2EE52BA
:1034A800FDF784F9204644494FF40062FEF738FBE3
:1034B800241804F11C05002101224FF00609E970C7
:1034C8006A70227785F8029008460391FDF74AFC56
:1034D80044F6D353C1F26203A3FB001CCCF38F1252
:1034E800039B100A40EA022C06A9A5F808C041F877
:1034F800083D042204F13400FDF7C6F94A4604F1F8
:1035080038002E49FDF7C0F95946042204F120007D
:10351800FDF7BAF907F11001042205A8FDF7B4F97F
:103528003269059B032104F58470FFF753FCDAF830
:10353800001000F1EC06681A85194322204644233E
:103548004FF0FF310096FEF7DFFD29461C4804F0D6
:1035580011FBDAF800002946FEF71EFBCBE607F15F
:10356800F0003946FFF7D8FD8AE700BF4029002060
:10357800A0340100E0340100FC350100E43501000D
:1035880098350100D00E0020C80E0020EC0E002057
:1035980008280020B0350100502A0100C03501007C
:1035A800C4300100B80E0020F43401001C350100BD
:1035B800ED3000004035010034000020C00E00202E
:1035C8006C350100F40E0020084C39462046802254
:1035D800FEF700FA28E7214604220548FDF754F9CA
:1035E80013E728463946FFF797FDFDE6082800202F
:1035F800E80E002008B50320FDF798FC43469A68BA
:10360800996800EBC2000B01B0FBF3F008BD00BFE6
:10361800064B013810B553F820402046FFF7EAFF63
:1036280001462046BDE8104000F078B84036010059
:103638000120EDE7024B013853F8200000F098B85C
:10364800403601000120F5E708B5044B013853F86E
:10365800200000F085F840B208BD00BF40360100E8
:103668000120F1E7034A0139034652F821001946BF
:1036780000F06EB8403601000121F3E70A2870B562
:10368800044609D0094B013953F8215028462146F0
:10369800BDE8704000F05CB8044A481E52F820505B
:1036A8000D21284600F054F8F0E700BF403601002D
:1036B8000121E3E738B503780D4643B1044658B213
:1036C8002946FFF7DBFF14F8013F002BF7D138BD7F
:1036D8000121EFE708B54FF08040FFF78BFF014667
:1036E8004FF0804000F002F8002008BD00226FF083
:1036F8007C0C0271032380F80CC010B40270C1F373
:1037080007240271C9B2072203730374027280F896
:103718000CC001700471037310BC7047002210B410
:103728006FF07C0402710323047302700271072294
:103738000373C1F3072C0374C9B202726FF07F02DE
:103748000273017080F804C0037310BC704700BF97
:10375800037D13F0200FFBD0C9B20170704700BF82
:10376800037D13F0010FFBD0007840B2704700BF13
:10377800007D00F00100704730B543461C6885B0F5
:10378800E2681C481C4904F0F5F9A26819481B496D
:1037980004F0F0F922691748194904F0EBF90022FE
:1037A8001448184904F0E6F962691248164904F009
:1037B800E1F901ADA2690F48144904F0DBF9144995
:1037C8002846FCF7F7FD284603F02EFA114A294649
:1037D800002818BF0246104804F0CCF9211D0F48F4
:1037E80004F0C8F921680E4804F0C4F9002005B0B7
:1037F80030BD00BF50360100603601006C36010054
:1038080074360100803601008C36010098360100BC
:10381800C42D0100A0360100AC360100B836010005
:10382800CC36010008B5034608461146984708BD3E
:10383800012A70B5144619DD5868102200211D1D93
:1038480008F072FA064601460B4804F093F9611E27
:103858002A463046FFF7E6FF04460146003C18BFFB
:103868000124064804F086F9204670BD012403F0BF
:1038780099FE204670BD00BF0837010030370100AF
:10388800704700BF021E18BF012280280CBF00220B
:1038980002F0010210B552B91C6E0648214604F028
:1038A80069F90F2005F012FE43461868A047012069
:1038B80010BD00BFF03701002DE9F04EB0F1000C4B
:1038C80018BF4FF0010C84B080280CBF00200CF00A
:1038D80001000C461546009300287ED193F822304B
:1038E800009A042B166800F0848000260196022CAA
:1038F80077DDA868FCF758FE0326A4F1030A471CE5
:10390800B4420AF0010A1ADDBAF1000F07D0E868DC
:10391800FCF74AFE0426C1194F1CB4420FDD55F8C6
:103928002600FCF741FE0136C31955F826005F1C36
:10393800FCF73AFE0136C7190137B442EFDC3846C6
:1039480004F03AFB14F0010F4FF002094FF0000A9F
:103958004FF0200B064620D1A968FCF72BFD4FF04D
:103968000309A868FCF720FE4C4527DD06F800B0DF
:1039780000F1010A043510E006F80AB0B968FCF74E
:1039880019FDB868FCF710FE00EB050C09F10109F8
:1039980006F80CB00CF1010A3D1DA96806EB0A00F7
:1039A800FCF708FDA868FCF7FFFD82442F1D09F10C
:1039B80001090AF1010570194C45DDDC0098046E17
:1039C8001248214604F0D6F80F2005F07FFD424644
:1039D8001068019933460E4AA047012004B0BDE89B
:1039E800F08E0C4803F020F9094E002818BF06464F
:1039F800E4E70121304603AA02AB05F015FA029963
:103A080000293FF472AF019671E700BF3838010012
:103A1800CC3301002C38010084B02DE9F04E82B07F
:103A28000DF1280C8CE80F009DF83D109DF83CB076
:103A38000D9B064608460193109DDDF844A00E9C98
:103A48000B9FDDF8309005F067F9BBF1000F26D128
:103A5800A64201465DD0394804F08CF8A14506D04D
:103A680049462046019A4FF4803305F06FFA019BCE
:103A78003348E2182A6004F065F8314804F062F827
:103A8800304821462A6804F075F8BAF1000F2ED0A4
:103A9800072005F01BFDA7422BD8002008E0BBF14A
:103AA800010F0AD02848594604F064F86FF0020064
:103AB80002B0BDE8F04E04B070470146234804F058
:103AC80059F820464A464FF4000101AB08F07CF84B
:103AD80018BB019960182860194804F033F8194890
:103AE80021462A6804F046F8BAF1000FD0D1A7425F
:103AF800D3D92A68B242D0D931463A46144804F09C
:103B080039F8144821462A6804F034F86FF00100A7
:103B1800CEE7114804F02EF8A9E7104804F012F88F
:103B2800BAF1000F02D14FF0FF30C1E76FF0050086
:103B380005F0CCFC4FF0FF30BAE700BF9438010025
:103B4800A8380100403901001C390100AC380100D7
:103B58006C3901009C39010084380100C838010023
:103B68002DE9F04EAD4C002182B0174681468C22DB
:103B780020469A46FCF71AFEA94805F0FBF9012FE2
:103B8800C4F8840040F3E6800021DAF8040010222B
:103B980008F0CAF805460146A24803F0EBFF0120E9
:103BA80005F094FC284605F0E7F84FF0000B0646B0
:103BB800C4F854B0C4F850B0054605F01FF9012800
:103BC80018D0D9F80010984803F0D4FF6FF06B00B4
:103BD80005F07CFC5D46626D904E002A54D0284664
:103BE80005F00CF90128834653D0904803F0AAFF4A
:103BF800012097E08E48314603F0BCFF336841F658
:103C08005612190641EA136103F47F4041EA002C79
:103C180003F47F0B4CEA1B20C2F205727F499042E5
:103C2800D1F884B040F0B180022005F04FFC304656
:103C380005F0BCF9002800F0DF80032005F046FC01
:103C4800304605F0FBF9BBF1000F0BD0794803F0C3
:103C580079FF304605F0CCF9002800F0D680764888
:103C680003F070FF042005F031FC717F02295CD05D
:103C7800724803F07FFF6FF0030005F027FC002572
:103C8800626D664E002AAAD16D4803F05BFF0120E1
:103C980048E0A97F86F85D10E87F86F85C00287FF9
:103CA80086F85E00EA682B694FEA026949EA126EF3
:103CB80002F47F4C4EEA0C2902F47F024FEA036CAF
:103CC8004CEA136E49EA122203F47F494EEA092CA2
:103CD80003F47F0E4CEA1E234032B365736C52190D
:103CE800F264002B00F08380B369022914BF00221C
:103CF80001224FEA036949EA136E03F47F494EEA49
:103D0800092C03F47F0E4CEA1E23042914BF114624
:103D180042F001013366002923D10120C4F888004C
:103D2800A564002002B0BDE8F08E052005F0CEFBAA
:103D3800B37F022B4AD0042B30D0012B46D0D9F8C0
:103D48000010404803F016FF6FF0040005F0BEFBBA
:103D5800002540E73C4B3D481D68294603F00AFF13
:103D68001DE70528D9D13846324606F16407514681
:103D7800683602230097019605F0A2FA0028CCD0F5
:103D8800334803F0DFFE5846CCE7324803F0DAFE4A
:103D98004FF0FF3005F09AFB002571E72E4A3046B8
:103DA8000021131D05F040F8314640222B48FCF74E
:103DB800B9FD062026600126666405F087FB626D62
:103DC8002748216D134603F0D5FE04E7F36806F192
:103DD8004002190641EA136103F47F4041EA002CCE
:103DE80003F47F0E4CEA1E2322656365DCE71D4859
:103DF80003F0A8FE584695E71B4803F0A3FE6FF0B2
:103E0800010005F063FB00253AE7184803F0B2FE0D
:103E18006FF0020005F05AFB002531E75429002015
:103E2800C8390100043A0100303B0100743B01002D
:103E3800303A0100903A0100A8380100BC3A01006C
:103E4800543B0100DC3A010054000020D039010045
:103E5800BC3B0100643A0100A42900205829002035
:103E6800003B0100983B0100783A0100AC3A0100A0
:103E78002DE9F044044686B058680D461746404977
:103E880006221E4603F09AFB331D002832D0D0F8D4
:103E98000CA0BAF1010F6BD03A4DD5F888309A458D
:103EA80025DD4AEA030095F85E20374BBAF1200F6A
:103EB800C5F8880053F8224024D007DCBAF1020F75
:103EC8002CD0BAF1100F47D0002417E0BAF1400FF8
:103ED80036D0BAF1800FF7D1FDF740F9FFF7D0FCE3
:103EE8005046394632462B46A047002406E027486C
:103EF80003F040FE204603F055FB0124204606B09F
:103F0800BDE8F0845046394632462B46A047044661
:103F18000028F3D01E4803F02DFEEFE705F1480C0A
:103F2800EE46583595E803008EE8030005AC9CE89A
:103F38000F00029400240394FFF76EFD0446DDE7AA
:103F48005046394632462B46A04704460028D5D06D
:103F5800104803F00FFED1E75046394632462B464B
:103F6800A04704460028C9D00B4803F003FEC5E764
:103F7800204629467A1EFFF7F3FD0446BEE700BF38
:103F88005800002054290020A4370100E43B010018
:103F9800343C0100543C0100103C01002DE9F04E76
:103FA800144690B00022012C0F9207468A461D46FF
:103FB80012DD58680EA9102207F0B6FE0E9B93F981
:103FC8000030181E18BF01203A2B0CBF002000F04B
:103FD800010008B1232B6AD13846514622462B46A8
:103FE800FFF7BEFD18B1012010B0BDE8F08EFDF757
:103FF800B5F8DFF86C916A4609F15803834693E8EF
:10400800030082E8030009F1480C0FAE9CE80F009A
:10401800029601260396FFF7FFFC00284EDB99F86D
:104028005D004F4B012821D00820059305F04EFA7A
:10403800059B4C4A93F85E0052F82060002E51D040
:104048000593FFF71DFC059B21462A460020B04733
:104058006FF0080005F03AFA434803F073FD38465C
:10406800514622462B460CF051FDBCE7BBF1000F30
:1040780001D0FDF771F83D4802F0D6FD28B13C4962
:10408800FCF70CFA064600284FD0D9F86020601ECD
:10409800130643EA126E02F47F414EEA012302F44A
:1040A8007F0243EA122C291DE04700209CE738468E
:1040B800514622462B46FFF7DBFE95E7B0F1FF3F5E
:1040C80047D010F1020F23D010F1030FA7D1BBF195
:1040D800000F01D0FDF740F86FF0060005F0F6F983
:1040E800012081E7BBF1000F04D0FDF735F80599F1
:1040F80091F85E0004F0E4FD99F85E2001461D4841
:1041080003F038FD6FF0070005F0E0F901206BE7D8
:10411800D9F84410B1B199F822E0BEF1040F7FF448
:104128007EAF154803F00EFD79E706ACD9F85420A8
:104138001249204608F0D4FE2146114802F094FFA7
:10414800304651E70F4803F0FDFC6FF0700005F0B2
:10415800BDF93846514622462B460CF0D7FC5EE79F
:1041680054290020A4370100343D0100F83C010027
:10417800BC2D0100043D0100743C010084300100A5
:1041880088300100B03C010030B50D4C0D4D86461D
:10419800281B801000EB400505EB051C0CEB0C25DB
:1041A80083B08C4605EB05450092019300EB850131
:1041B80072462046634603F09BFA03B030BD00BF49
:1041C8001C890100888B010048F20001C4F2030138
:1041D800D1F898202D4BC2F3422CBCF1070F10B434
:1041E800D1F89010186027D10124C1F30241B0FB27
:1041F800F4F407295C6029D10124C2F38201B0FBE1
:10420800F4F407299C602BD10124C2F34211B0FBBE
:10421800F4F40729DC602DD10121C2F34232B0FB4E
:10422800F1F1072A19612FD0194951F82220B0FB62
:10423800F2F0586110BC7047154CC1F3024154F8B4
:104248002C400729B0FBF4F45C60D5D0104C54F82E
:104258002140C2F38201B0FBF4F407299C60D3D05B
:104268000B4C54F82140C2F34211B0FBF4F4072977
:10427800DC60D1D0064CC2F3423254F82110072A30
:10428800B0FBF1F11961CFD10122D0E7E02900207C
:10429800EC3D0100704700BF2DE9F04E46F20006E4
:1042A800C4F2010688B031686C4803F063FC48F238
:1042B8000002C4F20302916C694803F05BFC4EF201
:1042C8000403CEF200031D684EF2001205F01F0031
:1042D800411C49014FEA511C01232024CEF200025F
:1042E8006FF070400CF1FF3E634542F824000EEA7F
:1042F800030412D034B102234FF02109634542F878
:1043080029000AD003F1200903F12107023363458C
:1043180042F8290042F82700F4D14EF200148E0822
:1043280001204FF0000ECEF20004B04284F800E302
:10433800754621D001254DB14EF201130220CEF26F
:104348000003B04283F800E3754615D04EF200141E
:10435800CEF2000400F1010C02190CEB04050CF17B
:1043680001004EF2001482F800E385F800E300250E
:10437800B042CEF20004E9D1D4F880204EF20046D3
:1043880094F80073CEF20006009701964EF280135F
:104398004EF600564EF20407CEF20006CEF20007A3
:1043A800CEF200032F4803F0E5FB31682E4872680F
:1043B8003B680197009703F0DDFB2C4F46F20003A2
:1043C800C4F201034FF40021C4F880109D60C4F8C2
:1043D80080113D763D84BD627D8687F8345018682B
:1043E8004EF2802C40F010021A6018684EF2002E2F
:1043F80020F020021A6098684EF2801220F0010026
:1044080098609868CEF2000C40F002009860216035
:10441800D4F88010D4F88031D4F800A0D4F80091F2
:10442800D6F804B07669CEF2000ECEF2000210483B
:10443800CDF800C0CDF804A00294CDF80C90CDF8CA
:1044480010E0CDF814B0FD617D62FD623D860696F0
:1044580003F090FB08B0BDE8F08E00BF0C3E0100F1
:10446800303E0100583E0100983E0100E02900203E
:10447800D83E010070B54B4C844682B015224A489C
:104488008DF804208DF805C084F835C04EF200156B
:1044980003F070FB46F20003C4F201034FF400215D
:1044A800CEF200050026C5F880109E60C5F8801180
:1044B8001868194640F001021A600D6846F20003B8
:1044C80005F001000090009AC4F20103002AF4D11B
:1044D80002A810F804CD4FF0020684F818C026840C
:1044E800A2626286257E1968304E21F004014FF0E1
:1044F800030E1960E662E0616262A4F830E01946D2
:104508004A6846F2000302F001020092009AC4F2DF
:104518000103002AF4D09D61196821F004021A6091
:10452800596801F001020092009900292FD09DF8E6
:104538000500186159684FF0000001F0010200926F
:10454800009B0523208484F8343046F20000C4F22E
:10455800010083684EF2001243F00301CEF200021C
:104568004FF4002381601360B4F832E00D49BEF1C6
:10457800020FF9D1B1F832C091F838301FFA8CF235
:104588000B4891F8391003F0F5FA02B070BD238C8E
:10459800411C5A1E93B201222384E16184F834201D
:1045A800D3E700BFE0290020403F0100182A00207F
:1045B800603F010070B5E02886B003D0E1282FD015
:1045C80006B070BD48F2000142F210730593C4F2C0
:1045D8000301D1F89800059C621E10F4805F0592D3
:1045E80002D1059D002DF4D11A4848F20006C4F204
:1045F8000306D6F898104FF28004D6F89C20066976
:10460800059DC368C0F2FA241348009601940295E8
:1046180003F0B0FA114806B0BDE8704003F0AABA3A
:104628000C4C48F20003C4F20303D3F89810256930
:10463800D3F89C20E3684FF28004C0F2FA240848BB
:104648000095019403F096FA064806B0BDE870405C
:1046580003F090BAE0290020A83F0100EC3F0100D8
:104668000C4001004840010046F20003C4F2010377
:104678002DE9F04E5C689A68E4B2144014F0020F19
:1046880086B01CD114F0010F02D106B0BDE8F08E3F
:10469800914C94F83420022A00F0A080052A21D0F9
:1046A800012A00F0ED8046F20003C4F201039A6883
:1046B800002022F00101996084F83400E5E7864A79
:1046C800186992F8343085B2E8B205F40045052B34
:1046D80000F25581DFE813F057014D014D01330118
:1046E80075012D01A26A002A31D1E76B236C656C34
:1046F80007F5806EEA1896459CBF4FF480660396CE
:1047080001D9D61B03969742C0F09C8173490020BB
:1047180003900291029E94F8351094F84C2066623A
:10472800FF1A6F48039B0097019503F023FA039B38
:10473800A362A06A58B946F20003C4F201039A685A
:10474800654922F001000322986081F83420A16AAB
:10475800614B002900F06A8146F20002C4F20102AE
:104768009D6A1068596A20F004031360536803F0C7
:1047780001000590059B002B00F08A81002D00F0B8
:1047880087810B78136150686B1E00F0010605964F
:10479800059803F001060123D0B1012D18D926B1DF
:1047A800487802230CE09D4212D9C85C013310619D
:1047B800506800F001000590059848B1C85C0133C5
:1047C8001061506800F00100059005980028EAD1B2
:1047D800A26AC918D31A6162A36256E7A16A0029BE
:1047E8003FF453AF46F20001C4F20101A56A0B6819
:1047F800606A23F004030B604B6803F00103059320
:10480800059B002B00F04881002D00F045810378BE
:104818000B614E686B1E06F001070597059E03F0B5
:1048280001070123DEB1012D19D92FB146781346AE
:104838000E610DE09D4212D9C25C01330A614A68DB
:1048480002F001020592059A4AB1C25C01330A617D
:104858004A6802F001020592059A002AEAD1A16A83
:104868001D4A994200F2D58046F20003C4F20103C2
:10487800996821F001009860032082F8340004E769
:10488800238C002B3FF401AF46F20001C4F2010172
:10489800258C0B68ADB223F0040008604B68E06912
:1048A80003F001030593059B002B00F0F380002D16
:1048B80000F0F08003780B614E686B1E06F001076C
:1048C8000597059E03F00107134606B3012D1ED96F
:1048D80057B14278022312E0E02900202C2A002058
:1048E800644001009D4212D9C25C01330A614A68E2
:1048F80002F001020592059A4AB1C25C01330A61CD
:104908004A6802F001020592059A002AEAD1218C30
:104918006B4A1FFA81FC9C4500F281804FF0000C25
:10492800A2F820C0906A0028A6D0022382F834306A
:10493800ABE60DBBD16A487082F83450A2E6002D70
:104948003FF4A0AE127E5E4B904215D14FF00001AD
:1049580059865A8ED96A1FFA82FC01F80C005A8EC1
:104968000421501C1FFA80FCA3F832C083F83410CD
:1049780088E6002D3FF486AEFFF71CFE82E6002095
:1049880082F834007EE6002D3FF47CAEF128F3D1A6
:104998004FF000015186508ED36A80B26FF00E0C32
:1049A80003F800C0508E01301FFA80FCA2F832C014
:1049B800508E1FFA80FC03F80C10042182F8341082
:1049C80060E6002DD8D1B2F832C0D16A1FFA8CF354
:1049D800CE1816F8013C3A4EF12B5FD0B6F832C02B
:1049E800338E1FFA8CFC9C4509D2B6F832C01FFAE8
:1049F8008CFC01F80C00718E481C81B27186508EB7
:104A080082B293427FF43EAE2D4B002183F83410DE
:104A180038E6916AC018CB1A5062936235E6118C59
:104A2800C018CB1A9BB2D06113842EE646F200025E
:104A3800C4F20102906820F001010320916083F81C
:104A4800340022E6D4F848A01E4B3D460293574650
:104A5800DDF80C904FF0000BAA4601E0AA44AB44E5
:104A6800029A4FF6FA75A94538BF4D4602EB0B037B
:104A78005146FE6838462A46B04710B9B9EB0509D1
:104A8800ECD1E76B0399236CCF19656CE76341E6BA
:104A980000239DE600233AE70023E0E6B6F832C09B
:104AA8001FFA8CF3C854B6F832E01FFA8EF00A18D1
:104AB80012F8010CFFF77EFD86F83450E2E500BFDE
:104AC800E02900202C2A002070B51A4D82B0A96C6C
:104AD80006460A68184803F04DF8402003F06CFABF
:104AE8000446002821D0AB6C31461846DD684022C8
:104AF8002346A847A0B92146104803F03BF80425EF
:104B08000F4803F037F82A4621461023204600951F
:104B180006F0A0FE204603F083F9012002B070BD24
:104B2800084803F027F80020F8E7074803F022F8C0
:104B38000120F3E7E029002094400100FC40010037
:104B480008580100E4400100C440010070B51C4D44
:104B58000446A86C82B008B10BF0F4FF4EF20012C4
:104B6800CEF20002042148F20003C2F88010C4F219
:104B780003039E6C002046F400769E64C2F8801100
:104B8800996C224621F400719964014603230CF0C4
:104B9800B5F8044658B1426880680026810A334651
:104BA8000848AC64009602F0E5FF02B070BD01460B
:104BB8000548224602B0BDE8704002F0DBBF00BFE6
:104BC800E0290020484101001C4101002D4830B572
:104BD800056848F20004C4F20304E560416883B044
:104BE800C4F89810826842F21073C4F89C202146D9
:104BF8000193D1F89830019C621E13F4805F0192F2
:104C080002D0019D002DF4D1426848F200051E4CE7
:104C1800C4F2030546F60000C5F89820C0F68910CE
:104C2800FFF7D2FA21694BF2C53C01F56123C9F2BD
:104C3800A21CACFB0310010D4FF08040FEF756FD9F
:104C480000202168FCF77CF901206168FCF778F9FD
:104C58000220A168FCF774F90320E168FCF770F9F9
:104C680004202169FCF76CF961690520FCF768F9F3
:104C7800D5F898100548D5F89C2003B0BDE8304019
:104C880002F078BFD0000020E02900207441010024
:104C98002DE9F0444A4888B002F06CFF494848F2D0
:104CA80000010568C4F2030145F4FF54CC60D1F853
:104CB8009C200022C1F89C20D1F89C3043F4007756
:104CC800C1F89C70D1F89C6042F2107346F480657C
:104CD800C1F89C50D1F89C4044F00202C1F89C20D5
:104CE8000693069F7E1E069606990029F9D148F27A
:104CF800000142F210730793C4F20301D1F89840FF
:104D0800079D6A1E14F4805F079202D1079E002E49
:104D1800F4D14FF0000A48F2000780F80CA0C4F262
:104D28000307D7F898504FF2800425F46E6E2EF0E2
:104D38001C02254EC0F2FA24C7F898202046FFF737
:104D480043FA31694BF2C53C01F56123C9F2A21C53
:104D5800ACFB0310050D29464FF08040FEF7C6FC5A
:104D680050463168FCF7ECF801207168FCF7E8F868
:104D78000220B168FCF7E4F80320F168FCF7E0F8DA
:104D880004203169FCF7DCF871690520FCF7D8F8D4
:104D98000320D6F80CA0FCF7C9F8D7F89810D7F874
:104DA8009C20079F069E0090534608480195029450
:104DB8000397049602F0DEFE08B0BDE8F08400BF59
:104DC80090410100D0000020E0290020A44101000A
:104DD800F0B446F200034EF20017C4F201034FF498
:104DE8000024CEF200070026C7F880409E60C7F86E
:104DF80080411D6882B045F001041C601F6846F2BE
:104E0800000407F001050095009DC4F20104002D7F
:104E1800F4D1214E274630763584B5627586307ECA
:104E28002368F26223F004024FF006032260F56162
:104E3800756233867A6846F2000302F00102009236
:104E4800009AC4F20103002AF4D098611A6818463F
:104E580042F004021A60426846F2000302F00102BE
:104E68000192019AC4F20103002AF4D05961196829
:104E7800032021F004021A6086F8340099684EF283
:104E8800001041F00202CEF200004FF400219A60B7
:104E9800016002B0F0BC7047E029002070B584B012
:104EA800204C03AD0023052001AA294684F84C3480
:104EB8008DF80C308DF80D30FFF78AFF638E9DF862
:104EC8000420062B15D0B4F832C017481FFA8CF30B
:104ED800C82102F04FFE294614489DF80C209DF881
:104EE8000D3002F047FE4FF0FF3284F8502404B032
:104EF80070BD052AE7D19DF80560608E314683B202
:104F0800094802F037FE294608489DF80C209DF80C
:104F18000D3002F02FFE002EE5D19DF80C1084F81C
:104F28005014E4E7E0290020004201005442010047
:104F38002DE9F04E94B00EAC0023251D45F8043B36
:104F480045F8043B012012AA2B6021460E93FFF777
:104F58003FFF264B5A8E062A9DF848203FD0C8218D
:104F68005E8E2348B3B202F005FE9DF841509DF8CD
:104F780042009DF8431007959DF844500890099108
:104F88009DF845009DF846109DF83AC09DF83B7085
:104F98009DF83C609DF83DE09DF83EA09DF83F904F
:104FA8009DF840B00A959DF847500B900C919DF8DC
:104FB80038209DF8393021460E48CDF800C00197B9
:104FC8000296CDF80CE0CDF810A0CDF81490CDF8ED
:104FD80018B00D9502F0CEFD14B0BDE8F08E012A90
:104FE8000CBF9DF84910C821BAE700BFE02900208E
:104FF80088420100D8420100012AF8B5054666DD5D
:105008005E6862B648F20001C4F20301CB68B14C95
:10501800B1482360D1F898206260D1F89C30A36031
:10502800216802F0A7FD6168AC4802F0A3FDAC4816
:10503800A16802F09FFDAB4801F0F6FD002851D0B1
:1050480000210A2206F070FEA74C6064A74801F010
:10505800EBFD002854D000210A2206F065FE2064EA
:105068003046A349FBF71AFA40B9FFF715F9FFF7DD
:105078005FFFFFF713FF72B60120F8BD30469D4968
:10508800FBF70CFA48B330469B49FBF707FA0028B0
:105098003DD1FFF701F944F64030C0F24C00FFF76C
:1050A80055FD206CFFF710FD944802F063FDFFF7F3
:1050B800EFFD924802F05EFDFFF7EEF8206CFFF777
:1050C80003FD8E4802F056FDFFF780FDD3E772B668
:1050D800284602F067FA0120F8BDFFF7DDF8FFF770
:1050E800D7FDC8E7864802F045FD7F4C4AF65030A8
:1050F800C0F2120060647D4801F096FD0028AAD134
:10510800804802F037FD4FF400112164A8E73046CB
:105118007D49FBF7C3F920BB4FF28000C0F2FA20AB
:10512800FFF714FD206CFFF7CFFC206C4030FFF731
:10513800CBFC206C8030FFF7C7FC206CC030FFF739
:10514800C3FC206C00F58070FFF7BEFC236C03F5F0
:10515800A070FFF7B9FC226C02F5C070FFF7B4FC31
:1051680089E730466949FBF799F90746A0B1304607
:105178006749FBF793F9E8B9FFF78EF8FFF788FD61
:105188004FF28000C0F2FA20FFF7E0FC226C012009
:10519800E263FFF76FF96EE7FFF77EF844F64030F9
:1051A800C0F24C00FFF7D2FC216C3846E163FFF7F0
:1051B80061F960E730465749FBF770F978B9FFF7AE
:1051C8006BF8FFF765FD4FF28000C0F2FA20FFF799
:1051D800BDFC236C0220E363FFF74CF94BE7304634
:1051E8004D49FBF75BF970BBFFF756F844F64030C2
:1051F800C0F24C00FFF7AAFCFFF74AFD216C012022
:10520800E163FFF737F994F83900374C00287FF449
:1052180032AF236C0220E363FFF72CF994F83920AE
:10522800002A7FF428AFFFF7D1FC00200146024690
:1052380003460BF06BFC72B6384801F0F5FC002110
:1052480004F098F918E730463549FBF727F90028A4
:105258006CD1FFF721F8FFF76BFEFFF71FFE44F64E
:105268004030C0F24C00FFF771FC226CA56C02F5CF
:10527800BE710131012228462A4BED68A8472A4809
:1052880094F8501494F8512402F074FC94F850C423
:1052980094F851048445CED0216C0020E163FFF7D7
:1052A800E9F894F83930104C002BC4D1FFF7F0FC22
:1052B800226C0120E263FFF7DDF894F8390000283A
:1052C8007FF4D9AE236C0220E363FFF7D3F8FFF72E
:1052D8007DFCB0E7D0000020504301006843010086
:1052E80088430100A8430100E0290020DC430100B5
:1052F8002C31010098460100C44601001044010009
:10530800B8430100EC43010070360100105601005B
:10531800EC4B01001C4401002044010060440100E2
:1053280044520100312E0020244401003046044933
:10533800FBF7B4F800287FF4CAAEFFF747FC9AE6FB
:10534800D42D0100C3B203F06002402A06D003F056
:105358007F033F2B08BF40F04000704720F040001B
:10536800704700BF037863B1002259B210F8013FBB
:105378005218002BF9D1C2F38110821802F03F00B5
:1053880070471846704700BF024B00219A681960A1
:105398005A607047342E0020034B1A681AB95968AE
:1053A80001F8010B59607047342E00200348002291
:1053B80008B5C2600369984708BD00BF342E0020B5
:1053C800034BD8681A6859685861D9619A6170475F
:1053D800342E0020034B58699A69D969D8605960FE
:1053E8001A607047342E002010B5114C0346E2684D
:1053F8009AB1C1B201F060004028226A08BF23F0C8
:10540800400305D001F07F013F2908BF43F0400366
:10541800184690470023E36010BD94F924C08445E2
:1054280002D0216A884710BD0122E26010BD00BF8A
:10543800342E002070B5124DAC6A002C1CDD013CE6
:1054480095F92C0004F0010602F058FC002C14DD3C
:1054580036B1013C95F92C0002F050FC002C0DDD12
:10546800013C95F92C0002F049FC013C95F92C000F
:1054780002F044FC002CF3DC70BD70BD70BD00BFB1
:10548800342E002010B50446FFF7D4FF237833B13B
:1054980058B202F033FC14F8013F002BF8D110BDCC
:1054A8006C4B00211A6B30B499620D2403F1470547
:1054B80083F82C10674983F82D402324AA4208BF9B
:1054C80003F1460201F1340C08BF1A63CCEB020267
:1054D800002A83F8244066DD4FF07E0C013A81F8FB
:1054E8004CC000F09C802125013A81F84D5000F015
:1054F8008F8091F93640203C04F0FF05013A4FF0C7
:1055080020048D6281F84E4000F08D8091F83710AC
:105518005FFA81FC0CF06005402D08BF0CF0BF015C
:1055280006D00CF07F0CBCF13F0F08BF41F04001E2
:1055380083F82C104021013A83F84F10454C79D05C
:1055480094F838102D252039C9B2013A84F8505002
:1055580084F82D1060D094F839504FF0230C013A9C
:1055680084F8245084F851C06BD04FF04E0C013AA7
:1055780084F852C068D03125013A84F8535066D077
:10558800012A84F854C059D07E2222254FF0200CDD
:1055980084F8555084F8582084F856C084F8572069
:1055A8001125302402E00D210425232400F1200CCC
:1055B80083F84940EA1883F84AC0002001244FF0D4
:1055C800590C83F8484083F84BC082F8480093F898
:1055D8004920002A2BD0204C4FFA82FC14F8012FC6
:1055E8006044002AF8D1C0F3811C0CEB000202F0E1
:1055F8003F0000F1200C681CC218EB18174883F80C
:1056080048C0002382F8493082F8481030BC39E796
:105618000D2106252524C9E709252824C6E70D21DB
:1056280005252424C2E70D2107252624BEE74FF0CF
:10563800200CE0E70D2108252724B7E70D252C24A9
:10564800B4E70A252924B1E70B252A24AEE70C255F
:105658002B24ABE7342E00207D2E00207C2E00204A
:10566800154A2030232300214FF0010C82F84A000C
:105678004E2082F84B0082F848C082F8493082F800
:105688004C1002F149004FFA83FC10F8013F6144C5
:10569800002BF8D1C1F3811000EB010C0CF03F0096
:1056A80000F1200C92F82D10044882F84E3082F850
:1056B8004CC082F84D10E5E6342E00207C2E0020E8
:1056C800154A2030232300214FF0010C82F84A00AC
:1056D800592082F84B0082F848C082F8493082F895
:1056E8004C1002F149004FFA83FC10F8013F614465
:1056F800002BF8D1C1F3811000EB010C0CF03F0036
:1057080000F1200C92F82D10044882F84E3082F8EF
:105718004CC082F84D10B5E6342E00207C2E0020B7
:105728002DE9F044ADF5866D0DF5846A0AF10C0A91
:105738000223074651460DF58460CDF8243405F060
:105748005BFB0446002833D105466E4603E0ED189E
:10575800E418FBF799F84FF480615246304605F09B
:105768008DF9E119031E1A4608463146EFDC2C462E
:10577800504604F005FF0020134904F04FFF384657
:1057880021460BF0C1F90DF5806429462A460F48D9
:1057980002F0F0F92A460E49204607F0A1FB2146FF
:1057A8000C4801F061FC38460DF5866DBDE8F084C3
:1057B800DDF82C0404F0C2FE00240146064802F07D
:1057C800D9F92546D4E700BFE55700007C4401001D
:1057D800A444010088300100E858010010B502F027
:1057E80097FA10B94FF0FF3010BDBDE8104002F035
:1057F80099BA00BF2DE9F04EAB488CB016461F464B
:1058080001F012FA002800F07A810021102206F037
:105818008BFA04464346012E9D6808DD00211022BC
:10582800786806F081FA032E044600F06B812E4654
:1058380038689E49FAF732FE0746002821D19C486D
:105848002146324602F096F92046FFF769FFAE423C
:1058580013D02946974802F08DF94CF2503006F0E3
:1058680053FA43469D60FDF7E3FE4CF2503006F0D4
:105878004BFA02F057FA1B28FBD138460CB0BDE8AA
:10588800F08E8D48214632468C4F02F073F98C49D0
:105898008C4A0D234FF0000A232039613A6287F8B9
:1058A8002D3087F82400BC60C7F828A087F82CA002
:1058B800FFF77CFDF9683A687B687961BA61FB613A
:1058C8004FF0FF3B07F1340902940395C7F8309075
:1058D80002F028FA012852D00328F9D1029C039D2E
:1058E80000274FF0000A0FE04FF47A7006F00CFA28
:1058F80002F00EFAC0B90AF1010A4FF47A7006F004
:1059080003FABAF1640F1AD00AF1010A02F000FA98
:105918000028E9D002F006FA4FF47A7006F0F4F99C
:1059280002F0F6F90028E6D002F0FCF90AF1010AC3
:105938004FF47A7006F0E8F9BAF1640FE4D1204622
:1059480039460BF0E1F80DF1100A5F4839463A463E
:1059580002F010F93A465D49504607F0C1FA51463F
:105968005B4801F081FBB4F1FF3F00F0EC8059483F
:10597800214602F0FFF858480027046067E702F064
:10598800D1F944B214F0E00F00F0AB8002F0CAF98C
:1059980045B215F0E00F00F0A480A5F1200A0AF046
:1059A800FF0ADA4500F01681F9683B687868796182
:1059B800BB61F86102F0B6F94FFA80FB1BF0E00F0B
:1059C80000F08E8005F0FF03A4F1200C04F0FF0224
:1059D8000BF0FF059C180CF0FF006419851E0028C9
:1059E80000F0BC80012D40F3FF8002F09BF9C1B2AA
:1059F80048B210F0E00F05F0010371D000F0FF028B
:105A0800A418013DBBF1440F00F02A81BBF1530FEC
:105A180000F01A81012D40F3E780ABB102F082F962
:105A2800C1B248B210F0E00F5AD000F0FF03E418FA
:105A3800013DBBF1440F00F08E80BBF1530F00F025
:105A4800F780012D40F3D08002F06CF9C3B258B250
:105A580010F0E00F44D000F0FF016418013DBBF1E5
:105A6800440F00F0BE80BBF1530F00F0A88002F095
:105A780059F9C3B258B210F0E00F31D000F0FF026C
:105A8800A418013DBBF1440F65D0BBF1530FD8D129
:105A9800396B084600F8013B104B38639842D0D365
:105AA800064A1163CDE700BF442A0100DC44010027
:105AB800E4440100AC45010024450100342E0020D7
:105AC80091530000A15300007C440100A44401004C
:105AD800883001008C450100540000207C2E0020F5
:105AE800D3467969BD69FC695046F9603D607C60C0
:105AF800FFF7B6FD5346DA46D3469A46E6E64FF038
:105B0800204487E6B86800210A2206F00DF9064607
:105B180000283FF48CAE85423FF48AAE01465848CF
:105B280002F028F84CF2503006F0EEF84046866055
:105B3800FDF77EFD4CF2503006F0E6F802F0F2F880
:105B48000D28FBD174E64F4A002717604E4802F033
:105B580011F801277BE6FFF747FC72E702F0E2F84D
:105B680043B213F0E00FBBD0019302F0DBF845B26B
:105B780015F0E00FB4D002F0D5F840B210F0E00F05
:105B8800019BADD003F0FF02111905F0FF028A183E
:105B9800941104F003018C1804F03F01203188426D
:105BA8009ED1A5F12004203B04F0FF0C03F0FF0E6A
:105BB80000F0FF005F2303FB0EC5841812E7386B63
:105BC800024602F8013B314B3A639A4224BF304AFD
:105BD80010634CE77A69BB69F869FA603B607860E2
:105BE800E8E6FFF701FC42E702F09CF840B210F04B
:105BF800E00F3FF475AFA31103F00302111901F090
:105C08003F052035A8427FF46BAF02F08BF84FFABE
:105C180080FCBCF10D0F7FF463AFBBF1530F50460E
:105C280029D0FFF74DFDBBF1420F1ED0534663E765
:105C38003A6B1648134603F8011B83423B63FFF493
:105C480000AF13490A63FCE6386B024602F8011BF1
:105C58000E493A638A42FFF4DDAE0D490863D9E67E
:105C68000193FFF7C1FB019BD4E6BA687968029CEF
:105C7800039D8F1A35E6FFF713FC53463CE700BF38
:105C8800A844010054000020644501007C2E002037
:105C9800342E00202DE9F04EADF5527D06AC48F2C9
