:100000000000012075030000A1020000A102000011
:10001000A1020000A1020000A1020000A102000054
:10002000A1020000A1020000A1020000A102000044
:10003000A1020000A1020000A1020000A102000034
:10004000A1020000A1020000A1020000A102000024
:10005000A1020000A1020000A1020000A102000014
:10006000A1020000A1020000A1020000A102000004
:10007000A1020000A1020000A1020000A1020000F4
:10008000A1020000A1020000A1020000F14700004F
:10009000A1020000A1020000A1020000A1020000D4
:1000A000A1020000A1020000A1020000A1020000C4
:1000B000A1020000A1020000A1020000A1020000B4
:1000C000A1020000A1020000A1020000A1020000A4
:1002980062B6704772B67047684600F001F8FEE72C
:1002A80070B5044600F078FC0546224807F02CFE9D
:1002B8000F2D9DBF204B214853F82510A5F11001A3
:1002C80088BF1F4807F020FE22681E481E4907F015
:1002D8001BFE62681D491B4807F016FE1C4807F004
:1002E80013FEA26817481B4907F00EFEE2681A4978
:1002F800144807F009FE164807F006FE226911485F
:10030800164907F001FE626915490E4807F0FCFD21
:100318000F4807F0F9FDA2690A48124907F0F4FDF1
:10032800E2690848104907F0EFFD0948BDE8704048
:1003380007F0EABD20300100C02F0100AC630100C6
:1003480038300100443001005030010054300100C1
:10035800D4620100583001005C30010060300100B7
:1003680064300100683001006C30010010B572B6CD
:1003780009480A4A0A49121A00F086FA09480A493D
:100388000A1A002100F012FA084A094B1A60BDE85F
:10039800104000F071BE00BF00000020F80E0020E1
:1003A80010870100F80E0020E84B002000F0002024
:1003B800F80E00200023CA5CC2540133002AFAD187
:1003C800704700BF002312F0010F10B404D00C785E
:1003D800013A047001237CB172B1CC5C03F1010CC9
:1003E800C454013A44B111F80C400CF1010300F86F
:1003F8000C40013A002CEFD110BC704790F9003046
:1004080010B463B1024612F9014F002CFBD100234E
:10041800CC5CD4540133002CFAD110BC704702468E
:10042800F5E700BF70B41346002A32D090F90020D7
:10043800002A30D0024612F9014F002CFBD10C786B
:1004480003F1FF3C0CF00106147014B34FF0010CDB
:100458009C4502EB0C051AD04EB111F80C4002F87D
:100468000C40B4B14FF0020C01359C450FD011F887
:100478000C600CF10104013502F80C60013504F13F
:10048800010C36B10E5D16551EB19C45EFD1002307
:100498002B7070BC70470246D1E700BF10B4002330
:1004A800C25CCC5C0133141BE4B224B9002AF7D136
:1004B800104610BC704760B2FBE700BF70B413462B
:1004C800AAB104780A78A21AD2B2002A30D174B13B
:1004D8005C1E14F0010F944627D045784A782346CD
:1004E800AA1AD2B2002A23D14FF0010CEDB900208C
:1004F80070BC704701EB0C0500EB0C046A7864785B
:100508000CF1010CA21AD2B200EB0C0601EB0C059F
:1005180072B9002CEBD074786A78013BA21AD2B277
:1005280032B90CF1010C002CE1D0013BE2D1DEE73D
:1005380050B2DDE7037849B25AB28A4208D033B1E3
:1005480010F8013F4FFA83FC8C45F8D17047002022
:10055800704700BF90F9002003462AB1024612F9FD
:10056800010F0028FBD1D21A981890F900C049B29F
:100578008C4502F0010215D00138834210D832B1FF
:1005880090F900208A420CD00138834208D890F9AB
:1005980000208A4205D010F901CD8C45F4D170476E
:1005A80000207047704700BF90F9003033B1034610
:1005B80013F9012F002AFBD1181A70471846704703
:1005C800D9B190F90020C2B14B1E13F0010F0246B9
:1005D8000CD1013243B192F90010013B21B112F95B
:1005E800011F013B0029F4D1101A7047024612F985
:1005F800011F013B0029ECD1F6E70020704700BF3E
:1006080070B403780246C3B10E78B6B176B2002052
:100618005BB29E4218BF0C4602D109E0634507D081
:10062800657801344FFA85FC002DF7D170BC70470E
:100638000130135C002BEBD1F8E70020F6E700BF90
:10064800F0B40378ABB10E78054677B2284666B1A8
:100658005BB29F420ED00A4601E063450AD0547847
:1006680001324FFA84FC002CF7D115F8013F002B1A
:10067800ECD10020F0BC70472DE9F004002844D0EC
:10068800274E0478002C45D00D78002D45D0002742
:100698004FFA85FA64B2A24518BF0A4602D124E08F
:1006A800A44522D0537801324FFA83FC002BF7D1AE
:1006B800C0190378002B2DD007464FFA85FA65B18B
:1006C8005BB29A4516D00A4601E09C4512D0547890
:1006D80001324FFA84FC002CF7D117F8013F002BA8
:1006E800EDD13360BDE8F00470470137C45D002CDC
:1006F800D0D1DDE73B46002FF3D097F90020002A40
:10070800EFD0002103F8011BEBE7054E3068002805
:10071800E8D0B6E700203060E4E72F46C8E700BF1E
:10072800FC0E002003682DE9F004CBB11D78ADB1B3
:100738000F781E464FFA87FA67B16DB2AA4513D0F3
:100748000A4601E0AC450FD0547801324FFA84FCD8
:10075800002CF7D116F8015F002DEDD100220260C0
:100768001846BDE8F00470473246002EF7D0002145
:1007780002F8011B0260F3E7034608B91846704700
:10078800017879B140780028F8D01A4603E0D0788B
:1007980002320028F2D05170917810700029F6D1F9
:1007A800184670470B461846704700BF10F0030FF5
:1007B80030B404462AD101F0FF0343EA032C43EA8C
:1007C8000C25032A43EA052520D9A2F1040C0423A9
:1007D800BCF1030F0560CCF3800410D92CB1A2F151
:1007E80008040823032C456009D903F1040CC550FB
:1007F8000CF10403D41A032C40F80C50F5D8043A31
:1008080022F00304231DC41802F00302AAB1531EE8
:1008180003F001050123C9B29A4221700DD01DB120
:1008280002239A42617008D003F1010CE1540CF1E3
:1008380001039A4204F80C10F6D130BC704700BF8F
:10084800034610B41046E2B11C7802F1FF3C0122C5
:1008580082420C700CEA020413D034B193F801C040
:100868000222824281F801C00BD09C5C02F1010C8B
:100878008C5413F80C400CF10102824201F80C4030
:10088800F3D1084610BC704741EA000313F0030F88
:1008980030B404460D4628D1032A26D90C68A2F1A3
:1008A800040C0423BCF1030F0460CCF3800414D9B6
:1008B80034B14D68A2F108040823032C45600CD913
:1008C800CC5803F1040CC4500CF1040351F80C503B
:1008D800D41A032C40F80C50F2D8043A22F003053D
:1008E8002B1DCD1802F00302C418CAB12978531E73
:1008F800217003F0010101239A4211D021B16978D6
:1009080002239A4261700BD015F803C0591C04F8F1
:1009180003C015F801C04B1C9A4204F801C0F3D17A
:1009280030BC70478842F0B41FD8E2B10C7801237C
:1009380002F1FF3C934204700CEA030413D034B173
:1009480091F801C00223934280F801C00BD0CC5C1F
:1009580003F1010CC45411F80C400CF1010393424B
:1009680000F80C40F3D1F0BC7047002AFBD089187E
:1009780011F8013C8418551E04F8013C05F00106E5
:100988004FF0FF33002DEED03EB111F802CC022A11
:100998006FF0010304F802CCE5D0CD1815F8017CFE
:1009A80003F1FF3CE61806F8017C01EB0C0515F88D
:1009B800017C0CF1FF3304EB0C069D1806F8017C52
:1009C800002DEAD1CFE700BFF0B403469446002AD1
:1009D80030D005780A78AD1A29D10CF1FF3616F017
:1009E800010F2A4618D0447848780122201AB446C4
:1009F8001ED19C18881801329F188E180132BCF13C
:100A0800010C0CF1FF3C12D064784078201A0FD109
:100A18007C787078201A0BD19C18881801329F189E
:100A28008E180132BCF1010C0CF1FF3CECD12846C8
:100A3800F0BC70471046FBE71346CAB102788A42F9
:100A480019D05A1E12F0010F0DD010F801CF13461D
:100A58008C4508D1704790F800C08C4509D010F833
:100A6800012F8A4206D00130013B03F1FF33F2D156
:100A780070477047704770472DE9F00E91F90030C4
:100A880083B081463BB10B4613F9012F002AFBD1F5
:100A9800B3EB010A04D1484603B0BDE8F00E704735
:100AA80099F90030002B40D04B4613F9010F00286C
:100AB800FBD1C9EB030BD34535DB4846BAF1000F30
:100AC800EAD00B784FF0000C019319F80C30019A1A
:100AD8009A421FD10AF1FF34002314F0010F524645
:100AE8000AD046784D780123AE42224604D011E060
:100AF8007C787578AC420DD1C518CC180133C7186D
:100B0800CE180133013A02F1FF32C5D06D7864780E
:100B1800A542EDD00CF1010CCCEB0B00824502DCB8
:100B280009EB0C00D1E70020B6E79B46C3E700BFFE
:100B380012F0010FC9B205D090F800C0013A8C45F7
:100B48000DD00130531E4AB190F800C05A1E8C4592
:100B580005D010F8013F8B42F3D17047104670471B
:100B680010B5044600B910BD90F9003083B110F9F2
:100B7800011F0029FBD1001B013007F0E7FB0146EC
:100B880029B10023E25CCA540133002AFAD110BD0E
:100B98000120F2E7002070474EF60053CEF2000322
:100BA8005868C0B2704700BF4EF69053CEF20003AB
:100BB8009860D9601A6170474EF69053002814BFA8
:100BC80003200020CEF20003586070474EF6905381
:100BD80040F23F00CEF200030021C0F200300322B1
:100BE8009960D96018615A60704700BF08B500F075
:100BF800C5F900F07DF800F0FDF843461A6841F2A7
:100C08005E11D16000F0BCF9404603684FF0204205
:100C18001A61002008BD00BF012A2DE9F8461546D3
:100C28001C464BD00021102258680BF071FC022D95
:100C38000746D8BF284E2ADCDFF8B0904FF0000AEC
:100C48002648216807F060F948F20003C4F203035C
:100C5800DD68314645F4FF52DA6038464A46534665
:100C68001F4EB04738B948F20000C4F20300C5600F
:100C78000020BDE8F88621681A4807F045F948F2CF
:100C88000000C4F20300C5600020BDE8F88600211A
:100C98001022A0680BF03CFC032D0646CCD00021A6
:100CA8001022E0680BF034FC042D8146C6D0206980
:100CB800002110220BF092FC8246C1E719680A480D
:100CC80007F022F948F200000025C4F20300C560CD
:100CD8000020BDE8F88600BF008000200431010034
:100CE800150D002028310100E0300100004000000F
:100CF80030B44EF210034FF6FE74CEF20003C0F289
:100D0800FF0406495C600020002400250122986049
:100D1800C1E900451A6030BC704700BF000F0020D1
:100D28004EF21000CEF200008268034B0020002132
:100D38009A60C3E900017047000F0020012000F00D
:100D48000DB900BF10B50446012000F007F94DF6B3
:100D5800836CC4F21B3CACFB00218B0C04FB03F43A
:100D68004EF21001CEF200018A6894420AD902F1CB
:100D78008073981E041B88688242FCD88B68A34243
:100D8800F9D810BD141B8868A04202D98B689A4212
:100D9800F9D210BD2DE9D04C154B4EF21004CEF20D
:100DA80000049F68A2680446BA4284BF07F18077AE
:100DB800023FBE1AD3E9000110EB060A41F1000B0D
:100DC8005F465646C3E900679A60012000F0C6F8FE
:100DD80044F6D351C1F26201A1FB00B20023504690
:100DE8003946920911F034FC001BBDE8D08C00BFD5
:100DF800000F002048F20003C4F2030310B4D3F834
:100E08009400194620F00402C3F89420D1F8504108
:100E180048F2000314F0010FC4F20303F6D0D3F82C
:100E28009400194620F00102C3F89420D1F85041EB
:100E380048F2000314F0020FC4F20303F6D0D3F80B
:100E48009840444A24F48051C3F89810D3F8981075
:100E580046F60000C1F3422CC0F68910BCF1070F1A
:100E68001060D3F890003BD146F6000C0124C0F680
:100E7800891CC0F30240BCFBF4F3072853603DD142
:100E880046F6000C0120C0F6891CBCFBF0F3C1F348
:100E98008200072893603FD146F6000C0120C0F677
:100EA800891CBCFBF0F3C1F342100728D36041D181
:100EB80046F6000C0120C0F6891CC1F34231BCFB88
:100EC800F0F30729136143D0234850F8211046F660
:100ED800000CC0F6891CBCFBF1F3536110BC7047D1
:100EE8001D4BC0F3024053F82C4046F6000CC0F6E8
:100EF800891CBCFBF4F307285360C1D0164B46F697
:100F0800000C53F82000C0F6891CBCFBF0F3C1F3B9
:100F1800820007289360BFD00F4B46F6000C53F8A9
:100F28002000C0F6891CBCFBF0F3C1F3421007286F
:100F3800D360BDD0084B46F6000C53F82000C0F62D
:100F4800891CC1F34231BCFBF0F307291361BBD103
:100F58000121BCE7100F002084310100052803D8C7
:100F6800024B53F82000704700207047100F0020F4
:100F7800014B43F820107047100F0020704700BF46
:100F880048F20003C4F20303012098619A6C42F00E
:100F980080019964986C20F080029A64FFF716BE6D
:100FA800704700BF704700BF704700BF704700BF61
:100FB800704700BF704700BF704700BF704700BF51
:100FC800704700BF08B5024806F086FFFEE700BF7D
:100FD800E031010008B50748074906F095FF074AC0
:100FE8000748084B11681B680268074806F08CFF21
:100FF800002008BD0C320100A0310100F80E0020CD
:10100800F80E0020E84B00201432010008B509480A
:1010180006F062FF4246116807484A69002106F057
:1010280073FF40460368054998690AF0BBFF002032
:1010380008BD00BF4032010054320100D4620100F3
:1010480070B590B040220B48694605F043FF44460E
:1010580000286D462668D8BF4FF4E13004DD6846A5
:1010680000210A220BF054FAA060A3680020336024
:1010780010B070BD6832010038B5394C2268A2F54D
:101088004058A8F12008002120224046FFF78EFB97
:101098004546A8F11C002860286800211C22FFF79B
:1010A80085FB4246D2F804C02E4B2F4D19682068A4
:1010B8004CF0010CC2F804C02B682C4A091A1160C4
:1010C8001BB908E055F8043F23B198470028F9D028
:1010D800FFF778FF2068A0F540504FF4405107F023
:1010E80077FC07F05BFE224841460C6805F066FF76
:1010F8000BF0B0F9606009F01BFB07F0EBFE06F09F
:101108005BFF00F043F81B4805F058FF28B10021A9
:1011180010220BF0FDF9184B1860184805F04EFF27
:10112800014618B11648802200F06EFC0AF092FCC5
:10113800144806F0D1FE4446206800F031FB1248FE
:1011480006F0E2FE48F20000C4F20300026E22F04C
:101158000105056608F0E2FE08F0E0FEFAE700BFC8
:10116800F80E0020F80E002000000020280F0020B4
:10117800743201007C3201005400002088320100E2
:1011880090280020943201009C320100704700BF73
:101198000020704770B5A2B0044680222C4902A8EE
:1011A800FFF772FB266BE56AE16BA26B636B29485C
:1011B80000960195256C06F0A7FEA16A626A236A6B
:1011C800254806F0A1FE2669E169A26963692348FA
:1011D800009606F099FE2668E168A26863682048D0
:1011E800009606F091FE15F0804F14BF5A227A221D
:1011F80015F0005F14BF4323632305F0704C15F00E
:10120800805F14BF562676261648BCF1000FB4BF7F
:101218004E216E21009606F077FE206C22AA00F07F
:101228001F01114C02EB8103104A10F0800F14BF0C
:101238002146114610F0400F18BF22460C4C53F8B7
:10124800803C0C48009406F05FFE22B070BD00BFE1
:10125800B83201003833010080330100A4330100A3
:10126800D43301000434010018340100143401009F
:101278001C5401001C34010008B503480BF0D0FAD7
:101288000020024B984708BD3C340100F50C0020B3
:1012980010B50446044806F037FE2046FFF77AFFEB
:1012A800BDE81040E8E700BF5034010010B504461F
:1012B800044806F029FE2046FFF76CFFBDE8104001
:1012C800DAE700BF6434010010B50446044806F0AC
:1012D8001BFE2046FFF75EFFBDE81040CCE700BFCD
:1012E8007C34010010B50446044806F00DFE204683
:1012F800FFF750FFBDE81040BEE700BF883401008B
:1013080010B50446044806F0FFFD2046FFF742FFEB
:10131800BDE81040B0E700BF9434010010B50446A2
:10132800044806F0F1FD2046FFF734FFBDE8104001
:10133800A2E700BFA434010010B50446044806F033
:10134800E3FD2046FFF726FFBDE8104094E700BF05
:10135800B83401004FF0FF30704700BF014B1868E8
:10136800704700BF2C0F0020104B5A689AB1D8B1B3
:10137800136B9A420FD0012110F0010F0DD0884253
:1013880001F1010C0ED01B6B0CF101019A4202D045
:101398001B6B9A42F3D1002070471B6B9A42FAD01C
:1013A8000221ECE718467047104670472C0F0020C2
:1013B8000B4A536883B11268934209D0002001E0B8
:1013C800934206D01B6B0130002BF9D100207047E7
:1013D8000020002AFAD070474FF0FF30704700BF56
:1013E8002C0F002010B5054C23682BB11846D96A7C
:1013F800884723680122DA6110BD00BF2C0F002046
:1014080008B5064B84461B680A4623B11846614650
:101418005B6A984708BD4FF0FF3008BD2C0F0020CD
:1014280008B5054B1B681BB11846996A884708BD63
:101438004FF0FF3008BD00BF2C0F00200349044BBC
:101448000868002808BF1846704700BF2C0F002006
:10145800D835010070B5084D06466C6844B1214680
:101468003046FFF71BF828B1246B6B689C42F6D115
:10147800002070BD204670BD2C0F002070B5154CA3
:101488002368002B21D005F0FFFCA168054611B1A7
:10149800E068854206D0104805F090FDE5600146F9
:1014A800A06098B125680B4E284600E0B168FEF7A9
:1014B800F5FF50B12268106B85422060F6D10648CE
:1014C8002946BDE8704005F099BF70BD01490D6817
:1014D800F5E700BF2C0F0020E035010038B50546C0
:1014E800144805F06BFD18B11349FEF7D7FF90B10A
:1014F800124C23687BB17DB91B6B1148236005F042
:101508005DFD58B10D4A1168FEF7C8FF30B9216872
:10151800206988420AD038BD2361EDE72168084870
:1015280005F06CFF216820698842F4D1054B01223F
:101538001A6038BDE8350100F43501002C0F002091
:10154800E03501009C0F002038B50F4D044669684E
:1015580051B10A4600E01A46136B9942FBD1146355
:1015680000202163E06138BD08486C602C6005F0FC
:1015780025FD18B12968FEF791FF18B103482968BD
:1015880005F03CFF6968EBE72C0F0020E03501000F
:1015980030B587B001AC0A460546054920460CF02F
:1015A80093F82846214605F029FF07B030BD00BF53
:1015B800F835010030B50C4683B0002855D001AD90
:1015C800102229460AF0A4FF019B207093F90020FD
:1015D800002A48D1621C002B4AD0184629461022FE
:1015E8000AF096FF019B607093F90000002838D13B
:1015F800A21C002B3FD01846102229460AF088FF6B
:10160800019BA07093F90020002A28D1E21C002B2E
:1016180034D01846294610220AF07AFF019BE07060
:1016280093F90000C8B9221D002B2AD018461022B1
:1016380029460AF06DFF019B207193F9002052B9E9
:10164800621D002B20D01846294610220AF060FFA0
:10165800607103B030BD0133F2E70133E3E70133D2
:10166800D4E70133C4E70133B4E70A4602F8010BB3
:1016780000231370A21C00211170E21C00231370B8
:10168800221D00211170621D00231370E1E700BFC5
:1016980010B50C4605F092FC2146FFF78BFF237826
:1016A80013F0010F01D0002010BD607894F802C03B
:1016B800E27840EA0C010B432179134362790B432A
:1016C8001A430CBF0020012010BD00BF30B50246F0
:1016D800084B094889B0002A18BF03460D466846DA
:1016E80019460BF0F1FF684629466C46FFF7D0FF14
:1016F80009B030BDFC350100043601002DE9F04485
:10170800234E82B033688246002B3BD07468002594
:101718006F4605E0246B70681D4A844211D001357C
:1017280069462846FFF7D2FF0028F3D0062204F1C5
:1017380010006946FFF7A8F8246B7068144A8442C1
:10174800EDD1146815462146124806F0DDFB3368D2
:10175800514618461A6A904700280F480CDA06F0D6
:10176800D3FB0020FFF7BAFE29688C42ECD14FF07A
:10177800FF3002B0BDE8F084054A02211068C1615B
:101788000020F6E7054806F0A7FB4FF0FF30F0E72A
:101798002C0F0020243601003036010010360100DD
:1017A8002DE9F04E574F002382B03B607B60044622
:1017B800402008F055F808F05FFC20460AF09CFA33
:1017C8000028C0F28F807C68002C00F092804E4880
:1017D80005F0F4FB8146412008F042F821464B48C9
:1017E80006F092FB00256E46DFF818B14946204600
:1017F800B9F1000F02D0FEF751FE00B32846694642
:10180800FFF764FF684642490622FFF7DDF8013515
:1018180028BB246B79683F488C4232D006F05CFBC9
:1018280021463A4806F070FBDFF8D8B04946204612
:10183800B9F1000FE2D0FEF731FE0028DED13648BC
:101848003C6006F049FB28466946FFF73FFF6846BB
:101858002F490622FFF7B8F801350028D9D004F13E
:10186800100A2B4906225046FFF7AEF8E8B9694638
:1018780006225046FFF708F8246B796825488C4201
:10188800CCD1DBF80010002928D0244805F096FBBD
:10189800F8B1DBF80010FEF701FED0B90A2006F017
:1018A800F7FB284602B0BDE8F08E0622694650468E
:1018B800FFF78AF80028DAD02146194806F024FBF9
:1018C8005146184806F020FB1748694606F01CFBED
:1018D800CDE73968114805F091FDDFE70F4805F0BD
:1018E8008DFDDBE72046FFF735FD7C68002C7FF493
:1018F8006EAF0E4806F0F0FA6FF03F0007F0B0FF49
:101908002546CEE72C0F002038360100187001005C
:10191800D03501004436010048360100E0350100A9
:101928005436010080360100A0360100103601004F
:10193800014B02221A607047400F0020704700BF19
:10194800014B5860704700BF400F0020002910B4B9
:101958002DDD01234A1E8B4202EA0304028812D0BD
:101968002CB1022330F803C08B4262440BD003F140
:10197800010C30F8133030F81C40D2180CF1010378
:1019880012198B42F3D191B201EB124C1FFA8CF36E
:1019980003EB1C404FF6FE71421CC0F2000102EA44
:1019A8000100D0F1010038BF002010BC70470120B1
:1019B800FBE700BF002910B423DD01234A1E8B4238
:1019C80002EA0304028812D02CB1022330F803C0C3
:1019D8008B4262440BD003F1010C30F8133030F81D
:1019E8001C40D2180CF1010312198B42F3D11FFAD3
:1019F80082FC0CEB124290B200EB124188B210BC90
:101A080070470020FBE700BF10B491F90030222B8B
:101A18002ED0013A002A12DD0B7883B1222B0ED08A
:101A280002F1FF3C1CF0010F1BD0BCF1000200F8D2
:101A3800013B04DD4B7813B10131222B11D1002178
:101A4800017010BC70474B78611C002BF7D0222B1B
:101A5800F5D000F8013B6378013A002BEFD0222B38
:101A6800EDD0013A4C1C002A00F8013BEBDCE6E71C
:101A78000131013ACDE700BF08B520B1017830390E
:101A8800CBB2092B02D94FF60F7008BD0A220021EC
:101A98000AF03EFD82B2130243EA122080B208BD6A
:101AA80010B505F08BFABDE81040E5E7094A108843
:101AB8004FF6FF72010A41EA00239BB2934207D016
:101AC8001805030D40F6FF7C634501D012207047CE
:101AD8000E20704730000020020A42EA002C1FFA4C
:101AE8008CF24FF6FF739A4209D040F6FF7082429B
:101AF80005D01305084604491A0D0BF0E5BD084644
:101B08000249FEF757BC00BFD0360100C8360100B5
:101B180030B5020642EA106500F47F4345EA032423
:101B280000F47F0044EA102283B0C2F3072502F0D4
:101B3800FF04C2F307430846120E034900950194B7
:101B48000BF0C2FD03B030BDD43601000422FEF70D
:101B58009BBE00BF70B51B4E4FF6FF733488164608
:101B6800220A42EA0425ADB29D4204461BD0062251
:101B7800FEF78AFE2D050622A01D1349FEF784FEF6
:101B88002A0D15F5801F16D0B6B22D0F330A45EA77
:101B9800022543EA06264FF0810C2682E581A4F847
:101BA8000CC0122070BD0622FEF76EFEA01D06496D
:101BB8000622FEF769FEB0B2010A41EA0026A681B4
:101BC8000E2070BD30000020480F0020FFF718BC21
:101BD8002DE9F04E934D0D2984B0044628616961C2
:101BE80033DD914E8389728830884FEA122C070AB8
:101BF8001E0A47EA00204CEA022C46EA032640F671
:101C0800FF724FF6FF7380B21FFA8CFCB6B240F237
:101C1800E9579C4508BF9446984214BF03461346AB
:101C2800BE4215DDB6F5014F4AD00E3904F10E0754
:101C38001B051B0D40F6FF70834217D0824204BF7C
:101C48004FEA0C52120D934210D004B0BDE8F08E4A
:101C5800A08A1B05060A46EA00271B0D40F6FF70FE
:101C680016398342BEB204F11607E7D140F6060CD6
:101C780066453AD048F23502964211D0B6F5006F63
:101C8800E3D11B29E1D97888020A42EA002C1FFA1D
:101C98008CF28A4240F3D680644806F035F9D4E7DE
:101CA8001B2940F3B980F888020A42EA002C0FFA8F
:101CB8008CFEBEF1040F7DD05D4806F00DF9C4E737
:101CC8001129C2DD0005000D9042BED0E789208AA7
:101CD8003E0A46EA0722060A46EA00271205BEB26D
:101CE800120D123904F11207A2E71B2940F3948060
:101CF8003B881A0A42EA032001B20129A5D1788853
:101D0800030A43EA00210FFA81FCBCF5006F9CD15D
:101D180097F804A0BAF1060F97D17A79042A94D1DA
:101D2800A969DFF8009100298FD007F1180103ABEA
:101D38000191184601990093FEF7A6FDD9F81800FD
:101D4800039A07F1080B9042009B7FF47EAFF88856
:101D5800020A42EA002E1FFA8EF2012A00F0D88009
:101D6800022A7FF472AFE9692E4C00293FF46DAF67
:101D7800206A00283FF469AF042218460BF10601D7
:101D8800FEF782FD626A039B9A427FF45EAF594672
:101D98000622206AFEF778FD216A0622A06AFEF76D
:101DA80073FDE16AA06AFFF72BFB00212162E16164
:101DB800E1624AE73888020A42EA00210BB2012BA5
:101DC8007FF47AAF7B88190A41EA032C0FFA8CFE5C
:101DD800BEF5006F7FF470AFB88840F206429042BB
:101DE8007FF46AAF134807F11801FFF7AFFE2B6BBA
:101DF80007F1080423B907F10E010F48FFF7A6FE03
:101E0800214606220D48FEF73FFD00206C6801467A
:101E180002460346A04718E709481C2206F074F852
:101E280013E700BF400F0020300000200C370100EE
:101E3800F4360100580F0020700F0020740F0020A6
:101E4800E03601003B7803F0F00140297FF4FDAE55
:101E580003F00F03052B3FF7F8AE38460A21FFF7CA
:101E680075FD00283CD0042203A807F11001FEF7F5
:101E78000BFDAB69039A6BB1B3EB020E18BF4FF0C1
:101E8800010EB2F1FF3F0CBF00200EF00100002848
:101E98007FF4DBAEF888020A42EA002399048A0C30
:101EA800002A7FF4D2AE7B7A012B1DD0112B7FF450
:101EB800CCAE3B8BB7F816E0BA8A190A41EA03247C
:101EC800100A4FEA1E2C4CEA0E2140EA0222A3B265
:101ED80007F11C006C6889B292B2083BA047B4E6CF
:101EE8001F4805F0F9FFB0E697F814C007F114038E
:101EF800BCF1050F7FF4A9AE93F801E0BEF1010F24
:101F08007FF4A3AE07F11801164805F0FDFF9CE623
:101F18003246A11D2046FFF71DFE4FF4007CA7F8AE
:101F280006C05246064607F10E05594607F112004B
:101F3800FEF7AAFC01982946FFF708FE524609F168
:101F480008015846FEF7A0FC284609F11801FFF7DA
:101F5800FDFD204606F11C01FFF752FA75E600BFA9
:101F680020370100303701002DE9F044294D82B0B7
:101F7800EE6B294940F606023046FFF7EBFD4FF4B9
:101F880080723418062332524FF0080C4FF0040ABE
:101F98004FF4807604F108071A462371A4F802C0AA
:101FA800E68005F1080184F805A03846FEF76CFCC8
:101FB800A96902AE46F8041D5246314604F10E00E6
:101FC800FEF762FC0023E375A374E374237563755D
:101FD800A375EB69A8692A6C83EA0001114201D054
:101FE8006B6C83B16B62314607F1100004220193D8
:101FF800FEF74AFCE86BC0F11C010919FFF700FA6B
:1020080002B0BDE8F084054805F066FFEB696B6235
:10201800E9E700BF400F00203400002050370100DE
:1020280038B5044610B9054B986438BD034D0020F7
:10203800A964FEF7AFFE2C65E86438BD400F0020A8
:1020480038B5254804F0BAFF044618B12349FEF70D
:1020580025FAE8B9224D6B6D5C1C6C65FFF7C2F977
:10206800AA6D1F4CD2F1010038BF0020FFF736FAE5
:1020780041460868FFF742FBE86D30B1236E002047
:10208800E065DBB90422226038BD0223236038BD35
:1020980020461449FEF702FA28B9114DFFF7A2F9B4
:1020A80004232B6038BD20460F49FEF7F7F968B9BD
:1020B80001200B4D6B6D9842CED8EFE70B4942F2E9
:1020C8001070FFF7ADFF0A49616038BD0021204656
:1020D8000A460AF01DFAECE77C3701008837010050
:1020E800400F0020F43501008C3701003919000039
:1020F8004519000010B50F4CE36903B910BD002065
:10210800FEF748FE636E41F28831C21A8A42F5D959
:10211800A16E4A1C042AA26603DC6066BDE8104072
:1021280022E7054805F0D8FE0020A066BDE810406B
:1021380086E700BF400F0020943701002DE9F044E6
:1021480082B0089F019117F0010F044615469A4680
:1021580003D007F11C030022C2540026334945234B
:1021680023706670CB6EBFB207F11C0290B29AB2B0
:102178004FEA122C4FEA102E4EEA002001334CEAA7
:10218800022ECB66A4F804E04FF0FF334FF0400E68
:1021980011222372608062721831A4F806E00422CA
:1021A800668104F10C000837FEF76EFB1FFA8AFA05
:1021B80001A90422ADB2BFB204F11000FEF764FB1E
:1021C8004FEA1A2C280A3B0A4CEA0A2A40EA052553
:1021D80043EA0727A4F814A0E58227836683A21C94
:1021E8002088638851880232C318508802325B18ED
:1021F800518802321B18508802325B18518802320B
:102208001B18508802325B1851881B1892885B187B
:10221800D31898B200EB134C1FFA8CF202EB1C4156
:10222800C843608102B0BDE8F08400BF400F0020C1
:102238002DE9F04E84B0934699460C9D0E46002930
:1022480028D1344F344C384604F170010622FEF789
:10225800BBFB4FF0FF36844600282AD0D4F83CA0B8
:1022680039464FF400625046FFF774FC0AEB00074A
:10227800384631465A464B460095FFF75FFFE06BFC
:1022880005F11C033F1AD919FFF7BAF8002004B06A
:10229800BDE8F08E1F4F204CB1F1FF3F18BF074635
:1022A800384604F170010622FEF78EFB84460028AA
:1022B800D4D1D4F828A039464FF400625046CDF85E
:1022C8000CC0E6612762FFF745FC0AEB00074B46A6
:1022D800314638465A460095FFF730FFA26AE06B50
:1022E800B91A1C3109182A4607F11C00FEF7CCFA66
:1022F800A36ADDF80CC0FF1A1C3560460126ED19EB
:10230800E562A666FEF746FD6066FFF72DFE3046DD
:10231800BDE700BF34000020400F00202DE9F04E3B
:10232800934D944C05F5E273DE1C04F197090023E4
:1023380029F01F02414626F01F07012602F5406CCE
:1023480002F5C06E88B0E362A36523662362E36189
:102358006362E263A76266650F68C5F8A0E1C5F825
:10236800A4C18146FFF73EF8FFF788F83846FFF723
:10237800C5F90028C0F2F78006FA09F240F2131BEB
:10238800C0F2000B02EA0B00B246009226468346D2
:10239800FEF7E4FF062200F110017748FEF774FA11
:1023A80043461F68C4F800A0019704F06DFDD5F8F6
:1023B800C8170746884224D001980422011D6F4897
:1023C800FEF762FA6E4804F0F9FD0AF043F870640B
:1023D8006C4804F0F3FD0AF03DF830646A4804F0F4
:1023E800EDFD0AF037F830636848FFF759FB684B92
:1023F80058806848FFF754FB5D49654AC1F8C877BB
:102408001080B9F1090F09D9C4F860A0B9F1040F17
:1024180035D8DFE809F06B2E34686100BBF1000F96
:1024280013D055485C490622FEF7CEFA0028EBD1B6
:10243800FEF7BEFFB0F1FF3F7AD000287ED15748A3
:1024480005F04AFDFFF7FCFD1CE0009A12F4027F3C
:10245800DAD0216B002978D0B369002BE1D150483C
:1024680005F03AFDFEF7BEFF4FF0FF3008B0BDE8BB
:10247800F08E4C4F0023A3613B6000F0A9F80020C8
:10248800C5F8CC07FEF7CCFF05F020FE074600286C
:1024980061D1FFF72FFEA16C384631B1FEF77AFC07
:1024A800F16C336D421A9A4212D82368032B07D075
:1024B800042BD9D0022BE5D12E4FC7F858A067E7D7
:1024C800D5F8CC17C9B9FEF78DFFD5F8CC07CDE7FD
:1024D800B06CB7648047E8E7334800270760A76116
:1024E80000F018FECBE700F09DF9C8E72E4A00215E
:1024F8001160A16100F044FDC1E70A462B4805F0D0
:1025080003FD1B4903ACD1F8CC27204628490BF022
:10251800DBF82146274804F071FF274B24491A6845
:1025280020460BF0D1F82146244804F067FFCAE79B
:10253800234805F0D1FCFEF755FF95E701462148F1
:1025480005F0E2FCFFF77CFD9CE71F4805F0C4FCA2
:10255800FEF748FF88E7FEF745FF1C4805F0BCFC7E
:102568004FF0FF3082E7FEF73DFF4FF0FF307DE789
:1025780038200020400F0020480F0020580F00206E
:10258800C0370100CC370100D4370100E037010023
:1025980030000020E8370100C03601005038010043
:1025A8001038010010290020CC290020983801009B
:1025B800BC380100C038010054000020CC380100AC
:1025C8003038010070380100F03701009038010000
:1025D8002DE9F047264DDFF8B4902E682548741C85
:1025E80021462C6005F090FCD9F80060224948F299
:1025F80035023046FFF7AEFA204F4FF4807C34188E
:1026080026F800C006254FF0040A4FF008024FF4E0
:1026180040706280E08039462A46257184F805A01A
:1026280004F10800FEF730F95246154904F10E008E
:10263800FEF72AF92A46394604F11200FEF724F972
:102648004FF0FF33E37623766376A376D9F800005C
:10265800C0F11C010919FFF7B9FA41F2883009499C
:10266800FFF7DEFC0848BDE8F047FFF769B900BF8F
:1026780010290020D838010034000020480F00201D
:10268800580F0020CD260000992600007C0F00205E
:10269800094810B505F038FC084804F08FFC18B15B
:1026A80090F900306E2B03D0BDE8104000F0BAB8A6
:1026B80003480322026010BDEC380100FC38010019
:1026C800400F0020094810B50368042B07DC41F2CD
:1026D80088300749FFF7A4FCBDE8104078E70548B3
:1026E80005F0FAFBBDE81040FFF7AABC102900204E
:1026F800CD26000008390100F0B53E4883B00768D0
:10270800FFF7D4F93C4C1C3021683D184B1E042BB4
:102718006DD8DFE803F034271A0327004FF4A061CF
:102728004FF400733952281D6B803449FDF742FE7F
:102738001725D4F89030D4F88810D4F88C20304875
:102748000095FFF775FD03B0F0BD4FF4A0624FF49C
:10275800407E3A522B49281DA5F802E0FDF72AFED3
:102768001325E6E7B4F884104FF4806C27F800C00E
:10277800080A40EA01239AB26A800425D9E74FF48F
:10278800807EAE1C27F800E01F493046FDF712FE98
:102798001D48FDF709FF411C76181C4F1C4930469F
:1027A800FDF708FE1B49B01DFDF704FE386844F626
:1027B800D35CC1F2620CACFB00130E369A091649C1
:1027C80030460AF081FF3146144805F09DFB30463B
:1027D800FDF7EAFE421CBB88B618002730463A4689
:1027E8000F4900970AF070FF3618751BA1E70025FE
:1027F8009FE700BF7C0F00201429002078390100D2
:10280800740F002068390100182900203C000020BE
:1028180030390100A0390100383901003C39010084
:1028280058390100F0B5724883B004F0C7FB00289E
:1028380000F0D38000210A2209F0D0FE6D4DA88057
:102848006D4804F0BBFB002800F0BA800A22002182
:1028580009F0C4FE0246B2F57A7F2860C0F0B58060
:102868006648A98805F050FB654F6648664C0368C2
:1028780097F90060C4F88830002E40F081806349E1
:1028880004F194000A686249C2F3074CC2F30723B3
:10289800170ED2B2CDF800C001970AF015FF04F167
:1028A8009401201D8022FDF78DFD5A48211D84F8D2
:1028B800836005F029FBFEF7C1FD534E534F0146D7
:1028C800554805F021FB06F1880154483A4605F0C1
:1028D8001BFB53490B681BB152480368002B63D19B
:1028E8000A20514E05F0D4FB5049514805F00CFB25
:1028F800318841B149024F4805F006FB33884E49FB
:10290800580209F04FFB0A2005F0C2FB4B4A4C481D
:10291800116805F0F9FA4B4805F0DEFAEE684A4905
:102928002868AE60FFF77CFB00264848FFF708F8E8
:10293800452301223046C4F88C302260C4F8A460D4
:10294800FEF728FA4AF6AB2CCAF6AA2CACFB0031E3
:10295800CB0A03EB4302A0EB822101F58063062238
:1029680031463B48C4F89030C4F88460FDF71EFF38
:102978004FF4007CA5F810C003B0BDE8F040BBE6FA
:1029880038463A21FDF7D6FD064640B3384609F0E9
:1029980061FD711CC4F888008022201D0026FDF707
:1029A80011FD84F8836086E73A68D6F8880003EA60
:1029B800020E03409E4593D0264805F0A5FA8FE7FE
:1029C8002A68B2F57A7FBFF44BAF1146224805F06A
:1029D8009BFA4FF47A722A6042E7064D30E739468F
:1029E800201D8022FDF7EEFC84F8836063E700BFBA
:1029F8008C3901003C0000209C390100E0390100BD
:102A080090280020700F002014290020580F002063
:102A1800083A0100243A0100503A0100643A0100E2
:102A2800840F0020800F00208C2800201829002007
:102A3800B43A0100C43A01001C54010054000020BB
:102A4800DC3A0100F43A0100652A0000B12A0000CE
:102A5800740F0020943A0100A83901000D4A10B5FE
:102A68000D4CD2F8A400A168431C8B42C2F8A430D4
:102A780009DC0A4805F030FA20680949FFF7D0FA5E
:102A8800BDE8104038E6074805F026FABDE81040D2
:102A9800FFF7D6BA142900203C000020003B0100B3
:102AA800652A0000083901002DE9F046A04C0646C9
:102AB800D4F8900083B08842154602D003B0BDE830
:102AC800F0862268012A03D0D4F88C10A942F5D1E7
:102AD800012BF3D9374637F8021BA3F1020A080A7B
:102AE80040EA012C1FFA8CF1052900F0E68006293E
:102AF80079D00329E2D1BAF1010FDFD973888C4E5E
:102B0800190A41EA032083B2C4F88430002B00F08C
:102B180038814CF6CD41581ECCF6CC41A1FB00C102
:102B2800C90801EB810CB0EB4C0F00F03E8143F279
:102B3800FD3CCCF6A61CACFB030140F28A20490AF6
:102B480000FB1133002B00F03E81012A00F0408188
:102B5800012A14BF00230123052A14BF1A4643F093
:102B68000102002A00F0CD80D4F884300020022130
:102B7800012B2160C4F88C50C4F8AC00C4F8B00034
:102B8800C4F8A80040F016816A4DC4F8B0300A2392
:102B980069492868AB60FFF743FAD4F88420B5F890
:102BA80010C0D4F8AC30501E00FB0C346349AAF1B5
:102BB800020A0A68B91CA0185246FDF765FE604B68
:102BC80054441868844288BF1C60FFF795FDB5F827
:102BD80010C0E245BFF472AF5A4805F07DF95A4873
:102BE800032101606AE738460193FDF7DDFC431CC9
:102BF800FA185648394605F087F90522BAF1080F40
:102C0800C4F88C502260019B53D90B3B504938467D
:102C180003F00105FDF742FCDFF818910146002892
:102C280077D00126BC19BAF1090F42D9DDB148495C
:102C38002046FDF733FC0146002800F0938001365A
:102C480006F1080E0134F2450DD832E04049284615
:102C5800FDF724FC01360146E8B106F109026C1CB7
:102C68000136924525D93A492046FDF717FC651CDF
:102C780001460028EAD104F108070A22384609F07B
:102C880047FC1FFA80FC394662463248A9F810C052
:102C980005F03AF9DAE709340A22204609F038FC47
:102CA80083B221461A462B48A9F8103005F02CF9B2
:102CB800D3E703B0BDE8F0461EE57388B91C1A0ACD
:102CC80042EA032E1FFA8EF2234805F01DF9718897
:102CD800080A40EA012C1FFA8CF35A1E012A08D868
:102CE8001E4805F0F9F8FEF77DFB1748042101603E
:102CF800E4E61B4805F0F0F803B0BDE8F046FFF73E
:102D08009FB9D4F88430D4F8B02093423FF4D6AEBB
:102D18003AE70A360A22304609F0FAFB84B231460D
:102D280022460C48A9F8104005F0EEF879E700BFF4
:102D3800142900203C000020652A000054000020CF
:102D480004280020C03B0100400F0020043B010084
:102D5800183B0100203B0100C83B0100E03B01009B
:102D6800F43B010009370A22384609F0D1FB1FFA63
:102D780080FC394662461948A9F810C005F0C4F825
:102D88005DE71749D6F8A800D6F8AC30B1F810E0DE
:102D9800421C03EB0E43C6F8A820190D1148C6F8CB
:102DA800AC3005F0B1F83268CFE6232005F070F9B1
:102DB8003268CAE619460C4805F0A6F803B0BDE823
:102DC800F046FFF73DB9094805F086F83268BCE6D9
:102DD800074805F099F82268BAE600BF203B0100D1
:102DE8003C000020383B0100803B0100503B0100C3
:102DF800543B010000B583B00146042201A8FDF749
:102E080043FD019803B000BD2DE9F00E4FF0630CAF
:102E1800044604F801CB661C751C6F1C07F1010AF7
:102E28000AF1010987B009F1010B01970BF10107BC
:102E3800049701370397013705976FF07D074770AF
:102E48004FF05307677086F801C04FF0350C85F8CE
:102E580001C0019C4FF0010C84F801C04FF002073B
:102E68008AF80110392189F801108BF80170049D46
:102E780040216F70039C6170059F07EB0C0194461D
:102E88003AB3120642EA1C664F1C0CF47F4546EA28
:102E980005297E1C751C6C1C03940CF47F0B059C87
:102EA80049EA1B224FF0360A84F801A04FEA226C47
:102EB8004FEA22494FEA222B4FF0040A81F801A079
:102EC80087F801C086F8019085F801B0039F7A70F1
:102ED800B91C0BB30A461D06322402F8014B45EA19
:102EE800136903F47F4649EA062A03F47F07561C50
:102EF8004AEA1723751C6C1C4FEA236A1F144FEA11
:102F0800232C4FF0040981F8019082F801A0A11C3C
:102F1800777085F801C063700A46372502F8015BAF
:102F2800541C631C1B1A4FF0000C4FF0FF35402B4C
:102F380081F801C055701EDC0B1D181A034681F874
:102F480003C0C0F14100591C402B00F0010012DC05
:102F580038B10B460131481E402882F803C022468A
:102F680009DC501C4B1C82F803C0591C421C402B26
:102F780080F803C0F5DD184607B0BDE8F00E7047CD
:102F88002DE9F04E5B4EDFF888B1706886B0421CC0
:102F98000025114658483560726004F0B5FFDBF82B
:102FA8000040294640F2EE522046FDF7FFFB534908
:102FB8004FF400622046FEF7CDFD241804F11C09E9
:102FC80001274FF0060A277789F8017089F802A0CF
:102FD80089F8035028460297CDF80CA0FDF7DAFED1
:102FE80044F6D353C1F26203A3FB001CCCF38F1247
:102FF8000DF1180A110A4AF8045D41EA0227A9F8F6
:1030080008705146042204F12800FDF73DFC5146A2
:10301800042204F12C000595FDF736FC51460422E4
:1030280004F130000595FDF72FFC5146042204F108
:103038003400334F0595FDF727FCDDF80CA0394621
:10304800524604F13800FDF71FFC04F18800802285
:103058002C49FEF7D9FC029B2A46194604F58470D0
:103068002B46FFF7D1FE8246F878BA7803047979BF
:1030780043EA026097F804C0084340EA0C21284656
:10308800B160FDF787FEB3683146C3181A0642EAF5
:10309800136503F47F4003F47F0C45EA002242EAFB
:1030A8001C2541F8085F042204F12000FDF7ECFB21
:1030B800DBF80000432244230AF1EC05C0EB0909C0
:1030C8004FF0FF3120460095FFF738F80E4940F6DB
:1030D800B830FEF7A5FFA94403230C483360FEF778
:1030E8002FFCDBF800004946FEF770FD06B0BDE88E
:1030F800F08E00BFC8290020083C010034000020E1
:10310800480F00209028002021310000F5320000EF
:103118007C0F002034E700BF094810B54368042B32
:1031280007DC41F288300749FEF77AFFBDE8104016
:1031380026E7054804F0D0FEBDE81040FEF780BF42
:10314800C829002021310000083901002DE9F04E7E
:10315800037882B0FF2B0446894600F509763FD0F4
:103168006C31DFF874B1019100275A1E6578422A44
:103178004BD8DFE802F0444A3E4A4A384A4A4A4AAB
:103188004A224A4A2E4A784A4A4A4A4A4A4A4A4AAD
:103198004A4A4A4A4A4A4A4A4A4A4A4A4A4A4A4A87
:1031A8004A4A4A4A4A4A4A4A724A2E4F4A4A4A2E82
:1031B8002E4A4A4A4A4A4A2E55001F2DDCBF2A4643
:1031C800AA4666DC3C48A11CFDF75EFB3A4B03F8B7
:1031D8000A7002356419A64202D92378FF2BC4D19C
:1031E80002B0BDE8F08EA11C04223448FDF74CFB68
:1031F800EFE7A11C04223248FDF746FBE9E7A11CD2
:1032080004223048FDF740FBE3E719462E4804F056
:103218007BFEDEE7A11C04222C48FDF735FBD8E72E
:103228007F2D2CDC2A1E18BF0122AA4699F96CC0F2
:10323800BCF1000F14BF002102F001010029C8D021
:10324800234804F061FE0198A11C5246FDF71CFBBF
:103258000AEB090383F86C70BBE7A11C04221D4824
:10326800FDF712FBB5E73F2DDCBF2A46AA4619DC5D
:103278001948A11CFDF708FB0BF80A70A9E72A46B4
:1032880016481749802304F03FFE4FF07F0A0122B9
:10329800CCE72A4611481349202304F035FE1F22A3
:1032A80092468FE72A460D480F49402304F02CFE2A
:1032B8003F229246DCE700BF2C2800200828002087
:1032C800840F0020800F0020AC3C0100D82900208A
:1032D8007C3C0100D42900204C2800201C3C010023
:1032E8006C3C0100543C0100603C01002DE9F04EAB
:1032F800AB4E0D461446D6F800C011462A46443D4A
:1033080018BF012586B00746432C0CBF2C4645F054
:103318000104A448CDF800C09A4604F0F5FD3CB17C
:103328004FF0FF31A04804F0EFFD06B0BDE8F08E85
:10333800BAF1EB0F98BF6FF00101F3D93B78591E32
:10334800C8B2591F18BF0121012894BF002201F0FB
:10335800010222B1062B18BF6FF00201E2D17B787F
:10336800012B18BF6FF00301DCD197F802E0BEF122
:10337800060F18BF6FF00401D4D107F1040B5846AB
:10338800FFF738FDB268864C904202D06FF0050115
:10339800C8E70021844804F0B7FD25685346432157
:1033A80044228248009504F0AFFD2368042B07D01F
:1033B800062BBAD0032B69D07D4804F08DFDB4E705
:1033C8007C4807F1EC0404F09FFD2046FFF712FD4E
:1033D80048F2632CC6F2533C6045A6D197F8F0300A
:1033E80007F1F005FF2BA0D0352B2B4607D05978D5
:1033F800881C1B181A78FF2A97D0352AF7D193F81A
:1034080002E0BEF1050F90D12046FFF7F3FC48F229
:103418006323C6F25333984200F0FD8007F1100190
:103428000422654807F11404FDF72EFA042204A8C3
:103438002146FDF729FA049A002A40F0E6805F4801
:103448006C37046806225E48A11DFDF71DFA384650
:10345800FDF7AAF8002840F0D1805A4C59495A483B
:1034680004F052FD94F9001019B15848554903F079
:10347800C5FF0622326056484F4904F045FD5548BD
:1034880003F09CFD544B03221A604EE707F16C01D0
:10349800524804F039FD0425514804F035FD07F180
:1034A800EC002560FFF7A6FC48F26329C6F2533901
:1034B80048456ED0DFF840A14A4941F28830FEF70E
:1034C800AFFD494804F020FDDAF80040002120460D
:1034D80040F2EE52FDF76AF9204644494FF4006283
:1034E800FEF738FB241804F11C05002101224FF0D7
:1034F8000609E9706A70227785F8029008460391F8
:10350800FDF748FC44F6D353C1F26203A3FB001C49
:10351800CCF38F12039B100A40EA022C06A9A5F8E7
:1035280008C041F8083D042204F13400FDF7ACF965
:103538004A4604F138002E49FDF7A6F959460422F7
:1035480004F12000FDF7A0F907F11001042205A8F5
:10355800FDF79AF93269059B032104F58470FFF79A
:1035680053FCDAF8001000F1EC06681A85194322BA
:10357800204644234FF0FF310096FEF7DFFD294631
:103588001C4804F0C1FCDAF800002946FEF71EFBCF
:10359800CBE607F1F0003946FFF7D8FD8AE700BF10
:1035A800C8290020D83C0100183D0100343E010024
:1035B8001C3E0100D03D0100580F0020500F002094
:1035C800740F002090280020E83D01008832010097
:1035D800F83D0100FC380100400F00202C3D01009F
:1035E800543D010021310000783D010034000020E5
:1035F800480F0020A43D01007C0F0020084C3946EC
:1036080020468022FEF700FA28E7214604220548D2
:10361800FDF73AF913E728463946FFF797FDFDE627
:1036280090280020700F002008B50320FDF796FCB5
:1036380043469A68996800EBC2000B01B0FBF3F0AF
:1036480008BD00BF064B013810B553F8204020468E
:10365800FFF7EAFF01462046BDE8104000F078B8C1
:10366800783E01000120EDE7024B013853F82000B5
:1036780000F098B8783E01000120F5E708B5044B42
:10368800013853F8200000F085F840B208BD00BFAB
:10369800783E01000120F1E7034A0139034652F858
:1036A8002100194600F06EB8783E01000121F3E7C9
:1036B8000A2870B5044609D0094B013953F821503E
:1036C80028462146BDE8704000F05CB8044A481E10
:1036D80052F820500D21284600F054F8F0E700BFBA
:1036E800783E01000121E3E738B503780D4643B180
:1036F800044658B22946FFF7DBFF14F8013F002BB8
:10370800F7D138BD0121EFE708B54FF08040FFF74A
:103718008BFF01464FF0804000F002F8002008BD02
:1037280000226FF07C0C0271032380F80CC010B4E7
:103738000270C1F307240271C9B20722037303742C
:10374800027280F80CC001700471037310BC7047DA
:10375800002210B46FF07C0402710323047302701A
:10376800027107220373C1F3072C0374C9B20272F2
:103778006FF07F020273017080F804C0037310BCFD
:10378800704700BF037D13F0200FFBD0C9B2017052
:10379800704700BF037D13F0010FFBD0007840B2E3
:1037A800704700BF007D00F00100704730B5434608
:1037B8001C6885B0E2681C481C4904F0A5FBA26897
:1037C80019481B4904F0A0FB22691748194904F05D
:1037D8009BFB00221448184904F096FB62691248C2
:1037E800164904F091FB01ADA2690F48144904F091
:1037F8008BFB14492846FCF7DDFD284603F0DEFB69
:10380800114A2946002818BF0246104804F07CFBDC
:10381800211D0F4804F078FB21680E4804F074FB62
:10382800002005B030BD00BF883E0100983E010071
:10383800A43E0100AC3E0100B83E0100C43E0100B8
:10384800D03E0100FC350100D83E0100E43E0100F5
:10385800F03E0100043F010008B503460846114642
:10386800984708BD012A70B5144619DD586810221A
:1038780000211D1D08F04CFE064601460B4804F0C9
:1038880043FB611E2A463046FFF7E6FF0446014621
:10389800003C18BF0124064804F036FB204670BDE2
:1038A800012404F049F8204670BD00BF403F0100E4
:1038B800683F0100704700BF021E18BF0122802820
:1038C8000CBF002202F0010210B552B91C6E064866
:1038D800214604F019FB0F2005F0C2FF4346186883
:1038E800A047012010BD00BF284001002DE9F04E7F
:1038F800B0F1000C18BF4FF0010C84B080280CBF49
:1039080000200CF001000C461546009300287ED1DB
:1039180093F82230009A042B166800F08480002661
:103928000196022C77DDA868FCF73EFE0326A4F179
:10393800030A471CB4420AF0010A1ADDBAF1000F63
:1039480007D0E868FCF730FE0426C1194F1CB442C2
:103958000FDD55F82600FCF727FE0136C31955F888
:1039680026005F1CFCF720FE0136C7190137B44258
:10397800EFDC384604F0EAFC14F0010F4FF00209BE
:103988004FF0000A4FF0200B064620D1A968FCF73B
:1039980011FD4FF00309A868FCF706FE4C4527DD2A
:1039A80006F800B000F1010A043510E006F80AB084
:1039B800B968FCF7FFFCB868FCF7F6FD00EB050CEE
:1039C80009F1010906F80CB00CF1010A3D1DA968BE
:1039D80006EB0A00FCF7EEFCA868FCF7E5FD82445C
:1039E8002F1D09F101090AF1010570194C45DDDCAB
:1039F8000098046E1248214604F086FA0F2005F05C
:103A08002FFF42461068019933460E4AA04701200D
:103A180004B0BDE8F08E0C4803F0D0FA094E002837
:103A280018BF0646E4E70121304603AA02AB05F0B9
:103A3800C5FB029900293FF472AF019671E700BFF8
:103A4800704001001C5401006440010084B02DE95D
:103A5800F04E82B00DF1280C8CE80F009DF83D1057
:103A68009DF83CB00D9B064608460193109DDDF875
:103A780044A00E9C0B9FDDF8309005F017FBBBF1BE
:103A8800000F26D1A64201465DD0394804F03CFA21
:103A9800A14506D049462046019A4FF4803305F0E7
:103AA8001FFC019B3348E2182A6004F015FA3148DC
:103AB80004F012FA304821462A6804F025FABAF1CF
:103AC800000F2ED0072005F0CBFEA7422BD80020F0
:103AD80008E0BBF1010F0AD02848594604F014FA4F
:103AE8006FF0020002B0BDE8F04E04B07047014626
:103AF800234804F009FA20464A464FF4000101AB76
:103B080008F056FC18BB019960182860194804F0A1
:103B1800E3F9194821462A6804F0F6F9BAF1000FCA
:103B2800D0D1A742D3D92A68B242D0D931463A4631
:103B3800144804F0E9F9144821462A6804F0E4F925
:103B48006FF00100CEE7114804F0DEF9A9E710484C
:103B580004F0C2F9BAF1000F02D14FF0FF30C1E70B
:103B68006FF0050005F07CFE4FF0FF30BAE700BFAC
:103B7800CC400100E04001007841010054410100BF
:103B8800E4400100A4410100D4410100BC4001000F
:103B9800004101002DE9F04EAD4C002182B01746DE
:103BA80081468C2220469A46FCF700FEA94805F07B
:103BB800ABFB012FC4F8840040F3E6800021DAF85B
:103BC8000400102208F0A4FC05460146A24804F0AF
:103BD8009BF9012005F044FE284605F097FA4FF0BE
:103BE800000B0646C4F854B0C4F850B0054605F0BA
:103BF800CFFA012818D0D9F80010984804F084F9B1
:103C08006FF06B0005F02CFE5D46626D904E002A49
:103C180054D0284605F0BCFA0128834653D0904872
:103C280004F05AF9012097E08E48314604F06CF907
:103C3800336841F65612190641EA136103F47F40CE
:103C480041EA002C03F47F0B4CEA1B20C2F20572F8
:103C58007F499042D1F884B040F0B180022005F04D
:103C6800FFFD304605F06CFB002800F0DF800320E4
:103C780005F0F6FD304605F0ABFBBBF1000F0BD0AD
:103C8800794804F029F9304605F07CFB002800F05B
:103C9800D680764804F020F9042005F0E1FD717F14
:103CA80002295CD0724804F02FF96FF0030005F088
:103CB800D7FD0025626D664E002AAAD16D4804F032
:103CC8000BF9012048E0A97F86F85D10E87F86F8A7
:103CD8005C00287F86F85E00EA682B694FEA026973
:103CE80049EA126E02F47F4C4EEA0C2902F47F0274
:103CF8004FEA036C4CEA136E49EA122203F47F4937
:103D08004EEA092C03F47F0E4CEA1E234032B365B9
:103D1800736C5219F264002B00F08380B369022996
:103D280014BF002201224FEA036949EA136E03F423
:103D38007F494EEA092C03F47F0E4CEA1E2304291E
:103D480014BF114642F001013366002923D1012036
:103D5800C4F88800A564002002B0BDE8F08E0520F4
:103D680005F07EFDB37F022B4AD0042B30D0012B07
:103D780046D0D9F80010404804F0C6F86FF00400A7
:103D880005F06EFD002540E73C4B3D481D6829467F
:103D980004F0BAF81DE70528D9D13846324606F1AD
:103DA80064075146683602230097019605F052FCD5
:103DB8000028CCD0334804F08FF85846CCE7324876
:103DC80004F08AF84FF0FF3005F04AFD002571E74E
:103DD8002E4A30460021131D05F0F0F931464022E5
:103DE8002B48FCF79FFD062026600126666405F037
:103DF80037FD626D2748216D134604F085F804E706
:103E0800F36806F14002190641EA136103F47F40A2
:103E180041EA002C03F47F0E4CEA1E2322656365F9
:103E2800DCE71D4804F058F8584695E71B4804F0AD
:103E380053F86FF0010005F013FD00253AE7184824
:103E480004F062F86FF0020005F00AFD002531E782
:103E5800DC290020004201003C42010068430100C7
:103E6800AC43010068420100C8420100E040010083
:103E7800F44201008C430100144301005400002067
:103E880008420100F44301009C4201002C2A002052
:103E9800E029002038430100D0430100B04201006E
:103EA800E44201002DE9F044044686B058680D4606
:103EB8001746404906221E4603F04AFD331D0028D6
:103EC80032D0D0F80CA0BAF1010F6BD03A4DD5F82A
:103ED80088309A4525DD4AEA030095F85E20374B7D
:103EE800BAF1200FC5F8880053F8224024D007DC27
:103EF800BAF1020F2CD0BAF1100F47D0002417E006
:103F0800BAF1400F36D0BAF1800FF7D1FDF740F97A
:103F1800FFF7D0FC5046394632462B46A0470024CE
:103F280006E0274803F0F0FF204603F005FD0124D2
:103F3800204606B0BDE8F0845046394632462B4646
:103F4800A04704460028F3D01E4803F0DDFFEFE742
:103F580005F1480CEE46583595E803008EE8030055
:103F680005AC9CE80F00029400240394FFF76EFD53
:103F78000446DDE75046394632462B46A0470446FC
:103F88000028D5D0104803F0BFFFD1E75046394686
:103F980032462B46A04704460028C9D00B4803F0F8
:103FA800B3FFC5E7204629467A1EFFF7F3FD04460E
:103FB800BEE700BF58000020DC290020DC3F0100DC
:103FC8001C4401006C4401008C4401004844010079
:103FD8002DE9F04E144690B00022012C0F920746AE
:103FE8008A461D4612DD58680EA9102208F090FA7C
:103FF8000E9B93F90030181E18BF01203A2B0CBFF6
:10400800002000F0010008B1232B77D13846514633
:1040180022462B46FFF7BEFDF8B1764803F05CFF59
:10402800754802F0CBFF75490446FCF737FA0028BB
:1040380053D17349734803F0E1F973496E4803F0AB
:10404800DDF904F0DDFE00200146024603460DF0CE
:1040580057F9012010B0BDE8F08EFDF799F8DFF8A8
:10406800AC916A4609F15803834693E8030082E855
:10407800030009F1480C0FAE9CE80F0002960126D8
:104088000396FFF7E3FC002871DB99F85D005F4BAE
:1040980001284BD00820059305F0E2FB059B5C4AFC
:1040A80093F85E0052F82060002E2ED00593FFF79B
:1040B80001FC059B21462A460020B0476FF0080006
:1040C80005F0CEFB534803F007FF38465146224619
:1040D8002B460DF015F90120BCE720464A49FCF7AC
:1040E800DDF90028AFD14649464803F087F943492E
:1040F800414803F083F904F083FEA4E738465146AB
:1041080022462B46FFF7CEFEA4E7BBF1000F42D1B3
:1041180004F0A0FF99F85E2001463F4803F0F4FE42
:104128006FF0070005F09CFB012093E7BBF1000F3F
:1041380001D0FDF72BF8394802F040FF28B1384983
:10414800FCF7ACF90646002838D0D9F86020601E84
:10415800130643EA126E02F47F414EEA012302F489
:104168007F0243EA122C291DE047002072E7B0F1D4
:10417800FF3F37D010F1020F13D010F1030F84D195
:10418800BBF1000F01D0FDF701F86FF0060005F054
:1041980067FB01205EE7FCF7F9FF059991F85E00DF
:1041A800B6E7D9F84410B1B199F822E0BEF1040F8E
:1041B8007FF46BAF1B4803F08FFE66E706ACD9F8B7
:1041C80054201949204609F07FFA2146174803F080
:1041D80015F930463EE7164803F07EFE6FF0700092
:1041E80005F03EFB3846514622462B460DF088F82E
:1041F8004BE700BFAC440100EC440100F44401006B
:10420800044501006440010048450100DC29002004
:10421800DC3F010014460100E4450100D8450100D7
:10422800F435010054450100BC380100C0380100D4
:104238009045010030B50D4C0D4D8646281B801069
:1042480000EB400505EB051C0CEB0C2583B08C46F8
:1042580005EB05450092019300EB85017246204667
:10426800634603F00FFC03B030BD00BF08960100A1
:104278008898010048F20001C4F20301D1F898209F
:104288002D4BC2F3422CBCF1070F10B4D1F890109B
:10429800186027D10124C1F30241B0FBF4F40729C7
:1042A8005C6029D10124C2F38201B0FBF4F4072930
:1042B8009C602BD10124C2F34211B0FBF4F407290E
:1042C800DC602DD10121C2F34232B0FBF1F1072AA3
:1042D80019612FD0194951F82220B0FBF2F058612A
:1042E80010BC7047154CC1F3024154F82C40072903
:1042F800B0FBF4F45C60D5D0104C54F82140C2F304
:104308008201B0FBF4F407299C60D3D00B4C54F81D
:104318002140C2F34211B0FBF4F40729DC60D1D08C
:10432800064CC2F3423254F82110072AB0FBF1F1CF
:104338001961CFD10122D0E7682A0020CC460100BC
:10434800704700BF2DE9F04E46F20006C4F20106A0
:1043580088B031686C4803F0D7FD48F20002C4F217
:104368000302916C694803F0CFFD4EF20403CEF2CC
:1043780000031D684EF2001205F01F00411C4901A0
:104388004FEA511C01232024CEF200026FF0704046
:104398000CF1FF3E634542F824000EEA030412D0F4
:1043A80034B102234FF02109634542F829000AD0AD
:1043B80003F1200903F121070233634542F829007C
:1043C80042F82700F4D14EF200148E0801204FF075
:1043D800000ECEF20004B04284F800E3754621D006
:1043E80001254DB14EF201130220CEF20003B04276
:1043F80083F800E3754615D04EF20014CEF200049F
:1044080000F1010C02190CEB04050CF101004EF24D
:10441800001482F800E385F800E30025B042CEF2EC
:104428000004E9D1D4F880204EF2004694F80073D5
:10443800CEF20006009701964EF280134EF6005613
:104448004EF20407CEF20006CEF20007CEF20003C9
:104458002F4803F059FD31682E4872683B68019770
:10446800009703F051FD2C4F46F20003C4F20103FC
:104478004FF40021C4F880109D60C4F880113D7687
:104488003D84BD627D8687F8345018684EF2802CD2
:1044980040F010021A6018684EF2002E20F0200238
:1044A8001A6098684EF2801220F0010098609868AF
:1044B800CEF2000C40F0020098602160D4F8801021
:1044C800D4F88031D4F800A0D4F80091D6F804B01C
:1044D8007669CEF2000ECEF200021048CDF800C088
:1044E800CDF804A00294CDF80C90CDF810E0CDF8EA
:1044F80014B0FD617D62FD623D86069603F004FD01
:1045080008B0BDE8F08E00BFEC460100104701007E
:104518003847010078470100682A0020B8470100A1
:1045280070B55B4E82B0054601221523594886F8BE
:1045380035208DF8043086F836508DF805504EF247
:10454800001403F0E1FC46F20003CEF200044FF43D
:104558000021C4F201030020C4F880109860C4F858
:10456800801196F8352082B1B6F832E086F8350029
:104578001FFA8EFCA6F832C019681A4641F00100ED
:104588001860146814F0010FFBD102AA12F804CDC8
:1045980000234FF0020046F2000186F818C0C4F26A
:1045A80001013084B3627386307E0C68F2613A4A46
:1045B80024F0040473624FF00303F2620C60338644
:1045C8004A6846F2000302F001040094009AC4F21B
:1045D8000103002AF4D09861196821F004021A60D6
:1045E8005C6804F0010000900099002943D09DF810
:1045F80005204FF0000E1A615C6804F0010000907D
:10460800009B0523A6F820E086F8343046F2000324
:10461800C4F201039A684EF2001042F00304CEF28D
:1046280000004FF400219C600160B6F832C0184CBD
:10463800BCF1020FF9D1B4F832E018481FFA8EF233
:1046480094F8391094F8383003F05EFC4DB1012D20
:104658000CD0022D03D194F8393084F83E3002B0E2
:1046680070BD94F8390084F83C00F8E794F83910E4
:1046780084F83D10F3E7318C0DF10502481E1FFA4E
:1046880080FC0124A6F820C0F26186F83440BDE71A
:10469800682A002020480100A02A00204048010084
:1046A80010B51B4848F20004C4F2030403F02CFCC4
:1046B800184803F029FCA16B174803F025FCA16FEB
:1046C800164803F021FCD4F8F010154803F01CFC40
:1046D800D4F8F410134803F017FCD4F80C1112485E
:1046E80003F012FCD4F81011104803F00DFCD4F8B4
:1046F80090110F4803F008FC4EF20013CEF20003AD
:104708004FF00052C3F88021C3F8802010BD00BFCD
:1047180088480100A8480100C0480100E04801009D
:104728000849010030490100584901008049010049
:10473800A849010070B5E02886B003D0E1282FD041
:1047480006B070BD48F2000142F210730593C4F23E
:104758000301D1F89800059C621E10F4805F059251
:1047680002D1059D002DF4D11A4848F20006C4F282
:104778000306D6F898104FF28004D6F89C200669F4
:10478800059DC368C0F2FA24134800960194029567
:1047980003F0BAFB114806B0BDE8704003F0B4BBA3
:1047A8000C4C48F20003C4F20303D3F898102569AF
:1047B800D3F89C20E3684FF28004C0F2FA2408483A
:1047C8000095019403F0A0FB064806B0BDE87040D0
:1047D80003F09ABB682A0020C84901000C4A01006E
:1047E8002C4A0100684A010046F20003C4F20103A2
:1047F80070B55C689A68E4B2144014F0020F84B093
:104808001ED0914A186992F8343085B2E8B205F49E
:104818000045052B00F28980DFE813F08E00960032
:104828009600CD009C000600002D40F08A80D16AD9
:104838004FF00203487082F83550538682F834509E
:1048480014F0010F18D0804C94F83430022B15D096
:10485800052B00F02481012B00F0C78046F20003ED
:10486800C4F201039A68002022F00101996084F8DB
:104878003500608684F8340004B070BDA26A002A4E
:1048880000F0968146F20001C4F20101A56A0A68A7
:10489800606A22F004020A604A6802F00102039288
:1048A800039A002A00F00782002D00F0048206789F
:1048B8000E614A686E1E02F001020392DDF80CC018
:1048C80006F001060122BCF1000F23D0012D21D9E9
:1048D800B6B146781A460E614B6803F0010303939C
:1048E800039BBBB1022D0BD814E0835C01320B6132
:1048F8004B6803F001030393039B5BB1954209D90D
:10490800835C01320B614B6803F001030393039B43
:10491800002BEAD1A16A4C4B914240F27C81996A02
:1049280080188A1A58629A62A6E7002082F8350031
:10493800508682F8340083E7002D81D0F12800F0FA
:104948007A81FFF7F7FE7BE7002D3FF479AFFFF799
:10495800F1FE75E7002DF4D1B2F832C0D36A1FFA20
:104968008CF15E1816F801CC374EBCF1F10F00F04F
:104978009381B6F832C0318E1FFA8CFC8C4509D26F
:10498800B6F832C01FFA8CFC03F80C00738E581C62
:1049980083B27386508E2C4B82B291427FF450AF13
:1049A800B3F832C000221FFA8CF183F835205986FB
:1049B80083F8342044E7002D3FF442AF127E224BA7
:1049C8009042BED14FF0000159865A8ED96A1FFA1B
:1049D80082FC01F80C005A8E0421501C1FFA80FC3E
:1049E800A3F832C083F834102AE7228C92B2002A46
:1049F80000F0C48046F20002C4F20102B4F820C0FC
:104A080015681FFA8CF025F0040111605568E169FA
:104A180005F001050395039D002D00F03B8100285A
:104A280000F038810D7815615668451E06F00106BC
:104A38000396039E05F00105EEB101281BD93DB18F
:104A48004D7802230FE000BF682A0020984212D94F
:104A5800CD5C01331561556805F001050395039D8B
:104A68004DB1CD5C01331561556805F0010503951D
:104A7800039D002DEAD1B4F820C0914A1FFA8CF0AA
:104A8800984200F2F1804FF0000CA2F820C0916A21
:104A9800002900F0CC80022382F83430ECE6A26AC8
:104AA80032BB216C636CD4F848C001F5806E0CEB06
:104AB8000306B64594BF4FF48065751AB142C0F03D
:104AC800DA80804E002594F83600C3EB010E94F886
:104AD8005020666201462B467B48CDF800E0CDF8B1
:104AE80004C003F011FAA562A06A002800F08680CD
:104AF800A06A7349002875D046F20002C4F2010288
:104B0800886A1368496A23F004031360536803F042
:104B180001030393039B002B00F0CF80002800F0D3
:104B2800CC800D7815615368451E03F00106039685
:104B3800039E05F001050123D6B1012818D925B136
:104B48004D7802230CE0984212D9CD5C01331561EF
:104B5800556805F001050395039D4DB1CD5C013302
:104B68001561556805F001050395039D002DEAD1EF
:104B7800A26AC918D01A6162A0627DE694F835105D
:104B880000293FF479AE608E46F200031FFA80FCDC
:104B980084F83520C4F20103A4F832C019681A4613
:104BA80041F001001860136813F0010FFBD163E6B0
:104BB80094F83530002B3FF45FAE608E46F2000368
:104BC8001FFA80FC84F83520C4F20103A4F832C02F
:104BD80019681A4641F001001860136813F0010FB4
:104BE800FBD149E646F20000C4F20100836823F0D5
:104BF80001020323826081F834303DE646F2000367
:104C0800C4F201039A682E4922F001000322986039
:104C180081F834206CE746F20002C4F20102916880
:104C280021F001009060032283F8342024E6032059
:104C380082F8340020E64FF000015186508ED36A86
:104C480080B26FF00E0C03F800C0508E01301FFACE
:104C580080FCA2F832C0508E1FFA80FC03F80C10BA
:104C6800042182F83410EBE5108CC918C31A9BB2E2
:104C7800D161138400E6E36C124ED3F80CC01846D9
:104C88002A463346E047216C636C6918D4F848C05B
:104C9800216418E70023EEE6718E8AB29854B6F8BC
:104CA80032E01FFA8EF01B1813F8010CFFF742FDD3
:104CB80086F83450C4E500222CE6002358E700BFEC
:104CC800682A0020B82A0020844A010070B51A4DCD
:104CD80082B0E96C06460A68184803F015F94020C6
:104CE80003F034FB0446002821D0EB6C314618460B
:104CF800DD6840222346A847A0B92146104803F0A2
:104D080003F904250F4803F0FFF82A46214610232B
:104D18002046009507F092F9204603F04BFA01204F
:104D280002B070BD084803F0EFF80020F8E7074824
:104D380003F0EAF80120F3E7682A0020B44A0100EA
:104D48001C4B0100D4620100044B0100E44A01003D
:104D580070B51C4D0446E86C82B008B10CF0F8FA46
:104D68004EF20012CEF20002042148F20003C2F80B
:104D78008010C4F203039E6C002046F400769E6403
:104D8800C2F88011996C224621F400719964014699
:104D980003230CF0BDFB044658B142688068002626
:104DA800810A33460848EC64009603F0ADF802B077
:104DB80070BD01460548224602B0BDE8704003F0C8
:104DC800A3B800BF682A0020684B01003C4B0100D3
:104DD800334870B5036848F20004C4F20304E36082
:104DE800416882B0C4F89810866842F21073C4F81B
:104DF8009C60D4F89850214625F48052C4F8982035
:104E08000193D1F89840019D6A1E14F4805F0192C5
:104E180002D0019E002EF4D1426848F20005214CD0
:104E2800C4F2030546F60000C5F89820C0F68910BC
:104E3800FFF720FA21694BF2C53C01F56123C9F25D
:104E4800A21CACFB0310060D31464FF08040FEF764
:104E580067FC00202168FCF78BF801206168FCF7EB
:104E680087F80220A168FCF783F80320E168FCF7C3
:104E78007FF804202169FCF77BF861690520FCF7BD
:104E880077F831464FF08040FEF74AFCD5F8981085
:104E98000548D5F89C2002B0BDE8704003F034B84E
:104EA800D0000020682A0020944B01002DE9F0442E
:104EB800514888B003F028F8504848F200010568C6
:104EC800C4F2030145F4FF54CC60D1F89C200022C1
:104ED800C1F89C20D1F89C3043F40077C1F89C704D
:104EE800D1F89C6042F2107346F48065C1F89C507A
:104EF800D1F89C4044F00202C1F89C200693069F1A
:104F08007E1E069606990029F9D148F20001C4F2DE
:104F18000301D1F8984042F2107344F48052C1F86A
:104F280098200793D1F89850079F7E1E15F4805F4C
:104F3800079602D1079B002BF4D14FF0000A48F2E4
:104F4800000780F80CA0C4F20307D7F898604FF266
:104F5800800426F46E6E2EF01C03294EC0F2FA244B
:104F6800C7F898302046FFF785F931694BF2C53507
:104F780001F56122C9F2A215A5FB0210050D29460B
:104F88004FF08040FEF7CCFB50463168FBF7F0FF4E
:104F980001207168FBF7ECFF0220B168FBF7E8FF1E
:104FA8000320F168FBF7E4FF04203169FBF7E0FF19
:104FB80071690520FBF7DCFF0320D6F80CA0FBF78E
:104FC800CDFF294606464FF08040FEF7A9FBD7F8EB
:104FD8009810D7F89C20079FDDF818C05346094859
:104FE8000096019502940397CDF810C002F08CFF4B
:104FF80008B0BDE8F08400BFB04B0100D00000202D
:10500800682A0020C44B0100F0B4294B4EF2001569
:1050180046F200040026C4F20104CEF200054FF463
:105028000027C5F88070A660C5F8807118761E84C0
:105038009E625E86187E2568DA6225F004054FF0C8
:10504800060282B02560DE615E621A86656846F2F5
:10505800000205F001050095009DC4F20102002D33
:10506800F4D090611068144640F004001060606845
:1050780046F2000200F0010001900198C4F201021A
:105088000028F4D05161106820F004010320116059
:1050980083F8340091684EF2001341F00200CEF21A
:1050A80000034FF400219060196002B0F0BC704713
:1050B800682A00202DE9F04E012A9AB0054640F3EF
:1050C800F6805E6862B648F20003C4F20303DC6847
:1050D800AC4FAD483C60D3F89820AC4C7A60D3F81C
:1050E8009C10B960396802F00FFF7968A84802F08F
:1050F8000BFFA848B96802F007FF4FF0FF33A64836
:1051080084F83E3084F83C3084F83D3001F056FF96
:10511800002800F0D68000210A2207F0F9F9A064DF
:105128009E4801F04BFF002800F0D98000210A2298
:1051380007F0EEF9606430469949FBF7AFF9074686
:10514800002840F08B8014AEFFF7FCF8331D43F8BD
:10515800047B18AD43F8047B012031462A461F60C2
:105168001497FFF751FFB4F83290B9F1060FFAD14E
:10517800864AB2F832A09DF86020BAF1060F00F016
:10518800D080C821B4F832B086481FFA8BF302F0F9
:10519800BBFE9DF857009DF85810059006919DF8A4
:1051A80059009DF85A10079008919DF85B009DF8EA
:1051B8005C1009900A919DF85D009DF85E109DF8BD
:1051C80052E09DF853709DF854A09DF855909DF8B5
:1051D80056B09DF85FC09DF850200B900C91724816
:1051E80031469DF85130CDF800E00197CDF808A080
:1051F800CDF80C90CDF810B0CDF834C002F084FE94
:10520800324600260520294684F850648DF86060EF
:105218008DF86160FFF7F8FE638E5C4E062BFBD1BC
:10522800728E062A9DF8502060D0B4F832C05F48CC
:105238001FFA8CF3C82102F067FE29465C489DF8E6
:1052480060209DF8613002F05FFE4FF0FF3184F876
:10525800541472B601201AB0BDE8F08E3046554994
:10526800FBF71CF940B330465349FBF717F9002800
:105278005DD1FFF767F844F64030C0F24C00FFF705
:1052880067FD606CFFF722FD4C4802F03DFEFFF71A
:105298000DFE4A4802F038FEFFF754F8606CFFF73D
:1052A80015FD464802F030FEFFF792FDD1E772B6D1
:1052B800284602F041FBCDE7FFF744F8FFF7F6FD7B
:1052C800C7E73F4802F020FE4EF6D000C0F22400A7
:1052D800A064324801F072FE00287FF427AF3948F5
:1052E8004FF4820702F010FE676424E7052A9CD178
:1052F8009DF85170B6F832C02C481FFA8CF3394625
:1053080002F002FE29462A489DF860209DF8613087
:1053180002F0FAFD002F98D19DF860E086F854E479
:1053280097E7012A0CBF9DF86110C8212AE730468B
:105338002549FBF7B3F8002848D14FF28000C0F2A6
:10534800FA20FFF705FD606CFFF7C0FC606C403089
:10535800FFF7BCFC606C8030FFF7B8FC606CC030B5
:10536800FFF7B4FC626C02F58070FFF7AFFC636C6A
:1053780003F5A070FFF7AAFC606C00F5C070FFF79A
:10538800A5FC66E7D0000020204C0100682A002018
:10539800384C0100584C0100784C0100AC4C01001D
:1053A80064390100E04C0100304D0100A84D0100B6
:1053B800FC4D0100C0500100EC500100304E0100CE
:1053C800884C0100BC4C0100A83E010030467C49D5
:1053D800FBF764F8074618BBFEF7B4FF44F6403005
:1053E800C0F24C00FFF7B4FC656C38462564FFF743
:1053F80097F894F83C2094F83D3094F83E500FAC60
:1054080020467049009508F05FF921466E4801F082
:10541800F5FF6E496E4801F0F1FF03F0F1FC18E763
:1054280030466C49FBF73AF878B9FEF78BFFFFF77F
:105438003DFD4FF28000C0F2FA20FFF789FC616C55
:1054480001202164FFF76CF803E730466249FBF757
:1054580025F878B9FEF776FFFFF728FD4FF28000B0
:10546800C0F2FA20FFF774FC636C02202364FFF794
:1054780057F8EEE630465949FBF710F8E0B9FEF761
:1054880061FF44F64030C0F24C00FFF761FCFFF7C3
:105498000DFD626C01202264FFF742F894F8390090
:1054A8004F4D002839D0FFF793FC95F83C2095F82C
:1054B8003D3095F83E50A2E730464A49FAF7EEFFEC
:1054C8000746002849D1FEF73DFF44F64030C0F2B8
:1054D8004C00FFF73DFC656C38462564FFF720F863
:1054E80094F83C203AB394F83D3094F83E500FAC11
:1054F80034492046009508F0E7F82146324801F083
:105508007DFF3249324801F079FF72B6304801F028
:1055180055FD002104F0F8F99CE6696C0220296425
:10552800FEF7FEFFFFF754FC94F83C2094F83D305A
:1055380094F83E5063E7FFF7B9FC626C01202264DF
:10554800FEF7EEFF94F83930254C002BEAD1616C58
:1055580002202164FEF7E4FFE4E730462249FAF727
:105568009DFF10B9FFF734FC73E630461F49FAF780
:1055780095FF0028C9D030461D49FAF78FFF60B95A
:1055880048F20003C4F203031A6E22F00100186601
:1055980005F0EAFE05F004FF5BE630461549FAF728
:1055A8007DFF10B906F062F853E630461249FAF763
:1055B80075FF00287FF47BAE05F0F2FE49E600BFD8
:1055C800DC6001003C4E01005C4E0100F444010027
:1055D800EC440100B85601006C4E0100704E010009
:1055E800682A0020105D01000C3601006C5701008C
:1055F80000360100744E0100844E0100C3B203F06E
:105608006002402A06D003F07F033F2B08BF40F01A
:105618004000704720F04000704700BF037863B136
:10562800002259B210F8013F5218002BF9D1C2F3E9
:105638008110821802F03F0070471846704700BF7B
:10564800024B00219A6819605A607047C02E0020EA
:10565800034B1A681AB9596801F8010B5960704769
:10566800C02E00200348002208B5C260036998478D
:1056780008BD00BFC02E0020034BD8681A685968BF
:105688005861D9619A617047C02E0020034B586950
:105698009A69D969D86059601A607047C02E00208D
:1056A80010B5114C0346E2689AB1C1B201F060002E
:1056B8004028226A08BF23F0400305D001F07F018B
:1056C8003F2908BF43F04003184690470023E36092
:1056D80010BD94F924C0844502D0216A884710BDC2
:1056E8000122E26010BD00BFC02E002070B5124D2F
:1056F800AC6A002C1CDD013C95F92C0004F0010675
:1057080002F0C6FC002C14DD36B1013C95F92C00E2
:1057180002F0BEFC002C0DDD013C95F92C0002F0D6
:10572800B7FC013C95F92C0002F0B2FC002CF3DC2C
:1057380070BD70BD70BD00BFC02E002010B50446FE
:10574800FFF7D4FF237833B158B202F0A1FC14F864
:10575800013F002BF8D110BD6C4B00211A6B30B4FF
:1057680099620D2403F1470583F82C10674983F8E3
:105778002D402324AA4208BF03F1460201F1340C4C
:1057880008BF1A63CCEB0202002A83F8244066DDC6
:105798004FF07E0C013A81F84CC000F09C80212526
:1057A800013A81F84D5000F08F8091F93640203C45
:1057B80004F0FF05013A4FF020048D6281F84E4055
:1057C80000F08D8091F837105FFA81FC0CF06005CD
:1057D800402D08BF0CF0BF0106D00CF07F0CBCF1C7
:1057E8003F0F08BF41F0400183F82C104021013AD7
:1057F80083F84F10454C79D094F838102D2520396E
:10580800C9B2013A84F8505084F82D1060D094F849
:1058180039504FF0230C013A84F8245084F851C0D1
:105828006BD04FF04E0C013A84F852C068D0312545
:10583800013A84F8535066D0012A84F854C059D0EC
:105848007E2222254FF0200C84F8555084F85820E9
:1058580084F856C084F857201125302402E00D2121
:105868000425232400F1200C83F84940EA1883F822
:105878004AC0002001244FF0590C83F8484083F8AF
:105888004BC082F8480093F84920002A2BD0204CBE
:105898004FFA82FC14F8012F6044002AF8D1C0F3B3
:1058A800811C0CEB000202F03F0000F1200C681C88
:1058B800C218EB18174883F848C0002382F849300B
:1058C80082F8481030BC39E70D2106252524C9E7A0
:1058D80009252824C6E70D2105252424C2E70D2122
:1058E80007252624BEE74FF0200CE0E70D21082508
:1058F8002724B7E70D252C24B4E70A252924B1E786
:105908000B252A24AEE70C252B24ABE7C02E00205C
:10591800092F0020082F0020154A203023230021BA
:105928004FF0010C82F84A004E2082F84B0082F8B2
:1059380048C082F8493082F84C1002F149004FFA09
:1059480083FC10F8013F6144002BF8D1C1F38110AA
:1059580000EB010C0CF03F0000F1200C92F82D1028
:10596800044882F84E3082F84CC082F84D10E5E6C3
:10597800C02E0020082F0020154A203023230021A4
:105988004FF0010C82F84A00592082F84B0082F847
:1059980048C082F8493082F84C1002F149004FFAA9
:1059A80083FC10F8013F6144002BF8D1C1F381104A
:1059B80000EB010C0CF03F0000F1200C92F82D10C8
:1059C800044882F84E3082F84CC082F84D10B5E693
:1059D800C02E0020082F00202DE9F044ADF5866D7B
:1059E8000DF5846A0AF10C0A0223074651460DF5A3
:1059F8008460CDF8243405F0C9FB0546002833D16E
:105A080004466E4603E0ED18E418FAF73DFF4FF43C
:105A180080615246304605F0FBF9E119031E1A462B
:105A280008463146EFDC2C46504604F073FF002050
:105A3800134904F0BDFF384621460BF05FFC0DF515
:105A4800806429462A460F4802F05EFA2A460E4923
:105A5800204607F039FE21460C4801F0CFFC3846B5
:105A68000DF5866DBDE8F084DDF82C0404F030FFF8
:105A780000240146064802F047FA2546D4E700BF4D
:105A88009D5A0000A44E0100CC4E0100C038010010
:105A9800AC63010010B502F005FB10B94FF0FF3000
:105AA80010BDBDE8104002F007BB00BF2DE9F04E65
:105AB800AB488CB016461F4601F080FA002800F06B
:105AC8007A810021102206F023FD04464346012E68
:105AD8009D6808DD00211022786806F019FD032E64
:105AE800044600F06B812E4638689E49FAF7D6FCCA
:105AF8000746002821D19C482146324602F004FA84
:105B08002046FFF769FFAE4213D02946974802F0B6
:105B1800FBF94CF2503006F0EBFC43469D60FDF774
:105B2800A1FD4CF2503006F0E3FC02F0C5FA1B2848
:105B3800FBD138460CB0BDE8F08E8D482146324680
:105B48008C4F02F0E1F98C498C4A0D234FF0000A82
:105B5800232039613A6287F82D3087F82400BC6029
:105B6800C7F828A087F82CA0FFF77CFDF9683A68E9
:105B78007B687961BA61FB614FF0FF3B07F134093B
:105B880002940395C7F8309002F096FA012852D093
:105B98000328F9D1029C039D00274FF0000A0FE06B
:105BA8004FF47A7006F0A4FC02F07CFAC0B90AF14E
:105BB800010A4FF47A7006F09BFCBAF1640F1AD010
:105BC8000AF1010A02F06EFA0028E9D002F074FA2C
:105BD8004FF47A7006F08CFC02F064FA0028E6D0E4
:105BE80002F06AFA0AF1010A4FF47A7006F080FCB2
:105BF800BAF1640FE4D1204639460BF07FFB0DF172
:105C0800100A5F4839463A4602F07EF93A465D493D
:105C1800504607F059FD51465B4801F0EFFBB4F1DF
:105C2800FF3F00F0EC805948214602F06DF95848D2
:105C38000027046067E702F03FFA44B214F0E00F6F
:105C480000F0AB8002F038FA45B215F0E00F00F032
:105C5800A480A5F1200A0AF0FF0ADA4500F01681AF
:105C6800F9683B6878687961BB61F86102F024FAE9
:105C78004FFA80FB1BF0E00F00F08E8005F0FF0369
:105C8800A4F1200C04F0FF020BF0FF059C180CF0A7
:105C9800FF006419851E002800F0BC80012D40F328
