:100000000000012075030000A1020000A102000011
:10001000A1020000A1020000A1020000A102000054
:10002000A1020000A1020000A1020000A102000044
:10003000A1020000A1020000A1020000A102000034
:10004000A1020000A1020000A1020000A102000024
:10005000A1020000A1020000A1020000A102000014
:10006000A1020000A1020000A1020000A102000004
:10007000A1020000A1020000A1020000A1020000F4
:10008000A1020000A1020000A1020000BD47000083
:10009000A1020000A1020000A1020000A1020000D4
:1000A000A1020000A1020000A1020000A1020000C4
:1000B000A1020000A1020000A1020000A1020000B4
:1000C000A1020000A1020000A1020000A1020000A4
:1002980062B6704772B67047684600F001F8FEE72C
:1002A80070B5044600F078FC0546224807F002FEC7
:1002B8000F2D9DBF204B214853F82510A5F11001A3
:1002C80088BF1F4807F0F6FD22681E481E4907F040
:1002D800F1FD62681D491B4807F0ECFD1C4807F05A
:1002E800E9FDA26817481B4907F0E4FDE2681A49CE
:1002F800144807F0DFFD164807F0DCFD22691148B5
:10030800164907F0D7FD626915490E4807F0D2FD76
:100318000F4807F0CFFDA2690A48124907F0CAFD45
:10032800E2690848104907F0C5FD0948BDE8704072
:1003380007F0C0BDF02D0100902D01007C61010087
:10034800082E0100142E0100202E0100242E010089
:10035800A4600100282E01002C2E0100302E01007F
:10036800342E0100382E01003C2E010010B572B663
:1003780009480A4A0A49121A00F086FA09480A493D
:100388000A1A002100F012FA084A094B1A60BDE85F
:10039800104000F059BE00BF00000020E00E002011
:1003A8005C830100E00E0020CC4B002000F0002010
:1003B800E00E00200023CA5CC2540133002AFAD19F
:1003C800704700BF002312F0010F10B404D00C785E
:1003D800013A047001237CB172B1CC5C03F1010CC9
:1003E800C454013A44B111F80C400CF1010300F86F
:1003F8000C40013A002CEFD110BC704790F9003046
:1004080010B463B1024612F9014F002CFBD100234E
:10041800CC5CD4540133002CFAD110BC704702468E
:10042800F5E700BF70B41346002A32D090F90020D7
:10043800002A30D0024612F9014F002CFBD10C786B
:1004480003F1FF3C0CF00106147014B34FF0010CDB
:100458009C4502EB0C051AD04EB111F80C4002F87D
:100468000C40B4B14FF0020C01359C450FD011F887
:100478000C600CF10104013502F80C60013504F13F
:10048800010C36B10E5D16551EB19C45EFD1002307
:100498002B7070BC70470246D1E700BF10B4002330
:1004A800C25CCC5C0133141BE4B224B9002AF7D136
:1004B800104610BC704760B2FBE700BF70B413462B
:1004C800AAB104780A78A21AD2B2002A30D174B13B
:1004D8005C1E14F0010F944627D045784A782346CD
:1004E800AA1AD2B2002A23D14FF0010CEDB900208C
:1004F80070BC704701EB0C0500EB0C046A7864785B
:100508000CF1010CA21AD2B200EB0C0601EB0C059F
:1005180072B9002CEBD074786A78013BA21AD2B277
:1005280032B90CF1010C002CE1D0013BE2D1DEE73D
:1005380050B2DDE7037849B25AB28A4208D033B1E3
:1005480010F8013F4FFA83FC8C45F8D17047002022
:10055800704700BF90F9002003462AB1024612F9FD
:10056800010F0028FBD1D21A981890F900C049B29F
:100578008C4502F0010215D00138834210D832B1FF
:1005880090F900208A420CD00138834208D890F9AB
:1005980000208A4205D010F901CD8C45F4D170476E
:1005A80000207047704700BF90F9003033B1034610
:1005B80013F9012F002AFBD1181A70471846704703
:1005C800D9B190F90020C2B14B1E13F0010F0246B9
:1005D8000CD1013243B192F90010013B21B112F95B
:1005E800011F013B0029F4D1101A7047024612F985
:1005F800011F013B0029ECD1F6E70020704700BF3E
:1006080070B403780246C3B10E78B6B176B2002052
:100618005BB29E4218BF0C4602D109E0634507D081
:10062800657801344FFA85FC002DF7D170BC70470E
:100638000130135C002BEBD1F8E70020F6E700BF90
:10064800F0B40378ABB10E78054677B2284666B1A8
:100658005BB29F420ED00A4601E063450AD0547847
:1006680001324FFA84FC002CF7D115F8013F002B1A
:10067800ECD10020F0BC70472DE9F004002844D0EC
:10068800274E0478002C45D00D78002D45D0002742
:100698004FFA85FA64B2A24518BF0A4602D124E08F
:1006A800A44522D0537801324FFA83FC002BF7D1AE
:1006B800C0190378002B2DD007464FFA85FA65B18B
:1006C8005BB29A4516D00A4601E09C4512D0547890
:1006D80001324FFA84FC002CF7D117F8013F002BA8
:1006E800EDD13360BDE8F00470470137C45D002CDC
:1006F800D0D1DDE73B46002FF3D097F90020002A40
:10070800EFD0002103F8011BEBE7054E3068002805
:10071800E8D0B6E700203060E4E72F46C8E700BF1E
:10072800E40E002003682DE9F004CBB11D78ADB1CB
:100738000F781E464FFA87FA67B16DB2AA4513D0F3
:100748000A4601E0AC450FD0547801324FFA84FCD8
:10075800002CF7D116F8015F002DEDD100220260C0
:100768001846BDE8F00470473246002EF7D0002145
:1007780002F8011B0260F3E7034608B91846704700
:10078800017879B140780028F8D01A4603E0D0788B
:1007980002320028F2D05170917810700029F6D1F9
:1007A800184670470B461846704700BF10F0030FF5
:1007B80030B404462AD101F0FF0343EA032C43EA8C
:1007C8000C25032A43EA052520D9A2F1040C0423A9
:1007D800BCF1030F0560CCF3800410D92CB1A2F151
:1007E80008040823032C456009D903F1040CC550FB
:1007F8000CF10403D41A032C40F80C50F5D8043A31
:1008080022F00304231DC41802F00302AAB1531EE8
:1008180003F001050123C9B29A4221700DD01DB120
:1008280002239A42617008D003F1010CE1540CF1E3
:1008380001039A4204F80C10F6D130BC704700BF8F
:10084800034610B41046E2B11C7802F1FF3C0122C5
:1008580082420C700CEA020413D034B193F801C040
:100868000222824281F801C00BD09C5C02F1010C8B
:100878008C5413F80C400CF10102824201F80C4030
:10088800F3D1084610BC704741EA000313F0030F88
:1008980030B404460D4628D1032A26D90C68A2F1A3
:1008A800040C0423BCF1030F0460CCF3800414D9B6
:1008B80034B14D68A2F108040823032C45600CD913
:1008C800CC5803F1040CC4500CF1040351F80C503B
:1008D800D41A032C40F80C50F2D8043A22F003053D
:1008E8002B1DCD1802F00302C418CAB12978531E73
:1008F800217003F0010101239A4211D021B16978D6
:1009080002239A4261700BD015F803C0591C04F8F1
:1009180003C015F801C04B1C9A4204F801C0F3D17A
:1009280030BC70478842F0B41FD8E2B10C7801237C
:1009380002F1FF3C934204700CEA030413D034B173
:1009480091F801C00223934280F801C00BD0CC5C1F
:1009580003F1010CC45411F80C400CF1010393424B
:1009680000F80C40F3D1F0BC7047002AFBD089187E
:1009780011F8013C8418551E04F8013C05F00106E5
:100988004FF0FF33002DEED03EB111F802CC022A11
:100998006FF0010304F802CCE5D0CD1815F8017CFE
:1009A80003F1FF3CE61806F8017C01EB0C0515F88D
:1009B800017C0CF1FF3304EB0C069D1806F8017C52
:1009C800002DEAD1CFE700BFF0B403469446002AD1
:1009D80030D005780A78AD1A29D10CF1FF3616F017
:1009E800010F2A4618D0447848780122201AB446C4
:1009F8001ED19C18881801329F188E180132BCF13C
:100A0800010C0CF1FF3C12D064784078201A0FD109
:100A18007C787078201A0BD19C18881801329F189E
:100A28008E180132BCF1010C0CF1FF3CECD12846C8
:100A3800F0BC70471046FBE71346CAB102788A42F9
:100A480019D05A1E12F0010F0DD010F801CF13461D
:100A58008C4508D1704790F800C08C4509D010F833
:100A6800012F8A4206D00130013B03F1FF33F2D156
:100A780070477047704770472DE9F00E91F90030C4
:100A880083B081463BB10B4613F9012F002AFBD1F5
:100A9800B3EB010A04D1484603B0BDE8F00E704735
:100AA80099F90030002B40D04B4613F9010F00286C
:100AB800FBD1C9EB030BD34535DB4846BAF1000F30
:100AC800EAD00B784FF0000C019319F80C30019A1A
:100AD8009A421FD10AF1FF34002314F0010F524645
:100AE8000AD046784D780123AE42224604D011E060
:100AF8007C787578AC420DD1C518CC180133C7186D
:100B0800CE180133013A02F1FF32C5D06D7864780E
:100B1800A542EDD00CF1010CCCEB0B00824502DCB8
:100B280009EB0C00D1E70020B6E79B46C3E700BFFE
:100B380012F0010FC9B205D090F800C0013A8C45F7
:100B48000DD00130531E4AB190F800C05A1E8C4592
:100B580005D010F8013F8B42F3D17047104670471B
:100B680010B5044600B910BD90F9003083B110F9F2
:100B7800011F0029FBD1001B013007F0BDFB014616
:100B880029B10023E25CCA540133002AFAD110BD0E
:100B98000120F2E7002070474EF60053CEF2000322
:100BA8005868C0B2704700BF4EF69053CEF20003AB
:100BB8009860D9601A6170474EF69053002814BFA8
:100BC80003200020CEF20003586070474EF6905381
:100BD80040F23F00CEF200030021C0F200300322B1
:100BE8009960D96018615A60704700BF08B500F075
:100BF800ADF900F065F800F0E5F843461A6841F2EF
:100C08005E11D16000F0A4F9404603684FF020421D
:100C18001A61002008BD00BF012A2DE9F0441546DD
:100C28001C4637D00021102258680BF05DFB022DBE
:100C38008246D8BF1C4F16DC1C4E00251C48216874
:100C480007F038F92B46504639463246194DA84721
:100C580010B90020BDE8F0842168174807F02AF988
:100C68000020BDE8F08400211022A0680BF03CFBB6
:100C7800032D0746E0D000211022E0680BF034FB7A
:100C8800042D06460DD02069002110220BF092FB9E
:100C98000546D3E71968094807F00CF90020BDE8B4
:100CA800F084043DCAE700BF008000200040000037
:100CB800D42E0100010D0020F82E0100B02E0100F5
:100CC80030B44EF210034FF6FE74CEF20003C0F2B9
:100CD800FF0406495C60002000240025012298607A
:100CE800C1E900451A6030BC704700BFE80E00201B
:100CF8004EF21000CEF200008268034B0020002163
:100D08009A60C3E900017047E80E0020012000F056
:100D18000DB900BF10B50446012000F007F94DF6E3
:100D2800836CC4F21B3CACFB00218B0C04FB03F46A
:100D38004EF21001CEF200018A6894420AD902F1FB
:100D48008073981E041B88688242FCD88B68A34273
:100D5800F9D810BD141B8868A04202D98B689A4242
:100D6800F9D210BD2DE9D04C154B4EF21004CEF23D
:100D780000049F68A2680446BA4284BF07F18077DE
:100D8800023FBE1AD3E9000110EB060A41F1000B3D
:100D98005F465646C3E900679A60012000F0C6F82E
:100DA80044F6D351C1F26201A1FB00B200235046C0
:100DB8003946920911F034FB001BBDE8D08C00BF06
:100DC800E80E002048F20003C4F2030310B4D3F87D
:100DD8009400194620F00402C3F89420D1F8504139
:100DE80048F2000314F0010FC4F20303F6D0D3F85D
:100DF8009400194620F00102C3F89420D1F850411C
:100E080048F2000314F0020FC4F20303F6D0D3F83B
:100E18009840444A24F48051C3F89810D3F89810A5
:100E280046F60000C1F3422CC0F68910BCF1070F4A
:100E38001060D3F890003BD146F6000C0124C0F6B0
:100E4800891CC0F30240BCFBF4F3072853603DD172
:100E580046F6000C0120C0F6891CBCFBF0F3C1F378
:100E68008200072893603FD146F6000C0120C0F6A7
:100E7800891CBCFBF0F3C1F342100728D36041D1B1
:100E880046F6000C0120C0F6891CC1F34231BCFBB8
:100E9800F0F30729136143D0234850F8211046F690
:100EA800000CC0F6891CBCFBF1F3536110BC704701
:100EB8001D4BC0F3024053F82C4046F6000CC0F618
:100EC800891CBCFBF4F307285360C1D0164B46F6C7
:100ED800000C53F82000C0F6891CBCFBF0F3C1F3EA
:100EE800820007289360BFD00F4B46F6000C53F8DA
:100EF8002000C0F6891CBCFBF0F3C1F342100728A0
:100F0800D360BDD0084B46F6000C53F82000C0F65D
:100F1800891CC1F34231BCFBF0F307291361BBD133
:100F28000121BCE7F80E0020542F0100052803D842
:100F3800024B53F82000704700207047F80E00203D
:100F4800014B43F820107047F80E0020704700BF8F
:100F580048F20003C4F20303012098619A6C42F03E
:100F680080019964986C20F080029A64FFF72EBE85
:100F7800704700BF704700BF704700BF704700BF91
:100F8800704700BF704700BF704700BF704700BF81
:100F9800704700BF08B5024806F074FFFEE700BFBF
:100FA800B02F010008B50748074906F083FF074A34
:100FB8000748084B11681B680268074806F07AFF63
:100FC800002008BDDC2F0100702F0100E00E00207A
:100FD800E00E0020CC4B0020E42F010008B50948A2
:100FE80006F050FF4246116807484A69002106F09A
:100FF80061FF40460368054998690AF0BFFE002072
:1010080008BD00BF1030010024300100A4600100B9
:1010180070B590B040220B48694605F031FF444650
:1010280000286D462668D8BF4FF4E13004DD6846D5
:1010380000210A220BF058F9A060A3680020336051
:1010480010B070BD3830010038B5384C2268A2F5B0
:101058004058A8F12008002120224046FFF7A6FBAF
:101068004546A8F11C002860286800211C22FFF7CB
:101078009DFB4246D2F804C02D4B2E4D19682068BE
:101088004CF0010CC2F804C02B682B4A091A1160F5
:101098001BB908E055F8043F23B198470028F9D058
:1010A800FFF778FF2068A0F540504FF4405107F053
:1010B80065FC07F049FE214841460C6805F054FFDD
:1010C8000BF0B4F8606009F009FB07F0D9FE06F0F0
:1010D80049FF00F041F81A4805F046FF28B1002101
:1010E80010220BF001F9174B1860174805F03CFF68
:1010F800014618B11548802200F06CFC144806F02F
:10110800C1FE4446206800F031FB124806F0D2FECA
:1011180048F20000C4F20300026E22F001050566E1
:1011280008F0D2FE08F0D0FEFAE700BFE00E00207B
:10113800E00E002000000020100F002044300100C5
:101148004C3001005400002058300100782800205D
:10115800643001006C300100704700BF0020704708
:1011680070B5A2B0044680222C4902A8FFF78CFB78
:10117800266BE56AE16BA26B636B294800960195C3
:10118800256C06F097FEA16A626A236A254806F074
:1011980091FE2669E169A26963692348009606F011
:1011A80089FE2668E168A26863682048009606F010
:1011B80081FE15F0804F14BF5A227A2215F0005F85
:1011C80014BF4323632305F0704C15F0805F14BFF0
:1011D800562676261648BCF1000FB4BF4E216E2164
:1011E800009606F067FE206C22AA00F01F01114C41
:1011F80002EB8103104A10F0800F14BF21461146FC
:1012080010F0400F18BF22460C4C53F8803C0C4895
:10121800009406F04FFE22B070BD00BF8830010078
:10122800083101005031010074310100A43101007E
:10123800D4310100E8310100E4310100EC51010032
:10124800EC31010008B503480BF0D6F90020024B39
:10125800984708BD0C320100E10C002010B5044687
:10126800044806F027FE2046FFF77AFFBDE8104045
:10127800E8E700BF2032010010B50446044806F034
:1012880019FE2046FFF76CFFBDE81040DAE700BF03
:101298003432010010B50446044806F00BFE20461F
:1012A800FFF75EFFBDE81040CCE700BF4C320100FD
:1012B80010B50446044806F0FDFD2046FFF750FF30
:1012C800BDE81040BEE700BF5832010010B5044623
:1012D800044806F0EFFD2046FFF742FFBDE8104046
:1012E800B0E700BF6432010010B50446044806F0B8
:1012F800E1FD2046FFF734FFBDE81040A2E700BF3C
:101308007432010010B50446044806F0D3FD2046A7
:10131800FFF726FFBDE8104094E700BF88320100C0
:101328004FF0FF30704700BF014B1868704700BF8F
:10133800140F0020104B5A689AB1D8B1136B9A4217
:101348000FD0012110F0010F0DD0884201F1010CDE
:101358000ED01B6B0CF101019A4202D01B6B9A4212
:10136800F3D1002070471B6B9A42FAD00221ECE7B8
:101378001846704710467047140F00200B4A5368F0
:1013880083B11268934209D0002001E0934206D04D
:101398001B6B0130002BF9D1002070470020002A78
:1013A800FAD070474FF0FF30704700BF140F00208D
:1013B80010B5054C23682BB11846D96A88472368AD
:1013C8000122DA6110BD00BF140F002008B5064BDA
:1013D80084461B680A4623B1184661465B6A9847EB
:1013E80008BD4FF0FF3008BD140F002008B5054BAD
:1013F8001B681BB11846996A884708BD4FF0FF3033
:1014080008BD00BF140F00200349044B08680028DA
:1014180008BF1846704700BF140F0020A83301000A
:1014280070B5084D06466C6844B121463046FFF752
:1014380035F828B1246B6B689C42F6D1002070BD4A
:10144800204670BD140F002070B5154C2368002B82
:1014580021D005F0EFFCA168054611B1E06885428E
:1014680006D0104805F080FDE5600146A06098B1FF
:1014780025680B4E284600E0B168FFF70FF850B119
:101488002268106B85422060F6D106482946BDE8DF
:10149800704005F089BF70BD01490D68F5E700BFD0
:1014A800140F0020B033010038B50546144805F084
:1014B8005BFD18B11349FEF7F1FF90B1124C236898
:1014C8007BB17DB91B6B1148236005F04DFD58B108
:1014D8000D4A1168FEF7E2FF30B921682069884299
:1014E8000AD038BD2361EDE72168084805F05CFFA4
:1014F800216820698842F4D1054B01221A6038BD61
:10150800B8330100C4330100140F0020B0330100C8
:10151800840F002038B50F4D0446696851B10A465A
:1015280000E01A46136B9942FBD114630020216333
:10153800E06138BD08486C602C6005F015FD18B1F5
:101548002968FEF7ABFF18B10348296805F02CFF9E
:101558006968EBE7140F0020B033010030B587B09D
:1015680001AC0A460546054920460BF099FF284676
:10157800214605F019FF07B030BD00BFC833010090
:1015880030B50C4683B0002855D001AD102229464D
:101598000AF0AAFE019B207093F90020002A48D186
:1015A800621C002B4AD01846294610220AF09CFEDD
:1015B800019B607093F90000002838D1A21C002B11
:1015C8003FD01846102229460AF08EFE019BA070D3
:1015D80093F90020002A28D1E21C002B34D01846A9
:1015E800294610220AF080FE019BE07093F9000062
:1015F800C8B9221D002B2AD01846102229460AF005
:1016080073FE019B207193F9002052B9621D002BD3
:1016180020D01846294610220AF066FE607103B0F1
:1016280030BD0133F2E70133E3E70133D4E7013397
:10163800C4E70133B4E70A4602F8010B002313702C
:10164800A21C00211170E21C00231370221D00212E
:101658001170621D00231370E1E700BF10B50C463E
:1016680005F082FC2146FFF78BFF237813F0010F6A
:1016780001D0002010BD607894F802C0E27840EAFA
:101688000C010B432179134362790B431A430CBFB6
:101698000020012010BD00BF30B50246084B0948A4
:1016A80089B0002A18BF03460D46684619460BF054
:1016B800F7FE684629466C46FFF7D0FF09B030BDF3
:1016C800CC330100D43301002DE9F044234E82B01D
:1016D80033688246002B3BD0746800256F4605E0CE
:1016E800246B70681D4A844211D00135694628462A
:1016F800FFF7D2FF0028F3D0062204F11000694654
:10170800FFF7C2F8246B7068144A8442EDD114685C
:1017180015462146124806F0CDFB33685146184657
:101728001A6A904700280F480CDA06F0C3FB00201D
:10173800FFF7BAFE29688C42ECD14FF0FF3002B0B7
:10174800BDE8F084054A02211068C1610020F6E76F
:10175800054806F097FB4FF0FF30F0E7140F002024
:10176800F433010000340100E03301002DE9F04EAC
:10177800574F002382B03B607B600446402008F04E
:1017880045F808F04FFC20460AF0A2F90028C0F2FC
:101798008F807C68002C00F092804E4805F0E4FBB6
:1017A8008146412008F032F821464B4806F082FB7A
:1017B80000256E46DFF818B149462046B9F1000FFA
:1017C80002D0FEF76BFE00B328466946FFF764FFB8
:1017D800684642490622FFF7F7F8013528BB246B13
:1017E80079683F488C4232D006F04CFB21463A4893
:1017F80006F060FBDFF8D8B049462046B9F1000F83
:10180800E2D0FEF74BFE0028DED136483C6006F0F9
:1018180039FB28466946FFF73FFF68462F490622ED
:10182800FFF7D2F801350028D9D004F1100A2B4966
:1018380006225046FFF7C8F8E8B96946062250461E
:10184800FFF722F8246B796825488C42CCD1DBF865
:101858000010002928D0244805F086FBF8B1DBF8F1
:101868000010FEF71BFED0B90A2006F0E7FB284659
:1018780002B0BDE8F08E062269465046FFF7A4F88C
:101888000028DAD02146194806F014FB51461848BA
:1018980006F010FB1748694606F00CFBCDE73968DF
:1018A800114805F081FDDFE70F4805F07DFDDBE716
:1018B8002046FFF735FD7C68002C7FF46EAF0E489C
:1018C80006F0E0FA6FF03F0007F0A0FF2546CEE7EC
:1018D800140F002008340100646C0100A0330100DB
:1018E8001434010018340100B0330100243401001D
:1018F8005034010070340100E0330100014B022232
:101908001A607047280F0020704700BF014B5860CD
:10191800704700BF280F0020002910B42DDD0123D7
:101928004A1E8B4202EA0304028812D02CB1022319
:1019380030F803C08B4262440BD003F1010C30F83D
:10194800133030F81C40D2180CF1010312198B42E5
:10195800F3D191B201EB124C1FFA8CF303EB1C404C
:101968004FF6FE71421CC0F2000102EA0100D0F1FC
:10197800010038BF002010BC70470120FBE700BF02
:10198800002910B423DD01234A1E8B4202EA030416
:10199800028812D02CB1022330F803C08B42624473
:1019A8000BD003F1010C30F8133030F81C40D2187A
:1019B8000CF1010312198B42F3D11FFA82FC0CEBD4
:1019C800124290B200EB124188B210BC704700205E
:1019D800FBE700BF10B491F90030222B2ED0013A5A
:1019E800002A12DD0B7883B1222B0ED002F1FF3CC6
:1019F8001CF0010F1BD0BCF1000200F8013B04DD14
:101A08004B7813B10131222B11D10021017010BC88
:101A180070474B78611C002BF7D0222BF5D000F8CB
:101A2800013B6378013A002BEFD0222BEDD0013A2D
:101A38004C1C002A00F8013BEBDCE6E70131013AD7
:101A4800CDE700BF08B520B101783039CBB2092BFA
:101A580002D94FF60F7008BD0A2200210AF044FC93
:101A680082B2130243EA122080B208BD10B505F015
:101A78007BFABDE81040E5E7094A10884FF6FF7287
:101A8800010A41EA00239BB2934207D01805030DCF
:101A980040F6FF7C634501D0122070470E20704746
:101AA80030000020020A42EA002C1FFA8CF24FF69E
:101AB800FF739A4209D040F6FF70824205D01305A1
:101AC800084604491A0D0BF0EBBC08460249FEF71C
:101AD80071BC00BFA03401009834010030B5020683
:101AE80042EA106500F47F4345EA032400F47F00CE
:101AF80044EA102283B0C2F3072502F0FF04C2F3C0
:101B080007430846120E0349009501940BF0C8FCE0
:101B180003B030BDA43401000422FEF7B5BE00BFF7
:101B280070B51B4E4FF6FF7334881646220A42EAF8
:101B38000425ADB29D4204461BD00622FEF7A4FE42
:101B48002D050622A01D1349FEF79EFE2A0D15F548
:101B5800801F16D0B6B22D0F330A45EA022543EA94
:101B680006264FF0810C2682E581A4F80CC01220CD
:101B780070BD0622FEF788FEA01D06490622FEF764
:101B880083FEB0B2010A41EA0026A6810E2070BD8C
:101B980030000020300F0020FFF718BC2DE9F04E70
:101BA800934D0D2984B004462861696133DD914E57
:101BB8008389728830884FEA122C070A1E0A47EA7E
:101BC80000204CEA022C46EA032640F6FF724FF644
:101BD800FF7380B21FFA8CFCB6B240F2E9579C45FD
:101BE80008BF9446984214BF03461346BE4215DD0B
:101BF800B6F5014F4AD00E3904F10E071B051B0D2F
:101C080040F6FF70834217D0824204BF4FEA0C525D
:101C1800120D934210D004B0BDE8F08EA08A1B05C7
:101C2800060A46EA00271B0D40F6FF701639834264
:101C3800BEB204F11607E7D140F6060C66453AD065
:101C480048F23502964211D0B6F5006FE3D11B2950
:101C5800E1D97888020A42EA002C1FFA8CF28A42FB
:101C680040F3D680644806F025F9D4E71B2940F3F1
:101C7800B980F888020A42EA002C0FFA8CFEBEF1FD
:101C8800040F7DD05D4806F0FDF8C4E71129C2DDD8
:101C98000005000D9042BED0E789208A3E0A46EA38
:101CA8000722060A46EA00271205BEB2120D1239AB
:101CB80004F11207A2E71B2940F394803B881A0A13
:101CC80042EA032001B20129A5D17888030A43EA30
:101CD80000210FFA81FCBCF5006F9CD197F804A095
:101CE800BAF1060F97D17A79042A94D1A969DFF855
:101CF800009100298FD007F1180103AB0191184614
:101D080001990093FEF7C0FDD9F81800039A07F16E
:101D1800080B9042009B7FF47EAFF888020A42EAE3
:101D2800002E1FFA8EF2012A00F0D880022A7FF4D2
:101D380072AFE9692E4C00293FF46DAF206A002884
:101D48003FF469AF042218460BF10601FEF79CFD2B
:101D5800626A039B9A427FF45EAF59460622206A64
:101D6800FEF792FD216A0622A06AFEF78DFDE16A60
:101D7800A06AFFF72BFB00212162E161E1624AE7DB
:101D88003888020A42EA00210BB2012B7FF47AAFAD
:101D98007B88190A41EA032C0FFA8CFEBEF5006F06
:101DA8007FF470AFB88840F2064290427FF46AAF81
:101DB800134807F11801FFF7AFFE2B6B07F1080472
:101DC80023B907F10E010F48FFF7A6FE21460622A8
:101DD8000D48FEF759FD00206C680146024603468F
:101DE800A04718E709481C2206F064F813E700BF6B
:101DF800280F002030000020DC340100C43401002A
:101E0800400F0020580F00205C0F0020B034010064
:101E18003B7803F0F00140297FF4FDAE03F00F0397
:101E2800052B3FF7F8AE38460A21FFF775FD002865
:101E38003CD0042203A807F11001FEF725FDAB6989
:101E4800039A6BB1B3EB020E18BF4FF0010EB2F15B
:101E5800FF3F0CBF00200EF0010000287FF4DBAE2E
:101E6800F888020A42EA002399048A0C002A7FF4BF
:101E7800D2AE7B7A012B1DD0112B7FF4CCAE3B8BDD
:101E8800B7F816E0BA8A190A41EA0324100A4FEA99
:101E98001E2C4CEA0E2140EA0222A3B207F11C00D4
:101EA8006C6889B292B2083BA047B4E61F4805F0B7
:101EB800E9FFB0E697F814C007F11403BCF1050F69
:101EC8007FF4A9AE93F801E0BEF1010F7FF4A3AE51
:101ED80007F11801164805F0EDFF9CE63246A11DF2
:101EE8002046FFF71DFE4FF4007CA7F806C05246B7
:101EF800064607F10E05594607F11200FEF7C4FC25
:101F080001982946FFF708FE524609F1080158468C
:101F1800FEF7BAFC284609F11801FFF7FDFD204637
:101F280006F11C01FFF752FA75E600BFF034010014
:101F3800003501002DE9F044294D82B0EE6B2949A6
:101F480040F606023046FFF7EBFD4FF48072341876
:101F5800062332524FF0080C4FF0040A4FF48076F3
:101F680004F108071A462371A4F802C0E68005F1B7
:101F7800080184F805A03846FEF786FCA96902AE78
:101F880046F8041D5246314604F10E00FEF77CFC6B
:101F98000023E375A374E37423756375A375EB6974
:101FA800A8692A6C83EA0001114201D06B6C83B1E5
:101FB8006B62314607F1100004220193FEF764FCBE
:101FC800E86BC0F11C010919FFF700FA02B0BDE87F
:101FD800F084054805F056FFEB696B62E9E700BF3E
:101FE800280F0020340000202035010038B50446B1
:101FF80010B9054B986438BD034D0020A964FEF75D
:10200800B1FE2C65E86438BD280F002038B5254896
:1020180004F0AAFF044618B12349FEF73FFAE8B9CD
:10202800224D6B6D5C1C6C65FFF7C2F9AA6D1F4CE5
:10203800D2F1010038BF0020FFF736FA41460868A0
:10204800FFF742FBE86D30B1236E0020E065DBB995
:102058000422226038BD0223236038BD204614497B
:10206800FEF71CFA28B9114DFFF7A2F904232B60DB
:1020780038BD20460F49FEF711FA68B901200B4D0B
:102088006B6D9842CED8EFE70B4942F21070FFF71C
:10209800ADFF0A49616038BD002120460A460AF0B2
:1020A80023F9ECE74C35010058350100280F0020D2
:1020B800C43301005C350100051900001119000046
:1020C80010B50F4CE36903B910BD0020FEF74AFEB6
:1020D800636E41F28831C21A8A42F5D9A16E4A1C50
:1020E800042AA26603DC6066BDE8104022E70548C2
:1020F80005F0C8FE0020A066BDE8104086E700BFD6
:10210800280F0020643501002DE9F04482B0089FB3
:10211800019117F0010F044615469A4603D007F1BE
:102128001C030022C25400263349452323706670DD
:10213800CB6EBFB207F11C0290B29AB24FEA122CD2
:102148004FEA102E4EEA002001334CEA022ECB66ED
:10215800A4F804E04FF0FF334FF0400E1122237231
:10216800608062721831A4F806E00422668104F1E6
:102178000C000837FEF788FB1FFA8AFA01A9042227
:10218800ADB2BFB204F11000FEF77EFB4FEA1A2C85
:10219800280A3B0A4CEA0A2A40EA052543EA0727A7
:1021A800A4F814A0E58227836683A21C208863888C
:1021B80051880232C318508802325B1851880232A3
:1021C8001B18508802325B18518802321B1850883D
:1021D80002325B1851881B1892885B18D31898B282
:1021E80000EB134C1FFA8CF202EB1C41C8436081D0
:1021F80002B0BDE8F08400BF280F00202DE9F04EA2
:1022080084B0934699460C9D0E46002928D1344F38
:10221800344C384604F170010622FEF7D5FB4FF026
:10222800FF36844600282AD0D4F83CA039464FF41B
:1022380000625046FFF774FC0AEB00073846314647
:102248005A464B460095FFF75FFFE06B05F11C030C
:102258003F1AD919FFF7BAF8002004B0BDE8F08E8C
:102268001F4F204CB1F1FF3F18BF0746384604F115
:1022780070010622FEF7A8FB84460028D4D1D4F8C2
:1022880028A039464FF400625046CDF80CC0E661EC
:102298002762FFF745FC0AEB00074B4631463846F4
:1022A8005A460095FFF730FFA26AE06BB91A1C3155
:1022B80009182A4607F11C00FEF7E6FAA36ADDF8BA
:1022C8000CC0FF1A1C3560460126ED19E562A666AA
:1022D800FEF748FD6066FFF72DFE3046BDE700BFFC
:1022E80034000020280F00202DE9F04E934D944C27
:1022F80005F5E273DE1C04F19709002329F01F029B
:10230800414626F01F07012602F5406C02F5C06E13
:1023180088B0E362A36523662362E3616362E263D4
:10232800A76266650F68C5F8A0E1C5F8A4C1814633
:10233800FFF73EF8FFF788F83846FFF7C5F9002899
:10234800C0F2F78006FA09F240F2131BC0F2000B44
:1023580002EA0B00B246009226468346FEF7E4FFE7
:10236800062200F110017748FEF78EFA43461F68EF
:10237800C4F800A0019704F05DFDD5F8C81707461A
:10238800884224D001980422011D6F48FEF77CFA88
:102398006E4804F0E9FD09F049FF70646C4804F0E8
:1023A800E3FD09F043FF30646A4804F0DDFD09F0FD
:1023B8003DFF30636848FFF759FB684B5880684811
:1023C800FFF754FB5D49654AC1F8C8771080B9F139
:1023D800090F09D9C4F860A0B9F1040F35D8DFE8AE
:1023E80009F06B2E34686100BBF1000F13D055481B
:1023F8005C490622FEF7E8FA0028EBD1FEF7BEFF9B
:10240800B0F1FF3F7AD000287ED1574805F03AFD59
:10241800FFF7FCFD1CE0009A12F4027FDAD0216B72
:10242800002978D0B369002BE1D1504805F02AFD86
:10243800FEF7BEFF4FF0FF3008B0BDE8F08E4C4FFE
:102448000023A3613B6000F0A9F80020C5F8CC0781
:10245800FEF7CCFF05F010FE0746002861D1FFF714
:102468002FFEA16C384631B1FEF77CFCF16C336D60
:10247800421A9A4212D82368032B07D0042BD9D0CA
:10248800022BE5D12E4FC7F858A067E7D5F8CC172F
:10249800C9B9FEF78DFFD5F8CC07CDE7B06CB764A6
:1024A8008047E8E7334800270760A76100F018FE77
:1024B800CBE700F09DF9C8E72E4A00211160A16121
:1024C80000F044FDC1E70A462B4805F0F3FC1B4920
:1024D80003ACD1F8CC27204628490AF0E1FF214671
:1024E800274804F061FF274B24491A6820460AF060
:1024F800D7FF2146244804F057FFCAE7234805F0D0
:10250800C1FCFEF755FF95E70146214805F0D2FCCE
:10251800FFF77CFD9CE71F4805F0B4FCFEF748FF79
:1025280088E7FEF745FF1C4805F0ACFC4FF0FF308C
:1025380082E7FEF73DFF4FF0FF307DE720200020C7
:10254800280F0020300F0020400F00209035010098
:102558009C350100A4350100B03501003000002091
:10256800B83501009034010020360100E035010043
:10257800F8280020B4290020683601008C360100B4
:1025880090360100540000209C36010000360100FE
:1025980040360100C0350100603601002DE9F047E2
:1025A800264DDFF8B4902E682548741C21462C600F
:1025B80005F080FCD9F80060224948F2350230461F
:1025C800FFF7AEFA204F4FF4807C341826F800C08D
:1025D80006254FF0040A4FF008024FF4407062805D
:1025E800E08039462A46257184F805A004F10800E0
:1025F800FEF74AF95246154904F10E00FEF744F970
:102608002A46394604F11200FEF73EF94FF0FF332F
:10261800E37623766376A376D9F80000C0F11C012F
:102628000919FFF7B9FA41F288300949FFF7DEFCCA
:102638000848BDE8F047FFF769B900BFF82800204F
:10264800A836010034000020300F0020400F002081
:102658009926000065260000640F0020094810B57F
:1026680005F028FC084804F07FFC18B190F9003008
:102678006E2B03D0BDE8104000F0BAB8034803221F
:10268800026010BDBC360100CC360100280F0020C6
:10269800094810B50368042B07DC41F28830074964
:1026A800FFF7A4FCBDE8104078E7054805F0EAFB11
:1026B800BDE81040FFF7AABCF828002099260000C2
:1026C800D8360100F0B53E4883B00768FFF7D4F963
:1026D8003C4C1C3021683D184B1E042B6DD8DFE89C
:1026E80003F034271A0327004FF4A0614FF4007356
:1026F8003952281D6B803449FDF75CFE1725D4F844
:102708009030D4F88810D4F88C2030480095FFF722
:1027180075FD03B0F0BD4FF4A0624FF4407E3A520D
:102728002B49281DA5F802E0FDF744FE1325E6E72E
:10273800B4F884104FF4806C27F800C0080A40EA07
:1027480001239AB26A800425D9E74FF4807EAE1C33
:1027580027F800E01F493046FDF72CFE1D48FDF71D
:1027680023FF411C76181C4F1C493046FDF722FEFA
:102778001B49B01DFDF71EFE386844F6D35CC1F254
:10278800620CACFB00130E369A09164930460AF063
:1027980087FE3146144805F08DFB3046FDF704FFEF
:1027A800421CBB88B618002730463A460F490097A6
:1027B8000AF076FE3618751BA1E700259FE700BFD3
:1027C800640F0020FC280020483701005C0F00201F
:1027D80038370100002900203C00002000370100A4
:1027E80070370100083701000C3701002837010055
:1027F800F0B5724883B004F0B7FB002800F0D3802E
:1028080000210A2209F0D6FD6D4DA8806D4804F01C
:10281800ABFB002800F0BA800A22002109F0CAFDAB
:102828000246B2F57A7F2860C0F0B5806648A9886C
:1028380005F040FB654F6648664C036897F90060F1
:10284800C4F88830002E40F08180634904F1940078
:102858000A686249C2F3074CC2F30723170ED2B2C3
:10286800CDF800C001970AF01BFE04F19401201D69
:102878008022FDF7A7FD5A48211D84F8836005F0E2
:1028880019FBFEF7C1FD534E534F0146554805F05D
:1028980011FB06F1880154483A4605F00BFB5349F1
:1028A8000B681BB152480368002B63D10A20514EB4
:1028B80005F0C4FB5049514805F0FCFA318841B194
:1028C80049024F4805F0F6FA33884E49580209F094
:1028D80055FA0A2005F0B2FB4B4A4C48116805F03E
:1028E800E9FA4B4805F0CEFAEE684A492868AE6026
:1028F800FFF77CFB00264848FFF708F8452301222C
:102908003046C4F88C302260C4F8A460FEF72AFA76
:102918004AF6AB2CCAF6AA2CACFB0031CB0A03EB67
:102928004302A0EB822101F58063062231463B4831
:10293800C4F89030C4F88460FDF738FF4FF4007C89
:10294800A5F810C003B0BDE8F040BBE638463A2110
:10295800FDF7F0FD064640B3384609F067FC711CE8
:10296800C4F888008022201D0026FDF72BFD84F87E
:10297800836086E73A68D6F8880003EA020E0340C7
:102988009E4593D0264805F095FA8FE72A68B2F558
:102998007A7FBFF44BAF1146224805F08BFA4FF40B
:1029A8007A722A6042E7064D30E73946201D8022B8
:1029B800FDF708FD84F8836063E700BF5C3701001A
:1029C8003C0000206C370100B03701007828002057
:1029D800580F0020FC280020400F0020D8370100A5
:1029E800F437010020380100343801006C0F002052
:1029F800680F002074280020002900208438010076
:102A080094380100EC51010054000020AC3801005A
:102A1800C4380100312A00007D2A00005C0F002024
:102A280064380100783701000D4A10B50D4CD2F812
:102A3800A400A168431C8B42C2F8A43009DC0A48F0
:102A480005F020FA20680949FFF7D0FABDE81040E0
:102A580038E6074805F016FABDE81040FFF7D6BA81
:102A6800FC2800203C000020D0380100312A00005A
:102A7800D83601002DE9F046A04C0646D4F890005F
:102A880083B08842154602D003B0BDE8F0862268BC
:102A9800012A03D0D4F88C10A942F5D1012BF3D91F
:102AA800374637F8021BA3F1020A080A40EA012C4C
:102AB8001FFA8CF1052900F0E680062979D0032950
:102AC800E2D1BAF1010FDFD973888C4E190A41EAB5
:102AD800032083B2C4F88430002B00F038814CF610
:102AE800CD41581ECCF6CC41A1FB00C1C90801EB71
:102AF800810CB0EB4C0F00F03E8143F2FD3CCCF66C
:102B0800A61CACFB030140F28A20490A00FB1133E2
:102B1800002B00F03E81012A00F04081012A14BFF9
:102B280000230123052A14BF1A4643F00102002A94
:102B380000F0CD80D4F8843000200221012B2160E0
:102B4800C4F88C50C4F8AC00C4F8B000C4F8A800AD
:102B580040F016816A4DC4F8B0300A2369492868E4
:102B6800AB60FFF743FAD4F88420B5F810C0D4F866
:102B7800AC30501E00FB0C346349AAF1020A0A6803
:102B8800B91CA0185246FDF77FFE604B54441868E4
:102B9800844288BF1C60FFF795FDB5F810C0E24578
:102BA800BFF472AF5A4805F06DF95A480321016025
:102BB8006AE738460193FDF7F7FC431CFA185648B4
:102BC800394605F077F90522BAF1080FC4F88C5098
:102BD8002260019B53D90B3B5049384603F001054D
:102BE800FDF75CFCDFF818910146002877D0012634
:102BF800BC19BAF1090F42D9DDB148492046FDF7A1
:102C08004DFC0146002800F09380013606F1080EBD
:102C18000134F2450DD832E040492846FDF73EFC24
:102C280001360146E8B106F109026C1C01369245ED
:102C380025D93A492046FDF731FC651C0146002894
:102C4800EAD104F108070A22384609F04DFB1FFAB9
:102C580080FC394662463248A9F810C005F02AF9C6
:102C6800DAE709340A22204609F03EFB83B22146FE
:102C78001A462B48A9F8103005F01CF9D3E703B021
:102C8800BDE8F0461EE57388B91C1A0A42EA032E0D
:102C98001FFA8EF2234805F00DF97188080A40EAF8
:102CA800012C1FFA8CF35A1E012A08D81E4805F079
:102CB800E9F8FEF77DFB174804210160E4E61B48AC
:102CC80005F0E0F803B0BDE8F046FFF79FB9D4F887
:102CD8008430D4F8B02093423FF4D6AE3AE70A36AF
:102CE8000A22304609F000FB84B2314622460C48DD
:102CF800A9F8104005F0DEF879E700BFFC280020AD
:102D08003C000020312A000054000020EC2700205D
:102D180090390100280F0020D4380100E83801005C
:102D2800F038010098390100B0390100C4390100B8
:102D380009370A22384609F0D7FA1FFA80FC3946C3
:102D480062461948A9F810C005F0B4F85DE71749BC
:102D5800D6F8A800D6F8AC30B1F810E0421C03EB66
:102D68000E43C6F8A820190D1148C6F8AC3005F076
:102D7800A1F83268CFE6232005F060F93268CAE688
:102D880019460C4805F096F803B0BDE8F046FFF781
:102D98003DB9094805F076F83268BCE6074805F001
:102DA80089F82268BAE600BFF03801003C0000202C
:102DB8000839010050390100203901002439010087
:102DC80000B583B00146042201A8FDF75DFD019816
:102DD80003B000BD2DE9F00E4FF0630C044604F873
:102DE80001CB661C751C6F1C07F1010A0AF1010969
:102DF80087B009F1010B01970BF10107049701371F
:102E08000397013705976FF07D0747704FF0530719
:102E1800677086F801C04FF0350C85F801C0019C39
:102E28004FF0010C84F801C04FF002078AF8011036
:102E3800392189F801108BF80170049D40216F70C9
:102E4800039C6170059F07EB0C0194463AB3120688
:102E580042EA1C664F1C0CF47F4546EA05297E1C95
:102E6800751C6C1C03940CF47F0B059C49EA1B220F
:102E78004FF0360A84F801A04FEA226C4FEA224943
:102E88004FEA222B4FF0040A81F801A087F801C00D
:102E980086F8019085F801B0039F7A70B91C0BB3CE
:102EA8000A461D06322402F8014B45EA136903F469
:102EB8007F4649EA062A03F47F07561C4AEA172385
:102EC800751C6C1C4FEA236A1F144FEA232C4FF021
:102ED800040981F8019082F801A0A11C777085F897
:102EE80001C063700A46372502F8015B541C631C55
:102EF8001B1A4FF0000C4FF0FF35402B81F801C032
:102F080055701EDC0B1D181A034681F803C0C0F16A
:102F18004100591C402B00F0010012DC38B10B466F
:102F28000131481E402882F803C0224609DC501CA3
:102F38004B1C82F803C0591C421C402B80F803C06C
:102F4800F5DD184607B0BDE8F00E70472DE9F04EE4
:102F58005B4EDFF888B1706886B0421C00251146C8
:102F680058483560726004F0A5FFDBF80040294638
:102F780040F2EE522046FDF719FC53494FF4006227
:102F88002046FEF7CDFD241804F11C0901274FF057
:102F9800060A277789F8017089F802A089F8035092
:102FA80028460297CDF80CA0FDF7DCFE44F6D35373
:102FB800C1F26203A3FB001CCCF38F120DF1180AB7
:102FC800110A4AF8045D41EA0227A9F80870514637
:102FD800042204F12800FDF757FC5146042204F1AD
:102FE8002C000595FDF750FC5146042204F13000F1
:102FF8000595FDF749FC5146042204F13400334F8E
:103008000595FDF741FCDDF80CA03946524604F160
:103018003800FDF739FC04F1880080222C49FEF7BE
:10302800D9FC029B2A46194604F584702B46FFF703
:10303800D1FE8246F878BA780304797943EA0260C7
:1030480097F804C0084340EA0C212846B160FDF710
:1030580089FEB3683146C3181A0642EA136503F4B9
:103068007F4003F47F0C45EA002242EA1C2541F820
:10307800085F042204F12000FDF706FCDBF80000DD
:10308800432244230AF1EC05C0EB09094FF0FF3154
:1030980020460095FFF738F80E4940F6B830FEF79D
:1030A800A5FFA94403230C483360FEF72FFCDBF887
:1030B80000004946FEF770FD06B0BDE8F08E00BF7F
:1030C800B0290020D839010034000020300F00203A
:1030D80078280020ED300000C1320000640F002085
:1030E80034E700BF094810B54368042B07DC41F2F8
:1030F80088300749FEF77AFFBDE8104026E7054803
:1031080004F0C0FEBDE81040FEF780BFB0290020E3
:10311800ED300000D83601002DE9F04E037882B07A
:10312800FF2B0446894600F509763FD06C31DFF85D
:1031380074B1019100275A1E6578422A4BD8DFE8FE
:1031480002F0444A3E4A4A384A4A4A4A4A224A4AC5
:103158002E4A784A4A4A4A4A4A4A4A4A4A4A4A4AB5
:103168004A4A4A4A4A4A4A4A4A4A4A4A4A4A4A4AB7
:103178004A4A4A4A724A2E4F4A4A4A2E2E4A4A4ACE
:103188004A4A4A2E55001F2DDCBF2A46AA4666DC4D
:103198003C48A11CFDF778FB3A4B03F80A7002354E
:1031A8006419A64202D92378FF2BC4D102B0BDE826
:1031B800F08EA11C04223448FDF766FBEFE7A11C42
:1031C80004223248FDF760FBE9E7A11C04223048DD
:1031D800FDF75AFBE3E719462E4804F06BFEDEE7DD
:1031E800A11C04222C48FDF74FFBD8E77F2D2CDCCF
:1031F8002A1E18BF0122AA4699F96CC0BCF1000F1B
:1032080014BF002102F001010029C8D0234804F0AE
:1032180051FE0198A11C5246FDF736FB0AEB090343
:1032280083F86C70BBE7A11C04221D48FDF72CFB3A
:10323800B5E73F2DDCBF2A46AA4619DC1948A11C70
:10324800FDF722FB0BF80A70A9E72A46164817492A
:10325800802304F02FFE4FF07F0A0122CCE72A4694
:1032680011481349202304F025FE1F2292468FE7B8
:103278002A460D480F49402304F01CFE3F2292467F
:10328800DCE700BF14280020F02700206C0F002086
:10329800680F00207C3A0100C02900204C3A010048
:1032A800BC29002034280020EC3901003C3A0100F8
:1032B800243A0100303A01002DE9F04EAB4E0D469C
:1032C8001446D6F800C011462A46443D18BF0125C9
:1032D80086B00746432C0CBF2C4645F00104A44891
:1032E800CDF800C09A4604F0E5FD3CB14FF0FF313F
:1032F800A04804F0DFFD06B0BDE8F08EBAF1EB0F90
:1033080098BF6FF00101F3D93B78591EC8B2591F15
:1033180018BF0121012894BF002201F0010222B147
:10332800062B18BF6FF00201E2D17B78012B18BF82
:103338006FF00301DCD197F802E0BEF1060F18BF69
:103348006FF00401D4D107F1040B5846FFF738FD9C
:10335800B268864C904202D06FF00501C8E70021A0
:10336800844804F0A7FD2568534643214422824837
:10337800009504F09FFD2368042B07D0062BBAD0D4
:10338800032B69D07D4804F07DFDB4E77C4807F144
:10339800EC0404F08FFD2046FFF712FD48F2632C81
:1033A800C6F2533C6045A6D197F8F03007F1F00516
:1033B800FF2BA0D0352B2B4607D05978881C1B181B
:1033C8001A78FF2A97D0352AF7D193F802E0BEF190
:1033D800050F90D12046FFF7F3FC48F26323C6F2AD
:1033E8005333984200F0FD8007F11001042265482C
:1033F80007F11404FDF748FA042204A82146FDF752
:1034080043FA049A002A40F0E6805F486C37046863
:1034180006225E48A11DFDF737FA3846FDF7C4F8C5
:10342800002840F0D1805A4C59495A4804F042FDCE
:1034380094F9001019B15848554903F0B5FF062210
:10344800326056484F4904F035FD554803F08CFD6D
:10345800544B03221A604EE707F16C01524804F0FE
:1034680029FD0425514804F025FD07F1EC002560ED
:10347800FFF7A6FC48F26329C6F2533948456ED0D7
:10348800DFF840A14A4941F28830FEF7AFFD4948CC
:1034980004F010FDDAF800400021204640F2EE5218
:1034A800FDF784F9204644494FF40062FEF738FBE3
:1034B800241804F11C05002101224FF00609E970C7
:1034C8006A70227785F8029008460391FDF74AFC56
:1034D80044F6D353C1F26203A3FB001CCCF38F1252
:1034E800039B100A40EA022C06A9A5F808C041F877
:1034F800083D042204F13400FDF7C6F94A4604F1F8
:1035080038002E49FDF7C0F95946042204F120007D
:10351800FDF7BAF907F11001042205A8FDF7B4F97F
:103528003269059B032104F58470FFF753FCDAF830
:10353800001000F1EC06681A85194322204644233E
:103548004FF0FF310096FEF7DFFD29461C4804F0D6
:10355800B1FCDAF800002946FEF71EFBCBE607F1BE
:10356800F0003946FFF7D8FD8AE700BFB0290020F0
:10357800A83A0100E83A0100043C0100EC3B0100D4
:10358800A03B0100400F0020380F00205C0F0020F6
:1035980078280020B83B010058300100C83B0100E2
:1035A800CC360100280F0020FC3A0100243B010022
:1035B800ED300000483B010034000020300F0020AF
:1035C800743B0100640F0020084C394620468022D5
:1035D800FEF700FA28E7214604220548FDF754F9CA
:1035E80013E728463946FFF797FDFDE678280020BF
:1035F800580F002008B50320FDF798FC43469A6849
:10360800996800EBC2000B01B0FBF3F008BD00BFE6
:10361800064B013810B553F820402046FFF7EAFF63
:1036280001462046BDE8104000F078B8483C01004B
:103638000120EDE7024B013853F8200000F098B85C
:10364800483C01000120F5E708B5044B013853F860
:10365800200000F085F840B208BD00BF483C0100DA
:103668000120F1E7034A0139034652F821001946BF
:1036780000F06EB8483C01000121F3E70A2870B554
:10368800044609D0094B013953F8215028462146F0
:10369800BDE8704000F05CB8044A481E52F820505B
:1036A8000D21284600F054F8F0E700BF483C01001F
:1036B8000121E3E738B503780D4643B1044658B213
:1036C8002946FFF7DBFF14F8013F002BF7D138BD7F
:1036D8000121EFE708B54FF08040FFF78BFF014667
:1036E8004FF0804000F002F8002008BD00226FF083
:1036F8007C0C0271032380F80CC010B40270C1F373
:1037080007240271C9B2072203730374027280F896
:103718000CC001700471037310BC7047002210B410
:103728006FF07C0402710323047302700271072294
:103738000373C1F3072C0374C9B202726FF07F02DE
:103748000273017080F804C0037310BC704700BF97
:10375800037D13F0200FFBD0C9B20170704700BF82
:10376800037D13F0010FFBD0007840B2704700BF13
:10377800007D00F00100704730B543461C6885B0F5
:10378800E2681C481C4904F095FBA26819481B49CB
:1037980004F090FB22691748194904F08BFB0022BA
:1037A8001448184904F086FB62691248164904F067
:1037B80081FB01ADA2690F48144904F07BFB144951
:1037C8002846FCF7F7FD284603F0CEFB114A2946A8
:1037D800002818BF0246104804F06CFB211D0F4852
:1037E80004F068FB21680E4804F064FB002005B073
:1037F80030BD00BF583C0100683C0100743C01002A
:103808007C3C0100883C0100943C0100A03C010084
:10381800CC330100A83C0100B43C0100C03C0100CD
:10382800D43C010008B5034608461146984708BD30
:10383800012A70B5144619DD5868102200211D1D93
:1038480008F052FD064601460B4804F033FB611EA2
:103858002A463046FFF7E6FF04460146003C18BFFB
:103868000124064804F026FB204670BD012404F01C
:1038780039F8204670BD00BF103D0100383D0100F9
:10388800704700BF021E18BF012280280CBF00220B
:1038980002F0010210B552B91C6E0648214604F028
:1038A80009FB0F2005F0B2FF43461868A047012026
:1038B80010BD00BFF83D01002DE9F04EB0F1000C3D
:1038C80018BF4FF0010C84B080280CBF00200CF00A
:1038D80001000C461546009300287ED193F822304B
:1038E800009A042B166800F0848000260196022CAA
:1038F80077DDA868FCF758FE0326A4F1030A471CE5
:10390800B4420AF0010A1ADDBAF1000F07D0E868DC
:10391800FCF74AFE0426C1194F1CB4420FDD55F8C6
:103928002600FCF741FE0136C31955F826005F1C36
:10393800FCF73AFE0136C7190137B442EFDC3846C6
:1039480004F0DAFC14F0010F4FF002094FF0000AFE
:103958004FF0200B064620D1A968FCF72BFD4FF04D
:103968000309A868FCF720FE4C4527DD06F800B0DF
:1039780000F1010A043510E006F80AB0B968FCF74E
:1039880019FDB868FCF710FE00EB050C09F10109F8
:1039980006F80CB00CF1010A3D1DA96806EB0A00F7
:1039A800FCF708FDA868FCF7FFFD82442F1D09F10C
:1039B80001090AF1010570194C45DDDC0098046E17
:1039C8001248214604F076FA0F2005F01FFF424600
:1039D8001068019933460E4AA047012004B0BDE89B
:1039E800F08E0C4803F0C0FA094E002818BF0646AE
:1039F800E4E70121304603AA02AB05F0B5FB0299C2
:103A080000293FF472AF019671E700BF403E010004
:103A1800EC510100343E010084B02DE9F04E82B033
:103A28000DF1280C8CE80F009DF83D109DF83CB076
:103A38000D9B064608460193109DDDF844A00E9C98
:103A48000B9FDDF8309005F007FBBBF1000F26D186
:103A5800A64201465DD0394804F02CFAA14506D0AB
:103A680049462046019A4FF4803305F00FFC019B2C
:103A78003348E2182A6004F005FA314804F002FAE3
:103A8800304821462A6804F015FABAF1000F2ED002
:103A9800072005F0BBFEA7422BD8002008E0BBF1A9
:103AA800010F0AD02848594604F004FA6FF00200C2
:103AB80002B0BDE8F04E04B070470146234804F058
:103AC800F9F920464A464FF4000101AB08F05CFBC7
:103AD80018BB019960182860194804F0D3F91948EF
:103AE80021462A6804F0E6F9BAF1000FD0D1A742BE
:103AF800D3D92A68B242D0D931463A46144804F09C
:103B0800D9F9144821462A6804F0D4F96FF0010065
:103B1800CEE7114804F0CEF9A9E7104804F0B2F94D
:103B2800BAF1000F02D14FF0FF30C1E76FF0050086
:103B380005F06CFE4FF0FF30BAE700BF9C3E010075
:103B4800B03E0100483F0100243F0100B43E01009F
:103B5800743F0100A43F01008C3E0100D03E0100EB
:103B68002DE9F04EAD4C002182B0174681468C22DB
:103B780020469A46FCF71AFEA94805F09BFB012F40
:103B8800C4F8840040F3E6800021DAF8040010222B
:103B980008F0AAFB05460146A24804F08BF901206B
:103BA80005F034FE284605F087FA4FF0000B06466C
:103BB800C4F854B0C4F850B0054605F0BFFA01285F
:103BC80018D0D9F80010984804F074F96FF06B0019
:103BD80005F01CFE5D46626D904E002A54D02846C2
:103BE80005F0ACFA0128834653D0904804F04AF90E
:103BF800012097E08E48314604F05CF9336841F6BD
:103C08005612190641EA136103F47F4041EA002C79
:103C180003F47F0B4CEA1B20C2F205727F499042E5
:103C2800D1F884B040F0B180022005F0EFFD3046B5
:103C380005F05CFB002800F0DF80032005F0E6FDBE
:103C4800304605F09BFBBBF1000F0BD0794804F020
:103C580019F9304605F06CFB002800F0D68076484C
:103C680004F010F9042005F0D1FD717F02295CD021
:103C7800724804F01FF96FF0030005F0C7FD002536
:103C8800626D664E002AAAD16D4804F0FBF8012047
:103C980048E0A97F86F85D10E87F86F85C00287FF9
:103CA80086F85E00EA682B694FEA026949EA126EF3
:103CB80002F47F4C4EEA0C2902F47F024FEA036CAF
:103CC8004CEA136E49EA122203F47F494EEA092CA2
:103CD80003F47F0E4CEA1E234032B365736C52190D
:103CE800F264002B00F08380B369022914BF00221C
:103CF80001224FEA036949EA136E03F47F494EEA49
:103D0800092C03F47F0E4CEA1E23042914BF114624
:103D180042F001013366002923D10120C4F888004C
:103D2800A564002002B0BDE8F08E052005F06EFD08
:103D3800B37F022B4AD0042B30D0012B46D0D9F8C0
:103D48000010404804F0B6F86FF0040005F05EFD7E
:103D5800002540E73C4B3D481D68294604F0AAF879
:103D68001DE70528D9D13846324606F16407514681
:103D7800683602230097019605F042FC0028CCD053
:103D8800334804F07FF85846CCE7324804F07AF814
:103D98004FF0FF3005F03AFD002571E72E4A304616
:103DA8000021131D05F0E0F9314640222B48FCF7AD
:103DB800B9FD062026600126666405F027FD626DC0
:103DC8002748216D134604F075F804E7F36806F1F7
:103DD8004002190641EA136103F47F4041EA002CCE
:103DE80003F47F0E4CEA1E2322656365DCE71D4859
:103DF80004F048F8584695E71B4804F043F86FF07C
:103E0800010005F003FD00253AE7184804F052F8D0
:103E18006FF0020005F0FAFC002531E7C429002004
:103E2800D03F01000C400100384101007C410100F5
:103E38003840010098400100B03E0100C440010034
:103E48005C410100E440010054000020D83F01001B
:103E5800C44101006C400100142A0020C829002038
:103E680008410100A041010080400100B440010068
:103E78002DE9F044044686B058680D461746404977
:103E880006221E4603F03AFD331D002832D0D0F832
:103E98000CA0BAF1010F6BD03A4DD5F888309A458D
:103EA80025DD4AEA030095F85E20374BBAF1200F6A
:103EB800C5F8880053F8224024D007DCBAF1020F75
:103EC8002CD0BAF1100F47D0002417E0BAF1400FF8
:103ED80036D0BAF1800FF7D1FDF740F9FFF7D0FCE3
:103EE8005046394632462B46A047002406E027486C
:103EF80003F0E0FF204603F0F5FC0124204606B05D
:103F0800BDE8F0845046394632462B46A047044661
:103F18000028F3D01E4803F0CDFFEFE705F1480C69
:103F2800EE46583595E803008EE8030005AC9CE89A
:103F38000F00029400240394FFF76EFD0446DDE7AA
:103F48005046394632462B46A04704460028D5D06D
:103F5800104803F0AFFFD1E75046394632462B46AA
:103F6800A04704460028C9D00B4803F0A3FFC5E7C3
:103F7800204629467A1EFFF7F3FD0446BEE700BF38
:103F880058000020C4290020AC3D0100EC4101008C
:103F98003C4201005C420100184201002DE9F04E4C
:103FA800144690B00022012C0F9207468A461D46FF
:103FB80012DD58680EA9102208F096F90E9B93F9A5
:103FC8000030181E18BF01203A2B0CBF002000F04B
:103FD800010008B1232B77D13846514622462B469B
:103FE800FFF7BEFDF8B1764803F04CFF754802F0C4
:103FF800BBFF75490446FCF751FA002853D17349B1
:10400800734803F0D1F973496E4803F0CDF904F011
:10401800CDFE00200146024603460DF05DF8012062
:1040280010B0BDE8F08EFDF799F8DFF8AC916A465C
:1040380009F15803834693E8030082E8030009F175
:10404800480C0FAE9CE80F00029601260396FFF776
:10405800E3FC002871DB99F85D005F4B01284BD029
:104068000820059305F0D2FB059B5C4A93F85E0097
:1040780052F82060002E2ED00593FFF701FC059B17
:1040880021462A460020B0476FF0080005F0BEFB25
:10409800534803F0F7FE3846514622462B460DF0AA
:1040A8001BF80120BCE720464A49FCF7F7F900282D
:1040B800AFD14649464803F077F94349414803F0F0
:1040C80073F904F073FEA4E73846514622462B469E
:1040D800FFF7CEFEA4E7BBF1000F42D104F090FF3A
:1040E80099F85E2001463F4803F0E4FE6FF00700B0
:1040F80005F08CFB012093E7BBF1000F01D0FDF721
:104108002BF8394802F030FF28B13849FCF7C6F9D6
:104118000646002838D0D9F86020601E130643EA06
:10412800126E02F47F414EEA012302F47F0243EA51
:10413800122C291DE047002072E7B0F1FF3F37D06D
:1041480010F1020F13D010F1030F84D1BBF1000F4F
:1041580001D0FDF701F86FF0060005F057FB0120CC
:104168005EE7FCF7F9FF059991F85E00B6E7D9F824
:104178004410B1B199F822E0BEF1040F7FF46BAF9F
:104188001B4803F07FFE66E706ACD9F854201949AE
:10419800204609F085F92146174803F005F930460D
:1041A8003EE7164803F06EFE6FF0700005F02EFB38
:1041B8003846514622462B460CF08EFF4BE700BF8F
:1041C8007C420100BC420100C4420100D44201000B
:1041D800343E010018430100C4290020AC3D010011
:1041E800E4430100B4430100A8430100C4330100C3
:1041F800244301008C360100903601006043010021
:1042080030B50D4C0D4D8646281B801000EB40053F
:1042180005EB051C0CEB0C2583B08C4605EB05451E
:104228000092019300EB850172462046634603F035
:10423800FFFB03B030BD00BF3C920100BC940100FD
:1042480048F20001C4F20301D1F898202D4BC2F3C3
:10425800422CBCF1070F10B4D1F89010186027D188
:104268000124C1F30241B0FBF4F407295C6029D1B1
:104278000124C2F38201B0FBF4F407299C602BD11E
:104288000124C2F34211B0FBF4F40729DC602DD1FC
:104298000121C2F34232B0FBF1F1072A19612FD094
:1042A800194951F82220B0FBF2F0586110BC704750
:1042B800154CC1F3024154F82C400729B0FBF4F423
:1042C8005C60D5D0104C54F82140C2F38201B0FB99
:1042D800F4F407299C60D3D00B4C54F82140C2F366
:1042E8004211B0FBF4F40729DC60D1D0064CC2F3CC
:1042F800423254F82110072AB0FBF1F11961CFD1ED
:104308000122D0E7502A00209C440100704700BFDA
:104318002DE9F04E46F20006C4F2010688B0316875
:104328006C4803F0C7FD48F20002C4F20302916C26
:10433800694803F0BFFD4EF20403CEF200031D6886
:104348004EF2001205F01F00411C49014FEA511CB2
:1043580001232024CEF200026FF070400CF1FF3EE2
:10436800634542F824000EEA030412D034B1022354
:104378004FF02109634542F829000AD003F12009CA
:1043880003F121070233634542F8290042F8270068
:10439800F4D14EF200148E0801204FF0000ECEF238
:1043A8000004B04284F800E3754621D001254DB1E0
:1043B8004EF201130220CEF20003B04283F800E36C
:1043C800754615D04EF20014CEF2000400F1010C2F
:1043D80002190CEB04050CF101004EF2001482F8EE
:1043E80000E385F800E30025B042CEF20004E9D1ED
:1043F800D4F880204EF2004694F80073CEF20006FE
:10440800009701964EF280134EF600564EF20407BE
:10441800CEF20006CEF20007CEF200032F4803F0DA
:1044280049FD31682E4872683B680197009703F090
:1044380041FD2C4F46F20003C4F201034FF4002162
:10444800C4F880109D60C4F880113D763D84BD623B
:104458007D8687F8345018684EF2802C40F01002A0
:104468001A6018684EF2002E20F020021A60986830
:104478004EF2801220F0010098609868CEF2000C8D
:1044880040F0020098602160D4F88010D4F88031A0
:10449800D4F800A0D4F80091D6F804B07669CEF22A
:1044A800000ECEF200021048CDF800C0CDF804A0EE
:1044B8000294CDF80C90CDF810E0CDF814B0FD6161
:1044C8007D62FD623D86069603F0F4FC08B0BDE807
:1044D800F08E00BFBC440100E04401000845010023
:1044E80048450100502A00208845010070B55B4E00
:1044F80082B0054601221523594886F835208DF8E3
:10450800043086F836508DF805504EF2001403F04A
:10451800D1FC46F20003CEF200044FF40021C4F2AD
:1045280001030020C4F880109860C4F8801196F840
:10453800352082B1B6F832E086F835001FFA8EFCD5
:10454800A6F832C019681A4641F0010018601468CC
:1045580014F0010FFBD102AA12F804CD00234FF08A
:10456800020046F2000186F818C0C4F20101308446
:10457800B3627386307E0C68F2613A4A24F0040410
:1045880073624FF00303F2620C6033864A6846F2A6
:10459800000302F001040094009AC4F20103002A07
:1045A800F4D09861196821F004021A605C6804F07C
:1045B800010000900099002943D09DF805204FF094
:1045C800000E1A615C6804F001000090009B05234E
:1045D800A6F820E086F8343046F20003C4F201035E
:1045E8009A684EF2001042F00304CEF200004FF435
:1045F80000219C600160B6F832C0184CBCF1020F73
:10460800F9D1B4F832E018481FFA8EF294F839104C
:1046180094F8383003F04EFC4DB1012D0CD0022D2A
:1046280003D194F8393084F83E3002B070BD94F864
:10463800390084F83C00F8E794F8391084F83D1004
:10464800F3E7318C0DF10502481E1FFA80FC0124A6
:10465800A6F820C0F26186F83440BDE7502A002051
:10466800F0450100882A00201046010010B51B48BB
:1046780048F20004C4F2030403F01CFC184803F0D9
:1046880019FCA16B174803F015FCA16F164803F03D
:1046980011FCD4F8F010154803F00CFCD4F8F41011
:1046A800134803F007FCD4F80C11124803F002FC7D
:1046B800D4F81011104803F0FDFBD4F890110F48FE
:1046C80003F0F8FB4EF20013CEF200034FF0005255
:1046D800C3F88021C3F8802010BD00BF58460100F0
:1046E8007846010090460100B0460100D846010016
:1046F80000470100284701005047010078470100A2
:1047080070B5E02886B003D0E1282FD006B070BD80
:1047180048F2000142F210730593C4F20301D1F884
:104728009800059C621E10F4805F059202D1059DD9
:10473800002DF4D11A4848F20006C4F20306D6F850
:1047480098104FF28004D6F89C200669059DC3682E
:10475800C0F2FA24134800960194029503F0AAFBCC
:10476800114806B0BDE8704003F0A4BB0C4C48F2F9
:104778000003C4F20303D3F898102569D3F89C20EA
:10478800E3684FF28004C0F2FA24084800950194C7
:1047980003F090FB064806B0BDE8704003F08ABB02
:1047A800502A002098470100DC470100FC4701001F
:1047B8003848010046F20003C4F201032DE9F04E27
:1047C8005C689A68E4B2144014F0020F86B01FD1F6
:1047D80014F0010F02D106B0BDE8F08E914C94F8A8
:1047E8003420022A00F0A380052A24D0012A00F0F0
:1047F800EA8046F20003C4F201039A68002022F01E
:104808000101996084F83500608684F83400E2E795
:10481800844A186992F8343085B2E8B205F4004544
:10482800052B00F26781DFE813F06C015F015F017F
:10483800C6018A01BA01A36A002B31D1276C636CC7
:10484800A56C07F58066EA1896429CBF4FF480660F
:10485800039601D9D01B03909742C0F0DE81724ABB
:10486800002103910292029E94F8361094F8502089
:104878006662FF1A6D48039B0097019503F01AFBC7
:104888000399A162A36A5BB946F20003C4F201036B
:104898009868644A20F001010320996082F8340086
:1048A800A26A604B002A00F0AC8146F20002C4F212
:1048B80001029D6A1068596A20F004031360536866
:1048C80003F001000590059B002B00F0D381002D1B
:1048D80000F0D0810B78136150686B1E00F0010660
:1048E8000596059803F001060123D0B1012D18D9CA
:1048F80026B1487802230CE09D4212D9C85C0133E6
:104908001061506800F001000590059848B1C85C36
:1049180001331061506800F00100059005980028E7
:10492800EAD1A26AC918D31A6162A36253E7A36ADB
:10493800002B00F0BF8046F20001C4F20101A56A15
:104948000B68606A23F004030B604B6803F00103F3
:104958000593059B002B00F09181002D00F08E81BE
:1049680003780B614E686B1E06F001070597059EDC
:1049780003F001070123DEB1012D19D92FB14678C3
:1049880013460E610DE09D4212D9C25C01330A61E3
:104998004A6802F001020592059A4AB1C25C0133E5
:1049A8000A614A6802F001020592059A002AEAD1D2
:1049B800A16A1C4A994240F21881916AC018CB1A20
:1049C8005062936207E7B4F820C01FFA8CF3002BFB
:1049D80056D046F20001C4F20101258C0B68ADB235
:1049E80023F0040008604B68E06903F001030593B5
:1049F800059B002B00F04081002D00F03D810378DD
:104A08000B614E686B1E06F001070597059E03F0C3
:104A1800010713460EB3012D1FD95FB14278022357
:104A280013E000BF502A0020A02A002054480100AB
:104A38009D4212D9C25C01330A614A6802F0010240
:104A48000592059A4AB1C25C01330A614A6802F0CC
:104A580001020592059A002AEAD1B4F820C0914AC9
:104A68001FFA8CF1994200F2FE804FF0000616847E
:104A7800906A002800F0C180022382F83430AAE648
:104A880094F83520002A3FF4A6AE628E46F2000163
:104A98001FFA82FC84F83530C4F20101A4F832C050
:104AA8000B680A4643F001000860116811F0010F15
:104AB800FBD190E694F83520002A3FF48CAE628E44
:104AC80046F200011FFA82FC84F83530C4F2010175
:104AD800A4F832C008680A4640F001030B60116868
:104AE80011F0010FFBD176E6002D3FF471AEFFF710
:104AF80007FE6DE6002082F83500508682F8340003
:104B080066E6002D3FF464AEF128F0D14FF00001C5
:104B18005186508ED36A80B26FF00E0C03F800C035
:104B2800508E01301FFA80FCA2F832C0508E1FFA56
:104B380080FC03F80C10042182F8341048E6002D9C
:104B4800D5D1B2F832C0D16A1FFA8CF3CE1816F854
:104B5800013C544EF12B00F09380B6F832C0338EEE
:104B68001FFA8CFC9C4509D2B6F832C01FFA8CFC9F
:104B780001F80C00718E481C81B27186518E494A29
:104B880088B283427FF424AE508E00231FFA80FC43
:104B980082F83530A2F832C082F8343018E6002D99
:104BA800A5D1D36A4FF00201587082F8355051866A
:104BB80082F834500CE6002D3FF40AAE127E394BD1
:104BC800904294D14FF0000159865A8ED96A1FFA43
:104BD80082FC01F80C005A8E0421501C1FFA80FC3C
:104BE800A3F832C083F83410F2E546F20003C4F2A9
:104BF8000103996821F001009860032082F83400CD
:104C0800E9E546F20002C4F20102916821F00100D0
:104C18000321906083F83410DDE5D4F84CA0224DD0
:104C2800BE4602955746DDF80C904FF0000BF24651
:104C380001E0AA44AB4402984FF6FA75A94538BF7B
:104C48004D4600EB0B035146FE6838462A46B047EE
:104C580010B9B9EB0509ECD1276C039A636CD71925
:104C6800A56C2764FFE5118CC018CB1A9BB2D061E4
:104C78001384B0E5002354E60023EEE6002397E60C
:104C8800B6F832C01FFA8CF3C854B6F832E01FFAEF
:104C98008EF00A1812F8010CFFF732FD86F834502E
:104CA80096E500BF502A0020A02A002070B51A4DB2
:104CB80082B0E96C06460A68184803F0FBF8402001
:104CC80003F01AFB0446002821D0EB6C3146184645
:104CD800DD6840222346A847A0B92146104803F0C2
:104CE800E9F804250F4803F0E5F82A462146102381
:104CF8002046009507F08EF8204603F031FA01208F
:104D080002B070BD084803F0D5F80020F8E707485E
:104D180003F0D0F80120F3E7502A0020844801006E
:104D2800EC480100A4600100D4480100B448010027
:104D380070B51C4D0446E86C82B008B10CF0F4F96B
:104D48004EF20012CEF20002042148F20003C2F82B
:104D58008010C4F203039E6C002046F400769E6423
:104D6800C2F88011996C224621F4007199640146B9
:104D780003230CF0B5FA044658B14268806800264F
:104D8800810A33460848EC64009603F093F802B0B1
:104D980070BD01460548224602B0BDE8704003F0E8
:104DA80089B800BF502A0020384901000C49010089
:104DB8002D4830B5056848F20004C4F20304E560E4
:104DC800416883B0C4F89810826842F21073C4F83E
:104DD8009C2021460193D1F89830019C621E13F45F
:104DE800805F019202D0019D002DF4D1426848F203
:104DF80000051E4CC4F2030546F60000C5F89820CD
:104E0800C0F68910FFF71CFA21694BF2C53C01F581
:104E18006123C9F2A21CACFB0310010D4FF08040C6
:104E2800FEF764FC00202168FCF78AF8012061681D
:104E3800FCF786F80220A168FCF782F80320E168F5
:104E4800FCF77EF804202169FCF77AF861690520EF
:104E5800FCF776F8D5F898100548D5F89C2003B0EB
:104E6800BDE8304003F026B8D0000020502A0020CA
:104E7800644901002DE9F0444A4888B003F01AF863
:104E8800494848F200010568C4F2030145F4FF549B
:104E9800CC60D1F89C200022C1F89C20D1F89C302D
:104EA80043F40077C1F89C70D1F89C6042F210730B
:104EB80046F48065C1F89C50D1F89C4044F0020249
:104EC800C1F89C200693069F7E1E06960699002927
:104ED800F9D148F2000142F210730793C4F20301BA
:104EE800D1F89840079D6A1E14F4805F079202D19A
:104EF800079E002EF4D14FF0000A48F2000780F810
:104F08000CA0C4F20307D7F898504FF2800425F498
:104F18006E6E2EF01C02254EC0F2FA24C7F89820B7
:104F28002046FFF78DF931694BF2C53C01F5612345
:104F3800C9F2A21CACFB0310050D29464FF08040B6
:104F4800FEF7D4FB50463168FBF7FAFF0120716881
:104F5800FBF7F6FF0220B168FBF7F2FF0320F168C8
:104F6800FBF7EEFF04203169FBF7EAFF71690520C2
:104F7800FBF7E6FF0320D6F80CA0FBF7D7FFD7F81E
:104F88009810D7F89C20079F069E00905346084823
:104F9800019502940397049602F08CFF08B0BDE8CF
:104FA800F08400BF80490100D0000020502A002072
:104FB80094490100F0B4294B4EF2001546F2000462
:104FC8000026C4F20104CEF200054FF40027C5F80C
:104FD8008070A660C5F8807118761E849E625E8611
:104FE800187E2568DA6225F004054FF0060282B0C3
:104FF8002560DE615E621A86656846F2000205F089
:1050080001050095009DC4F20102002DF4D09061C5
:105018001068144640F004001060606846F2000210
:1050280000F0010001900198C4F201020028F4D0B8
:105038005161106820F004010320116083F83400E6
:1050480091684EF2001341F00200CEF200034FF4D3
:1050580000219060196002B0F0BC7047502A00200F
:105068002DE9F04E012A9AB0054640F3F6805E68B5
:1050780062B648F20003C4F20303DC68AC4FAD48E3
:105088003C60D3F89820AC4C7A60D3F89C10B96097
:10509800396802F00FFF7968A84802F00BFFA848AA
:1050A800B96802F007FF4FF0FF33A64884F83E3096
:1050B80084F83C3084F83D3001F056FF002800F0B9
:1050C800D68000210A2207F00FF9A0649E4801F05B
:1050D8004BFF002800F0D98000210A2207F004F9CC
:1050E800606430469949FBF7D9F90746002840F033
:1050F8008B8014AEFFF70CF9331D43F8047B18AD11
:1051080043F8047B012031462A461F601497FFF7B5
:1051180051FFB4F83290B9F1060FFAD1864AB2F8C5
:1051280032A09DF86020BAF1060F00F0D080C821A7
:10513800B4F832B086481FFA8BF302F0BBFE9DF834
:1051480057009DF85810059006919DF859009DF854
:105158005A10079008919DF85B009DF85C10099023
:105168000A919DF85D009DF85E109DF852E09DF84B
:1051780053709DF854A09DF855909DF856B09DF831
:105188005FC09DF850200B900C91724831469DF8F5
:105198005130CDF800E00197CDF808A0CDF80C907B
:1051A800CDF810B0CDF834C002F084FE32460026A7
:1051B8000520294684F850648DF860608DF8616098
:1051C800FFF7F8FE638E5C4E062BFBD1728E062A23
:1051D8009DF8502060D0B4F832C05F481FFA8CF3B5
:1051E800C82102F067FE29465C489DF860209DF8BA
:1051F800613002F05FFE4FF0FF3184F8541472B64C
:1052080001201AB0BDE8F08E30465549FBF746F943
:1052180040B330465349FBF741F900285DD1FFF709
:1052280077F844F64030C0F24C00FFF781FD606C1F
:10523800FFF73CFD4C4802F03DFEFFF71BFE4A48D5
:1052480002F038FEFFF764F8606CFFF72FFD464860
:1052580002F030FEFFF7ACFDD1E772B6284602F047
:1052680041FBCDE7FFF754F8FFF704FEC7E73F48D7
:1052780002F020FE4EF6D000C0F22400A0643248AE
:1052880001F072FE00287FF427AF39484FF48207F7
:1052980002F010FE676424E7052A9CD19DF851703E
:1052A800B6F832C02C481FFA8CF3394602F002FED9
:1052B80029462A489DF860209DF8613002F0FAFDE1
:1052C800002F98D19DF860E086F854E497E7012A0A
:1052D8000CBF9DF86110C8212AE730462549FBF725
:1052E800DDF8002848D14FF28000C0F2FA20FFF71D
:1052F8001FFD606CFFF7DAFC606C4030FFF7D6FCEE
:10530800606C8030FFF7D2FC606CC030FFF7CEFCD9
:10531800626C02F58070FFF7C9FC636C03F5A0703E
:10532800FFF7C4FC606C00F5C070FFF7BFFC66E7D0
:10533800D0000020F0490100502A0020084A01004E
:10534800284A0100484A01007C4A0100343701001C
:10535800B04A0100004B0100784B0100CC4B010022
:10536800904E0100BC4E0100004C0100584A01005B
:105378008C4A0100783C010030467C49FBF78EF8E6
:10538800074618BBFEF7C4FF44F64030C0F24C0095
:10539800FFF7CEFC656C38462564FFF7A7F894F84C
:1053A8003C2094F83D3094F83E500FAC20467049AC
:1053B800009508F075F821466E4801F0F5FF6E4932
:1053C8006E4801F0F1FF03F0F1FC18E730466C4934
:1053D800FBF764F878B9FEF79BFFFFF74BFD4FF238
:1053E8008000C0F2FA20FFF7A3FC616C0120216461
:1053F800FFF77CF803E730466249FBF74FF878B9C6
:10540800FEF786FFFFF736FD4FF28000C0F2FA2064
:10541800FFF78EFC636C02202364FFF767F8EEE663
:1054280030465949FBF73AF8E0B9FEF771FF44F600
:105438004030C0F24C00FFF77BFCFFF71BFD626CAD
:1054480001202264FFF752F894F839004F4D0028E4
:1054580039D0FFF7ADFC95F83C2095F83D3095F82C
:105468003E50A2E730464A49FBF718F8074600289D
:1054780049D1FEF74DFF44F64030C0F24C00FFF72B
:1054880057FC656C38462564FFF730F894F83C20E3
:105498003AB394F83D3094F83E500FAC3449204666
:1054A800009507F0FDFF2146324801F07DFF3249A3
:1054B800324801F079FF72B6304801F055FD0021FD
:1054C80004F0F8F99CE6696C02202964FFF70EF8ED
:1054D800FFF76EFC94F83C2094F83D3094F83E5069
:1054E80063E7FFF7C7FC626C01202264FEF7FEFF4A
:1054F80094F83930254C002BEAD1616C02202164E4
:10550800FEF7F4FFE4E730462249FAF7C7FF10B97F
:10551800FFF74EFC73E630461F49FAF7BFFF002835
:10552800C9D030461D49FAF7B9FF60B948F20003FF
:10553800C4F203031A6E22F00100186605F0EAFEB1
:1055480005F06CFF5BE630461549FAF7A7FF10B97E
:1055580006F0CAF853E630461249FAF79FFF0028CA
:105568007FF47BAE05F05AFF49E600BFAC5E010050
:105578000C4C01002C4C0100C4420100BC4201004B
:10558800885401003C4C0100404C0100502A002086
:10559800E05A0100DC3301003C550100D033010022
:1055A800444C0100544C0100C3B203F06002402A8D
:1055B80006D003F07F033F2B08BF40F04000704740
:1055C80020F04000704700BF037863B1002259B251
:1055D80010F8013F5218002BF9D1C2F3811082183C
:1055E80002F03F0070471846704700BF024B002189
:1055F8009A6819605A607047A82E0020034B1A68F1
:105608001AB9596801F8010B59607047A82E002093
:105618000348002208B5C2600369984708BD00BF67
:10562800A82E0020034BD8681A6859685861D961B8
:105638009A617047A82E0020034B58699A69D96966
:10564800D86059601A607047A82E002010B5114C18
:105658000346E2689AB1C1B201F060004028226AAC
:1056680008BF23F0400305D001F07F013F2908BFA0
:1056780043F04003184690470023E36010BD94F9B7
:1056880024C0844502D0216A884710BD0122E26007
:1056980010BD00BFA82E002070B5124DAC6A002CBA
:1056A8001CDD013C95F92C0004F0010602F0C6FC53
:1056B800002C14DD36B1013C95F92C0002F0BEFC3B
:1056C800002C0DDD013C95F92C0002F0B7FC013CE3
:1056D80095F92C0002F0B2FC002CF3DC70BD70BD13
:1056E80070BD00BFA82E002010B50446FFF7D4FFF8
:1056F800237833B158B202F0A1FC14F8013F002B13
:10570800F8D110BD6C4B00211A6B30B499620D248E
:1057180003F1470583F82C10674983F82D402324AB
:10572800AA4208BF03F1460201F1340C08BF1A630C
:10573800CCEB0202002A83F8244066DD4FF07E0C91
:10574800013A81F84CC000F09C802125013A81F88B
:105758004D5000F08F8091F93640203C04F0FF0551
:10576800013A4FF020048D6281F84E4000F08D80A0
:1057780091F837105FFA81FC0CF06005402D08BFE6
:105788000CF0BF0106D00CF07F0CBCF13F0F08BF36
:1057980041F0400183F82C104021013A83F84F1062
:1057A800454C79D094F838102D252039C9B2013AE2
:1057B80084F8505084F82D1060D094F839504FF088
:1057C800230C013A84F8245084F851C06BD04FF070
:1057D8004E0C013A84F852C068D03125013A84F859
:1057E800535066D0012A84F854C059D07E2222250D
:1057F8004FF0200C84F8555084F8582084F856C08F
:1058080084F857201125302402E00D210425232493
:1058180000F1200C83F84940EA1883F84AC00020B8
:1058280001244FF0590C83F8484083F84BC082F8A4
:10583800480093F84920002A2BD0204C4FFA82FCCC
:1058480014F8012F6044002AF8D1C0F3811C0CEB36
:10585800000202F03F0000F1200C681CC218EB188F
:10586800174883F848C0002382F8493082F8481066
:1058780030BC39E70D2106252524C9E70925282448
:10588800C6E70D2105252424C2E70D210725262476
:10589800BEE74FF0200CE0E70D2108252724B7E7E5
:1058A8000D252C24B4E70A252924B1E70B252A2441
:1058B800AEE70C252B24ABE7A82E0020F12E002004
:1058C800F02E0020154A2030232300214FF0010C30
:1058D80082F84A004E2082F84B0082F848C082F8CD
:1058E800493082F84C1002F149004FFA83FC10F855
:1058F800013F6144002BF8D1C1F3811000EB010C8A
:105908000CF03F0000F1200C92F82D10044882F8AA
:105918004E3082F84CC082F84D10E5E6A82E0020E3
:10592800F02E0020154A2030232300214FF0010CCF
:1059380082F84A00592082F84B0082F848C082F861
:10594800493082F84C1002F149004FFA83FC10F8F4
:10595800013F6144002BF8D1C1F3811000EB010C29
:105968000CF03F0000F1200C92F82D10044882F84A
:105978004E3082F84CC082F84D10B5E6A82E0020B3
:10598800F02E00202DE9F044ADF5866D0DF5846A02
:105998000AF10C0A0223074651460DF58460CDF83A
:1059A800243405F0C9FB0546002833D104466E4669
:1059B80003E0ED18E418FAF767FF4FF480615246E8
:1059C800304605F0FBF9E119031E1A460846314630
:1059D800EFDC2C46504604F073FF0020134904F016
:1059E800BDFF384621460BF075FB0DF5806429464E
:1059F8002A460F4802F05EFA2A460E49204607F06A
:105A08004FFD21460C4801F0CFFC38460DF5866D58
:105A1800BDE8F084DDF82C0404F030FF00240146D2
:105A2800064802F047FA2546D4E700BF495A000065
:105A3800744C01009C4C0100903601007C6101000F
:105A480010B502F005FB10B94FF0FF3010BDBDE8EE
:105A5800104002F007BB00BF2DE9F04EAB488CB0F8
:105A680016461F4601F080FA002800F07A810021CE
:105A7800102206F039FC04464346012E9D6808DDD5
:105A880000211022786806F02FFC032E044600F04F
:105A98006B812E4638689E49FAF700FD07460028B4
:105AA80021D19C482146324602F004FA2046FFF7ED
:105AB80069FFAE4213D02946974802F0FBF94CF231
:105AC800503006F001FC43469D60FDF7B1FD4CF2F5
:105AD800503006F0F9FB02F0C5FA1B28FBD1384616
:105AE8000CB0BDE8F08E8D48214632468C4F02F04E
:105AF800E1F98C498C4A0D234FF0000A23203961C3
:105B08003A6287F82D3087F82400BC60C7F828A0CF
:105B180087F82CA0FFF77CFDF9683A687B68796103
:105B2800BA61FB614FF0FF3B07F13409029403951A
:105B3800C7F8309002F096FA012852D00328F9D11C
:105B4800029C039D00274FF0000A0FE04FF47A7083
:105B580006F0BAFB02F07CFAC0B90AF1010A4FF468
:105B68007A7006F0B1FBBAF1640F1AD00AF1010A93
:105B780002F06EFA0028E9D002F074FA4FF47A7055
:105B880006F0A2FB02F064FA0028E6D002F06AFAF6
:105B98000AF1010A4FF47A7006F096FBBAF1640F25
:105BA800E4D1204639460BF095FA0DF1100A5F480A
:105BB80039463A4602F07EF93A465D49504607F0C2
:105BC8006FFC51465B4801F0EFFBB4F1FF3F00F07A
:105BD800EC805948214602F06DF9584800270460C6
:105BE80067E702F03FFA44B214F0E00F00F0AB8030
:105BF80002F038FA45B215F0E00F00F0A480A5F1E4
:105C0800200A0AF0FF0ADA4500F01681F9683B68B5
:105C180078687961BB61F86102F024FA4FFA80FB79
:105C28001BF0E00F00F08E8005F0FF03A4F1200CBC
:105C380004F0FF020BF0FF059C180CF0FF0064193C
:105C4800851E002800F0BC80012D40F3FF8002F083
:105C580009FAC1B248B210F0E00F05F0010371D0A3
:105C680000F0FF02A418013DBBF1440F00F02A81A7
:105C7800BBF1530F00F01A81012D40F3E780ABB15F
:105C880002F0F0F9C1B248B210F0E00F5AD000F0BB
:105C9800FF03E418013DBBF1440F00F08E80BBF117
