:100000000000012075030000A1020000A102000011
:10001000A1020000A1020000A1020000A102000054
:10002000A1020000A1020000A1020000A102000044
:10003000A1020000A1020000A1020000A102000034
:10004000A1020000A1020000A1020000A102000024
:10005000A1020000A1020000A1020000A102000014
:10006000A1020000A1020000A1020000A102000004
:10007000A1020000A1020000A1020000A1020000F4
:10008000A1020000A1020000A10200005D550000D5
:10009000A1020000A1020000A1020000A1020000D4
:1000A000A1020000A1020000A1020000A1020000C4
:1000B000A1020000A1020000A1020000A1020000B4
:1000C000A1020000A1020000A1020000A1020000A4
:1002980062B6704772B67047684600F001F8FEE72C
:1002A80070B5044600F078FC0546224808F07EF850
:1002B8000F2D9DBF204B214853F82510A5F11001A3
:1002C80088BF1F4808F072F822681E481E4908F0C7
:1002D8006DF862681D491B4808F068F81C4808F06A
:1002E80065F8A26817481B4908F060F8E2681A49DF
:1002F800144808F05BF8164808F058F822691148C5
:10030800164908F053F8626915490E4808F04EF886
:100318000F4808F04BF8A2690A48124908F046F855
:10032800E2690848104908F041F80948BDE87040FA
:1003380008F03CB8403A0100E0390100546E010071
:10034800583A0100643A0100703A0100743A010019
:100358007C6D0100783A01007C3A0100803A010086
:10036800843A0100883A01008C3A010010B572B64F
:1003780009480A4A0A49121A00F086FA09480A493D
:100388000A1A002100F012FA084A094B1A60BDE85F
:10039800104000F057BE00BF000000208010002071
:1003A80010D8010080100020804D002000F00020AF
:1003B800801000200023CA5CC2540133002AFAD1FD
:1003C800704700BF002312F0010F10B404D00C785E
:1003D800013A047001237CB172B1CC5C03F1010CC9
:1003E800C454013A44B111F80C400CF1010300F86F
:1003F8000C40013A002CEFD110BC704790F9003046
:1004080010B463B1024612F9014F002CFBD100234E
:10041800CC5CD4540133002CFAD110BC704702468E
:10042800F5E700BF70B41346002A32D090F90020D7
:10043800002A30D0024612F9014F002CFBD10C786B
:1004480003F1FF3C0CF00106147014B34FF0010CDB
:100458009C4502EB0C051AD04EB111F80C4002F87D
:100468000C40B4B14FF0020C01359C450FD011F887
:100478000C600CF10104013502F80C60013504F13F
:10048800010C36B10E5D16551EB19C45EFD1002307
:100498002B7070BC70470246D1E700BF10B4002330
:1004A800C25CCC5C0133141BE4B224B9002AF7D136
:1004B800104610BC704760B2FBE700BF70B413462B
:1004C800AAB104780A78A21AD2B2002A30D174B13B
:1004D8005C1E14F0010F944627D045784A782346CD
:1004E800AA1AD2B2002A23D14FF0010CEDB900208C
:1004F80070BC704701EB0C0500EB0C046A7864785B
:100508000CF1010CA21AD2B200EB0C0601EB0C059F
:1005180072B9002CEBD074786A78013BA21AD2B277
:1005280032B90CF1010C002CE1D0013BE2D1DEE73D
:1005380050B2DDE7037849B25AB28A4208D033B1E3
:1005480010F8013F4FFA83FC8C45F8D17047002022
:10055800704700BF90F9002003462AB1024612F9FD
:10056800010F0028FBD1D21A981890F900C049B29F
:100578008C4502F0010215D00138834210D832B1FF
:1005880090F900208A420CD00138834208D890F9AB
:1005980000208A4205D010F901CD8C45F4D170476E
:1005A80000207047704700BF90F9003033B1034610
:1005B80013F9012F002AFBD1181A70471846704703
:1005C800D9B190F90020C2B14B1E13F0010F0246B9
:1005D8000CD1013243B192F90010013B21B112F95B
:1005E800011F013B0029F4D1101A7047024612F985
:1005F800011F013B0029ECD1F6E70020704700BF3E
:1006080070B403780246C3B10E78B6B176B2002052
:100618005BB29E4218BF0C4602D109E0634507D081
:10062800657801344FFA85FC002DF7D170BC70470E
:100638000130135C002BEBD1F8E70020F6E700BF90
:10064800F0B40378ABB10E78054677B2284666B1A8
:100658005BB29F420ED00A4601E063450AD0547847
:1006680001324FFA84FC002CF7D115F8013F002B1A
:10067800ECD10020F0BC70472DE9F004002844D0EC
:10068800274E0478002C45D00D78002D45D0002742
:100698004FFA85FA64B2A24518BF0A4602D124E08F
:1006A800A44522D0537801324FFA83FC002BF7D1AE
:1006B800C0190378002B2DD007464FFA85FA65B18B
:1006C8005BB29A4516D00A4601E09C4512D0547890
:1006D80001324FFA84FC002CF7D117F8013F002BA8
:1006E800EDD13360BDE8F00470470137C45D002CDC
:1006F800D0D1DDE73B46002FF3D097F90020002A40
:10070800EFD0002103F8011BEBE7054E3068002805
:10071800E8D0B6E700203060E4E72F46C8E700BF1E
:100728008410002003682DE9F004CBB11D78ADB129
:100738000F781E464FFA87FA67B16DB2AA4513D0F3
:100748000A4601E0AC450FD0547801324FFA84FCD8
:10075800002CF7D116F8015F002DEDD100220260C0
:100768001846BDE8F00470473246002EF7D0002145
:1007780002F8011B0260F3E7034608B91846704700
:10078800017879B140780028F8D01A4603E0D0788B
:1007980002320028F2D05170917810700029F6D1F9
:1007A800184670470B461846704700BF10F0030FF5
:1007B80030B404462AD101F0FF0343EA032C43EA8C
:1007C8000C25032A43EA052520D9A2F1040C0423A9
:1007D800BCF1030F0560CCF3800410D92CB1A2F151
:1007E80008040823032C456009D903F1040CC550FB
:1007F8000CF10403D41A032C40F80C50F5D8043A31
:1008080022F00304231DC41802F00302AAB1531EE8
:1008180003F001050123C9B29A4221700DD01DB120
:1008280002239A42617008D003F1010CE1540CF1E3
:1008380001039A4204F80C10F6D130BC704700BF8F
:10084800034610B41046E2B11C7802F1FF3C0122C5
:1008580082420C700CEA020413D034B193F801C040
:100868000222824281F801C00BD09C5C02F1010C8B
:100878008C5413F80C400CF10102824201F80C4030
:10088800F3D1084610BC704741EA000313F0030F88
:1008980030B404460D4628D1032A26D90C68A2F1A3
:1008A800040C0423BCF1030F0460CCF3800414D9B6
:1008B80034B14D68A2F108040823032C45600CD913
:1008C800CC5803F1040CC4500CF1040351F80C503B
:1008D800D41A032C40F80C50F2D8043A22F003053D
:1008E8002B1DCD1802F00302C418CAB12978531E73
:1008F800217003F0010101239A4211D021B16978D6
:1009080002239A4261700BD015F803C0591C04F8F1
:1009180003C015F801C04B1C9A4204F801C0F3D17A
:1009280030BC70478842F0B41FD8E2B10C7801237C
:1009380002F1FF3C934204700CEA030413D034B173
:1009480091F801C00223934280F801C00BD0CC5C1F
:1009580003F1010CC45411F80C400CF1010393424B
:1009680000F80C40F3D1F0BC7047002AFBD089187E
:1009780011F8013C8418551E04F8013C05F00106E5
:100988004FF0FF33002DEED03EB111F802CC022A11
:100998006FF0010304F802CCE5D0CD1815F8017CFE
:1009A80003F1FF3CE61806F8017C01EB0C0515F88D
:1009B800017C0CF1FF3304EB0C069D1806F8017C52
:1009C800002DEAD1CFE700BFF0B403469446002AD1
:1009D80030D005780A78AD1A29D10CF1FF3616F017
:1009E800010F2A4618D0447848780122201AB446C4
:1009F8001ED19C18881801329F188E180132BCF13C
:100A0800010C0CF1FF3C12D064784078201A0FD109
:100A18007C787078201A0BD19C18881801329F189E
:100A28008E180132BCF1010C0CF1FF3CECD12846C8
:100A3800F0BC70471046FBE71346CAB102788A42F9
:100A480019D05A1E12F0010F0DD010F801CF13461D
:100A58008C4508D1704790F800C08C4509D010F833
:100A6800012F8A4206D00130013B03F1FF33F2D156
:100A780070477047704770472DE9F00E91F90030C4
:100A880083B081463BB10B4613F9012F002AFBD1F5
:100A9800B3EB010A04D1484603B0BDE8F00E704735
:100AA80099F90030002B40D04B4613F9010F00286C
:100AB800FBD1C9EB030BD34535DB4846BAF1000F30
:100AC800EAD00B784FF0000C019319F80C30019A1A
:100AD8009A421FD10AF1FF34002314F0010F524645
:100AE8000AD046784D780123AE42224604D011E060
:100AF8007C787578AC420DD1C518CC180133C7186D
:100B0800CE180133013A02F1FF32C5D06D7864780E
:100B1800A542EDD00CF1010CCCEB0B00824502DCB8
:100B280009EB0C00D1E70020B6E79B46C3E700BFFE
:100B380012F0010FC9B205D090F800C0013A8C45F7
:100B48000DD00130531E4AB190F800C05A1E8C4592
:100B580005D010F8013F8B42F3D17047104670471B
:100B680010B5044600B910BD90F9003083B110F9F2
:100B7800011F0029FBD1001B013007F039FE014697
:100B880029B10023E25CCA540133002AFAD110BD0E
:100B98000120F2E7002070474EF60053CEF2000322
:100BA8005868C0B2704700BF4EF69053CEF20003AB
:100BB8009860D9601A6170474EF69053002814BFA8
:100BC80003200020CEF20003586070474EF6905381
:100BD80040F23F00CEF200030021C0F200300322B1
:100BE8009960D96018615A60704700BF08B500F075
:100BF800C5F900F07DF800F0FDF843461A6841F2A7
:100C08005E11D16000F0BCF9404603684FF0204205
:100C18001A61002008BD00BF012A2DE9F8461546D3
:100C28001C464BD00021102258680CF081F9022D87
:100C38000746D8BF284E2ADCDFF8B0904FF0000AEC
:100C48002648216807F0B2FB48F20003C4F2030308
:100C5800DD68314645F4FF52DA6038464A46534665
:100C68001F4EB04738B948F20000C4F20300C5600F
:100C78000020BDE8F88621681A4807F097FB48F27B
:100C88000000C4F20300C5600020BDE8F88600211A
:100C98001022A0680CF04CF9032D0646CCD0002198
:100CA8001022E0680CF044F9042D8146C6D0206972
:100CB800002110220CF0A2F98246C1E719680A48FF
:100CC80007F074FB48F200000025C4F20300C56079
:100CD8000020BDE8F88600BF00800020243B01000A
:100CE800A10E0020483B0100003B0100004000002D
:100CF80030B44EF210034FF6FE74CEF20003C0F289
:100D0800FF0406495C600020002400250122986049
:100D1800C1E900451A6030BC704700BF8810002048
:100D28004EF21000CEF200008268034B0020002132
:100D38009A60C3E90001704788100020012000F084
:100D48000DB900BF10B50446012000F007F94DF6B3
:100D5800836CC4F21B3CACFB00218B0C04FB03F43A
:100D68004EF21001CEF200018A6894420AD902F1CB
:100D78008073981E041B88688242FCD88B68A34243
:100D8800F9D810BD141B8868A04202D98B689A4212
:100D9800F9D210BD2DE9D04C154B4EF21004CEF20D
:100DA80000049F68A2680446BA4284BF07F18077AE
:100DB800023FBE1AD3E9000110EB060A41F1000B0D
:100DC8005F465646C3E900679A60012000F0C6F8FE
:100DD80044F6D351C1F26201A1FB00B20023504690
:100DE8003946920912F044F9001BBDE8D08C00BFC7
:100DF8008810002048F20003C4F2030310B4D3F8AB
:100E08009400194620F00402C3F89420D1F8504108
:100E180048F2000314F0010FC4F20303F6D0D3F82C
:100E28009400194620F00102C3F89420D1F85041EB
:100E380048F2000314F0020FC4F20303F6D0D3F80B
:100E48009840444A24F48051C3F89810D3F8981075
:100E580046F60000C1F3422CC0F68910BCF1070F1A
:100E68001060D3F890003BD146F6000C0124C0F680
:100E7800891CC0F30240BCFBF4F3072853603DD142
:100E880046F6000C0120C0F6891CBCFBF0F3C1F348
:100E98008200072893603FD146F6000C0120C0F677
:100EA800891CBCFBF0F3C1F342100728D36041D181
:100EB80046F6000C0120C0F6891CC1F34231BCFB88
:100EC800F0F30729136143D0234850F8211046F660
:100ED800000CC0F6891CBCFBF1F3536110BC7047D1
:100EE8001D4BC0F3024053F82C4046F6000CC0F6E8
:100EF800891CBCFBF4F307285360C1D0164B46F697
:100F0800000C53F82000C0F6891CBCFBF0F3C1F3B9
:100F1800820007289360BFD00F4B46F6000C53F8A9
:100F28002000C0F6891CBCFBF0F3C1F3421007286F
:100F3800D360BDD0084B46F6000C53F82000C0F62D
:100F4800891CC1F34231BCFBF0F307291361BBD103
:100F58000121BCE798100020A43B0100052803D814
:100F6800024B53F82000704700207047981000206B
:100F7800014B43F82010704798100020704700BFBD
:100F880048F20003C4F20303012098619A6C42F00E
:100F980080019964986C20F080029A64FFF716BE6D
:100FA800704700BF704700BF704700BF704700BF61
:100FB800704700BF704700BF704700BF704700BF51
:100FC800704700BF08B50748074907F0EFF9074A17
:100FD8000748084B11681B680268074807F0E6F9DC
:100FE800002008BD003C0100C03B0100801000202B
:100FF80080100020804D0020083C010070B590B0A2
:1010080040220B48694606F047F9444600286D46D9
:101018002668D8BF4FF4E13004DD684600210A2273
:101028000BF086FFA060A3680020336010B070BD8D
:10103800343C010008B5024807F0A0F9FEE700BFFC
:10104800403C010038B5424C2268A2F54058A8F14E
:101058002008002120224046FFF7A8FB4546A8F1BA
:101068001C002860286800211C22FFF79FFB4246CD
:10107800D2F804C0374B384D196820684CF0010C81
:10108800C2F804C02B68354A091A11601BB908E078
:1010980055F8043F23B198470028F9D0FFF7CAFF55
:1010A8002068A0F540504FF4405107F0E3FE08F0E7
:1010B800CBF82B4841460C6806F0D2F90BF0DAFE63
:1010C800606009F041FE08F011FA07F0C7F900F076
:1010D8005BF8244806F0C4F928B1002110220BF06F
:1010E80027FF214B1860214806F0BAF9014618B1CC
:1010F8001F48802200F086FC0BF080F90AF068FE99
:101108001C4807F03BF94046056800216A691A48FF
:1011180007F04CF941460B68184998690BF052FCE6
:10112800174807F02BF94446206800F037FB1548AC
:1011380007F03CF948F20000C4F20300026E22F006
:101148000105056609F0F6F909F0F4F9FAE700BFB8
:10115800801000208010002000000020B010002027
:101168006C3C0100743C01004C000020803C0100F4
:101178001C2A00208C3C0100A03C01007C6D010071
:10118800B43C0100BC3C0100704700BF0020704720
:1011980070B5A2B0044680222C4902A8FFF774FB60
:1011A800266BE56AE16BA26B636B29480096019593
:1011B800256C07F0FBF8A16A626A236A254807F0E4
:1011C800F5F82669E169A26963692348009607F082
:1011D800EDF82668E168A26863682048009607F081
:1011E800E5F815F0804F14BF5A227A2215F0005FF7
:1011F80014BF4323632305F0704C15F0805F14BFC0
:10120800562676261648BCF1000FB4BF4E216E2133
:10121800009607F0CBF8206C22AA00F01F01114CB1
:1012280002EB8103104A10F0800F14BF21461146CB
:1012380010F0400F18BF22460C4C53F8803C0C4865
:10124800009407F0B3F822B070BD00BFD83C01008D
:10125800583D0100A03D0100C43D0100F43D0100DE
:10126800243E0100383E0100343E0100DC5C0100F0
:101278003C3E010008B503480BF0E2FF0020024B9A
:10128800984708BD5C3E0100810E002010B5044659
:10129800044807F08BF82046FFF77AFFBDE81040B6
:1012A800E8E700BF703E010010B50446044807F0A7
:1012B8007DF82046FFF76CFFBDE81040DAE700BF75
:1012C800843E010010B50446044807F06FF8204634
:1012D800FFF75EFFBDE81040CCE700BF9C3E010071
:1012E80010B50446044807F061F82046FFF750FFA0
:1012F800BDE81040BEE700BFA83E010010B5044697
:10130800044807F053F82046FFF742FFBDE81040B5
:10131800B0E700BFB43E010010B50446044807F02A
:1013280045F82046FFF734FFBDE81040A2E700BFAC
:10133800C43E010010B50446044807F037F82046BB
:10134800FFF726FFBDE8104094E700BFD83E010034
:101358004FF0FF30704700BF014B1868704700BF5F
:10136800B4100020104B5A689AB1D8B1136B9A4246
:101378000FD0012110F0010F0DD0884201F1010CAE
:101388000ED01B6B0CF101019A4202D01B6B9A42E2
:10139800F3D1002070471B6B9A42FAD00221ECE788
:1013A8001846704710467047B41000200B4A53681F
:1013B80083B11268934209D0002001E0934206D01D
:1013C8001B6B0130002BF9D1002070470020002A48
:1013D800FAD070474FF0FF30704700BFB4100020BC
:1013E80010B5054C23682BB11846D96A884723687D
:1013F8000122DA6110BD00BFB410002008B5064B09
:1014080084461B680A4623B1184661465B6A9847BA
:1014180008BD4FF0FF3008BDB410002008B5054BDB
:101428001B681BB11846996A884708BD4FF0FF3002
:1014380008BD00BFB41000200349044B0868002809
:1014480008BF1846704700BFB4100020F83F0100DD
:1014580070B5084D06466C6844B121463046FFF722
:101468001DF828B1246B6B689C42F6D1002070BD32
:10147800204670BDB410002070B5154C2368002BB1
:1014880021D005F0E3FEA168054611B1E068854268
:1014980006D0104805F0E4FFE5600146A06098B169
:1014A80025680B4E284600E0B168FEF7F7FF50B1FB
:1014B8002268106B85422060F6D106482946BDE8AF
:1014C800704006F0EDB970BD01490D68F5E700BF41
:1014D800B41000200040010038B50546144805F056
:1014E800BFFF18B11349FEF7D9FF90B1124C23681A
:1014F8007BB17DB91B6B1148236005F0B1FF58B172
:101508000D4A1168FEF7CAFF30B921682069884280
:101518000AD038BD2361EDE72168084806F0C0F914
:10152800216820698842F4D1054B01221A6038BD30
:101538000840010014400100B410002000400100E0
:101548003011002038B50F4D0446696851B10A467C
:1015580000E01A46136B9942FBD114630020216303
:10156800E06138BD08486C602C6005F079FF18B15F
:101578002968FEF793FF18B10348296806F090F927
:101588006968EBE7B41000200040010030B587B06F
:1015980001AC0A460546054920460CF0A5FD28463B
:1015A800214606F07DF907B030BD00BF18400100A4
:1015B80030B50C4683B0002855D001AD102229461D
:1015C8000BF0B6FC019B207093F90020002A48D14B
:1015D800621C002B4AD01846294610220BF0A8FCA2
:1015E800019B607093F90000002838D1A21C002BE1
:1015F8003FD01846102229460BF09AFC019BA07098
:1016080093F90020002A28D1E21C002B34D0184678
:10161800294610220BF08CFC019BE07093F9000026
:10162800C8B9221D002B2AD01846102229460BF0D3
:101638007FFC019B207193F9002052B9621D002B99
:1016480020D01846294610220BF072FC607103B0B6
:1016580030BD0133F2E70133E3E70133D4E7013367
:10166800C4E70133B4E70A4602F8010B00231370FC
:10167800A21C00211170E21C00231370221D0021FE
:101688001170621D00231370E1E700BF10B50C460E
:1016980005F0E6FE2146FFF78BFF237813F0010FD4
:1016A80001D0002010BD607894F802C0E27840EACA
:1016B8000C010B432179134362790B431A430CBF86
:1016C8000020012010BD00BF30B50246084B094874
:1016D80089B0002A18BF03460D46684619460CF023
:1016E80003FD684629466C46FFF7D0FF09B030BDB8
:1016F8001C400100244001002DE9F044234E82B033
:1017080033688246002B3BD0746800256F4605E09D
:10171800246B70681D4A844211D0013569462846F9
:10172800FFF7D2FF0028F3D0062204F11000694623
:10173800FFF7AAF8246B7068144A8442EDD1146844
:1017480015462146124806F031FE336851461846C0
:101758001A6A904700280F480CDA06F027FE002086
:10176800FFF7BAFE29688C42ECD14FF0FF3002B087
:10177800BDE8F084054A02211068C1610020F6E73F
:10178800054806F0FBFD4FF0FF30F0E7B4100020ED
:101798004440010050400100304001002DE9F04E66
:1017A800574F002382B03B607B600446402008F01E
:1017B80063FB08F06DFF20460AF0AEFF0028C0F278
:1017C8008F807C68002C00F092804E4805F048FE1F
:1017D8008146412008F050FB21464B4806F0E6FDC3
:1017E80000256E46DFF818B149462046B9F1000FCA
:1017F80002D0FEF753FE00B328466946FFF764FFA0
:10180800684642490622FFF7DFF8013528BB246BFA
:1018180079683F488C4232D006F0B0FD21463A48FC
:1018280006F0C4FDDFF8D8B049462046B9F1000FEC
:10183800E2D0FEF733FE0028DED136483C6006F0E1
:101848009DFD28466946FFF73FFF68462F49062257
:10185800FFF7BAF801350028D9D004F1100A2B494E
:1018680006225046FFF7B0F8E8B969460622504606
:10187800FFF70AF8246B796825488C42CCD1DBF84D
:101888000010002928D0244805F0EAFDF8B1DBF85B
:101898000010FEF703FED0B90A2006F04BFE2846DA
:1018A80002B0BDE8F08E062269465046FFF78CF874
:1018B8000028DAD02146194806F078FD5146184824
:1018C80006F074FD1748694606F070FDCDE73968E3
:1018D800114805F0E5FFDFE70F4805F0E1FFDBE71A
:1018E8002046FFF735FD7C68002C7FF46EAF0E486C
:1018F80006F044FD6FF03F0008F0BEFA2546CEE73B
:10190800B41000205840010018C10100F03F010048
:10191800644001006840010000400100744001007B
:10192800A0400100C040010030400100014B0222EC
:101938001A607047C8100020704700BF014B5860FC
:10194800704700BFC8100020002910B42DDD012306
:101958004A1E8B4202EA0304028812D02CB10223E9
:1019680030F803C08B4262440BD003F1010C30F80D
:10197800133030F81C40D2180CF1010312198B42B5
:10198800F3D191B201EB124C1FFA8CF303EB1C401C
:101998004FF6FE71421CC0F2000102EA0100D0F1CC
:1019A800010038BF002010BC70470120FBE700BFD2
:1019B800002910B423DD01234A1E8B4202EA0304E6
:1019C800028812D02CB1022330F803C08B42624443
:1019D8000BD003F1010C30F8133030F81C40D2184A
:1019E8000CF1010312198B42F3D11FFA82FC0CEBA4
:1019F800124290B200EB124188B210BC704700202E
:101A0800FBE700BF10B491F90030222B2ED0013A29
:101A1800002A12DD0B7883B1222B0ED002F1FF3C95
:101A28001CF0010F1BD0BCF1000200F8013B04DDE3
:101A38004B7813B10131222B11D10021017010BC58
:101A480070474B78611C002BF7D0222BF5D000F89B
:101A5800013B6378013A002BEFD0222BEDD0013AFD
:101A68004C1C002A00F8013BEBDCE6E70131013AA7
:101A7800CDE700BF08B520B101783039CBB2092BCA
:101A880002D94FF60F7008BD0A2200210BF050FA58
:101A980082B2130243EA122080B208BD10B505F0E5
:101AA800DFFCBDE81040E5E7094A10884FF6FF72F1
:101AB800010A41EA00239BB2934207D01805030D9F
:101AC80040F6FF7C634501D0122070470E20704716
:101AD80028000020020A42EA002C1FFA8CF24FF676
:101AE800FF739A4209D040F6FF70824205D0130571
:101AF800084604491A0D0CF0F7BA08460249FEF7E1
:101B080059BC00BFF0400100E840010030B50206B2
:101B180042EA106500F47F4345EA032400F47F009D
:101B280044EA102283B0C2F3072502F0FF04C2F38F
:101B380007430846120E0349009501940CF0D4FAA5
:101B480003B030BDF44001000422FEF79DBE00BF83
:101B580070B51B4E4FF6FF7334881646220A42EAC8
:101B68000425ADB29D4204461BD00622FEF78CFE2A
:101B78002D050622A01D1349FEF786FE2A0D15F530
:101B8800801F16D0B6B22D0F330A45EA022543EA64
:101B980006264FF0810C2682E581A4F80CC012209D
:101BA80070BD0622FEF770FEA01D06490622FEF74C
:101BB8006BFEB0B2010A41EA0026A6810E2070BD74
:101BC80028000020D0100020FFF718BC2DE9F04EA7
:101BD800934D0D2984B004462861696133DD914E27
:101BE8008389728830884FEA122C070A1E0A47EA4E
:101BF80000204CEA022C46EA032640F6FF724FF614
:101C0800FF7380B21FFA8CFCB6B240F2E9579C45CC
:101C180008BF9446984214BF03461346BE4215DDDA
:101C2800B6F5014F4AD00E3904F10E071B051B0DFE
:101C380040F6FF70834217D0824204BF4FEA0C522D
:101C4800120D934210D004B0BDE8F08EA08A1B0597
:101C5800060A46EA00271B0D40F6FF701639834234
:101C6800BEB204F11607E7D140F6060C66453AD035
:101C780048F23502964211D0B6F5006FE3D11B2920
:101C8800E1D97888020A42EA002C1FFA8CF28A42CB
:101C980040F3D680644806F089FBD4E71B2940F35B
:101CA800B980F888020A42EA002C0FFA8CFEBEF1CD
:101CB800040F7DD05D4806F061FBC4E71129C2DD41
:101CC8000005000D9042BED0E789208A3E0A46EA08
:101CD8000722060A46EA00271205BEB2120D12397B
:101CE80004F11207A2E71B2940F394803B881A0AE3
:101CF80042EA032001B20129A5D17888030A43EA00
:101D080000210FFA81FCBCF5006F9CD197F804A064
:101D1800BAF1060F97D17A79042A94D1A969DFF824
:101D2800009100298FD007F1180103AB01911846E3
:101D380001990093FEF7A8FDD9F81800039A07F156
:101D4800080B9042009B7FF47EAFF888020A42EAB3
:101D5800002E1FFA8EF2012A00F0D880022A7FF4A2
:101D680072AFE9692E4C00293FF46DAF206A002854
:101D78003FF469AF042218460BF10601FEF784FD13
:101D8800626A039B9A427FF45EAF59460622206A34
:101D9800FEF77AFD216A0622A06AFEF775FDE16A60
:101DA800A06AFFF72BFB00212162E161E1624AE7AB
:101DB8003888020A42EA00210BB2012B7FF47AAF7D
:101DC8007B88190A41EA032C0FFA8CFEBEF5006FD6
:101DD8007FF470AFB88840F2064290427FF46AAF51
:101DE800134807F11801FFF7AFFE2B6B07F1080442
:101DF80023B907F10E010F48FFF7A6FE2146062278
:101E08000D48FEF741FD00206C6801460246034676
:101E1800A04718E709481C2206F0C8FA13E700BFD4
:101E2800C8100020280000202C41010014410100A6
:101E3800E0100020F8100020FC10002000410100F4
:101E48003B7803F0F00140297FF4FDAE03F00F0367
:101E5800052B3FF7F8AE38460A21FFF775FD002835
:101E68003CD0042203A807F11001FEF70DFDAB6971
:101E7800039A6BB1B3EB020E18BF4FF0010EB2F12B
:101E8800FF3F0CBF00200EF0010000287FF4DBAEFE
:101E9800F888020A42EA002399048A0C002A7FF48F
:101EA800D2AE7B7A012B1DD0112B7FF4CCAE3B8BAD
:101EB800B7F816E0BA8A190A41EA0324100A4FEA69
:101EC8001E2C4CEA0E2140EA0222A3B207F11C00A4
:101ED8006C6889B292B2083BA047B4E61F4806F086
:101EE8004DFAB0E697F814C007F11403BCF1050FDA
:101EF8007FF4A9AE93F801E0BEF1010F7FF4A3AE21
:101F080007F11801164806F051FA9CE63246A11D61
:101F18002046FFF71DFE4FF4007CA7F806C0524686
:101F2800064607F10E05594607F11200FEF7ACFC0C
:101F380001982946FFF708FE524609F1080158465C
:101F4800FEF7A2FC284609F11801FFF7FDFD20461F
:101F580006F11C01FFF752FA75E600BF4041010087
:101F6800504101002DE9F044294D82B0EE6B29491A
:101F780040F606023046FFF7EBFD4FF48072341846
:101F8800062332524FF0080C4FF0040A4FF48076C3
:101F980004F108071A462371A4F802C0E68005F187
:101FA800080184F805A03846FEF76EFCA96902AE60
:101FB80046F8041D5246314604F10E00FEF764FC53
:101FC8000023E375A374E37423756375A375EB6944
:101FD800A8692A6C83EA0001114201D06B6C83B1B5
:101FE8006B62314607F1100004220193FEF74CFCA6
:101FF800E86BC0F11C010919FFF700FA02B0BDE84F
:10200800F084054806F0BAF9EB696B62E9E700BFAE
:10201800C81000202C0000207041010038B504468B
:1020280010B9054B986438BD034D0020A964FEF72C
:10203800B1FE2C65E86438BDC810002010B5104CFE
:10204800E36903B910BD0020FEF7A4FE636D41F2F9
:102058008831C21A8A42F5D9A16D4A1C042AA265A0
:1020680005DC6065FFF77EFF0022E26510BD0548CC
:1020780006F084F94FF0FF330020E365A06510BD3A
:10208800C81000209C41010038B5254805F0E8F942
:10209800044618B12349FEF701FAE8B9224D2B6E20
:1020A8005C1C2C66FFF79CF96A6E1F4CD2F101008C
:1020B80038BF0020FFF710FA41460868FFF71CFBFD
:1020C800A86E30B1E36E0020A066DBB9042222605E
:1020D80038BD0223236038BD20461449FEF7DEF9D7
:1020E80028B9114DFFF77CF904232B6038BD204631
:1020F8000F49FEF7D3F968B901200B4D2B6E9842B2
:10210800CED8EFE70B4942F21070FFF787FF0A4974
:10211800616038BD002120460A460AF009FFECE755
:10212800C0410100CC410100C8100020144001004A
:10213800D041010035190000411900002DE9F04493
:1021480082B0089F019117F0010F044615469A4680
:1021580003D007F11C030022C2540026334945234B
:10216800237066700B6FBFB207F11C0290B29AB26F
:102178004FEA122C4FEA102E4EEA002001334CEAA7
:10218800022E0B67A4F804E04FF0FF334FF0400E27
:1021980011222372608062721831A4F806E00422CA
:1021A800668104F10C000837FEF76EFB1FFA8AFA05
:1021B80001A90422ADB2BFB204F11000FEF764FB1E
:1021C8004FEA1A2C280A3B0A4CEA0A2A40EA052553
:1021D80043EA0727A4F814A0E58227836683A21C94
:1021E8002088638851880232C318508802325B18ED
:1021F800518802321B18508802325B18518802320B
:102208001B18508802325B1851881B1892885B187B
:10221800D31898B200EB134C1FFA8CF202EB1C4156
:10222800C843608102B0BDE8F08400BFC810002038
:102238002DE9F04E84B0934699460C9D0E46002930
:1022480028D1344F344C384604F174010622FEF785
:10225800BBFB4FF0FF36844600282AD0D4F83CA0B8
:1022680039464FF400625046FFF772FC0AEB00074C
:10227800384631465A464B460095FFF75FFFE06BFC
:1022880005F11C033F1AD919FFF7B8F8002004B06C
:10229800BDE8F08E1F4F204CB1F1FF3F18BF074635
:1022A800384604F174010622FEF78EFB84460028A6
:1022B800D4D1D4F828A039464FF400625046CDF85E
:1022C8000CC0E6612762FFF743FC0AEB00074B46A8
:1022D800314638465A460095FFF730FFA26AE06B50
:1022E800B91A1C3109182A4607F11C00FEF7CCFA66
:1022F800A36ADDF80CC0FF1A1C3560460126ED19EB
:10230800E562A665FEF746FD6065FFF72BFE3046E1
:10231800BDE700BF2C000020C81000202DE9F04EBA
:10232800994D9A4C05F5E473DE1C04F19B090023D2
:1023380029F01F02414626F01F07012602F5406CCE
:1023480002F5C06E8AB0E362E3656366E366236202
:10235800E3616362E263A76226660F68C5F8A4E1D9
:10236800C5F8A8C18146FFF73BF8FFF785F838465E
:10237800FFF7C2F90028C0F2E98006FA09F240F234
:10238800131BC0F2000B02EA0B00B246019226466C
:102398008346FEF7E1FF062200F110017C48FEF7B4
:1023A80073FA43461F68C4F800A0039704F04EFF71
:1023B800D5F8CC170746884224D003980422011D7B
:1023C8007448FEF761FA744805F04AF80AF052FDBD
:1023D8007064724805F044F80AF04CFD30647048A7
:1023E80005F03EF80AF046FD30636E48FFF756FBED
:1023F8006D4B58806D48FFF751FB63496A4AC1F835
:10240800CC771080B9F1090F09D9C4F86CA0B9F1DB
:10241800040F39D8DFE809F06E32386B6400BBF17D
:10242800000F14D05A4862490622FEF7CDFA002858
:10243800EBD1FEF7BBFFB0F1FF3F62D0002840F0C0
:102448008A805C4805F09AFFFFF71EFE1FE0019A9C
:1024580012F4027FD9D0216B002900F08380B36980
:10246800002BDFD1544805F089FFFEF7B9FF4FF084
:10247800FF33029302980AB0BDE8F08E4F4F002355
:10248800A3613B6000F0B2F80020C5F8D007FEF762
:10249800C5FF06F06DF80746002869D1FFF7CEFDA5
:1024A800E16D384600296BDBB26C32B1FEF772FC85
:1024B800F26C336D811A994244D82368032B07D0F4
:1024C800042BD4D0022BE2D1304FC7F864A060E7C8
:1024D800D5F8D017D9B9FEF783FFD5F8D037C8E7B4
:1024E800374800270760A76100F020FECCE700F01E
:1024F800A7F9C9E7324A00211160A16100F04CFD3B
:10250800C2E7304805F03AFFFEF76AFFAFE70A4630
:102518002D4805F04BFF1C4905ACD1F8D0272046C3
:102528002A490BF0E1FD2146294805F0B9F9294B64
:1025380026491A6820460BF0D7FD2146264805F0A3
:10254800AFF9C8E7B06CB7648047B6E7FEF748FF55
:102558004FF0FF338DE70146204805F027FFFFF7CE
:1025680093FD94E71E4805F009FFFEF739FF7EE763
:10257800FEF736FF1B4805F001FF4FF0FF3378E701
:10258800194805F0FBFE75E7C0210020C81000209F
:10259800D0100020E0100020D8410100E4410100E3
:1025A800EC410100F8410100280000200042010030
:1025B800E040010068420100284201009C2A0020F6
:1025C800582B002048420100D4420100F842010083
:1025D800FC4201004C000020084301008842010031
:1025E80008420100A8420100B04201002DE9F0476D
:1025F800264DDFF8B4902E682548741C21462C60BF
:1026080005F0D4FED9F80060224948F23502304678
:10261800FFF79EFA204F4FF4807C341826F800C04C
:1026280006254FF0040A4FF008024FF4407062800C
:10263800E08039462A46257184F805A004F108008F
:10264800FEF722F95246154904F10E00FEF71CF96F
:102658002A46394604F11200FEF716F94FF0FF3307
:10266800E37623766376A376D9F80000C0F11C01DF
:102678000919FFF7A9FA41F288300949FFF7CEFC9A
:102688000848BDE8F047FFF759B900BF9C2A002069
:10269800144301002C000020D0100020E01000207E
:1026A800E9260000B526000004110020094810B5ED
:1026B80005F07CFE084804F0D3FE18B190F900300C
:1026C8006E2B03D0BDE8104000F0BAB803480322CF
:1026D800026010BD2843010038430100C8100020E3
:1026E800094810B50368042B07DC41F28830074914
:1026F800FFF794FCBDE8104078E7054805F03EFE7A
:10270800BDE81040FFF7C0BC9C2A0020E926000065
:1027180044430100F0B53E4883B00768FFF7C4F9A9
:102728003C4C1C3021683D184B1E042B6DD8DFE84B
:1027380003F034271A0327004FF4A0614FF4007305
:102748003952281D6B803449FDF734FE1725D4F81B
:102758009030D4F88810D4F88C2030480095FFF7D2
:1027680067FD03B0F0BD4FF4A0624FF4407E3A52CB
:102778002B49281DA5F802E0FDF71CFE1325E6E706
:10278800B4F884104FF4806C27F800C0080A40EAB7
:1027980001239AB26A800425D9E74FF4807EAE1CE3
:1027A80027F800E01F493046FDF704FE1D48FDF7F5
:1027B800FBFE411C76181C4F1C493046FDF7FAFDFC
:1027C8001B49B01DFDF7F6FD386844F6D35CC1F22D
:1027D800620CACFB00130E369A09164930460BF012
:1027E80083FC3146144805F0E1FD3046FDF7DCFE78
:1027F800421CBB88B618002730463A460F49009756
:102808000BF072FC3618751BA1E700259FE700BF87
:1028180004110020A02A0020B4430100FC1000206D
:10282800A4430100A42A0020340000206C430100C6
:10283800DC43010074430100784301009443010024
:10284800F0B5724883B004F00BFE002800F0D38086
:1028580000210A220AF0D2FB6D4DA8806D4804F0D1
:10286800FFFD002800F0BA800A2200210AF0C6FB0A
:102878000246B2F57A7F2860C0F0B5806648A9881C
:1028880005F094FD654F6648664C036897F900604B
:10289800C4F88830002E40F08180634904F1940028
:1028A8000A686249C2F3074CC2F30723170ED2B273
:1028B800CDF800C001970BF017FC04F19401201D1E
:1028C8008022FDF77FFD5A48211D84F8836005F0BA
:1028D8006DFDFEF7B1FD534E534F0146554805F0C7
:1028E80065FD06F1880154483A4605F05FFD5349F5
:1028F8000B681BB152480368002B63D10A20514E64
:1029080005F018FE5049514805F050FD318841B195
:1029180049024F4805F04AFD33884E4958020AF0EB
:1029280051F80A2005F006FE4B4A4C48116805F09C
:102938003DFD4B4805F022FDEE684A492868AE6027
:10294800FFF76CFB00264848FEF7F8FF45230122F5
:102958003046C4F88C302260C4F8A460FEF71AFA36
:102968004AF6AB2CCAF6AA2CACFB0031CB0A03EB17
:102978004302A0EB822101F58063062231463B48E1
:10298800C4F89030C4F88460FDF710FF4FF4007C61
:10299800A5F810C003B0BDE8F040BBE638463A21C0
:1029A800FDF7C8FD064640B338460AF063FA711CC5
:1029B800C4F888008022201D0026FDF703FD84F856
:1029C800836086E73A68D6F8880003EA020E034077
:1029D8009E4593D0264805F0E9FC8FE72A68B2F5B2
:1029E8007A7FBFF44BAF1146224805F0DFFC4FF465
:1029F8007A722A6042E7064D30E73946201D802268
:102A0800FDF7E0FC84F8836063E700BFC84301007A
:102A180034000020D84301001C4401001C2A002077
:102A2800F8100020A02A0020E010002044440100F3
:102A3800604401008C440100A04401000C110020F6
:102A480008110020182A0020A42A0020F0440100C0
:102A580000450100DC5C01004C0000201845010025
:102A680030450100812A0000C92A0000FC1000201E
:102A7800D0440100E44301000C4A10B50C4CD2F8D4
:102A8800A400A168431C8B42C2F8A43009DC0948A1
:102A980005F074FC20680849FFF7C0FABDE810404B
:102AA80038E60648BDE8104005F068BCA02A0020BA
:102AB800340000205C450100812A00003C450100EB
:102AC8002DE9F046A04C0646D4F8900083B0884221
:102AD800154602D003B0BDE8F0862268012A03D06B
:102AE800D4F88C10A942F5D1012BF3D9374637F821
:102AF800021BA3F1020A080A40EA012C1FFA8CF112
:102B0800052900F0E680062979D00329E2D1BAF137
:102B1800010FDFD973888C4E190A41EA032083B26A
:102B2800C4F88430002B00F038814CF6CD41581E93
:102B3800CCF6CC41A1FB00C1C90801EB810CB0EB7C
:102B48004C0F00F03E8143F2FD3CCCF6A61CACFBDA
:102B5800030140F28A20490A00FB1133002B00F0E0
:102B68003E81012A00F04081012A14BF002301237D
:102B7800052A14BF1A4643F00102002A00F0CD804E
:102B8800D4F8843000200221012B2160C4F88C5035
:102B9800C4F8AC00C4F8B000C4F8A80040F016812E
:102BA8006A4DC4F8B0300A2369492868AB60FFF75A
:102BB80035FAD4F88420B5F810C0D4F8AC30501EDB
:102BC80000FB0C346349AAF1020A0A68B91CA01870
:102BD8005246FDF759FE604B54441868844288BF3A
:102BE8001C60FFF797FDB5F810C0E245BFF472AF5F
:102BF8005A4805F0C3FB5A48032101606AE7384682
:102C08000193FDF7D1FC431CFA185648394605F0E4
:102C1800CDFB0522BAF1080FC4F88C502260019B45
:102C280053D90B3B5049384603F00105FDF736FCF4
:102C3800DFF818910146002877D00126BC19BAF1AF
:102C4800090F42D9DDB148492046FDF727FC014666
:102C5800002800F09380013606F1080E0134F24591
:102C68000DD832E040492846FDF718FC01360146E8
:102C7800E8B106F109026C1C0136924525D93A499A
:102C88002046FDF70BFC651C01460028EAD104F13B
:102C980008070A2238460AF04BF91FFA80FC394621
:102CA80062463248A9F810C005F080FBDAE709341B
:102CB8000A2220460AF03CF983B221461A462B48DC
:102CC800A9F8103005F072FBD3E703B0BDE8F04671
:102CD80020E57388B91C1A0A42EA032E1FFA8EF2FD
:102CE800234805F063FB7188080A40EA012C1FFAA3
:102CF8008CF35A1E012A08D81E4805F03FFBFEF740
:102D08006FFB174804210160E4E61B4805F036FB19
:102D180003B0BDE8F046FFF7B7B9D4F88430D4F86B
:102D2800B02093423FF4D6AE3AE70A360A2230463C
:102D38000AF0FEF884B2314622460C48A9F8104041
:102D480005F034FB79E700BFA02A002034000020FA
:102D5800812A00004C000020902900201C46010018
:102D6800C810002060450100744501007C45010041
:102D7800244601003C4601005046010009370A225A
:102D880038460AF0D5F81FFA80FC394662461948D9
:102D9800A9F810C005F00AFB5DE71749D6F8A800A6
:102DA800D6F8AC30B1F810E0421C03EB0E43C6F87D
:102DB800A820190D1148C6F8AC3005F0F7FA3268AA
:102DC800CFE6232005F0B6FB3268CAE619460C4860
:102DD80005F0ECFA03B0BDE8F046FFF755B909482D
:102DE80005F0CCFA3268BCE6074805F0DFFA22683D
:102DF800BAE600BF7C45010034000020944501007C
:102E0800DC450100AC450100B045010000B583B0C8
:102E18000146042201A8FDF737FD019803B000BD63
:102E28002DE9F00E4FF0630C044604F801CB661C44
:102E3800751C6F1C07F1010A0AF1010987B009F135
:102E4800010B01970BF1010704970137039701372D
:102E580005976FF07D0747704FF05307677086F846
:102E680001C04FF0350C85F801C0019C4FF0010CF2
:102E780084F801C04FF002078AF80110392189F857
:102E880001108BF80170049D40216F70039C6170E4
:102E9800059F07EB0C0194463AB3120642EA1C66FA
:102EA8004F1C0CF47F4546EA05297E1C751C6C1CDA
:102EB80003940CF47F0B059C49EA1B224FF0360A59
:102EC80084F801A04FEA226C4FEA22494FEA222BEC
:102ED8004FF0040A81F801A087F801C086F8019034
:102EE80085F801B0039F7A70B91C0BB30A461D061A
:102EF800322402F8014B45EA136903F47F4649EA94
:102F0800062A03F47F07561C4AEA1723751C6C1C13
:102F18004FEA236A1F144FEA232C4FF0040981F863
:102F2800019082F801A0A11C777085F801C0637038
:102F38000A46372502F8015B541C631C1B1A4FF024
:102F4800000C4FF0FF35402B81F801C055701EDC96
:102F58000B1D181A034681F803C0C0F14100591C23
:102F6800402B00F0010012DC38B10B460131481E3D
:102F7800402882F803C0224609DC501C4B1C82F80A
:102F880003C0591C421C402B80F803C0F5DD1846CD
:102F980007B0BDE8F00E70472DE9F04E5B4EDFF844
:102FA80088B1706886B0421C0025114658483560C3
:102FB800726005F0FBF9DBF80040294640F2EE525A
:102FC8002046FDF7F3FB53494FF400622046FEF715
:102FD800BFFD241804F11C0901274FF0060A2777C2
:102FE80089F8017089F802A089F8035028460297E9
:102FF800CDF80CA0FDF7CEFE44F6D353C1F2620320
:10300800A3FB001CCCF38F120DF1180A110A4AF821
:10301800045D41EA0227A9F808705146042204F128
:103028002800FDF731FC5146042204F12C000595D7
:10303800FDF72AFC5146042204F130000595FDF7FE
:1030480023FC5146042204F13400334F0595FDF763
:103058001BFCDDF80CA03946524604F13800FDF798
:1030680013FC04F1880080222C49FEF7CBFC029B5C
:103078002A46194604F584702B46FFF7D1FE82468E
:10308800F878BA780304797943EA026097F804C0BB
:10309800084340EA0C212846B160FDF77BFEB3687F
:1030A8003146C3181A0642EA136503F47F4003F455
:1030B8007F0C45EA002242EA1C2541F8085F0422F9
:1030C80004F12000FDF7E0FBDBF800004322442375
:1030D8000AF1EC05C0EB09094FF0FF3120460095D5
:1030E800FFF72CF80E4940F6B830FEF797FFA944D1
:1030F80003230C483360FEF721FCDBF80000494647
:10310800FEF762FD06B0BDE8F08E00BF542B00202C
:10311800644601002C000020D01000201C2A00204A
:10312800393100000D3300000411002034E700BFDE
:10313800094810B54368042B07DC41F28830074979
:10314800FEF76CFFBDE8104026E7054805F016F9C4
:10315800BDE81040FEF798BF542B0020393100001D
:10316800444301002DE9F04E037882B0FF2B04465A
:10317800894600F509763FD06C31DFF874B10191CA
:1031880000275A1E6578422A4BD8DFE802F0444AE5
:103198003E4A4A384A4A4A4A4A224A4A2E4A784ABB
:1031A8004A4A4A4A4A4A4A4A4A4A4A4A4A4A4A4A77
:1031B8004A4A4A4A4A4A4A4A4A4A4A4A4A4A4A4A67
:1031C800724A2E4F4A4A4A2E2E4A4A4A4A4A4A2E9A
:1031D80055001F2DDCBF2A46AA4666DC3C48A11CC8
:1031E800FDF752FB3A4B03F80A7002356419A64200
:1031F80002D92378FF2BC4D102B0BDE8F08EA11C00
:1032080004223448FDF740FBEFE7A11C04223248B2
:10321800FDF73AFBE9E7A11C04223048FDF734FB2F
:10322800E3E719462E4805F0C1F8DEE7A11C0422A1
:103238002C48FDF729FBD8E77F2D2CDC2A1E18BF68
:103248000122AA4699F96CC0BCF1000F14BF0021F5
:1032580002F001010029C8D0234805F0A7F8019819
:10326800A11C5246FDF710FB0AEB090383F86C70AA
:10327800BBE7A11C04221D48FDF706FBB5E73F2D5F
:10328800DCBF2A46AA4619DC1948A11CFDF7FCFA3E
:103298000BF80A70A9E72A4616481749802305F053
:1032A80085F84FF07F0A0122CCE72A4611481349D6
:1032B800202305F07BF81F2292468FE72A460D4807
:1032C8000F49402305F072F83F229246DCE700BF21
:1032D800B8290020942900200C1100200811002092
:1032E80008470100642B0020D8460100602B00200D
:1032F800D829002078460100C8460100B0460100E0
:10330800BC4601002DE9F04EAB4E0D461446D6F8EA
:1033180000C011462A46443D18BF012586B007461D
:10332800432C0CBF2C4645F00104A448CDF800C03E
:103338009A4605F03BF83CB14FF0FF31A04805F044
:1033480035F806B0BDE8F08EBAF1EB0F98BF6FF014
:103358000101F3D93B78591EC8B2591F18BF012182
:10336800012894BF002201F0010222B1062B18BFE8
:103378006FF00201E2D17B78012B18BF6FF00301D7
:10338800DCD197F802E0BEF1060F18BF6FF0040118
:10339800D4D107F1040B5846FFF738FDB268864CC4
:1033A800904202D06FF00501C8E70021844804F07C
:1033B800FDFF25685346432144228248009504F0C6
:1033C800F5FF2368042B07D0062BBAD0032B69D04E
:1033D8007D4804F0D3FFB4E77C4807F1EC0404F01F
:1033E800E5FF2046FFF712FD48F2632CC6F2533C76
:1033F8006045A6D197F8F03007F1F005FF2BA0D073
:10340800352B2B4607D05978881C1B181A78FF2AA9
:1034180097D0352AF7D193F802E0BEF1050F90D185
:103428002046FFF7F3FC48F26323C6F25333984271
:1034380000F0FD8007F110010422654807F114042B
:10344800FDF722FA042204A82146FDF71DFA049A82
:10345800002A40F0E6805F486C37046806225E4820
:10346800A11DFDF711FA3846FDF79EF8002840F037
:10347800D1805A4C59495A4804F098FF94F90010E1
:1034880019B15848554904F00BFA062232605648DB
:103498004F4904F08BFF554803F0E2FF544B0322D9
:1034A8001A604EE707F16C01524804F07FFF0425CB
:1034B800514804F07BFF07F1EC002560FFF7A6FCFC
:1034C80048F26329C6F2533948456ED0DFF840A167
:1034D8004A4941F28830FEF7A1FD494804F066FFE9
:1034E800DAF800400021204640F2EE52FDF75EF97E
:1034F800204644494FF40062FEF72AFB241804F1E1
:103508001C05002101224FF00609E9706A70227734
:1035180085F8029008460391FDF73CFC44F6D35326
:10352800C1F26203A3FB001CCCF38F12039B100AA9
:1035380040EA022C06A9A5F808C041F8083D042273
:1035480004F13400FDF7A0F94A4604F138002E4989
:10355800FDF79AF95946042204F12000FDF794F981
:1035680007F11001042205A8FDF78EF93269059BC1
:10357800032104F58470FFF753FCDAF8001000F11A
:10358800EC06681A85194322204644234FF0FF3180
:103598000096FEF7D3FD29461C4804F007FFDAF829
:1035A80000002946FEF710FBCBE607F1F00039468C
:1035B800FFF7D8FD8AE700BF542B002034470100ED
:1035C8007447010090480100784801002C48010028
:1035D800E0100020D8100020FC1000201C2A002039
:1035E80044480100803C0100544801003843010070
:1035F800C810002088470100B04701003931000099
:10360800D44701002C000020D01000200048010001
:1036180004110020084C394620468022FEF7F2F9B2
:1036280028E7214604220548FDF72EF913E7284626
:103638003946FFF797FDFDE61C2A0020F810002008
:1036480008B50320FDF78AFC43469A68996800EBA1
:10365800C2000B01B0FBF3F008BD00BF064B0138F8
:1036680010B553F820402046FFF7EAFF01462046F0
:10367800BDE8104000F078B8D44801000120EDE71B
:10368800024B013853F8200000F098B8D4480100E4
:103698000120F5E708B5044B013853F8200000F085
:1036A80085F840B208BD00BFD44801000120F1E709
:1036B800034A0139034652F82100194600F06EB852
:1036C800D44801000121F3E70A2870B5044609D05F
:1036D800094B013953F8215028462146BDE870406E
:1036E80000F05CB8044A481E52F820500D212846C4
:1036F80000F054F8F0E700BFD44801000121E3E7E7
:1037080038B503780D4643B1044658B22946FFF749
:10371800DBFF14F8013F002BF7D138BD0121EFE79B
:1037280008B54FF08040FFF78BFF01464FF080400F
:1037380000F002F8002008BD00226FF07C0C027136
:10374800032380F80CC010B40270C1F3072402717F
:10375800C9B2072203730374027280F80CC00170A7
:103768000471037310BC7047002210B46FF07C041E
:103778000271032304730270027107220373C1F3F9
:10378800072C0374C9B202726FF07F0202730170D2
:1037980080F804C0037310BC704700BF037D13F0AA
:1037A800200FFBD0C9B20170704700BF037D13F032
:1037B800010FFBD0007840B2704700BF007D00F0D9
:1037C8000100704730B543461C6885B0E2681C4864
:1037D8001C4904F0EBFDA26819481B4904F0E6FDFA
:1037E80022691748194904F0E1FD002214481849D4
:1037F80004F0DCFD62691248164904F0D7FD01ADFA
:10380800A2690F48144904F0D1FD14492846FCF771
:10381800D1FD284603F024FE114A2946002818BF86
:103828000246104804F0C2FD211D0F4804F0BEFDF9
:1038380021680E4804F0BAFD002005B030BD00BF75
:10384800E4480100F448010000490100084901006A
:1038580014490100204901002C4901001C400100C5
:1038680034490100404901004C4901006049010008
:1038780008B5034608461146984708BD012A70B5A1
:10388800144619DD5868102200211D1D09F050FB4F
:10389800064601460B4804F089FD611E2A4630465B
:1038A800FFF7E6FF04460146003C18BF012406481E
:1038B80004F07CFD204670BD012404F08FFA2046F8
:1038C80070BD00BF9C490100C4490100704700BF9A
:1038D800021E18BF012280280CBF002202F001023C
:1038E80010B552B91C6E0648214604F05FFD0F2042
:1038F80006F0C2FA43461868A047012010BD00BF71
:10390800844A01002DE9F04EB0F1000C18BF4FF0C9
:10391800010C84B080280CBF00200CF001000C467C
:103928001546009300287ED193F82230009A042B84
:10393800166800F0848000260196022C77DDA868BE
:10394800FCF732FE0326A4F1030A471CB4420AF02E
:10395800010A1ADDBAF1000F07D0E868FCF724FE67
:103968000426C1194F1CB4420FDD55F82600FCF798
:103978001BFE0136C31955F826005F1CFCF714FE20
:103988000136C7190137B442EFDC384604F030FF7E
:1039980014F0010F4FF002094FF0000A4FF0200B0E
:1039A800064620D1A968FCF705FD4FF00309A86871
:1039B800FCF7FAFD4C4527DD06F800B000F1010AD6
:1039C800043510E006F80AB0B968FCF7F3FCB868EB
:1039D800FCF7EAFD00EB050C09F1010906F80CB04B
:1039E8000CF1010A3D1DA96806EB0A00FCF7E2FC90
:1039F800A868FCF7D9FD82442F1D09F101090AF1D5
:103A0800010570194C45DDDC0098046E124821460A
:103A180004F0CCFC0F2006F02FFA424610680199FA
:103A280033460E4AA047012004B0BDE8F08E0C488A
:103A380003F016FD094E002818BF0646E4E70121E9
:103A4800304603AA02AB05F0C5FE029900293FF4EF
:103A580072AF019671E700BFCC4A0100DC5C01003F
:103A6800C04A010084B02DE9F04E82B00DF1280C57
:103A78008CE80F009DF83D109DF83CB00D9B064664
:103A880008460193109DDDF844A00E9C0B9FDDF8BD
:103A9800309005F017FEBBF1000F26D1A642014673
:103AA8005DD0394804F082FCA14506D0494620463D
:103AB800019A4FF4803305F01FFF019B3348E21849
:103AC8002A6004F05BFC314804F058FC3048214679
:103AD8002A6804F06BFCBAF1000F2ED0072006F01C
:103AE800CBF9A7422BD8002008E0BBF1010F0AD080
:103AF8002848594604F05AFC6FF0020002B0BDE8AD
:103B0800F04E04B070470146234804F04FFC2046AD
:103B18004A464FF4000101AB09F05AF918BB019964
:103B280060182860194804F029FC194821462A68B9
:103B380004F03CFCBAF1000FD0D1A742D3D92A68CF
:103B4800B242D0D931463A46144804F02FFC144802
:103B580021462A6804F02AFC6FF00100CEE71148DC
:103B680004F024FCA9E7104804F008FCBAF1000F9F
:103B780002D14FF0FF30C1E76FF0050006F07CF985
:103B88004FF0FF30BAE700BF284B01003C4B010063
:103B9800D44B0100B04B0100404B0100004C010028
:103BA800304C0100184B01005C4B01002DE9F04E30
:103BB800AB4C002182B0174681468C2220469A469B
:103BC800FCF7F4FDA74805F0ABFE012FC4F884000C
:103BD80040F3FF800021DAF80400102209F0A8F968
:103BE80005460146A04804F0E1FB012006F044F92F
:103BF800284605F097FD4FF0000B0646C4F854B070
:103C0800C4F850B0054605F0CFFD012818D0D9F802
:103C18000010964804F0CAFB6FF06B0006F02CF910
:103C28005D46626D8E4E002A54D0284605F0BCFDD4
:103C38000128814653D08E4804F0A0FB0120B0E053
:103C48008C48314604F0B2FB336841F65612190627
:103C580041EA136103F47F4041EA002C03F47F0B2F
:103C68004CEA1B20C2F205727D499042D1F884B01B
:103C780040F0B680022006F0FFF8304605F06CFEF2
:103C8800002800F0E480032006F0F6F8304605F03E
:103C9800ABFEBBF1000F0BD0774804F06FFB30464A
:103CA80005F07CFE002800F01A81744804F066FBD9
:103CB800042006F0E1F8717F022975D0704804F0FD
:103CC80075FB6FF0030006F0D7F80025626D644EAF
:103CD800002AAAD16B4804F051FB012061E0A97FBA
:103CE800D6F844C086F85D10E87F86F85C00287F27
:103CF80086F85E00EA682B694FEA026B02F47F4E91
:103D08004BEA126B4BEA0E2B02F47F024FEA036E6A
:103D18004BEA12224EEA136E03F47F4B4EEA0B2E47
:103D2800403203F47F034EEA13235219F264B36559
:103D3800BCF1000F00F08680B369022914BF00228D
:103D480001224FEA036C03F47F4E4CEA136C4CEAF1
:103D58000E2C03F47F0E4CEA1E23042914BF1146CF
:103D680042F00101336611B1052800F0A5804648EC
:103D780004F004FB454B464A197892F800C041F616
:103D88000050C0F2121040F248020B18C5F20002AF
:103D9800012001EB0C119160A5645360C4F8880000
:103DA800002002B0BDE8F08E052006F065F8B37F6C
:103DB800022B36D0042B1CD0012B32D0D9F800109E
:103DC800344804F0F3FA6FF0040006F055F80025C3
:103DD80027E7314B31481D68294604F0E7FA04E724
:103DE8002F4804F0CBFA4FF0FF3006F045F80025D5
:103DF8006CE72C4A30460021131D05F0EBFC3146D8
:103E080040222948FCF78EFD0620266001266664BC
:103E180006F032F8626D2548216D134604F0C6FAA3
:103E2800FFE6F36806F14002190641EA136103F45C
:103E38007F4041EA002C03F47F0E4CEA1E232265E2
:103E48006365DCE71A4804F099FA4846A9E7194877
:103E580004F094FA6FF0010006F00EF8002535E73B
:103E6800682B00205C4C0100984C0100C44D0100F7
:103E7800084E0100C44C0100244D01003C4B0100D8
:103E8800504D0100E84D0100784E0100203100201E
:103E9800C4300020704D01004C000020644C01002B
:103EA800F84C0100B82B00206C2B0020944D010029
:103EB8002C4E01000C4D01003846324606F16407CD
:103EC8005146683602230097019605F0CFFE002878
:103ED8003FF44DAF064804F051FA484661E70548FB
:103EE80004F064FA6FF0020005F0C6FF0025EDE665
:103EF800504E0100404D01002DE9F044044686B0C3
:103F080058680D461746404906221E4603F072FFC0
:103F1800331D002832D0D0F80CA0BAF1010F6BD0B5
:103F28003A4DD5F888309A4525DD4AEA030095F8D8
:103F38005E20374BBAF1200FC5F8880053F82240AD
:103F480024D007DCBAF1020F2CD0BAF1100F47D0F9
:103F5800002417E0BAF1400F36D0BAF1800FF7D13C
:103F6800FDF714F9FFF7B2FC5046394632462B46A6
:103F7800A047002406E0274804F018FA204603F07A
:103F88002DFF0124204606B0BDE8F084504639468E
:103F980032462B46A04704460028F3D01E4804F0BA
:103FA80005FAEFE705F1480CEE46583595E80300A9
:103FB8008EE8030005AC9CE80F00029400240394EB
:103FC800FFF750FD0446DDE75046394632462B469A
:103FD800A04704460028D5D0104804F0E7F9D1E7F7
:103FE8005046394632462B46A04704460028C9D0D9
:103FF8000B4804F0DBF9C5E7204629467A1EFFF78F
:10400800D5FD0446BEE700BF50000020682B002005
:10401800384A01008C4E0100DC4E0100FC4E0100C4
:10402800B84E01002DE9F04E144690B00022012C44
:104038000F92824689461D4611DD58680EA9102246
:1040480008F076FF0E9B93F90030181E18BF012068
:104058003A2B0CBF002000F00100002843D1504645
:10406800494622462B46FFF7A1FD002844D1FDF71B
:104078008DF85F4F6A4607F15803834693E80300BB
:1040880082E8030007F1480C0FAE9CE80F00029687
:1040980001260396FFF7E6FC002854DB97F85D003D
:1040A800534B01282DD1BBF1000F60D1514803F0CB
:1040B800D7F928B15049FCF7F1F9064600286AD02B
:1040C8003A6E601E130643EA126E02F47F414EEA0E
:1040D800012302F47F0243EA122C291DE047002045
:1040E80010B0BDE8F08E232BB9D050464946224681
:1040F8002B46FFF701FFF3E7404804F03FF90120A2
:10410800EEE70820059305F0B7FE059B3C4A93F8B7
:104118005E0052F820606EB30593FFF7D7FB059B4E
:1041280021462A460020B0476FF0080005F0A4FE9B
:10413800344804F023F95046494622462B460DF0F0
:10414800EFFD0120CCE7B0F1FF3F49D010F1020F9D
:1041580033D010F1030FA1D1BBF1000F01D0FDF74F
:1041680013F86FF0060005F087FE0120B8E7FDF7A9
:104178000BF89BE7BBF1000F19D105F077FA97F818
:104188005E200146204804F011F96FF0070005F0A1
:1041980073FE0120A4E706AC7A6D1C49204609F09D
:1041A800A3FF21461A4803F07BFB304698E7FCF74B
:1041B800EBFF059991F85E00DFE7796C49B197F854
:1041C80022E0BEF1040F7FF469AF124804F0D6F87C
:1041D80064E7114804F0D2F86FF0700005F04CFE67
:1041E8005046494622462B460DF09AFD56E700BF39
:1041F800682B0020B84F0100144001001C4F01003B
:10420800384A0100F44F0100C44F0100F842010090
:10421800FC420100344F0100704F010030B50D4CD5
:104228000D4D8646281B801000EB400505EB051C4C
:104238000CEB0C2583B08C4605EB054500920193E9
:1042480000EB850172462046634603F06DFE03B01D
:1042580030BD00BF90E8010038EB010048F20003D0
:10426800C4F2030330B4D3F89820D3F8904000295F
:104278002FD1314BC2F342210729186033D02F4D7B
:10428800C4F3024455F82110072CB0FBF1F1596032
:1042980031D10124C2F38201B0FBF4F407299C60F8
:1042A80033D10124C2F34211B0FBF4F40729DC60D6
:1042B80035D10121C2F34232B0FBF1F1072A19616D
:1042C80037D01E4951F82220B0FBF2F0586130BCBB
:1042D80070470129FBD1184A506110605060906006
:1042E800D0601061F3E70121C4F30244B0FBF1F19F
:1042F800072C5960CDD0114951F82440C2F38201EE
:10430800B0FBF4F407299C60CBD00C4C54F8214046
:10431800C2F34211B0FBF4F40729DC60C9D0074CA2
:10432800C2F3423254F82110072AB0FBF1F11961A7
:10433800C7D10122C8E700BFF42B0020AC50010010
:10434800F0B4554B4EF2001646F20002CEF20006CB
:104358004FF40024C4F2010200254FF0010C83F849
:1043680018C05876C6F880409560C6F88041197E16
:1043780082B061B15E8B1D76B1B259831768114660
:1043880047EA0C0515600A6812F0010FFBD10022FC
:1043980015264FF0020746F200041E77C4F2010406
:1043A8009F84DA625A831E7F25683C4F25F00401FA
:1043B8004FF0030C01AD1F6321601D629A62A3F8E0
:1043C80038C0616846F2000201F0010100910099CD
:1043D800C4F201020029F4D09661146824F00401A3
:1043E8001160546804F001010091009C002C47D032
:1043F800106154684FF0000C04F001010091009A1C
:104408000522A3F824C083F83A2046F20002C4F239
:10441800010294684EF2001144F003049460CEF255
:1044280000014FF400220A605A8B1B49022AFBD173
:1044380048B991F8350081F83C005B7E022B0ED01C
:1044480002B0F0BC7047012815D0022808BF91F8C7
:1044580035205B7E08BF81F83E20022BF0D144F264
:104468004021C0F20F010091009B581E0090009A55
:10447800002AF9D1E4E791F835C081F83DC0DCE7BE
:104488009A8C0135511E1FFA81FC0124A3F824C01F
:104498001D6283F83A40B8E7F42B0020282C00204E
:1044A80082B001900199481E0190019B002BF9D11F
:1044B80002B070472DE9F04E46F20006C4F201063C
:1044C80088B031686C4803F071FF48F20002C4F20A
:1044D8000302916C694803F069FF4EF20403CEF2BF
:1044E80000031D684EF2001205F01F00411C49012F
:1044F8004FEA511C01232024CEF200026FF07040D5
:104508000CF1FF3E634542F824000EEA030412D082
:1045180034B102234FF02109634542F829000AD03B
:1045280003F1200903F121070233634542F829000A
:1045380042F82700F4D14EF200148E0801204FF003
:10454800000ECEF20004B04284F800E3754621D094
:1045580001254DB14EF201130220CEF20003B04204
:1045680083F800E3754615D04EF20014CEF200042D
:1045780000F1010C02190CEB04050CF101004EF2DC
:10458800001482F800E385F800E30025B042CEF27B
:104598000004E9D1D4F880204EF2004694F8007364
:1045A800CEF20006009701964EF280134EF60056A2
:1045B8004EF20407CEF20006CEF20007CEF2000358
:1045C8002F4803F0F3FE31682E4872683B68019764
:1045D800009703F0EBFE2C4F46F20003C4F20103F0
:1045E8004FF40021C4F880109D60C4F880113D7715
:1045F800BD84FD627D8387F83A5018684EF2802C9E
:1046080040F010021A6018684EF2002E20F02002C6
:104618001A6098684EF2801220F00100986098683D
:10462800CEF2000C40F0020098602160D4F88010AF
:10463800D4F88031D4F800A0D4F80091D6F804B0AA
:104648007669CEF2000ECEF200021048CDF800C016
:10465800CDF804A00294CDF80C90CDF810E0CDF878
:1046680014B03D62BD623D633D87069603F09EFE31
:1046780008B0BDE8F08E00BFCC500100F05001003A
:104688001851010058510100F42B002098510100E5
:1046980000B5E02883B018D0E12801D003B000BDF0
:1046A80049F28063C0F2980348F200010193C4F212
:1046B8000301D1F89800019B5A1E10F4805F019203
:1046C800ECD001980028F4D1E8E7154890F83F307D
:1046D800012B20D048F2A062C0F2010248F200018A
:1046E8000192C4F20301D1F89830019A501E13F4D4
:1046F800805F019002D1019B002BF4D148F20000A9
:10470800C4F20300D0F8982022F46E6C2CF01C013F
:10471800C0F89810C2E7034803F048FEDAE700BF84
:10472800F42B002000520100F0B5234E85B0316C07
:1047380007460A68214803F039FE42F210730393D2
:104748000399481E0390039C002CF9D1402004F0E3
:104758004FF8054600282AD0326C39461046D668EC
:104768002B464022B047E8B91548294642F2107452
:1047780003F01CFE03940399481E0390039B002B2F
:10478800F9D11048042403F011FE224629461023CB
:104798002846009408F062F9284603F05DFF0120DE
:1047A80005B0F0BD084803F001FE2046F8E70748C9
:1047B80003F0FCFD0120F3E7F42B00202C5201004C
:1047C800945201007C6D01007C5201005C52010092
:1047D800F0B51C4C0546206C83B094F8446008B1D1
:1047E8000DF0C6FA4EF20011CEF20001042048F294
:1047F8000003C1F88000C4F203039F6C2A4647F403
:1048080000759D64C1F880019D6C002025F400713D
:104818009964314603230DF08BFB054650B183683C
:104828004268990A084800232564009603F0BEFDF3
:1048380003B0F0BD01460548324603B0BDE8F0407C
:1048480003F0B4BDF42B0020E0520100B452010083
:1048580070B546F600002C4C002182B0C0F68910D5
:10486800FFF7FCFC94F83F50012D0AD042F2107279
:104878000192019B591E019101980028F9D102B0BB
:1048880070BD22694BF2C53102F56126C9F2A21149
:10489800A1FB0620060D31464FF08040FEF74CFF85
:1048A80021680020FCF764FB28466168FCF760FB80
:1048B8000220A168FCF75CFB0320E168FCF758FBC9
:1048C80004202169FCF754FB61690520FCF750FBC3
:1048D80042F2107301930199481E0190019B002B2D
:1048E800F9D131464FF08040FEF726FF48F2000329
:1048F800C4F20303D3F898100448D3F89C20D3F8E3
:10490800503103F053FDB1E7F42B00200C530100A4
:1049180030B5974C83B094F83F10012900F02181FD
:1049280048F20003C4F203039D6C49F2806225F447
:10493800802098649D6CC0F2980225F40020986449
:1049480000920098431E0093009A002AF9D1894DDD
:1049580048F20002286849F2806540F4FF53C4F227
:104968000302C0F29805D3600095009A531E009385
:10497800009B002BF9D148F2000249F28060C4F292
:104988000302C0F29800D2F89C50C2F89C30009004
:10499800009A501E0090009B002BF9D148F20003AA
:1049A800C4F20303D3F89C0049F2806240F400701B
:1049B800C0F29802C3F89C0000920098431E00932E
:1049C800009A002AF9D148F20003C4F20303D3F88D
:1049D8009C2042F48060C3F89C00D3F89C20B2F578
:1049E800C06F3CD049F28065C0F2980500950098E8
:1049F800431E0093009B002BF9D148F2000249F2B4
:104A08008060C4F20302C0F29800D2F89C50C2F849
:104A18009C300090009A501E0090009B002BF9D10A
:104A280048F20003C4F20303D3F89C0049F2806201
:104A380040F40070C0F29802C3F89C0000920098FD
:104A4800431E0093009A002AF9D148F20003C4F2E9
:104A58000303D3F89C0040F48062C3F89C2049F219
:104A68008062C0F298020092009A501E0090009B4B
:104A7800002BF9D148F20000C4F20300D0F89820C6
:104A880049F2806342F48052C0F29803C0F898203B
:104A98000193D0F89830019A013A13F4805F01929B
:104AA80002D1019B002BF4D149F28060C0F298003A
:104AB80000900098431E0093009A002AF9D148F20A
:104AC8000003C4F20303D3F8980049F2806220F48B
:104AD8006E6C2CF01C00C0F29802C3F8980000928B
:104AE8000098431E0093009A002AF9D148F2000367
:104AF800C4F20303D3F8982043F2011CC0F6402CFB
:104B0800624521D049F28060C0F298000090009878
:104B1800431E0093009A002AF9D148F20003C4F218
:104B28000303D3F8980049F2806220F46E6C2CF0ED
:104B38001C00C0F29802C3F8980000920098431E27
:104B48000093009A002AF9D1012917D042F2107374
:104B580000930099481E0090009A002AF9D103B0EA
:104B680030BD054803F022FC94F83F10D8E600BF9A
:104B7800F42B0020C8000020305301004FF28000C1
:104B8800C0F2FA20FFF76AFB22694BF2C53C02F536
:104B98006125C9F2A21CACFB05231D0D29464FF067
:104BA8008040FEF7C9FD44F24021C0F20F01009198
:104BB8000099481E009000980028F9D12168FCF758
:104BC800D7F901206168FCF7D3F90220A168FCF746
:104BD800CFF90320E168FCF7CBF904202169FCF741
:104BE800C7F961690520FCF7C3F90320FCF7B6F99A
:104BF80048F2A063C0F2010300930099481E009098
:104C0800009A002AF9D129464FF08040FEF794FD1A
:104C18009CE700BFF0B42E4B4EF2001546F200049C
:104C28000026C4F20104CEF200054FF40027C5F8AF
:104C38008070A660C5F8807118779E84DE625E83F6
:104C4800187F25681A6325F004054FF0060282B024
:104C580025601E629E621A87656846F2000205F0AA
:104C680001050095009DC4F20102002DF4D0906169
:104C78001068144640F004001060606846F20002B4
:104C880000F0010001900198C4F201020028F4D05C
:104C98005161106820F004010320116083F83A0084
:104CA80091684EF2001041F002039360CEF20000CA
:104CB8004FF4002142F210730160009300994B1EDB
:104CC8000093009A002AF9D102B0F0BC704700BFE7
:104CD800F42B00202DE9F04E012A9AB005461E4615
:104CE80040F33E81A54C0027D3F804A084F8447013
:104CF800A3499868FBF7D2FB0146002840F02981B8
:104D080084F844109F4803F051FB62B648F200074C
:104D1800C4F20307FB689C4E9C483360D7F8981090
:104D28007160D7F89C20B260316803F03FFB71686E
:104D3800974803F03BFB9748B16803F037FB42F212
:104D480010701990199E701E1990199F002FF9D193
:104D58004FF0FF3C904884F83EC084F83CC084F88B
:104D68003DC0864E02F07CFB002800F031813946B8
:104D78000A2208F0DDF8B064884802F071FB0028C8
:104D880000F0348100210A2208F0D2F80126E064FC
:104D980084F83F608248794F02F062FB002800F0F7
:104DA800358100210A2208F0C3F8C1B287F83F1004
:104DB800002900F099807B4803F0F8FA87F83F60F3
:104DC80050467949FBF76AFB0746002840F0978070
:104DD80013ADFFF76FFB2B1D43F8047B17AE43F8A9
:104DE800047B0120294632461F601397FFF712FF04
:104DF800B4F81A90B9F1060FFAD160489DF85C2012
:104E0800B0F81AA0BAF1060F00F00681C821B4F86C
:104E18001AB066481FFA8BF303F0C8FA9DF854706D
:104E28009DF8531006979DF857709DF85500059109
:104E38009DF8561009979DF85A70079008919DF8AB
:104E480058009DF859109DF84EC09DF84FE09DF808
:104E580050A09DF851909DF852B00C979DF85B704A
:104E68009DF84C200A900B91514829469DF84D30E9
:104E78000D97CDF800C0CDF804E0CDF808A0CDF826
:104E88000C90CDF810B003F091FA2A4600250520C1
:104E9800314684F850508DF85C508DF85D50FFF71E
:104EA800B9FE628B354D062AFBD16B8B9DF84C20E1
:104EB800062B00F0B780B4F81AE03E481FFA8EF3CC
:104EC800C82103F073FA31463B489DF85C209DF8F1
:104ED8005D3003F06BFA4FF0FF3084F8540072B67F
:104EE80001201AB0BDE8F08E344803F05FFA50464E
:104EF8002D49FBF7D3FA074600283FF469AF50461F
:104F08002F49FBF7CBFA80B350462E49FBF7C6FA78
:104F1800002840F0A480FFF7CDFA44F64030C0F2F4
:104F28004C00FFF755FCE06CFFF7FEFB264803F04A
:104F38003DFAFFF7EDFC244803F038FAFFF7BAFA18
:104F4800E06CFFF7F1FB204803F030FAFFF780FC34
:104F5800C5E7B0681D49FBF7A1FA58B90121CFE6AA
:104F680072B6284602F03AFFBAE7FFF7A3FAFFF74E
:104F7800CFFCB4E784F844703946C3E6F42B00202C
:104F8800C86D010044530100C800002068530100A7
:104F980080530100A0530100C0530100F4530100E5
:104FA8002854010054540100A0430100A4540100F6
:104FB800F45401006C550100C0550100345401003F
:104FC80080590100AC590100F455010030900100EE
:104FD800AF4803F0EBF94AF65032C0F21202B2645D
:104FE800AC4802F03DFA00287FF4CCAEAA484FF452
:104FF8000017012603F0DAF9E764A84884F83F604F
:10500800A74F02F02DFA00287FF4CBAEA54803F095
:10501800CDF987F83F60D3E6012A0CBF9DF85D10F3
:10502800C821F4E6052A7FF446AF9DF84D70B5F81F
:105038001AE09D481FFA8EF3394603F0B7F9314656
:105048009A489DF85C209DF85D3003F0AFF9002F79
:105058007FF441AF9DF85CC085F854C03FE75046E7
:105068009349FBF71BFA00282FD050469149FBF7CC
:1050780015FA064600284DD18F49904802F010FCD9
:1050880004F014F9FFF716FA44F64030C0F24C0069
:10509800FFF79EFB8A4803F089F9E56C3046A56561
:1050A800FFF74EF994F83C2094F83D3094F83E50C0
:1050B8000EAC20468349009509F016F8214682482F
:1050C80002F0EEFB04F0F2F809E74FF28000C0F2BC
:1050D800FA20FFF77DFBE06CFFF726FBE06C403021
:1050E800FFF722FBE06C8030FFF71EFBE06CC0305E
:1050F800FFF71AFBE36C03F58070FFF715FBE26C12
:1051080002F5A070FFF710FBE16C01F5C070FFF726
:105118000BFBE4E650466D49FBF7C0F9C0B9FFF751
:10512800C9F944F64030C0F24C00FFF751FBFFF7D5
:10513800EFFB42F210701990199B5A1E1992199997
:105148000029F9D1E16C0120A165FFF7F9F8C6E65D
:1051580050465F49FBF7A2F960BB5749574802F030
:105168009FFB04F0A3F8FFF7A5F944F64030C0F21E
:105178004C00FFF72DFB574803F018F9FFF7C8FB61
:1051880042F21070199019994B1E1993199A002A16
:10519800F9D1E26C0220A265FFF7D2F849F28060EB
:1051A800C0F2980019901998411E1991199B002B6B
:1051B800F9D194E650464849FBF770F9002831D1F7
:1051C8003D493E4802F06CFB04F070F8FFF772F9B5
:1051D80044F64030C0F24C00FFF7FAFA3F4803F0BB
:1051E800E5F8FFF795FB42F2107219921998411EE3
:1051F8001991199B002BF9D1E36C0120A365FFF7E6
:105208009FF894F83520264C002A2CD049F280616A
:10521800C0F298011991199B5A1E199219980028E1
:10522800F9D15CE650462E49FBF738F910B9FFF77B
:105238000FFB54E650462B49FBF730F9002866D09F
:1052480050462949FBF72AF900284FD148F20003B4
:10525800C4F20303196E21F00100186606F090FBF2
:1052680006F0B6FD3BE6E26C0220A265FFF768F89F
:1052780094F83510002952D049F28060C0F29800A5
:105288001990199A511E1991199B002BF9D126E6EC
:10529800D0530100F45301000454010028540100C4
:1052A800F42B0020745401006C550100C055010016
:1052B80004490100846B01000856010000560100F2
:1052C800185601004456010064560100785F010039
:1052D8007456010078560100A4560100A856010032
:1052E8002C4001002C600100204001005046174965
:1052F800FBF7D4F800283FF4F2AD50461449FBF709
:10530800CDF800287FF42CAE06F062FDE7E572B612
:10531800104802F0A5F8002104F002FEE0E549F289
:105328008060C0F298001990199A511E1991199B22
:10533800002BF9D149F28060C0F298001990199AAF
:10534800511E1991199B002BF9D1C8E5E0560100AF
:10535800F0560100005601002DE9F04E9AB014AD48
:1053680000232E1D46F8043B46F8043B0446294614
:10537800012018AA33601493FFF74CFC4A48428B6B
:10538800062AFCD1484B9DF860205F8B062F00F061
:105398008580C821438B45489BB203F007F89DF8E8
:1053A80058109DF859609DF85A0006919DF85B10B9
:1053B80007969DF85C60089009919DF85D009DF83E
:1053C8005E109DF852C09DF853709DF855A09DF849
:1053D80056909DF857B09DF854E00A969DF85F6086
:1053E8009DF850209DF851300B900C91304829467B
:1053F800CDF800C00197CDF80CA0CDF81090CDF8ED
:1054080014B00D96CDF808E002F0D0FF9DF85AA030
:105418009DF85350CDF83CA09DF85BA09DF8550031
:10542800CDF840A09DF85CA09DF85610CDF844A09A
:105438009DF85DA09DF85090CDF848A09DF85EA01D
:105448009DF85170CDF84CA09DF852609DF85FA072
:105458009DF854C09DF857209DF858309DF859B0D4
:1054680084F80FA06071A17184F800906770A6702D
:10547800E57084F804C0E271237284F809B00F9DC6
:10548800A5721098E072119D2573DDF848A084F884
:105498000DA01399A1731AB0BDE8F08E012A0CBFB4
:1054A8009DF86110C82175E7F42B0020A454010071
:1054B800F4540100F0B5244C87B0A16DA06CE76CE2
:1054C80001F58062C3199A4294BF4FF480655D1A52
:1054D80099420BD394F83FC01C4F0025BCF1010F33
:1054E800A762194813D0284607B0F0BD226C174FA1
:1054F8001046D6683B462A46B047A36D94F83FC08D
:10550800E918BCF1010FA165A7620F48EBD148F279
:105518000007D0F858E0C66CC4F20307417E846CDB
:10552800D7F89820D7F89C30D7F850C190F85C701D
:10553800C6EB0E060648CDF800C001970396049402
:10554800029502F033FFCEE7F42B0020502C002008
:10555800FC56010046F20003C4F20103F0B55C6892
:105568009A68E4B2144014F0020F83B01CD114F00E
:10557800010F01D103B0F0BD8C4C94F83A20022AF7
:1055880070D0052A23D0012A00F0B88046F2000323
:10559800C4F201039A68002022F001019960207684
:1055A800608384F83A00E5E7804A186992F83A304F
:1055B80085B2E8B205F40045052B00F25281DFE818
:1055C80013F056014A014A01AD017401A201E36AD0
:1055D800002B00F0ED80E16A744B002900F0C481D3
:1055E80046F20002C4F20102DD6A1068996A20F0EE
:1055F80004031360536803F001000190019B002B22
:1056080000F0C581002D00F0C2810B78136150684D
:105618006B1E00F001060196019803F001060123B4
:10562800D0B1012D18D926B1487802230CE09D424B
:1056380012D9C85C01331061506800F00100019074
:10564800019848B1C85C01331061506800F001004E
:10565800019001980028EAD1E26AC918D31AA16218
:10566800E36287E7E36A002B00F0DD8046F2000181
:10567800C4F20101E56A0B68A06A23F004030B6019
:105688004B6803F001030193019B002B00F0838119
:10569800002D00F0808103780B614E686B1E06F0C8
:1056A80001070197019E03F001070123DEB1012DD7
:1056B80019D92FB1467813460E610DE09D4212D9D3
:1056C800C25C01330A614A6802F001020192019A40
:1056D8004AB1C25C01330A614A6802F001020192D0
:1056E800019A002AEAD1E16A304A994240F23081AF
:1056F800D16AC018CB1A9062D3623BE7B4F824C0D1
:105708001FFA8CF3002B76D046F20001C4F2010197
:10571800A58C0B68ADB223F0040008604B68206AC2
:1057280003F001030193019B002B00F03281002D4F
:1057380000F02F8103780B614E686B1E06F001079D
:105748000197019E03F001071346D6B1012D18D920
:1057580027B1427802230CE09D4212D9C25C013382
:105768000A614A6802F001020192019A4AB1C25CD8
:1057780001330A614A6802F001020192019A002A83
:10578800EAD1B4F824C0094A1FFA8CF1994200F210
:10579800F7804FF0000CA2F824C0D06A002800F06F
:1057A800DF80022382F83A30E4E600BFF42B0020C1
:1057B800A06CE26CA16D8218914209D394F819C0CB
:1057C800BCF1020F04BF2376A4F81AC03FF403AF5C
:1057D800FFF770FEE062E36A002B7FF4FCAE46F24E
:1057E8000000C4F201008368032123F001028260F3
:1057F80084F83A10EFE6227E002A3FF4BBAE628BB3
:1058080046F200011FFA82FC2376C4F20101A4F8D3
:105818001AC00B680A4643F001000860116811F0CD
:10582800010FFBD1A6E6227E002A3FF4A3AE628BCD
:1058380046F200011FFA82FC2376C4F20101A4F8A3
:105848001AC008680A4640F001030B60116811F09D
:10585800010FFBD18EE6002D3FF489AEFEF718FF4D
:1058680085E600201076508382F83A007FE6002D06
:105878003FF47DAEF128F1D14FF000015183508BF8
:10588800136B80B26FF00E0C03F800C0508B013020
:105898001FFA80FCA2F81AC0508B1FFA80FC03F88C
:1058A8000C10042182F83A1061E6002DD6D1B2F826
:1058B8001AC0116B1FFA8CF3CE1816F8013C3F4E34
:1058C800F12B6AD0B6F81AC0338F1FFA8CFC9C45AE
:1058D80009D2B6F81AC01FFA8CFC01F80C00718BBB
:1058E800481C81B27183518B344A88B283427FF459
:1058F8003EAE508B00231FFA80FC1376A2F81AC024
:1059080082F83A3033E6002DA8D1136B4FF002012C
:1059180058701576518382F83A5028E6002D3FF4E6
:1059280026AE127F254B904298D14FF00001598343
:105938005A8B196B1FFA82FC01F80C005A8B042150
:10594800501C1FFA80FCA3F81AC083F83A100EE620
:1059580046F20003C4F20103996821F0010098603F
:10596800032082F83A0005E646F20002C4F201027A
:10597800916821F001009060032283F83A20F9E54C
:10598800918CC018CB1A9BB210629384F2E5002365
:1059980062E60023F5E60023A5E6B6F81AC01FFA6A
:1059A8008CF3C854B6F81AE01FFA8EF00A1812F8E9
:1059B800010CFEF76DFE86F83A50D8E5F42B00206E
:1059C800C3B203F06002402A06D003F07F033F2BE6
:1059D80008BF40F04000704720F04000704700BF0B
:1059E800037863B1002259B210F8013F5218002B16
:1059F800F9D1C2F38110821802F03F0070471846AF
:105A0800704700BF024B00219A6819605A607047BE
:105A180050300020034B1A681AB9596801F8010B75
:105A280059607047503000200348002208B5C26012
:105A38000369984708BD00BF50300020034BD86861
:105A48001A6859685861D9619A61704750300020C6
:105A5800034B58699A69D969D86059601A607047C8
:105A68005030002010B5114C0346E2689AB1C1B21B
:105A780001F060004028226A08BF23F0400305D0E7
:105A880001F07F013F2908BF43F0400318469047C3
:105A98000023E36010BD94F924C0844502D0216A34
:105AA800884710BD0122E26010BD00BF50300020C1
:105AB80070B5124DAC6A002C1CDD013C95F92C0028
:105AC80004F0010602F036FD002C14DD36B1013C6D
:105AD80095F92C0002F02EFD002C0DDD013C95F906
:105AE8002C0002F027FD013C95F92C0002F022FD64
:105AF800002CF3DC70BD70BD70BD00BF50300020BD
:105B080010B50446FFF7D4FF237833B158B202F03A
:105B180011FD14F8013F002BF8D110BD6C4B00218A
:105B28001A6B30B499620D2403F1470583F82C10E1
:105B3800674983F82D402324AA4208BF03F146028F
:105B480001F1340C08BF1A63CCEB0202002A83F877
:105B5800244066DD4FF07E0C013A81F84CC000F01D
:105B68009C802125013A81F84D5000F08F8091F9F1
:105B78003640203C04F0FF05013A4FF020048D62C6
:105B880081F84E4000F08D8091F837105FFA81FC63
:105B98000CF06005402D08BF0CF0BF0106D00CF0DA
:105BA8007F0CBCF13F0F08BF41F0400183F82C1077
:105BB8004021013A83F84F10454C79D094F83810B9
:105BC8002D252039C9B2013A84F8505084F82D1097
:105BD80060D094F839504FF0230C013A84F82450DF
:105BE80084F851C06BD04FF04E0C013A84F852C083
:105BF80068D03125013A84F8535066D0012A84F8D8
:105C080054C059D07E2222254FF0200C84F85550DC
:105C180084F8582084F856C084F857201125302479
:105C280002E00D210425232400F1200C83F84940CB
:105C3800EA1883F84AC0002001244FF0590C83F871
:105C4800484083F84BC082F8480093F84920002A5E
:105C58002BD0204C4FFA82FC14F8012F6044002A04
:105C6800F8D1C0F3811C0CEB000202F03F0000F1F8
:105C7800200C681CC218EB18174883F848C000238A
:105C880082F8493082F8481030BC39E70D210625E2
:105C98002524C9E709252824C6E70D21052524243C
