:100000000000012075030000A1020000A102000011
:10001000A1020000A1020000A1020000A102000054
:10002000A1020000A1020000A1020000A102000044
:10003000A1020000A1020000A1020000A102000034
:10004000A1020000A1020000A1020000A102000024
:10005000A1020000A1020000A1020000A102000014
:10006000A1020000A1020000A1020000A102000004
:10007000A1020000A1020000A1020000A1020000F4
:10008000A1020000A1020000A10200000155000031
:10009000A1020000A1020000A1020000A1020000D4
:1000A000A1020000A1020000A1020000A1020000C4
:1000B000A1020000A1020000A1020000A1020000B4
:1000C000A1020000A1020000A1020000A1020000A4
:1002980062B6704772B67047684600F001F8FEE72C
:1002A80070B5044600F078FC0546224807F0E0FFE8
:1002B8000F2D9DBF204B214853F82510A5F11001A3
:1002C80088BF1F4807F0D4FF22681E481E4907F060
:1002D800CFFF62681D491B4807F0CAFF1C4807F09A
:1002E800C7FFA26817481B4907F0C2FFE2681A490E
:1002F800144807F0BDFF164807F0BAFF22691148F5
:10030800164907F0B5FF626915490E4807F0B0FFB6
:100318000F4807F0ADFFA2690A48124907F0A8FF85
:10032800E2690848104907F0A3FF0948BDE8704092
:1003380007F09EBF50340100F0330100A0680100AF
:1003480068340100743401008034010084340100F1
:10035800C8670100883401008C3401009034010022
:1003680094340100983401009C34010010B572B631
:1003780009480A4A0A49121A00F086FA09480A493D
:100388000A1A002100F012FA084A094B1A60BDE85F
:10039800104000F057BE00BF00000020000F0020F2
:1003A8008C8C0100000F0020F44B002000F000208E
:1003B800000F00200023CA5CC2540133002AFAD17E
:1003C800704700BF002312F0010F10B404D00C785E
:1003D800013A047001237CB172B1CC5C03F1010CC9
:1003E800C454013A44B111F80C400CF1010300F86F
:1003F8000C40013A002CEFD110BC704790F9003046
:1004080010B463B1024612F9014F002CFBD100234E
:10041800CC5CD4540133002CFAD110BC704702468E
:10042800F5E700BF70B41346002A32D090F90020D7
:10043800002A30D0024612F9014F002CFBD10C786B
:1004480003F1FF3C0CF00106147014B34FF0010CDB
:100458009C4502EB0C051AD04EB111F80C4002F87D
:100468000C40B4B14FF0020C01359C450FD011F887
:100478000C600CF10104013502F80C60013504F13F
:10048800010C36B10E5D16551EB19C45EFD1002307
:100498002B7070BC70470246D1E700BF10B4002330
:1004A800C25CCC5C0133141BE4B224B9002AF7D136
:1004B800104610BC704760B2FBE700BF70B413462B
:1004C800AAB104780A78A21AD2B2002A30D174B13B
:1004D8005C1E14F0010F944627D045784A782346CD
:1004E800AA1AD2B2002A23D14FF0010CEDB900208C
:1004F80070BC704701EB0C0500EB0C046A7864785B
:100508000CF1010CA21AD2B200EB0C0601EB0C059F
:1005180072B9002CEBD074786A78013BA21AD2B277
:1005280032B90CF1010C002CE1D0013BE2D1DEE73D
:1005380050B2DDE7037849B25AB28A4208D033B1E3
:1005480010F8013F4FFA83FC8C45F8D17047002022
:10055800704700BF90F9002003462AB1024612F9FD
:10056800010F0028FBD1D21A981890F900C049B29F
:100578008C4502F0010215D00138834210D832B1FF
:1005880090F900208A420CD00138834208D890F9AB
:1005980000208A4205D010F901CD8C45F4D170476E
:1005A80000207047704700BF90F9003033B1034610
:1005B80013F9012F002AFBD1181A70471846704703
:1005C800D9B190F90020C2B14B1E13F0010F0246B9
:1005D8000CD1013243B192F90010013B21B112F95B
:1005E800011F013B0029F4D1101A7047024612F985
:1005F800011F013B0029ECD1F6E70020704700BF3E
:1006080070B403780246C3B10E78B6B176B2002052
:100618005BB29E4218BF0C4602D109E0634507D081
:10062800657801344FFA85FC002DF7D170BC70470E
:100638000130135C002BEBD1F8E70020F6E700BF90
:10064800F0B40378ABB10E78054677B2284666B1A8
:100658005BB29F420ED00A4601E063450AD0547847
:1006680001324FFA84FC002CF7D115F8013F002B1A
:10067800ECD10020F0BC70472DE9F004002844D0EC
:10068800274E0478002C45D00D78002D45D0002742
:100698004FFA85FA64B2A24518BF0A4602D124E08F
:1006A800A44522D0537801324FFA83FC002BF7D1AE
:1006B800C0190378002B2DD007464FFA85FA65B18B
:1006C8005BB29A4516D00A4601E09C4512D0547890
:1006D80001324FFA84FC002CF7D117F8013F002BA8
:1006E800EDD13360BDE8F00470470137C45D002CDC
:1006F800D0D1DDE73B46002FF3D097F90020002A40
:10070800EFD0002103F8011BEBE7054E3068002805
:10071800E8D0B6E700203060E4E72F46C8E700BF1E
:10072800040F002003682DE9F004CBB11D78ADB1AA
:100738000F781E464FFA87FA67B16DB2AA4513D0F3
:100748000A4601E0AC450FD0547801324FFA84FCD8
:10075800002CF7D116F8015F002DEDD100220260C0
:100768001846BDE8F00470473246002EF7D0002145
:1007780002F8011B0260F3E7034608B91846704700
:10078800017879B140780028F8D01A4603E0D0788B
:1007980002320028F2D05170917810700029F6D1F9
:1007A800184670470B461846704700BF10F0030FF5
:1007B80030B404462AD101F0FF0343EA032C43EA8C
:1007C8000C25032A43EA052520D9A2F1040C0423A9
:1007D800BCF1030F0560CCF3800410D92CB1A2F151
:1007E80008040823032C456009D903F1040CC550FB
:1007F8000CF10403D41A032C40F80C50F5D8043A31
:1008080022F00304231DC41802F00302AAB1531EE8
:1008180003F001050123C9B29A4221700DD01DB120
:1008280002239A42617008D003F1010CE1540CF1E3
:1008380001039A4204F80C10F6D130BC704700BF8F
:10084800034610B41046E2B11C7802F1FF3C0122C5
:1008580082420C700CEA020413D034B193F801C040
:100868000222824281F801C00BD09C5C02F1010C8B
:100878008C5413F80C400CF10102824201F80C4030
:10088800F3D1084610BC704741EA000313F0030F88
:1008980030B404460D4628D1032A26D90C68A2F1A3
:1008A800040C0423BCF1030F0460CCF3800414D9B6
:1008B80034B14D68A2F108040823032C45600CD913
:1008C800CC5803F1040CC4500CF1040351F80C503B
:1008D800D41A032C40F80C50F2D8043A22F003053D
:1008E8002B1DCD1802F00302C418CAB12978531E73
:1008F800217003F0010101239A4211D021B16978D6
:1009080002239A4261700BD015F803C0591C04F8F1
:1009180003C015F801C04B1C9A4204F801C0F3D17A
:1009280030BC70478842F0B41FD8E2B10C7801237C
:1009380002F1FF3C934204700CEA030413D034B173
:1009480091F801C00223934280F801C00BD0CC5C1F
:1009580003F1010CC45411F80C400CF1010393424B
:1009680000F80C40F3D1F0BC7047002AFBD089187E
:1009780011F8013C8418551E04F8013C05F00106E5
:100988004FF0FF33002DEED03EB111F802CC022A11
:100998006FF0010304F802CCE5D0CD1815F8017CFE
:1009A80003F1FF3CE61806F8017C01EB0C0515F88D
:1009B800017C0CF1FF3304EB0C069D1806F8017C52
:1009C800002DEAD1CFE700BFF0B403469446002AD1
:1009D80030D005780A78AD1A29D10CF1FF3616F017
:1009E800010F2A4618D0447848780122201AB446C4
:1009F8001ED19C18881801329F188E180132BCF13C
:100A0800010C0CF1FF3C12D064784078201A0FD109
:100A18007C787078201A0BD19C18881801329F189E
:100A28008E180132BCF1010C0CF1FF3CECD12846C8
:100A3800F0BC70471046FBE71346CAB102788A42F9
:100A480019D05A1E12F0010F0DD010F801CF13461D
:100A58008C4508D1704790F800C08C4509D010F833
:100A6800012F8A4206D00130013B03F1FF33F2D156
:100A780070477047704770472DE9F00E91F90030C4
:100A880083B081463BB10B4613F9012F002AFBD1F5
:100A9800B3EB010A04D1484603B0BDE8F00E704735
:100AA80099F90030002B40D04B4613F9010F00286C
:100AB800FBD1C9EB030BD34535DB4846BAF1000F30
:100AC800EAD00B784FF0000C019319F80C30019A1A
:100AD8009A421FD10AF1FF34002314F0010F524645
:100AE8000AD046784D780123AE42224604D011E060
:100AF8007C787578AC420DD1C518CC180133C7186D
:100B0800CE180133013A02F1FF32C5D06D7864780E
:100B1800A542EDD00CF1010CCCEB0B00824502DCB8
:100B280009EB0C00D1E70020B6E79B46C3E700BFFE
:100B380012F0010FC9B205D090F800C0013A8C45F7
:100B48000DD00130531E4AB190F800C05A1E8C4592
:100B580005D010F8013F8B42F3D17047104670471B
:100B680010B5044600B910BD90F9003083B110F9F2
:100B7800011F0029FBD1001B013007F09BFD014636
:100B880029B10023E25CCA540133002AFAD110BD0E
:100B98000120F2E7002070474EF60053CEF2000322
:100BA8005868C0B2704700BF4EF69053CEF20003AB
:100BB8009860D9601A6170474EF69053002814BFA8
:100BC80003200020CEF20003586070474EF6905381
:100BD80040F23F00CEF200030021C0F200300322B1
:100BE8009960D96018615A60704700BF08B500F075
:100BF800C5F900F07DF800F0FDF843461A6841F2A7
:100C08005E11D16000F0BCF9404603684FF0204205
:100C18001A61002008BD00BF012A2DE9F8461546D3
:100C28001C464BD00021102258680BF089FE022D7B
:100C38000746D8BF284E2ADCDFF8B0904FF0000AEC
:100C48002648216807F014FB48F20003C4F20303A6
:100C5800DD68314645F4FF52DA6038464A46534665
:100C68001F4EB04738B948F20000C4F20300C5600F
:100C78000020BDE8F88621681A4807F0F9FA48F21A
:100C88000000C4F20300C5600020BDE8F88600211A
:100C98001022A0680BF054FE032D0646CCD000218C
:100CA8001022E0680BF04CFE042D8146C6D0206966
:100CB800002110220BF0AAFE8246C1E719680A48F3
:100CC80007F0D6FA48F200000025C4F20300C56018
:100CD8000020BDE8F88600BF008000203435010000
:100CE8001D0D00205835010010350100004000009E
:100CF80030B44EF210034FF6FE74CEF20003C0F289
:100D0800FF0406495C600020002400250122986049
:100D1800C1E900451A6030BC704700BF080F0020C9
:100D28004EF21000CEF200008268034B0020002132
:100D38009A60C3E900017047080F0020012000F005
:100D48000DB900BF10B50446012000F007F94DF6B3
:100D5800836CC4F21B3CACFB00218B0C04FB03F43A
:100D68004EF21001CEF200018A6894420AD902F1CB
:100D78008073981E041B88688242FCD88B68A34243
:100D8800F9D810BD141B8868A04202D98B689A4212
:100D9800F9D210BD2DE9D04C154B4EF21004CEF20D
:100DA80000049F68A2680446BA4284BF07F18077AE
:100DB800023FBE1AD3E9000110EB060A41F1000B0D
:100DC8005F465646C3E900679A60012000F0C6F8FE
:100DD80044F6D351C1F26201A1FB00B20023504690
:100DE8003946920911F04CFE001BBDE8D08C00BFBB
:100DF800080F002048F20003C4F2030310B4D3F82C
:100E08009400194620F00402C3F89420D1F8504108
:100E180048F2000314F0010FC4F20303F6D0D3F82C
:100E28009400194620F00102C3F89420D1F85041EB
:100E380048F2000314F0020FC4F20303F6D0D3F80B
:100E48009840444A24F48051C3F89810D3F8981075
:100E58004FF28000C1F3422CC0F2FA20BCF1070F18
:100E68001060D3F890003BD14FF2800C0124C0F2FF
:100E7800FA2CC0F30240BCFBF4F3072853603DD1C1
:100E88004FF2800C0120C0F2FA2CBCFBF0F3C1F346
:100E98008200072893603FD14FF2800C0120C0F2F6
:100EA800FA2CBCFBF0F3C1F342100728D36041D100
:100EB8004FF2800C0120C0F2FA2CC1F34231BCFB86
:100EC800F0F30729136143D0234850F821104FF25B
:100ED800800CC0F2FA2CBCFBF1F3536110BC7047D4
:100EE8001D4BC0F3024053F82C404FF2800CC0F267
:100EF800FA2CBCFBF4F307285360C1D0164B4FF211
:100F0800800C53F82000C0F2FA2CBCFBF0F3C1F3BC
:100F1800820007289360BFD00F4B4FF2800C53F824
:100F28002000C0F2FA2CBCFBF0F3C1F342100728F2
:100F3800D360BDD0084B4FF2800C53F82000C0F2AC
:100F4800FA2CC1F34231BCFBF0F307291361BBD182
:100F58000121BCE7180F0020B4350100052803D88B
:100F6800024B53F82000704700207047180F0020EC
:100F7800014B43F820107047180F0020704700BF3E
:100F880048F20003C4F20303012098619A6C42F00E
:100F980080019964986C20F080029A64FFF716BE6D
:100FA800704700BF704700BF704700BF704700BF61
:100FB800704700BF704700BF704700BF704700BF51
:100FC800704700BF08B50748074907F051F9074AB5
:100FD8000748084B11681B680268074807F048F97A
:100FE800002008BD10360100D0350100000F002098
:100FF800000F0020F44B00201836010070B590B0A7
:1010080040220B48694606F019F9444600286D4607
:101018002668D8BF4FF4E13004DD684600210A2273
:101028000BF08EFCA060A3680020336010B070BD88
:101038004436010008B5024807F002F9FEE700BF90
:101048005036010038B5424C2268A2F54058A8F144
:101058002008002120224046FFF7A8FB4546A8F1BA
:101068001C002860286800211C22FFF79FFB4246CD
:10107800D2F804C0374B384D196820684CF0010C81
:10108800C2F804C02B68354A091A11601BB908E078
:1010980055F8043F23B198470028F9D0FFF7CAFF55
:1010A8002068A0F540504FF4405107F045FE08F085
:1010B80029F82B4841460C6806F034F90BF0E2FB9E
:1010C800606009F0EFFC08F0BFF807F029F900F0BC
:1010D8005BF8244806F026F928B1002110220BF00D
:1010E8002FFC214B1860214806F01CF9014618B165
:1010F8001F48802200F086FC0AF018FD0AF068FEFE
:101108001C4807F09DF84046056800216A691A489E
:1011180007F0AEF841460B68184998690BF05AF980
:10112800174807F08DF84446206800F037FB15484B
:1011380007F09EF848F20000C4F20300026E22F0A5
:101148000105056609F0A4F809F0A2F8FAE700BF5E
:10115800000F0020000F002000000020300F0020AA
:101168007C360100843601004C00002090360100D6
:10117800982800209C360100B0360100C86701009D
:10118800C4360100CC360100704700BF002070470C
:1011980070B5A2B0044680222C4902A8FFF774FB60
:1011A800266BE56AE16BA26B636B29480096019593
:1011B800256C07F05DF8A16A626A236A254807F082
:1011C80057F82669E169A26963692348009607F020
:1011D8004FF82668E168A26863682048009607F01F
:1011E80047F815F0804F14BF5A227A2215F0005F95
:1011F80014BF4323632305F0704C15F0805F14BFC0
:10120800562676261648BCF1000FB4BF4E216E2133
:10121800009607F02DF8206C22AA00F01F01114C4F
:1012280002EB8103104A10F0800F14BF21461146CB
:1012380010F0400F18BF22460C4C53F8803C0C4865
:10124800009407F015F822B070BD00BFE836010021
:1012580068370100B0370100D437010004380100B5
:10126800343801004838010044380100E4580100CE
:101278004C38010008B503480BF0EAFC0020024B8B
:10128800984708BD6C380100FD0C002010B50446D5
:10129800044806F0EDFF2046FFF77AFFBDE810404E
:1012A800E8E700BF8038010010B50446044806F09E
:1012B800DFFF2046FFF76CFFBDE81040DAE700BF0C
:1012C8009438010010B50446044806F0D1FF2046C2
:1012D800FFF75EFFBDE81040CCE700BFAC38010067
:1012E80010B50446044806F0C3FF2046FFF750FF38
:1012F800BDE81040BEE700BFB838010010B504468D
:10130800044806F0B5FF2046FFF742FFBDE810404D
:10131800B0E700BFC438010010B50446044806F021
:10132800A7FF2046FFF734FFBDE81040A2E700BF43
:10133800D438010010B50446044806F099FF204649
:10134800FFF726FFBDE8104094E700BFE83801002A
:101358004FF0FF30704700BF014B1868704700BF5F
:10136800340F0020104B5A689AB1D8B1136B9A42C7
:101378000FD0012110F0010F0DD0884201F1010CAE
:101388000ED01B6B0CF101019A4202D01B6B9A42E2
:10139800F3D1002070471B6B9A42FAD00221ECE788
:1013A8001846704710467047340F00200B4A5368A0
:1013B80083B11268934209D0002001E0934206D01D
:1013C8001B6B0130002BF9D1002070470020002A48
:1013D800FAD070474FF0FF30704700BF340F00203D
:1013E80010B5054C23682BB11846D96A884723687D
:1013F8000122DA6110BD00BF340F002008B5064B8A
:1014080084461B680A4623B1184661465B6A9847BA
:1014180008BD4FF0FF3008BD340F002008B5054B5C
:101428001B681BB11846996A884708BD4FF0FF3002
:1014380008BD00BF340F00200349044B086800288A
:1014480008BF1846704700BF340F0020083A010053
:1014580070B5084D06466C6844B121463046FFF722
:101468001DF828B1246B6B689C42F6D1002070BD32
:10147800204670BD340F002070B5154C2368002B32
:1014880021D005F0B5FEA168054611B1E068854296
:1014980006D0104805F046FFE5600146A06098B107
:1014A80025680B4E284600E0B168FEF7F7FF50B1FB
:1014B8002268106B85422060F6D106482946BDE8AF
:1014C800704006F04FB970BD01490D68F5E700BFDF
:1014D800340F0020103A010038B50546144805F0CD
:1014E80021FF18B11349FEF7D9FF90B1124C2368B8
:1014F8007BB17DB91B6B1148236005F013FF58B110
:101508000D4A1168FEF7CAFF30B921682069884280
:101518000AD038BD2361EDE72168084806F022F9B2
:10152800216820698842F4D1054B01221A6038BD30
:10153800183A0100243A0100340F0020103A010043
:10154800A40F002038B50F4D0446696851B10A460A
:1015580000E01A46136B9942FBD114630020216303
:10156800E06138BD08486C602C6005F0DBFE18B1FE
:101578002968FEF793FF18B10348296806F0F2F8C6
:101588006968EBE7340F0020103A010030B587B0E6
:1015980001AC0A460546054920460CF0ADFA284636
:1015A800214606F0DFF807B030BD00BF283A010039
:1015B80030B50C4683B0002855D001AD102229461D
:1015C8000BF0BEF9019B207093F90020002A48D146
:1015D800621C002B4AD01846294610220BF0B0F99D
:1015E800019B607093F90000002838D1A21C002BE1
:1015F8003FD01846102229460BF0A2F9019BA07093
:1016080093F90020002A28D1E21C002B34D0184678
:10161800294610220BF094F9019BE07093F9000021
:10162800C8B9221D002B2AD01846102229460BF0D3
:1016380087F9019B207193F9002052B9621D002B94
:1016480020D01846294610220BF07AF9607103B0B1
:1016580030BD0133F2E70133E3E70133D4E7013367
:10166800C4E70133B4E70A4602F8010B00231370FC
:10167800A21C00211170E21C00231370221D0021FE
:101688001170621D00231370E1E700BF10B50C460E
:1016980005F048FE2146FFF78BFF237813F0010F72
:1016A80001D0002010BD607894F802C0E27840EACA
:1016B8000C010B432179134362790B431A430CBF86
:1016C8000020012010BD00BF30B50246084B094874
:1016D80089B0002A18BF03460D46684619460CF023
:1016E8000BFA684629466C46FFF7D0FF09B030BDB3
:1016F8002C3A0100343A01002DE9F044234E82B01F
:1017080033688246002B3BD0746800256F4605E09D
:10171800246B70681D4A844211D0013569462846F9
:10172800FFF7D2FF0028F3D0062204F11000694623
:10173800FFF7AAF8246B7068144A8442EDD1146844
:1017480015462146124806F093FD3368514618465F
:101758001A6A904700280F480CDA06F089FD002025
:10176800FFF7BAFE29688C42ECD14FF0FF3002B087
:10177800BDE8F084054A02211068C1610020F6E73F
:10178800054806F05DFD4FF0FF30F0E7340F00200C
:10179800543A0100603A0100403A01002DE9F04E48
:1017A800574F002382B03B607B600446402008F01E
:1017B80011FA08F01BFE20460AF0B6FC0028C0F219
:1017C8008F807C68002C00F092804E4805F0AAFDBE
:1017D8008146412008F0FEF921464B4806F048FDB5
:1017E80000256E46DFF818B149462046B9F1000FCA
:1017F80002D0FEF753FE00B328466946FFF764FFA0
:10180800684642490622FFF7DFF8013528BB246BFA
:1018180079683F488C4232D006F012FD21463A489A
:1018280006F026FDDFF8D8B049462046B9F1000F8A
:10183800E2D0FEF733FE0028DED136483C6006F0E1
:10184800FFFC28466946FFF73FFF68462F490622F6
:10185800FFF7BAF801350028D9D004F1100A2B494E
:1018680006225046FFF7B0F8E8B969460622504606
:10187800FFF70AF8246B796825488C42CCD1DBF84D
:101888000010002928D0244805F04CFDF8B1DBF8F9
:101898000010FEF703FED0B90A2006F0ADFD284679
:1018A80002B0BDE8F08E062269465046FFF78CF874
:1018B8000028DAD02146194806F0DAFC51461848C3
:1018C80006F0D6FC1748694606F0D2FCCDE7396821
:1018D800114805F047FFDFE70F4805F043FFDBE756
:1018E8002046FFF735FD7C68002C7FF46EAF0E486C
:1018F80006F0A6FC6FF03F0008F06CF92546CEE72D
:10190800340F0020683A010094750100003A010084
:10191800743A0100783A0100103A0100843A010053
:10192800B03A0100D03A0100403A0100014B0222CE
:101938001A607047480F0020704700BF014B58607D
:10194800704700BF480F0020002910B42DDD012387
:101958004A1E8B4202EA0304028812D02CB10223E9
:1019680030F803C08B4262440BD003F1010C30F80D
:10197800133030F81C40D2180CF1010312198B42B5
:10198800F3D191B201EB124C1FFA8CF303EB1C401C
:101998004FF6FE71421CC0F2000102EA0100D0F1CC
:1019A800010038BF002010BC70470120FBE700BFD2
:1019B800002910B423DD01234A1E8B4202EA0304E6
:1019C800028812D02CB1022330F803C08B42624443
:1019D8000BD003F1010C30F8133030F81C40D2184A
:1019E8000CF1010312198B42F3D11FFA82FC0CEBA4
:1019F800124290B200EB124188B210BC704700202E
:101A0800FBE700BF10B491F90030222B2ED0013A29
:101A1800002A12DD0B7883B1222B0ED002F1FF3C95
:101A28001CF0010F1BD0BCF1000200F8013B04DDE3
:101A38004B7813B10131222B11D10021017010BC58
:101A480070474B78611C002BF7D0222BF5D000F89B
:101A5800013B6378013A002BEFD0222BEDD0013AFD
:101A68004C1C002A00F8013BEBDCE6E70131013AA7
:101A7800CDE700BF08B520B101783039CBB2092BCA
:101A880002D94FF60F7008BD0A2200210AF058FF4C
:101A980082B2130243EA122080B208BD10B505F0E5
:101AA80041FCBDE81040E5E7094A10884FF6FF728F
:101AB800010A41EA00239BB2934207D01805030D9F
:101AC80040F6FF7C634501D0122070470E20704716
:101AD80028000020020A42EA002C1FFA8CF24FF676
:101AE800FF739A4209D040F6FF70824205D0130571
:101AF800084604491A0D0BF0FFBF08460249FEF7D5
:101B080059BC00BF003B0100F83A010030B502069D
:101B180042EA106500F47F4345EA032400F47F009D
:101B280044EA102283B0C2F3072502F0FF04C2F38F
:101B380007430846120E0349009501940BF0DCFF99
:101B480003B030BD043B01000422FEF79DBE00BF78
:101B580070B51B4E4FF6FF7334881646220A42EAC8
:101B68000425ADB29D4204461BD00622FEF78CFE2A
:101B78002D050622A01D1349FEF786FE2A0D15F530
:101B8800801F16D0B6B22D0F330A45EA022543EA64
:101B980006264FF0810C2682E581A4F80CC012209D
:101BA80070BD0622FEF770FEA01D06490622FEF74C
:101BB8006BFEB0B2010A41EA0026A6810E2070BD74
:101BC80028000020500F0020FFF718BC2DE9F04E28
:101BD800934D0D2984B004462861696133DD914E27
:101BE8008389728830884FEA122C070A1E0A47EA4E
:101BF80000204CEA022C46EA032640F6FF724FF614
:101C0800FF7380B21FFA8CFCB6B240F2E9579C45CC
:101C180008BF9446984214BF03461346BE4215DDDA
:101C2800B6F5014F4AD00E3904F10E071B051B0DFE
:101C380040F6FF70834217D0824204BF4FEA0C522D
:101C4800120D934210D004B0BDE8F08EA08A1B0597
:101C5800060A46EA00271B0D40F6FF701639834234
:101C6800BEB204F11607E7D140F6060C66453AD035
:101C780048F23502964211D0B6F5006FE3D11B2920
:101C8800E1D97888020A42EA002C1FFA8CF28A42CB
:101C980040F3D680644806F0EBFAD4E71B2940F3FA
:101CA800B980F888020A42EA002C0FFA8CFEBEF1CD
:101CB800040F7DD05D4806F0C3FAC4E71129C2DDE0
:101CC8000005000D9042BED0E789208A3E0A46EA08
:101CD8000722060A46EA00271205BEB2120D12397B
:101CE80004F11207A2E71B2940F394803B881A0AE3
:101CF80042EA032001B20129A5D17888030A43EA00
:101D080000210FFA81FCBCF5006F9CD197F804A064
:101D1800BAF1060F97D17A79042A94D1A969DFF824
:101D2800009100298FD007F1180103AB01911846E3
:101D380001990093FEF7A8FDD9F81800039A07F156
:101D4800080B9042009B7FF47EAFF888020A42EAB3
:101D5800002E1FFA8EF2012A00F0D880022A7FF4A2
:101D680072AFE9692E4C00293FF46DAF206A002854
:101D78003FF469AF042218460BF10601FEF784FD13
:101D8800626A039B9A427FF45EAF59460622206A34
:101D9800FEF77AFD216A0622A06AFEF775FDE16A60
:101DA800A06AFFF72BFB00212162E161E1624AE7AB
:101DB8003888020A42EA00210BB2012B7FF47AAF7D
:101DC8007B88190A41EA032C0FFA8CFEBEF5006FD6
:101DD8007FF470AFB88840F2064290427FF46AAF51
:101DE800134807F11801FFF7AFFE2B6B07F1080442
:101DF80023B907F10E010F48FFF7A6FE2146062278
:101E08000D48FEF741FD00206C6801460246034676
:101E1800A04718E709481C2206F02AFA13E700BF72
:101E2800480F0020280000203C3B0100243B010013
:101E3800600F0020780F00207C0F0020103B01006D
:101E48003B7803F0F00140297FF4FDAE03F00F0367
:101E5800052B3FF7F8AE38460A21FFF775FD002835
:101E68003CD0042203A807F11001FEF70DFDAB6971
:101E7800039A6BB1B3EB020E18BF4FF0010EB2F12B
:101E8800FF3F0CBF00200EF0010000287FF4DBAEFE
:101E9800F888020A42EA002399048A0C002A7FF48F
:101EA800D2AE7B7A012B1DD0112B7FF4CCAE3B8BAD
:101EB800B7F816E0BA8A190A41EA0324100A4FEA69
:101EC8001E2C4CEA0E2140EA0222A3B207F11C00A4
:101ED8006C6889B292B2083BA047B4E61F4806F086
:101EE800AFF9B0E697F814C007F11403BCF1050F79
:101EF8007FF4A9AE93F801E0BEF1010F7FF4A3AE21
:101F080007F11801164806F0B3F99CE63246A11D00
:101F18002046FFF71DFE4FF4007CA7F806C0524686
:101F2800064607F10E05594607F11200FEF7ACFC0C
:101F380001982946FFF708FE524609F1080158465C
:101F4800FEF7A2FC284609F11801FFF7FDFD20461F
:101F580006F11C01FFF752FA75E600BF503B01007D
:101F6800603B01002DE9F044294D82B0EE6B294910
:101F780040F606023046FFF7EBFD4FF48072341846
:101F8800062332524FF0080C4FF0040A4FF48076C3
:101F980004F108071A462371A4F802C0E68005F187
:101FA800080184F805A03846FEF76EFCA96902AE60
:101FB80046F8041D5246314604F10E00FEF764FC53
:101FC8000023E375A374E37423756375A375EB6944
:101FD800A8692A6C83EA0001114201D06B6C83B1B5
:101FE8006B62314607F1100004220193FEF74CFCA6
:101FF800E86BC0F11C010919FFF700FA02B0BDE84F
:10200800F084054806F01CF9EB696B62E9E700BF4C
:10201800480F00202C000020803B010038B5044602
:1020280010B9054B986438BD034D0020A964FEF72C
:10203800B1FE2C65E86438BD480F002038B5254846
:1020480005F070F9044618B12349FEF727FAE8B9F4
:10205800224D6B6D5C1C6C65FFF7C2F9AA6D1F4CB5
:10206800D2F1010038BF0020FFF736FA4146086870
:10207800FFF742FBE86D30B1236E0020E065DBB965
:102088000422226038BD0223236038BD204614494B
:10209800FEF704FA28B9114DFFF7A2F904232B60C3
:1020A80038BD20460F49FEF7F9F968B901200B4DF4
:1020B8006B6D9842CED8EFE70B4942F21070FFF7EC
:1020C800ADFF0A49616038BD002120460A460AF082
:1020D80037FCECE7AC3B0100B83B0100480F00209F
:1020E800243A0100BC3B01003519000041190000E9
:1020F80010B50F4CE36903B910BD0020FEF74AFE86
:10210800636E41F28831C21A8A42F5D9A16E4A1C1F
:10211800042AA26603DC6066BDE8104022E7054891
:1021280006F08EF80020A066BDE8104086E700BFE4
:10213800480F0020C43B01002DE9F04482B0089FFD
:10214800019117F0010F044615469A4603D007F18E
:102158001C030022C25400263349452323706670AD
:10216800CB6EBFB207F11C0290B29AB24FEA122CA2
:102178004FEA102E4EEA002001334CEA022ECB66BD
:10218800A4F804E04FF0FF334FF0400E1122237201
:10219800608062721831A4F806E00422668104F1B6
:1021A8000C000837FEF770FB1FFA8AFA01A904220F
:1021B800ADB2BFB204F11000FEF766FB4FEA1A2C6D
:1021C800280A3B0A4CEA0A2A40EA052543EA072777
:1021D800A4F814A0E58227836683A21C208863885C
:1021E80051880232C318508802325B185188023273
:1021F8001B18508802325B18518802321B1850880D
:1022080002325B1851881B1892885B18D31898B251
:1022180000EB134C1FFA8CF202EB1C41C84360819F
:1022280002B0BDE8F08400BF480F00202DE9F04E51
:1022380084B0934699460C9D0E46002928D1344F08
:10224800344C384604F170010622FEF7BDFB4FF00E
:10225800FF36844600282AD0D4F83CA039464FF4EB
:1022680000625046FFF774FC0AEB00073846314617
:102278005A464B460095FFF75FFFE06B05F11C03DC
:102288003F1AD919FFF7BAF8002004B0BDE8F08E5C
:102298001F4F204CB1F1FF3F18BF0746384604F1E5
:1022A80070010622FEF790FB84460028D4D1D4F8AA
:1022B80028A039464FF400625046CDF80CC0E661BC
:1022C8002762FFF745FC0AEB00074B4631463846C4
:1022D8005A460095FFF730FFA26AE06BB91A1C3125
:1022E80009182A4607F11C00FEF7CEFAA36ADDF8A2
:1022F8000CC0FF1A1C3560460126ED19E562A6667A
:10230800FEF748FD6066FFF72DFE3046BDE700BFCB
:102318002C000020480F00202DE9F04E934D944CDE
:1023280005F5E273DE1C04F19709002329F01F026A
:10233800414626F01F07012602F5406C02F5C06EE3
:1023480088B0E362A36523662362E3616362E263A4
:10235800A76266650F68C5F8A0E1C5F8A4C1814603
:10236800FFF73EF8FFF788F83846FFF7C5F9002869
:10237800C0F2F78006FA09F240F2131BC0F2000B14
:1023880002EA0B00B246009226468346FEF7E4FFB7
:10239800062200F110017748FEF776FA43461F68D7
:1023A800C4F800A0019704F023FFD5F8C817074622
:1023B800884224D001980422011D6F48FEF764FA70
:1023C8006E4804F0AFFF0AF05DFA70646C4804F0E0
:1023D800A9FF0AF057FA30646A4804F0A3FF0AF02C
:1023E80051FA30636848FFF759FB684B58806848D2
:1023F800FFF754FB5D49654AC1F8C8771080B9F109
:10240800090F09D9C4F860A0B9F1040F35D8DFE87D
:1024180009F06B2E34686100BBF1000F13D05548EA
:102428005C490622FEF7D0FA0028EBD1FEF7BEFF82
:10243800B0F1FF3F7AD000287ED1574805F000FF61
:10244800FFF7FCFD1CE0009A12F4027FDAD0216B42
:10245800002978D0B369002BE1D1504805F0F0FE8F
:10246800FEF7BEFF4FF0FF3008B0BDE8F08E4C4FCE
:102478000023A3613B6000F0A9F80020C5F8CC0751
:10248800FEF7CCFF05F0D6FF0746002861D1FFF71D
:102498002FFEA16C384631B1FEF77CFCF16C336D30
:1024A800421A9A4212D82368032B07D0042BD9D09A
:1024B800022BE5D12E4FC7F858A067E7D5F8CC17FF
:1024C800C9B9FEF78DFFD5F8CC07CDE7B06CB76476
:1024D8008047E8E7334800270760A76100F018FE47
:1024E800CBE700F09DF9C8E72E4A00211160A161F1
:1024F80000F044FDC1E70A462B4805F0B9FE1B4928
:1025080003ACD1F8CC27204628490BF0F5FA214630
:10251800274805F027F9274B24491A6820460BF06D
:10252800EBFA2146244805F01DF9CAE7234805F0CF
:1025380087FEFEF755FF95E70146214805F098FE0E
:10254800FFF77CFD9CE71F4805F07AFEFEF748FF81
:1025580088E7FEF745FF1C4805F072FE4FF0FF3094
:1025680082E7FEF73DFF4FF0FF307DE74020002077
:10257800480F0020500F0020600F0020F03B0100A2
:10258800FC3B0100043C0100103C01002800002035
:10259800183C0100F03A0100803C0100403C010079
:1025A80018290020D4290020C83C0100EC3C010077
:1025B800F03C01004C000020FC3C0100603C0100A4
:1025C800A03C0100203C0100C03C01002DE9F0477F
:1025D800264DDFF8B4902E682548741C21462C60DF
:1025E80005F046FED9F80060224948F23502304627
:1025F800FFF7AEFA204F4FF4807C341826F800C05D
:1026080006254FF0040A4FF008024FF4407062802C
:10261800E08039462A46257184F805A004F10800AF
:10262800FEF732F95246154904F10E00FEF72CF96F
:102638002A46394604F11200FEF726F94FF0FF3317
:10264800E37623766376A376D9F80000C0F11C01FF
:102658000919FFF7B9FA41F288300949FFF7DEFC9A
:102668000848BDE8F047FFF769B900BF18290020FE
:10267800083D01002C000020500F0020600F0020B2
:10268800C926000095260000840F0020094810B5CF
:1026980005F0EEFD084804F045FE18B190F9003049
:1026A8006E2B03D0BDE8104000F0BAB803480322EF
:1026B800026010BD1C3D01002C3D0100480F0020A8
:1026C800094810B50368042B07DC41F28830074934
:1026D800FFF7A4FCBDE8104078E7054805F0B0FD19
:1026E800BDE81040FFF7AABC18290020C926000041
:1026F800383D0100F0B53E4883B00768FFF7D4F9CC
:102708003C4C1C3021683D184B1E042B6DD8DFE86B
:1027180003F034271A0327004FF4A0614FF4007325
:102728003952281D6B803449FDF744FE1725D4F82B
:102738009030D4F88810D4F88C2030480095FFF7F2
:1027480075FD03B0F0BD4FF4A0624FF4407E3A52DD
:102758002B49281DA5F802E0FDF72CFE1325E6E716
:10276800B4F884104FF4806C27F800C0080A40EAD7
:1027780001239AB26A800425D9E74FF4807EAE1C03
:1027880027F800E01F493046FDF714FE1D48FDF705
:102798000BFF411C76181C4F1C493046FDF70AFEFA
:1027A8001B49B01DFDF706FE386844F6D35CC1F23C
:1027B800620CACFB00130E369A09164930460BF032
:1027C8009BF93146144805F053FD3046FDF7ECFE01
:1027D800421CBB88B618002730463A460F49009776
:1027E8000BF08AF93618751BA1E700259FE700BF93
:1027F800840F00201C290020A83D01007C0F002028
:10280800983D01002029002034000020603D01008F
:10281800D03D0100683D01006C3D0100883D01008C
:10282800F0B5724883B004F07DFD002800F0D38035
:1028380000210A220AF0EAF86D4DA8806D4804F0DC
:1028480071FD002800F0BA800A2200210AF0DEF8A3
:102858000246B2F57A7F2860C0F0B5806648A9883C
:1028680005F006FD654F6648664C036897F90060F9
:10287800C4F88830002E40F08180634904F1940048
:102888000A686249C2F3074CC2F30723170ED2B293
:10289800CDF800C001970BF02FF904F19401201D29
:1028A8008022FDF78FFD5A48211D84F8836005F0CA
:1028B800DFFCFEF7C1FD534E534F0146554805F066
:1028C800D7FC06F1880154483A4605F0D1FC534933
:1028D8000B681BB152480368002B63D10A20514E84
:1028E80005F08AFD5049514805F0C2FC318841B1D4
:1028F80049024F4805F0BCFC33884E49580209F09C
:1029080069FD0A2005F078FD4B4A4C48116805F02E
:10291800AFFC4B4805F094FCEE684A492868AE6065
:10292800FFF77CFB00264848FFF708F845230122FB
:102938003046C4F88C302260C4F8A460FEF72AFA46
:102948004AF6AB2CCAF6AA2CACFB0031CB0A03EB37
:102958004302A0EB822101F58063062231463B4801
:10296800C4F89030C4F88460FDF720FF4FF4007C71
:10297800A5F810C003B0BDE8F040BBE638463A21E0
:10298800FDF7D8FD064640B3384609F07BFF711CB9
:10299800C4F888008022201D0026FDF713FD84F866
:1029A800836086E73A68D6F8880003EA020E034097
:1029B8009E4593D0264805F05BFC8FE72A68B2F560
:1029C8007A7FBFF44BAF1146224805F051FC4FF413
:1029D8007A722A6042E7064D30E73946201D802288
:1029E800FDF7F0FC84F8836063E700BFBC3D01009D
:1029F80034000020CC3D0100103E01009828002042
:102A0800780F00201C290020600F0020383E0100AC
:102A1800543E0100803E0100943E01008C0F0020CE
:102A2800880F00209428002020290020E43E01007F
:102A3800F43E0100E45801004C0000200C3F010066
:102A4800243F0100612A0000AD2A00007C0F00200D
:102A5800C43E0100D83D01000D4A10B50D4CD2F816
:102A6800A400A168431C8B42C2F8A43009DC0A48C0
:102A780005F0E6FB20680949FFF7D0FABDE81040E9
:102A880038E6074805F0DCFBBDE81040FFF7D6BA8A
:102A98001C29002034000020303F0100612A00007A
:102AA800383D01002DE9F046A04C0646D4F89000C8
:102AB80083B08842154602D003B0BDE8F08622688C
:102AC800012A03D0D4F88C10A942F5D1012BF3D9EF
:102AD800374637F8021BA3F1020A080A40EA012C1C
:102AE8001FFA8CF1052900F0E680062979D0032920
:102AF800E2D1BAF1010FDFD973888C4E190A41EA85
:102B0800032083B2C4F88430002B00F038814CF6DF
:102B1800CD41581ECCF6CC41A1FB00C1C90801EB40
:102B2800810CB0EB4C0F00F03E8143F2FD3CCCF63B
:102B3800A61CACFB030140F28A20490A00FB1133B2
:102B4800002B00F03E81012A00F04081012A14BFC9
:102B580000230123052A14BF1A4643F00102002A64
:102B680000F0CD80D4F8843000200221012B2160B0
:102B7800C4F88C50C4F8AC00C4F8B000C4F8A8007D
:102B880040F016816A4DC4F8B0300A2369492868B4
:102B9800AB60FFF743FAD4F88420B5F810C0D4F836
:102BA800AC30501E00FB0C346349AAF1020A0A68D3
:102BB800B91CA0185246FDF767FE604B54441868CC
:102BC800844288BF1C60FFF795FDB5F810C0E24548
:102BD800BFF472AF5A4805F033FB5A48032101602D
:102BE8006AE738460193FDF7DFFC431CFA1856489C
:102BF800394605F03DFB0522BAF1080FC4F88C50A0
:102C08002260019B53D90B3B5049384603F001051C
:102C1800FDF744FCDFF818910146002877D001261B
:102C2800BC19BAF1090F42D9DDB148492046FDF770
:102C380035FC0146002800F09380013606F1080EA5
:102C48000134F2450DD832E040492846FDF726FC0C
:102C580001360146E8B106F109026C1C01369245BD
:102C680025D93A492046FDF719FC651C014600287C
:102C7800EAD104F108070A22384609F061FE1FFA72
:102C880080FC394662463248A9F810C005F0F0FACF
:102C9800DAE709340A22204609F052FE83B22146B7
:102CA8001A462B48A9F8103005F0E2FAD3E703B02A
:102CB800BDE8F0461EE57388B91C1A0A42EA032EDD
:102CC8001FFA8EF2234805F0D3FA7188080A40EA01
:102CD800012C1FFA8CF35A1E012A08D81E4805F049
:102CE800AFFAFEF77DFB174804210160E4E61B48B4
:102CF80005F0A6FA03B0BDE8F046FFF79FB9D4F88F
:102D08008430D4F8B02093423FF4D6AE3AE70A367E
:102D18000A22304609F014FE84B2314622460C4895
:102D2800A9F8104005F0A4FA79E700BF1C29002093
:102D380034000020612A00004C0000200C280020EC
:102D4800F03F0100480F0020343F0100483F0100D8
:102D5800503F0100F83F01001040010024400100ED
:102D680009370A22384609F0EBFD1FFA80FC39467C
:102D780062461948A9F810C005F07AFA5DE71749C4
:102D8800D6F8A800D6F8AC30B1F810E0421C03EB36
:102D98000E43C6F8A820190D1148C6F8AC3005F046
:102DA80067FA3268CFE6232005F026FB3268CAE6C8
:102DB80019460C4805F05CFA03B0BDE8F046FFF789
:102DC8003DB9094805F03CFA3268BCE6074805F009
:102DD8004FFA2268BAE600BF503F010034000020D5
:102DE800683F0100B03F0100803F0100843F0100BF
:102DF80000B583B00146042201A8FDF745FD0198FE
:102E080003B000BD2DE9F00E4FF0630C044604F842
:102E180001CB661C751C6F1C07F1010A0AF1010938
:102E280087B009F1010B01970BF1010704970137EE
:102E38000397013705976FF07D0747704FF05307E9
:102E4800677086F801C04FF0350C85F801C0019C09
:102E58004FF0010C84F801C04FF002078AF8011006
:102E6800392189F801108BF80170049D40216F7099
:102E7800039C6170059F07EB0C0194463AB3120658
:102E880042EA1C664F1C0CF47F4546EA05297E1C65
:102E9800751C6C1C03940CF47F0B059C49EA1B22DF
:102EA8004FF0360A84F801A04FEA226C4FEA224913
:102EB8004FEA222B4FF0040A81F801A087F801C0DD
:102EC80086F8019085F801B0039F7A70B91C0BB39E
:102ED8000A461D06322402F8014B45EA136903F439
:102EE8007F4649EA062A03F47F07561C4AEA172355
:102EF800751C6C1C4FEA236A1F144FEA232C4FF0F1
:102F0800040981F8019082F801A0A11C777085F866
:102F180001C063700A46372502F8015B541C631C24
:102F28001B1A4FF0000C4FF0FF35402B81F801C001
:102F380055701EDC0B1D181A034681F803C0C0F13A
:102F48004100591C402B00F0010012DC38B10B463F
:102F58000131481E402882F803C0224609DC501C73
:102F68004B1C82F803C0591C421C402B80F803C03C
:102F7800F5DD184607B0BDE8F00E70472DE9F04EB4
:102F88005B4EDFF888B1706886B0421C0025114698
:102F980058483560726005F06BF9DBF80040294647
:102FA80040F2EE522046FDF701FC53494FF400620F
:102FB8002046FEF7CDFD241804F11C0901274FF027
:102FC800060A277789F8017089F802A089F8035062
:102FD80028460297CDF80CA0FDF7DCFE44F6D35343
:102FE800C1F26203A3FB001CCCF38F120DF1180A87
:102FF800110A4AF8045D41EA0227A9F80870514607
:10300800042204F12800FDF73FFC5146042204F194
:103018002C000595FDF738FC5146042204F13000D8
:103028000595FDF731FC5146042204F13400334F75
:103038000595FDF729FCDDF80CA03946524604F148
:103048003800FDF721FC04F1880080222C49FEF7A6
:10305800D9FC029B2A46194604F584702B46FFF7D3
:10306800D1FE8246F878BA780304797943EA026097
:1030780097F804C0084340EA0C212846B160FDF7E0
:1030880089FEB3683146C3181A0642EA136503F489
:103098007F4003F47F0C45EA002242EA1C2541F8F0
:1030A800085F042204F12000FDF7EEFBDBF80000C6
:1030B800432244230AF1EC05C0EB09094FF0FF3124
:1030C80020460095FFF738F80E4940F6B830FEF76D
:1030D800A5FFA94403230C483360FEF72FFCDBF857
:1030E80000004946FEF770FD06B0BDE8F08E00BF4F
:1030F800D0290020384001002C000020500F00206B
:10310800982800201D310000F1320000840F0020B3
:1031180034E700BF094810B54368042B07DC41F2C7
:1031280088300749FEF77AFFBDE8104026E70548D2
:1031380005F086F8BDE81040FEF780BFD0290020D2
:103148001D310000383D01002DE9F04E037882B0B2
:10315800FF2B0446894600F509763FD06C31DFF82D
:1031680074B1019100275A1E6578422A4BD8DFE8CE
:1031780002F0444A3E4A4A384A4A4A4A4A224A4A95
:103188002E4A784A4A4A4A4A4A4A4A4A4A4A4A4A85
:103198004A4A4A4A4A4A4A4A4A4A4A4A4A4A4A4A87
:1031A8004A4A4A4A724A2E4F4A4A4A2E2E4A4A4A9E
:1031B8004A4A4A2E55001F2DDCBF2A46AA4666DC1D
:1031C8003C48A11CFDF760FB3A4B03F80A70023536
:1031D8006419A64202D92378FF2BC4D102B0BDE8F6
:1031E800F08EA11C04223448FDF74EFBEFE7A11C2A
:1031F80004223248FDF748FBE9E7A11C04223048C5
:10320800FDF742FBE3E719462E4805F031F8DEE703
:10321800A11C04222C48FDF737FBD8E77F2D2CDCB6
:103228002A1E18BF0122AA4699F96CC0BCF1000FEA
:1032380014BF002102F001010029C8D0234805F07D
:1032480017F80198A11C5246FDF71EFB0AEB09036B
:1032580083F86C70BBE7A11C04221D48FDF714FB22
:10326800B5E73F2DDCBF2A46AA4619DC1948A11C40
:10327800FDF70AFB0BF80A70A9E72A461648174912
:10328800802304F0F5FF4FF07F0A0122CCE72A469D
:1032980011481349202304F0EBFF1F2292468FE7C1
:1032A8002A460D480F49402304F0E2FF3F22924688
:1032B800DCE700BF34280020102800208C0F0020F5
:1032C800880F0020DC400100E0290020AC4001000C
:1032D800DC290020542800204C4001009C400100BB
:1032E80084400100904001002DE9F04EAB4E0D46A0
:1032F8001446D6F800C011462A46443D18BF012599
:1033080086B00746432C0CBF2C4645F00104A44860
:10331800CDF800C09A4604F0ABFF3CB14FF0FF3146
:10332800A04804F0A5FF06B0BDE8F08EBAF1EB0F97
:1033380098BF6FF00101F3D93B78591EC8B2591FE5
:1033480018BF0121012894BF002201F0010222B117
:10335800062B18BF6FF00201E2D17B78012B18BF52
:103368006FF00301DCD197F802E0BEF1060F18BF39
:103378006FF00401D4D107F1040B5846FFF738FD6C
:10338800B268864C904202D06FF00501C8E7002170
:10339800844804F06DFF256853464321442282483F
:1033A800009504F065FF2368042B07D0062BBAD0DC
:1033B800032B69D07D4804F043FFB4E77C4807F14C
:1033C800EC0404F055FF2046FFF712FD48F2632C89
:1033D800C6F2533C6045A6D197F8F03007F1F005E6
:1033E800FF2BA0D0352B2B4607D05978881C1B18EB
:1033F8001A78FF2A97D0352AF7D193F802E0BEF160
:10340800050F90D12046FFF7F3FC48F26323C6F27C
:103418005333984200F0FD8007F1100104226548FB
:1034280007F11404FDF730FA042204A82146FDF739
:103438002BFA049A002A40F0E6805F486C3704684B
:1034480006225E48A11DFDF71FFA3846FDF7ACF8C5
:10345800002840F0D1805A4C59495A4804F008FFD6
:1034680094F9001019B15848554904F07BF906221F
:10347800326056484F4904F0FBFE554803F052FFAE
:10348800544B03221A604EE707F16C01524804F0CE
:10349800EFFE0425514804F0EBFE07F1EC0025602F
:1034A800FFF7A6FC48F26329C6F2533948456ED0A7
:1034B800DFF840A14A4941F28830FEF7AFFD49489C
:1034C80004F0D6FEDAF800400021204640F2EE5221
:1034D800FDF76CF9204644494FF40062FEF738FBCB
:1034E800241804F11C05002101224FF00609E97097
:1034F8006A70227785F8029008460391FDF74AFC26
:1035080044F6D353C1F26203A3FB001CCCF38F1221
:10351800039B100A40EA022C06A9A5F808C041F846
:10352800083D042204F13400FDF7AEF94A4604F1DF
:1035380038002E49FDF7A8F95946042204F1200065
:10354800FDF7A2F907F11001042205A8FDF79CF97F
:103558003269059B032104F58470FFF753FCDAF800
:10356800001000F1EC06681A85194322204644230E
:103578004FF0FF310096FEF7DFFD29461C4804F0A6
:1035880077FEDAF800002946FEF71EFBCBE607F1C6
:10359800F0003946FFF7D8FD8AE700BFD0290020A0
:1035A8000841010048410100644201004C42010009
:1035B80000420100600F0020580F00207C0F0020FF
:1035C8009828002018420100903601002842010086
:1035D8002C3D0100480F00205C410100844101009E
:1035E8001D310000A84101002C000020500F0020D0
:1035F800D4410100840F0020084C3946204680221F
:10360800FEF700FA28E7214604220548FDF73CF9B1
:1036180013E728463946FFF797FDFDE6982800206E
:10362800780F002008B50320FDF798FC43469A68F8
:10363800996800EBC2000B01B0FBF3F008BD00BFB6
:10364800064B013810B553F820402046FFF7EAFF33
:1036580001462046BDE8104000F078B8A8420100B5
:103668000120EDE7024B013853F8200000F098B82C
:10367800A84201000120F5E708B5044B013853F8CA
:10368800200000F085F840B208BD00BFA842010044
:103698000120F1E7034A0139034652F8210019468F
:1036A80000F06EB8A84201000121F3E70A2870B5BE
:1036B800044609D0094B013953F8215028462146C0
:1036C800BDE8704000F05CB8044A481E52F820502B
:1036D8000D21284600F054F8F0E700BFA842010089
:1036E8000121E3E738B503780D4643B1044658B2E3
:1036F8002946FFF7DBFF14F8013F002BF7D138BD4F
:103708000121EFE708B54FF08040FFF78BFF014636
:103718004FF0804000F002F8002008BD00226FF052
:103728007C0C0271032380F80CC010B40270C1F342
:1037380007240271C9B2072203730374027280F866
:103748000CC001700471037310BC7047002210B4E0
:103758006FF07C0402710323047302700271072264
:103768000373C1F3072C0374C9B202726FF07F02AE
:103778000273017080F804C0037310BC704700BF67
:10378800037D13F0200FFBD0C9B20170704700BF52
:10379800037D13F0010FFBD0007840B2704700BFE3
:1037A800007D00F00100704730B543461C6885B0C5
:1037B800E2681C481C4904F05BFDA26819481B49D3
:1037C80004F056FD22691748194904F051FD0022FA
:1037D8001448184904F04CFD62691248164904F06F
:1037E80047FD01ADA2690F48144904F041FD144991
:1037F8002846FCF7DFFD284603F094FD114A2946C8
:10380800002818BF0246104804F032FD211D0F4859
:1038180004F02EFD21680E4804F02AFD002005B0B2
:1038280030BD00BFB8420100C8420100D4420100C7
:10383800DC420100E8420100F442010000430100BB
:103848002C3A010008430100144301002043010001
:103858003443010008B5034608461146984708BD99
:10386800012A70B5144619DD5868102200211D1D63
:1038780009F066F8064601460B4804F0F9FC611E9B
:103888002A463046FFF7E6FF04460146003C18BFCB
:103898000124064804F0ECFC204670BD012404F025
:1038A800FFF9204670BD00BF704301009843010036
:1038B800704700BF021E18BF012280280CBF0022DB
:1038C80002F0010210B552B91C6E0648214604F0F8
:1038D800CFFC0F2006F07EF943461868A047012068
:1038E80010BD00BF584401002DE9F04EB0F1000CA6
:1038F80018BF4FF0010C84B080280CBF00200CF0DA
:1039080001000C461546009300287ED193F822301A
:10391800009A042B166800F0848000260196022C79
:1039280077DDA868FCF740FE0326A4F1030A471CCC
:10393800B4420AF0010A1ADDBAF1000F07D0E868AC
:10394800FCF732FE0426C1194F1CB4420FDD55F8AE
:103958002600FCF729FE0136C31955F826005F1C1E
:10396800FCF722FE0136C7190137B442EFDC3846AE
:1039780004F0A0FE14F0010F4FF002094FF0000A06
:103988004FF0200B064620D1A968FCF713FD4FF035
:103998000309A868FCF708FE4C4527DD06F800B0C7
:1039A80000F1010A043510E006F80AB0B968FCF71E
:1039B80001FDB868FCF7F8FD00EB050C09F10109F9
:1039C80006F80CB00CF1010A3D1DA96806EB0A00C7
:1039D800FCF7F0FCA868FCF7E7FD82442F1D09F10D
:1039E80001090AF1010570194C45DDDC0098046EE7
:1039F8001248214604F03CFC0F2006F0EBF8424642
:103A08001068019933460E4AA047012004B0BDE86A
:103A1800F08E0C4803F086FC094E002818BF0646B5
:103A2800E4E70121304603AA02AB05F081FD0299C3
:103A380000293FF472AF019671E700BFA04401006E
:103A4800E45801009444010084B02DE9F04E82B09E
:103A58000DF1280C8CE80F009DF83D109DF83CB046
:103A68000D9B064608460193109DDDF844A00E9C68
:103A78000B9FDDF8309005F0D3FCBBF1000F26D189
:103A8800A64201465DD0394804F0F2FBA14506D0B4
:103A980049462046019A4FF4803305F0DBFD019B2F
:103AA8003348E2182A6004F0CBFB314804F0C8FB25
:103AB800304821462A6804F0DBFBBAF1000F2ED00B
:103AC800072006F087F8A7422BD8002008E0BBF1B2
:103AD800010F0AD02848594604F0CAFB6FF00200CB
:103AE80002B0BDE8F04E04B070470146234804F028
:103AF800BFFB20464A464FF4000101AB08F070FEB8
:103B080018BB019960182860194804F099FB1948F6
:103B180021462A6804F0ACFBBAF1000FD0D1A742C5
:103B2800D3D92A68B242D0D931463A46144804F06B
:103B38009FFB144821462A6804F09AFB6FF00100A5
:103B4800CEE7114804F094FBA9E7104804F078FB8D
:103B5800BAF1000F02D14FF0FF30C1E76FF0050056
:103B680006F038F84FF0FF30BAE700BFFC44010018
:103B780010450100A84501008445010014450100D5
:103B8800D445010004460100EC4401003045010021
:103B98002DE9F04EAD4C002182B0174681468C22AB
:103BA80020469A46FCF702FEA94805F067FD012F5A
:103BB800C4F8840040F3E6800021DAF804001022FB
:103BC80008F0BEFE05460146A24804F051FB01205C
:103BD80006F000F8284605F053FC4FF0000B0646A7
:103BE800C4F854B0C4F850B0054605F08BFC012861
:103BF80018D0D9F80010984804F03AFB6FF06B0021
:103C080005F0E8FF5D46626D904E002A54D02846C4
:103C180005F078FC0128834653D0904804F010FB47
:103C2800012097E08E48314604F022FB336841F6C4
:103C38005612190641EA136103F47F4041EA002C49
:103C480003F47F0B4CEA1B20C2F205727F499042B5
:103C5800D1F884B040F0B180022005F0BBFF3046B7
:103C680005F028FD002800F0DF80032005F0B2FFF2
:103C7800304605F067FDBBF1000F0BD0794804F022
:103C8800DFFA304605F038FD002800F0D680764887
:103C980004F0D6FA042005F09DFF717F02295CD05C
:103CA800724804F0E5FA6FF0030005F093FF002571
:103CB800626D664E002AAAD16D4804F0C1FA01204F
:103CC80048E0A97F86F85D10E87F86F85C00287FC9
:103CD80086F85E00EA682B694FEA026949EA126EC3
:103CE80002F47F4C4EEA0C2902F47F024FEA036C7F
:103CF8004CEA136E49EA122203F47F494EEA092C72
:103D080003F47F0E4CEA1E234032B365736C5219DC
:103D1800F264002B00F08380B369022914BF0022EB
:103D280001224FEA036949EA136E03F47F494EEA18
:103D3800092C03F47F0E4CEA1E23042914BF1146F4
:103D480042F001013366002923D10120C4F888001C
:103D5800A564002002B0BDE8F08E052005F03AFF0A
:103D6800B37F022B4AD0042B30D0012B46D0D9F890
:103D78000010404804F07CFA6FF0040005F02AFFB8
:103D8800002540E73C4B3D481D68294604F070FA81
:103D98001DE70528D9D13846324606F16407514651
:103DA800683602230097019605F00EFE0028CCD055
:103DB800334804F045FA5846CCE7324804F040FA54
:103DC8004FF0FF3005F006FF002571E72E4A304618
:103DD8000021131D05F0ACFB314640222B48FCF7AF
:103DE800A1FD062026600126666405F0F3FE626DDB
:103DF8002748216D134604F03BFA04E7F36806F1FF
:103E08004002190641EA136103F47F4041EA002C9D
:103E180003F47F0E4CEA1E2322656365DCE71D4828
:103E280004F00EFA584695E71B4804F009FA6FF0BB
:103E3800010005F0CFFE00253AE7184804F018FA0B
:103E48006FF0020005F0C6FE002531E7E4290020E6
:103E5800304601006C46010098470100DC4701002C
:103E680098460100F846010010450100244701006A
:103E7800BC470100444701004C00002038460100BF
:103E880024480100CC460100342A0020E8290020FB
:103E98006847010000480100E0460100144701009E
:103EA8002DE9F044044686B058680D461746404947
:103EB80006221E4603F000FF331D002832D0D0F83A
:103EC8000CA0BAF1010F6BD03A4DD5F888309A455D
:103ED80025DD4AEA030095F85E20374BBAF1200F3A
:103EE800C5F8880053F8224024D007DCBAF1020F45
:103EF8002CD0BAF1100F47D0002417E0BAF1400FC8
:103F080036D0BAF1800FF7D1FDF740F9FFF7D0FCB2
:103F18005046394632462B46A047002406E027483B
:103F280004F0A6F9204603F0BBFE0124204606B0A3
:103F3800BDE8F0845046394632462B46A047044631
:103F48000028F3D01E4804F093F9EFE705F1480C78
:103F5800EE46583595E803008EE8030005AC9CE86A
:103F68000F00029400240394FFF76EFD0446DDE77A
:103F78005046394632462B46A04704460028D5D03D
:103F8800104804F075F9D1E75046394632462B46B9
:103F9800A04704460028C9D00B4804F069F9C5E7D2
:103FA800204629467A1EFFF7F3FD0446BEE700BF08
:103FB80050000020E42900200C4401004C48010076
:103FC8009C480100BC480100784801002DE9F04EEA
:103FD800144690B00022012C0F9207468A461D46CF
:103FE80012DD58680EA9102208F0AAFC0E9B93F95E
:103FF8000030181E18BF01203A2B0CBF002000F01B
:10400800010008B1232B77D13846514622462B466A
:10401800FFF7BEFDF8B1764804F012F9754803F0D1
:1040280081F975490446FCF739FA002853D17349D8
:10403800734803F097FB73496E4803F093FB05F050
:1040480093F800200146024603460DF071FB01205B
:1040580010B0BDE8F08EFDF799F8DFF8AC916A462C
:1040680009F15803834693E8030082E8030009F145
:10407800480C0FAE9CE80F00029601260396FFF746
:10408800E3FC002871DB99F85D005F4B01284BD0F9
:104098000820059305F09EFD059B5C4A93F85E0099
:1040A80052F82060002E2ED00593FFF701FC059BE7
:1040B80021462A460020B0476FF0080005F08AFD27
:1040C800534804F0BDF83846514622462B460DF0B9
:1040D8002FFB0120BCE720464A49FCF7DFF90028FE
:1040E800AFD14649464803F03DFB4349414803F0F8
:1040F80039FB05F039F8A4E73846514622462B46E5
:10410800FFF7CEFEA4E7BBF1000F42D105F05CF942
:1041180099F85E2001463F4804F0AAF86FF00700BE
:1041280005F058FD012093E7BBF1000F01D0FDF722
:104138002BF8394803F0F6F828B13849FCF7AEF9FE
:104148000646002838D0D9F86020601E130643EAD6
:10415800126E02F47F414EEA012302F47F0243EA21
:10416800122C291DE047002072E7B0F1FF3F37D03D
:1041780010F1020F13D010F1030F84D1BBF1000F1F
:1041880001D0FDF701F86FF0060005F023FD0120CE
:104198005EE7FCF7F9FF059991F85E00B6E7D9F8F4
:1041A8004410B1B199F822E0BEF1040F7FF46BAF6F
:1041B8001B4804F045F866E706ACD9F854201949BD
:1041C800204609F099FC2146174803F0CBFA3046FF
:1041D8003EE7164804F034F86FF0700005F0FAFC7A
:1041E8003846514622462B460DF0A2FA4BE700BF4F
:1041F800DC4801001C490100244901003449010040
:104208009444010078490100E42900200C4401008D
:10421800444A0100144A0100084A0100243A0100F6
:1042280084490100EC3C0100F03C0100C049010058
:1042380030B50D4C0D4D8646281B801000EB40050F
:1042480005EB051C0CEB0C2583B08C4605EB0545EE
:104258000092019300EB850172462046634603F005
:10426800C5FD03B030BD00BF8C9B01000C9E010052
:1042780048F20003C4F2030330B4D3F89820D3F80B
:10428800904000292FD1314BC2F3422107291860F1
:1042980033D02F4DC4F3024455F82110072CB0FB3E
:1042A800F1F1596031D10124C2F38201B0FBF4F479
:1042B80007299C6033D10124C2F34211B0FBF4F406
:1042C8000729DC6035D10121C2F34232B0FBF1F19C
:1042D800072A196137D01E4951F82220B0FBF2F0A5
:1042E800586130BC70470129FBD1184A50611060F1
:1042F80050609060D0601061F3E70121C4F302447C
:10430800B0FBF1F1072C5960CDD0114951F8244088
:10431800C2F38201B0FBF4F407299C60CBD00C4CAB
:1043280054F82140C2F34211B0FBF4F40729DC60D1
:10433800C9D0074CC2F3423254F82110072AB0FB07
:10434800F1F11961C7D10122C8E700BF702A002026
:10435800FC4A0100E02882B020D0E12801D002B058
:10436800704749F28060C0F2980048F2000101905D
:10437800C4F20301D1F898300198421E13F4805F0B
:10438800019202D0019B002BF4D1154A48F200009B
:104398001168C4F20300C0F89810E0E748F2A0637F
:1043A800C0F2010348F200010193C4F20301D1F8FD
:1043B8009800019B5A1E10F4805F019202D1019867
:1043C8000028F4D148F20003C4F20303D3F898207C
:1043D80022F46E6C2CF01C01C3F89810BFE700BFE4
:1043E800C8000020F0B44C4B4EF2001646F2000212
:1043F800CEF200064FF40024C4F2010200254FF06B
:10440800010C83F818C05876C6F880409560C6F845
:104418008041197E82B061B15E8B1D76B1B259833D
:104428001768114647EA0C0515600A6812F0010F73
:10443800FBD1002215264FF0020746F200041E7732
:10444800C4F201049F84DA625A831E7F2568334FC1
:1044580025F004014FF0030C01AD1F6321601D62BC
:104468009A62A3F838C0616846F2000201F00101BF
:1044780000910099C4F201020029F4D096611468F1
:1044880024F004011160546804F001010091009CBB
:10449800002C37D0106154684FF0000C04F0010173
:1044A8000091009A0522A3F824C083F83A2046F226
:1044B8000002C4F2010294684EF2001144F00304B1
:1044C8009460CEF200014FF400220A60B3F81AC0DB
:1044D8001149BCF1020FF9D150B101280DD00228C1
:1044E80003D191F8352081F83E2002B0F0BC704726
:1044F80091F8353081F83C30F7E791F8350081F8CC
:104508003D00F2E7998C01354A1E94B201219C8442
:104518001D6283F83A10CAE7702A0020A42A0020F6
:1045280082B001900199481E0190019B002BF9D19E
:1045380002B070472DE9F04E46F20006C4F20106BB
:1045480088B031686C4803F093FE48F20002C4F268
:104558000302916C694803F08BFE4EF20403CEF21D
:1045680000031D684EF2001205F01F00411C4901AE
:104578004FEA511C01232024CEF200026FF0704054
:104588000CF1FF3E634542F824000EEA030412D002
:1045980034B102234FF02109634542F829000AD0BB
:1045A80003F1200903F121070233634542F829008A
:1045B80042F82700F4D14EF200148E0801204FF083
:1045C800000ECEF20004B04284F800E3754621D014
:1045D80001254DB14EF201130220CEF20003B04284
:1045E80083F800E3754615D04EF20014CEF20004AD
:1045F80000F1010C02190CEB04050CF101004EF25C
:10460800001482F800E385F800E30025B042CEF2FA
:104618000004E9D1D4F880204EF2004694F80073E3
:10462800CEF20006009701964EF280134EF6005621
:104638004EF20407CEF20006CEF20007CEF20003D7
:104648002F4803F015FE31682E4872683B680197C1
:10465800009703F00DFE2C4F46F20003C4F201034D
:104668004FF40021C4F880109D60C4F880113D7794
:10467800BD84FD627D8387F83A5018684EF2802C1D
:1046880040F010021A6018684EF2002E20F0200246
:104698001A6098684EF2801220F0010098609868BD
:1046A800CEF2000C40F0020098602160D4F880102F
:1046B800D4F88031D4F800A0D4F80091D6F804B02A
:1046C8007669CEF2000ECEF200021048CDF800C096
:1046D800CDF804A00294CDF80C90CDF810E0CDF8F8
:1046E80014B03D62BD623D633D87069603F0C0FD90
:1046F80008B0BDE8F08E00BF1C4B0100404B010024
:10470800684B0100A84B0100702A0020E84B01000B
:1047180010B51B4848F20004C4F2030403F0A8FDD6
:10472800184803F0A5FDA16B174803F0A1FDA16F80
:10473800164803F09DFDD4F8F010154803F098FDD5
:10474800D4F8F410134803F093FDD4F80C11124870
:1047580003F08EFDD4F81011104803F089FDD4F849
:1047680090110F4803F084FD4EF20013CEF20003BF
:104778004FF00052C3F88021C3F8802010BD00BF5D
:10478800504C0100704C0100884C0100A84C0100FD
:10479800D04C0100F84C0100204D0100484D0100AB
:1047A800704D0100F0B5234E85B0316C07460A689C
:1047B800214803F05DFD42F2107303930399481EEC
:1047C8000390039C002CF9D1402003F073FF0546A9
:1047D80000282AD0326C39461046D6682B4640222B
:1047E800B047E8B91548294642F2107403F040FD75
:1047F80003940399481E0390039B002BF9D110489A
:10480800042403F035FD2246294610232846009447
:1048180007F02CFE284603F081FE012005B0F0BD0C
:10482800084803F025FD2046F8E7074803F020FD77
:104838000120F3E7702A0020904D0100F84D010097
:10484800C8670100E04D0100C04D010070B51C4D66
:104858000446286C82B008B10CF092FF4EF20012A8
:10486800CEF20002042148F20003C2F88010C4F21C
:1048780003039E6C002046F400769E64C2F8801103
:10488800996C224621F400719964014603230DF0C6
:1048980057F8044658B1426880680026810A3346B2
:1048A80008482C64009603F0E3FC02B070BD014692
:1048B8000548224602B0BDE8704003F0D9BC00BFED
:1048C800702A0020444E0100184E010070B546F6CB
:1048D80000002C4C002182B0C0F68910FFF7C8FCFC
:1048E80094F84450012D0AD042F210720192019BB3
:1048F800591E019101980028F9D102B070BD2269B2
:104908004BF2C53102F56126C9F2A211A1FB0620BE
:10491800060D31464FF08040FEF700FF2168002069
:10492800FCF726FB28466168FCF722FB0220A168F9
:10493800FCF71EFB0320E168FCF71AFB0420216941
:10494800FCF716FB61690520FCF712FB42F21073B5
:1049580001930199481E0190019B002BF9D1314622
:104968004FF08040FEF7DAFE48F20003C4F203037A
:10497800D3F898100448D3F89C20D3F8503103F0AA
:1049880077FCB1E7702A0020704E010030B549F27B
:10499800806383B0C0F298030193019A511E01917C
:1049A80001980028F9D13C4C94F84410012922D0F0
:1049B80048F2A063C0F201030193019B5A1E0192C1
:1049C80001980028F9D149F28060C0F2980001905E
:1049D8000198431E0193019A002AF9D1012910D0A8
:1049E80042F2107301930199481E0190019A002A1E
:1049F800F9D103B030BD294803F03AFC94F84410CB
:104A0800D6E74FF28000C0F2FA20FFF731FC2269A6
:104A18004BF2C53C02F56125C9F2A21CACFB05238B
:104A28001D0D29464FF08040FEF778FE44F24021E4
:104A3800C0F20F0101910199481E019001980028C8
:104A4800F9D12168FCF794FA01206168FCF790FA23
:104A58000220A168FCF78CFA0320E168FCF788FAC9
:104A680004202169FCF784FA61690520FCF780FAC3
:104A78000320FCF773FA48F2A063C0F20103019324
:104A88000199481E0190019A002AF9D129464FF050
:104A98008040FEF743FEA3E7702A0020944E0100F1
:104AA8002DE9F04E012AACB0054640F3D9815E6885
:104AB80062B648F20007C4F20307FB68BE4CBF4861
:104AC8006360D7F898202260D7F89C10A1606168CD
:104AD80003F0CEFB2168BA4803F0CAFBA168B948C5
:104AE80003F0C6FB42F210732A932A9C601E2A9098
:104AF8002A9F002FF9D1B44C4FF0FF3AB34884F8FD
:104B08003EA084F83CA084F83DA002F00BFC0028ED
:104B180000F0C78139460A2207F012FFA064AC48AA
:104B280002F000FC002800F0A58100210A2207F00D
:104B380007FF0127E06484F84470A648DFF888A2DC
:104B480002F0F0FB002800F0A6810A22002107F0FD
:104B5800F7FEC2B28AF84420002A00F04D819E4830
:104B680003F086FB8AF8447030469C49FBF796FCB4
:104B78000746002840F04B810FADFFF7DBFC2A1DEC
:104B880042F8047B4EF2001346F2000142F8047B1F
:104B9800C4F20101CEF200034FF400260120176091
:104BA8000F97C3F880608F60C3F880612077A7846F
:104BB800E7626783207F0A6828AE22F004034FF07B
:104BC80006090B602762A7622663A4F838904F682D
:104BD80046F2000307F001022B922B9FC4F2010357
:104BE800002FF4D098611A68194642F00400186042
:104BF8004A6846F2000302F001002A902A9FC4F294
:104C08000103002FF4D05D611F68032027F0040220
:104C18001A6084F83A0099684EF2001741F00201D0
:104C28009960CEF200074FF400233B60B4F81AB045
:104C3800BBF1060FFAD1644B9DF8A020B3F81AE037
:104C4800BEF1060F00F03681C821B4F81AA06448F6
:104C58001FFA8AF303F00CFB9DF843709DF844108B
:104C680005979DF846709DF8450006919DF84710F8
:104C780008979DF84970079009919DF848009DF89C
:104C88004B109DF83EC09DF83FE09DF840A09DF870
:104C980041909DF842B00B979DF84A709DF83C20D2
:104CA8009DF83D300A900D914E4829460C97CDF855
:104CB80000C0CDF804E0CDF808A0CDF80C90CDF8F0
:104CC80010B003F0D5FA4EF2001246F200010023AC
:104CD800C4F20101CEF200024FF4002084F85030F3
:104CE8008DF8A0308DF8A130C2F880008B60C2F832
:104CF800800105202077A384E3626383207F0A680C
:104D0800256322F004024FF006050A602362A362BD
:104D180025874D6846F2000305F001022A922A9D74
:104D2800C4F20103002DF4D098611A68194642F0C4
:104D3800040018604A6846F2000302F001002B9054
:104D48002B9DC4F20103002DF4D05E611968032283
:104D580021F004051D6084F83A2098684EF2001589
:104D680040F002019960CEF200054FF400232B6059
:104D7800B4F81AE0144DBEF1060FF9D1B5F81AC00F
:104D88009DF83C20BCF1060F00F09A80B4F81AE0B8
:104D980015481FFA8EF3C82103F06AFA3146134802
:104DA8009DF8A0209DF8A13003F062FA4FF0FF3281
:104DB80084F8542072B61BE0C8000020A84E0100F9
:104DC800C04E0100E04E0100702A0020004F010093
:104DD800344F0100684F0100944F0100943D0100D9
:104DE800E44F010034500100AC50010000510100B3
:104DF80001202CB0BDE8F08E994803F039FA30460E
:104E08009849FBF74BFB074600283FF4B5AE304600
:104E18009549FBF743FB40B330469449FBF73EFB0B
:104E2800002868D1FFF786FB4DF28470C0F21700A6
:104E3800FFF70CFDE06CFFF7B5FC8D4803F018FA9E
:104E4800FFF7A4FD8A4803F013FAFFF773FBE06C41
:104E5800FFF7A8FC864803F00BFAFFF737FDA9E730
:104E680072B6284602F01CFFC2E7FFF763FBFFF7A4
:104E78008DFD9FE77F484FF4820703F0F9F9E76457
:104E880001277D4884F84470DFF82CA202F04AFA22
:104E980000287FF45AAE794803F0EAF98AF844709A
:104EA80062E6774803F0E4F94EF6D001C0F2240137
:104EB800A16434E6012A0CBF9DF8A110C821C4E6FC
:104EC800052A7FF463AF9DF83D706B8B6D489BB2EC
:104ED800394603F0CDF931466B489DF8A0209DF87E
:104EE800A13003F0C5F9002F7FF460AF9DF8A00052
:104EF80085F854005EE730466449FBF7CFFA68B39B
:104F080030466349FBF7CAFA074600284BD1FFF73A
:104F180011FB4DF28470C0F21700FFF797FC5D4853
:104F280003F0A6F9E56C3846A565FFF75BFA94F837
:104F38003C2094F83D3094F83E5023AC2046564926
:104F4800009508F0D9FD2146544802F00BFC54495D
:104F5800544802F007FC04F007F92BE74FF28000F1
:104F6800C0F2FA20FFF772FCE06CFFF71BFCE06C64
:104F78004030FFF717FCE06C8030FFF713FCE06C63
:104F8800C030FFF70FFCE06C00F58070FFF70AFCFB
:104F9800E36C03F5A070FFF705FCE16C01F5C07048
:104FA800FFF700FC06E730463F49FBF777FAC0B940
:104FB800FFF7C0FA4DF28470C0F21700FFF746FC05
:104FC800FFF7E4FC42F210722A922A98431E2A93B1
:104FD8002A990029F9D1E26C0120A265FFF702FAAB
:104FE800E8E630463149FBF759FA002866D1FFF761
:104FF800A1FA4DF28470C0F21700FFF727FC42F2C5
:1050080010752B4803F034F9FFF7C0FC2A952A984D
:10501800431E2A932A990029F9D1E56C0220A56537
:10502800FFF7E0F9FFF752FC49F28062C0F29802FC
:105038002A922A98431E2A932A990029F9D194F88A
:105048003C2094F83D3094F83E5023AC2046124959
:10505800009508F051FD2146164803F009F972E75A
:10506800744F0100943D010088550100B4550100BA
:1050780034510100444F0100684F0100B44F010052
:10508800104F0100AC50010000510100D84201004E
:10509800D0650100405101006C5101008C510100A4
:1050A800244901001C490100805B01009C5101005A
:1050B800A0510100CC510100702A002030469A49C5
:1050C800FBF7ECF9002852D1FFF734FA4DF284705F
:1050D800C0F21700FFF7BAFB944803F0C9F8FFF7CE
:1050E80055FC42F210722A922A9B591E2A912A9D37
:1050F800002DF9D1E26C0120A265FFF773F994F84D
:1051080035008B4D00286CD049F28065C0F29805B7
:105118002A952A98431E2A932A990029F9D1FFF73C
:10512800D5FB49F28062C0F298022A922A9B591E46
:105138002A912A9D002DF9D194F83C2094F83D300D
:1051480094F83E5023AC20467A49009508F0D4FCE8
:105158002146794802F006FB2146784803F088F892
:105168007749784802F0FEFA03F0FEFF22E630465F
:105178007549FBF793F9074650BBFFF7DBF94DF28A
:105188008470C0F21700FFF761FBE16C3846A16537
:10519800FFF728F994F83C20002A5CD094F83D30B9
:1051A80094F83E5023AC63492046009508F0A4FCCF
:1051B8002146614802F0D6FA6149624802F0D2FA03
:1051C80072B6604802F0AEF8002104F057FD0FE611
:1051D80030465E49FBF762F9002873D1FFF776FB8A
:1051E800E8E5EA6C0220AA65FFF7FCF895F83500B7
:1051F800C0B149F28065C0F298052A952A98431EE5
:105208002A932A990029F9D1FFF760FB49F28062B5
:10521800C0F298022A922A9B591E2A912A9D002D93
:10522800F9D184E649F28060C0F298002A902A9960
:105238004D1E2A952A9A002AF9D1FFF747FB49F211
:105248008063C0F298032A932A9D6A1E2A922A989C
:105258000028F9D16BE6FFF799FB42F210732A9305
:105268002A9D6A1E2A922A980028F9D1E36C012007
:10527800A365FFF7B7F894F835102D4D00293AD1FA
:10528800EA6C0220AA65FFF7ADF895F8350000280A
:1052980031D149F28065C0F298052A952A98431EB3
:1052A8002A932A990029F9D1FFF710FB49F2806265
:1052B800C0F298022A922A9B591E2A912A9D002DF3
:1052C800F9D134E630462249FBF7E8F800283FF4E4
:1052D80077AF30461F49FBF7E1F8A8B948F200015B
:1052E800C4F203010A6E22F00100086606F0F6F91E
:1052F80006F06EFD5EE5FFF7E9FA95F83C2095F8B3
:105308003D3095F83E5018E630461349FBF7C6F88D
:1053180010B906F0FFF94DE530461049FBF7BEF825
:10532800F0B906F055FD45E5DC510100E0510100FA
:10533800702A00206C5101008C510100CC510100F1
:10534800244901001C490100046201003C3A0100A3
:10535800345C0100303A0100185201002852010063
:1053680030463649FBF79AF8074600287FF478ADAF
:1053780048F20006C4F20306B56C824645F4007490
:10538800B4640FAC2E48394602F072FF2D4802F083
:105398006FFF01236360C4F800A0DB18581C44F8B1
:1053A8002330431C142B44F82000F7D1264802F080
:1053B8005FFF2648216802F05BFF2448616802F01D
:1053C80057FF08252E1D6159204802F051FF351D51
:1053D8001E48A15902F04CFF502DF3D11C4802F091
:1053E80047FFFFF7D3FA01216160C4F800A04B180A
:1053F8005A1C44F82330531C142B44F82220F7D1AC
:10540800FFF764FA134802F033FF1048216802F0EE
:105418002FFF0E48616802F02BFF08252E1D6159E9
:105428000A4802F025FF351D0848A15902F020FF5F
:10543800502DF3D10137642FA4D1BBE434520100BD
:105448003C5201006C52010080520100A852010038
:10545800B0520100DC520100F0B5244C87B0A16DB8
:10546800A06CE76C01F58062C3199A4294BF4FF4AF
:1054780080655D1A99420BD394F844C01C4F0025EF
:10548800BCF1010FA762194813D0284607B0F0BD38
:10549800226C174F1046D6683B462A46B047A36D84
:1054A80094F844C0E918BCF1010FA165A7620F4840
:1054B800EBD148F20007D0F858E0C66CC4F20307F5
:1054C800417E846CD7F89820D7F89C30D7F850C123
:1054D80090F85C70C6EB0E060648CDF800C0019740
:1054E80003960494029502F0C3FECEE7702A0020CA
:1054F800CC2A00200453010046F20003C4F2010341
:10550800F0B55C689A68E4B2144014F0020F83B0F6
:105518001CD114F0010F01D103B0F0BD8C4C94F8EC
:105528003A20022A70D0052A23D0012A00F0B88038
:1055380046F20003C4F201039A68002022F0010138
:1055480099602076608384F83A00E5E7804A186914
:1055580092F83A3085B2E8B205F40045052B00F21E
:105568005281DFE813F056014A014A01AD01740186
:10557800A201E36A002B00F0ED80E16A744B002978
:1055880000F0C48146F20002C4F20102DD6A10682C
:10559800996A20F004031360536803F00100019036
:1055A800019B002B00F0C581002D00F0C2810B7813
:1055B800136150686B1E00F001060196019803F014
:1055C80001060123D0B1012D18D926B1487802234C
:1055D8000CE09D4212D9C85C01331061506800F09C
:1055E80001000190019848B1C85C0133106150680E
:1055F80000F00100019001980028EAD1E26AC91878
:10560800D31AA162E36287E7E36A002B00F0DD802A
:1056180046F20001C4F20101E56A0B68A06A23F0B2
:1056280004030B604B6803F001030193019B002BFB
:1056380000F08381002D00F0808103780B614E68B3
:105648006B1E06F001070197019E03F00107012375
:10565800DEB1012D19D92FB1467813460E610DE040
:105668009D4212D9C25C01330A614A6802F0010204
:105678000192019A4AB1C25C01330A614A6802F098
:1056880001020192019A002AEAD1E16A304A99425C
:1056980040F23081D16AC018CB1A9062D3623BE7DE
:1056A800B4F824C01FFA8CF3002B76D046F2000120
:1056B800C4F20101A58C0B68ADB223F004000860A8
:1056C8004B68206A03F001030193019B002B00F053
:1056D8003281002D00F02F8103780B614E686B1E1C
:1056E80006F001070197019E03F001071346D6B1A2
:1056F800012D18D927B1427802230CE09D4212D916
:10570800C25C01330A614A6802F001020192019AFF
:105718004AB1C25C01330A614A6802F0010201928F
:10572800019A002AEAD1B4F824C0094A1FFA8CF178
:10573800994200F2F7804FF0000CA2F824C0D06A1A
:10574800002800F0DF80022382F83A30E4E600BF48
:10575800702A0020A06CE26CA16D8218914209D3D6
:1057680094F819C0BCF1020F04BF2376A4F81AC03C
:105778003FF403AFFFF770FEE062E36A002B7FF4AB
:10578800FCAE46F20000C4F201008368032123F056
:105798000102826084F83A10EFE6227E002A3FF484
:1057A800BBAE628B46F200011FFA82FC2376C4F27C
:1057B8000101A4F81AC00B680A4643F0010008600A
:1057C800116811F0010FFBD1A6E6227E002A3FF4F2
:1057D800A3AE628B46F200011FFA82FC2376C4F264
:1057E8000101A4F81AC008680A4640F001030B60DA
:1057F800116811F0010FFBD18EE6002D3FF489AE40
:10580800FEF7A8FD85E600201076508382F83A005E
:105818007FE6002D3FF47DAEF128F1D14FF0000175
:105828005183508B136B80B26FF00E0C03F800C0DD
:10583800508B01301FFA80FCA2F81AC0508B1FFA57
:1058480080FC03F80C10042182F83A1061E6002D60
:10585800D6D1B2F81AC0116B1FFA8CF3CE1816F80D
:10586800013C3F4EF12B6AD0B6F81AC0338F1FFAAD
:105878008CFC9C4509D2B6F81AC01FFA8CFC01F8BA
:105888000C00718B481C81B27183518B344A88B2E9
:1058980083427FF43EAE508B00231FFA80FC1376C0
:1058A800A2F81AC082F83A3033E6002DA8D1136B5B
:1058B8004FF0020158701576518382F83A5028E665
:1058C800002D3FF426AE127F254B904298D14FF021
:1058D800000159835A8B196B1FFA82FC01F80C00DE
:1058E8005A8B0421501C1FFA80FCA3F81AC083F8B5
:1058F8003A100EE646F20003C4F20103996821F05B
:1059080001009860032082F83A0005E646F200029A
:10591800C4F20102916821F001009060032283F82B
:105928003A20F9E5918CC018CB1A9BB21062938487
:10593800F2E5002362E60023F5E60023A5E6B6F8C3
:105948001AC01FFA8CF3C854B6F81AE01FFA8EF082
:105958000A1812F8010CFEF7FDFC86F83A50D8E553
:10596800702A0020C3B203F06002402A06D003F078
:105978007F033F2B08BF40F04000704720F04000F5
:10598800704700BF037863B1002259B210F8013F95
:105998005218002BF9D1C2F38110821802F03F008F
:1059A80070471846704700BF024B00219A6819607B
:1059B8005A607047CC2E0020034B1A681AB95968F0
:1059C80001F8010B59607047CC2E002003480022D3
:1059D80008B5C2600369984708BD00BFCC2E0020F7
:1059E800034BD8681A6859685861D9619A61704739
:1059F800CC2E0020034B58699A69D969D860596040
:105A08001A607047CC2E002010B5114C0346E2688E
:105A18009AB1C1B201F060004028226A08BF23F0A1
:105A2800400305D001F07F013F2908BF43F0400340
:105A3800184690470023E36010BD94F924C08445BC
:105A480002D0216A884710BD0122E26010BD00BF64
:105A5800CC2E002070B5124DAC6A002C1CDD013C28
:105A680095F92C0004F0010602F0C6FC002C14DDA8
:105A780036B1013C95F92C0002F0BEFC002C0DDD7E
:105A8800013C95F92C0002F0B7FC013C95F92C007B
:105A980002F0B2FC002CF3DC70BD70BD70BD00BF1D
:105AA800CC2E002010B50446FFF7D4FF237833B17D
:105AB80058B202F0A1FC14F8013F002BF8D110BD38
:105AC8006C4B00211A6B30B499620D2403F1470521
:105AD80083F82C10674983F82D402324AA4208BF75
:105AE80003F1460201F1340C08BF1A63CCEB020241
:105AF800002A83F8244066DD4FF07E0C013A81F8D5
:105B08004CC000F09C802125013A81F84D5000F0EE
:105B18008F8091F93640203C04F0FF05013A4FF0A0
:105B280020048D6281F84E4000F08D8091F8371086
:105B38005FFA81FC0CF06005402D08BF0CF0BF0136
:105B480006D00CF07F0CBCF13F0F08BF41F04001BC
:105B580083F82C104021013A83F84F10454C79D036
:105B680094F838102D252039C9B2013A84F85050DC
:105B780084F82D1060D094F839504FF0230C013A76
:105B880084F8245084F851C06BD04FF04E0C013A81
:105B980084F852C068D03125013A84F8535066D051
:105BA800012A84F854C059D07E2222254FF0200CB7
:105BB80084F8555084F8582084F856C084F8572043
:105BC8001125302402E00D210425232400F1200CA6
:105BD80083F84940EA1883F84AC0002001244FF0AE
:105BE800590C83F8484083F84BC082F8480093F872
:105BF8004920002A2BD0204C4FFA82FC14F8012FA0
:105C08006044002AF8D1C0F3811C0CEB000202F0BA
:105C18003F0000F1200C681CC218EB18174883F8E5
:105C280048C0002382F8493082F8481030BC39E770
:105C38000D2106252524C9E709252824C6E70D21B5
:105C480005252424C2E70D2107252624BEE74FF0A9
:105C5800200CE0E70D2108252724B7E70D252C2483
:105C6800B4E70A252924B1E70B252A24AEE70C2539
:105C78002B24ABE7CC2E0020152F0020142F00205A
:105C8800154A2030232300214FF0010C82F84A00E6
:105C98004E2082F84B0082F848C082F8493082F8DA
