:100000000000012075030000A1020000A102000011
:10001000A1020000A1020000A1020000A102000054
:10002000A1020000A1020000A1020000A102000044
:10003000A1020000A1020000A1020000A102000034
:10004000A1020000A1020000A1020000A102000024
:10005000A1020000A1020000A1020000A102000014
:10006000A1020000A1020000A1020000A102000004
:10007000A1020000A1020000A1020000A1020000F4
:10008000A1020000A1020000A1020000C947000077
:10009000A1020000A1020000A1020000A1020000D4
:1000A000A1020000A1020000A1020000A1020000C4
:1000B000A1020000A1020000A1020000A1020000B4
:1000C000A1020000A1020000A1020000A1020000A4
:1002980062B6704772B67047684600F001F8FEE72C
:1002A80070B5044600F078FC0546224807F0B2FC19
:1002B8000F2D9DBF204B214853F82510A5F11001A3
:1002C80088BF1F4807F0A6FC22681E481E4907F091
:1002D800A1FC62681D491B4807F09CFC1C4807F0FC
:1002E80099FCA26817481B4907F094FCE2681A4970
:1002F800144807F08FFC164807F08CFC2269114857
:10030800164907F087FC626915490E4807F082FC18
:100318000F4807F07FFCA2690A48124907F07AFCE7
:10032800E2690848104907F075FC0948BDE87040C3
:1003380007F070BC702B0100102B0100D85C010085
:10034800882B0100942B0100A02B0100A42B010095
:10035800005C0100A82B0100AC2B0100B02B0100B0
:10036800B42B0100B82B0100BC2B010010B572B6EC
:1003780009480A4A0A49121A00F086FA09480A493D
:100388000A1A002100F012FA084A094B1A60BDE85F
:10039800104000F067BE00BF00000020700E002073
:1003A800B87E0100700E00205C4B002000F0002099
:1003B800700E00200023CA5CC2540133002AFAD10F
:1003C800704700BF002312F0010F10B404D00C785E
:1003D800013A047001237CB172B1CC5C03F1010CC9
:1003E800C454013A44B111F80C400CF1010300F86F
:1003F8000C40013A002CEFD110BC704790F9003046
:1004080010B463B1024612F9014F002CFBD100234E
:10041800CC5CD4540133002CFAD110BC704702468E
:10042800F5E700BF70B41346002A32D090F90020D7
:10043800002A30D0024612F9014F002CFBD10C786B
:1004480003F1FF3C0CF00106147014B34FF0010CDB
:100458009C4502EB0C051AD04EB111F80C4002F87D
:100468000C40B4B14FF0020C01359C450FD011F887
:100478000C600CF10104013502F80C60013504F13F
:10048800010C36B10E5D16551EB19C45EFD1002307
:100498002B7070BC70470246D1E700BF10B4002330
:1004A800C25CCC5C0133141BE4B224B9002AF7D136
:1004B800104610BC704760B2FBE700BF70B413462B
:1004C800AAB104780A78A21AD2B2002A30D174B13B
:1004D8005C1E14F0010F944627D045784A782346CD
:1004E800AA1AD2B2002A23D14FF0010CEDB900208C
:1004F80070BC704701EB0C0500EB0C046A7864785B
:100508000CF1010CA21AD2B200EB0C0601EB0C059F
:1005180072B9002CEBD074786A78013BA21AD2B277
:1005280032B90CF1010C002CE1D0013BE2D1DEE73D
:1005380050B2DDE7037849B25AB28A4208D033B1E3
:1005480010F8013F4FFA83FC8C45F8D17047002022
:10055800704700BF90F9002003462AB1024612F9FD
:10056800010F0028FBD1D21A981890F900C049B29F
:100578008C4502F0010215D00138834210D832B1FF
:1005880090F900208A420CD00138834208D890F9AB
:1005980000208A4205D010F901CD8C45F4D170476E
:1005A80000207047704700BF90F9003033B1034610
:1005B80013F9012F002AFBD1181A70471846704703
:1005C800D9B190F90020C2B14B1E13F0010F0246B9
:1005D8000CD1013243B192F90010013B21B112F95B
:1005E800011F013B0029F4D1101A7047024612F985
:1005F800011F013B0029ECD1F6E70020704700BF3E
:1006080070B403780246C3B10E78B6B176B2002052
:100618005BB29E4218BF0C4602D109E0634507D081
:10062800657801344FFA85FC002DF7D170BC70470E
:100638000130135C002BEBD1F8E70020F6E700BF90
:10064800F0B40378ABB10E78054677B2284666B1A8
:100658005BB29F420ED00A4601E063450AD0547847
:1006680001324FFA84FC002CF7D115F8013F002B1A
:10067800ECD10020F0BC70472DE9F004002844D0EC
:10068800274E0478002C45D00D78002D45D0002742
:100698004FFA85FA64B2A24518BF0A4602D124E08F
:1006A800A44522D0537801324FFA83FC002BF7D1AE
:1006B800C0190378002B2DD007464FFA85FA65B18B
:1006C8005BB29A4516D00A4601E09C4512D0547890
:1006D80001324FFA84FC002CF7D117F8013F002BA8
:1006E800EDD13360BDE8F00470470137C45D002CDC
:1006F800D0D1DDE73B46002FF3D097F90020002A40
:10070800EFD0002103F8011BEBE7054E3068002805
:10071800E8D0B6E700203060E4E72F46C8E700BF1E
:10072800740E002003682DE9F004CBB11D78ADB13B
:100738000F781E464FFA87FA67B16DB2AA4513D0F3
:100748000A4601E0AC450FD0547801324FFA84FCD8
:10075800002CF7D116F8015F002DEDD100220260C0
:100768001846BDE8F00470473246002EF7D0002145
:1007780002F8011B0260F3E7034608B91846704700
:10078800017879B140780028F8D01A4603E0D0788B
:1007980002320028F2D05170917810700029F6D1F9
:1007A800184670470B461846704700BF10F0030FF5
:1007B80030B404462AD101F0FF0343EA032C43EA8C
:1007C8000C25032A43EA052520D9A2F1040C0423A9
:1007D800BCF1030F0560CCF3800410D92CB1A2F151
:1007E80008040823032C456009D903F1040CC550FB
:1007F8000CF10403D41A032C40F80C50F5D8043A31
:1008080022F00304231DC41802F00302AAB1531EE8
:1008180003F001050123C9B29A4221700DD01DB120
:1008280002239A42617008D003F1010CE1540CF1E3
:1008380001039A4204F80C10F6D130BC704700BF8F
:10084800034610B41046E2B11C7802F1FF3C0122C5
:1008580082420C700CEA020413D034B193F801C040
:100868000222824281F801C00BD09C5C02F1010C8B
:100878008C5413F80C400CF10102824201F80C4030
:10088800F3D1084610BC704741EA000313F0030F88
:1008980030B404460D4628D1032A26D90C68A2F1A3
:1008A800040C0423BCF1030F0460CCF3800414D9B6
:1008B80034B14D68A2F108040823032C45600CD913
:1008C800CC5803F1040CC4500CF1040351F80C503B
:1008D800D41A032C40F80C50F2D8043A22F003053D
:1008E8002B1DCD1802F00302C418CAB12978531E73
:1008F800217003F0010101239A4211D021B16978D6
:1009080002239A4261700BD015F803C0591C04F8F1
:1009180003C015F801C04B1C9A4204F801C0F3D17A
:1009280030BC70478842F0B41FD8E2B10C7801237C
:1009380002F1FF3C934204700CEA030413D034B173
:1009480091F801C00223934280F801C00BD0CC5C1F
:1009580003F1010CC45411F80C400CF1010393424B
:1009680000F80C40F3D1F0BC7047002AFBD089187E
:1009780011F8013C8418551E04F8013C05F00106E5
:100988004FF0FF33002DEED03EB111F802CC022A11
:100998006FF0010304F802CCE5D0CD1815F8017CFE
:1009A80003F1FF3CE61806F8017C01EB0C0515F88D
:1009B800017C0CF1FF3304EB0C069D1806F8017C52
:1009C800002DEAD1CFE700BFF0B403469446002AD1
:1009D80030D005780A78AD1A29D10CF1FF3616F017
:1009E800010F2A4618D0447848780122201AB446C4
:1009F8001ED19C18881801329F188E180132BCF13C
:100A0800010C0CF1FF3C12D064784078201A0FD109
:100A18007C787078201A0BD19C18881801329F189E
:100A28008E180132BCF1010C0CF1FF3CECD12846C8
:100A3800F0BC70471046FBE71346CAB102788A42F9
:100A480019D05A1E12F0010F0DD010F801CF13461D
:100A58008C4508D1704790F800C08C4509D010F833
:100A6800012F8A4206D00130013B03F1FF33F2D156
:100A780070477047704770472DE9F00E91F90030C4
:100A880083B081463BB10B4613F9012F002AFBD1F5
:100A9800B3EB010A04D1484603B0BDE8F00E704735
:100AA80099F90030002B40D04B4613F9010F00286C
:100AB800FBD1C9EB030BD34535DB4846BAF1000F30
:100AC800EAD00B784FF0000C019319F80C30019A1A
:100AD8009A421FD10AF1FF34002314F0010F524645
:100AE8000AD046784D780123AE42224604D011E060
:100AF8007C787578AC420DD1C518CC180133C7186D
:100B0800CE180133013A02F1FF32C5D06D7864780E
:100B1800A542EDD00CF1010CCCEB0B00824502DCB8
:100B280009EB0C00D1E70020B6E79B46C3E700BFFE
:100B380012F0010FC9B205D090F800C0013A8C45F7
:100B48000DD00130531E4AB190F800C05A1E8C4592
:100B580005D010F8013F8B42F3D17047104670471B
:100B680010B5044600B910BD90F9003083B110F9F2
:100B7800011F0029FBD1001B013007F06DFA014667
:100B880029B10023E25CCA540133002AFAD110BD0E
:100B98000120F2E7002070474EF60053CEF2000322
:100BA8005868C0B2704700BF4EF69053CEF20003AB
:100BB8009860D9601A6170474EF69053002814BFA8
:100BC80003200020CEF20003586070474EF6905381
:100BD80040F23F00CEF200030021C0F200300322B1
:100BE8009960D96018615A60704700BF08B500F075
:100BF800ADF900F065F800F0E5F843461A6841F2EF
:100C08005E11D16000F0A4F9404603684FF020421D
:100C18001A61002008BD00BF012A2DE9F0441546DD
:100C28001C4637D00021102258680BF011FA022D0B
:100C38008246D8BF1C4F16DC1C4E00251C48216874
:100C480006F0E8FF2B46504639463246194DA8476C
:100C580010B90020BDE8F0842168174806F0DAFFD3
:100C68000020BDE8F08400211022A0680BF0F0F904
:100C7800032D0746E0D000211022E0680BF0E8F9C8
:100C8800042D06460DD02069002110220BF046FAEB
:100C98000546D3E71968094806F0BCFF0020BDE8FF
:100CA800F084043DCAE700BF008000200040000037
:100CB800542C01008D0C0020782C0100302C0100F0
:100CC80030B44EF210034FF6FE74CEF20003C0F2B9
:100CD800FF0406495C60002000240025012298607A
:100CE800C1E900451A6030BC704700BF780E00208B
:100CF8004EF21000CEF200008268034B0020002163
:100D08009A60C3E900017047780E0020012000F0C6
:100D18000DB900BF10B50446012000F007F94DF6E3
:100D2800836CC4F21B3CACFB00218B0C04FB03F46A
:100D38004EF21001CEF200018A6894420AD902F1FB
:100D48008073981E041B88688242FCD88B68A34273
:100D5800F9D810BD141B8868A04202D98B689A4242
:100D6800F9D210BD2DE9D04C154B4EF21004CEF23D
:100D780000049F68A2680446BA4284BF07F18077DE
:100D8800023FBE1AD3E9000110EB060A41F1000B3D
:100D98005F465646C3E900679A60012000F0C6F82E
:100DA80044F6D351C1F26201A1FB00B200235046C0
:100DB8003946920911F0F6F9001BBDE8D08C00BF46
:100DC800780E002048F20003C4F2030310B4D3F8ED
:100DD8009400194620F00402C3F89420D1F8504139
:100DE80048F2000314F0010FC4F20303F6D0D3F85D
:100DF8009400194620F00102C3F89420D1F850411C
:100E080048F2000314F0020FC4F20303F6D0D3F83B
:100E18009840444A24F48051C3F89810D3F89810A5
:100E280046F60000C1F3422CC0F68910BCF1070F4A
:100E38001060D3F890003BD146F6000C0124C0F6B0
:100E4800891CC0F30240BCFBF4F3072853603DD172
:100E580046F6000C0120C0F6891CBCFBF0F3C1F378
:100E68008200072893603FD146F6000C0120C0F6A7
:100E7800891CBCFBF0F3C1F342100728D36041D1B1
:100E880046F6000C0120C0F6891CC1F34231BCFBB8
:100E9800F0F30729136143D0234850F8211046F690
:100EA800000CC0F6891CBCFBF1F3536110BC704701
:100EB8001D4BC0F3024053F82C4046F6000CC0F618
:100EC800891CBCFBF4F307285360C1D0164B46F6C7
:100ED800000C53F82000C0F6891CBCFBF0F3C1F3EA
:100EE800820007289360BFD00F4B46F6000C53F8DA
:100EF8002000C0F6891CBCFBF0F3C1F342100728A0
:100F0800D360BDD0084B46F6000C53F82000C0F65D
:100F1800891CC1F34231BCFBF0F307291361BBD133
:100F28000121BCE7880E0020D42C0100052803D835
:100F3800024B53F82000704700207047880E0020AD
:100F4800014B43F820107047880E0020704700BFFF
:100F580048F20003C4F20303012098619A6C42F03E
:100F680080019964986C20F080029A64FFF72EBE85
:100F7800704700BF704700BF704700BF704700BF91
:100F8800704700BF704700BF704700BF704700BF81
:100F9800704700BF08B5024806F024FEFEE700BF10
:100FA800302D010008B50748074906F033FE074A07
:100FB8000748084B11681B680268074806F02AFEB4
:100FC800002008BD5C2D0100F02C0100700E0020EF
:100FD800700E00205C4B0020642D010038B51048CD
:100FE80006F000FE454628680E4D42690021284655
:100FF80006F010FE444623680B4C986921460AF017
:101008006FFD424611682846CA69012106F002FEB2
:10101800404603682146186A0AF062FD002038BD80
:10102800902D0100A42D0100005C010070B590B066
:1010380040220B48694605F0D3FD444600286D461A
:101048002668D8BF4FF4E13004DD684600210A2243
:101058000AF0FEFFA060A3680020336010B070BDE6
:10106800B82D010038B5384C2268A2F54058A8F1CF
:101078002008002120224046FFF798FB4546A8F1AA
:1010880024002860286800212422FFF78FFB4246AD
:10109800D2F804C02D4B2E4D196820684CF0010C75
:1010A800C2F804C02B682B4A091A11601BB908E062
:1010B80055F8043F23B198470028F9D0FFF76AFF95
:1010C8002068A0F540504FF4405107F007FB07F0A7
:1010D800EBFC214841460C6805F0F6FD0AF058FF84
:1010E800606009F0ABF907F07BFD06F0EBFD00F05E
:1010F80041F81A4805F0E8FD28B1002110220AF04D
:10110800A7FF174B1860174805F0DEFD014618B118
:101118001548802200F06CFC144806F063FD444634
:10112800206800F031FB124806F074FD48F2000018
:10113800C4F20300026E22F00105056608F074FD92
:1011480008F072FDFAE700BF700E0020700E002054
:1011580000000020A00E0020C42D0100CC2D0100AD
:1011680054000020D82D010008280020E42D01009B
:10117800EC2D0100704700BF0020704770B5A2B089
:10118800044680222C4902A8FFF77EFB266BE56AFD
:10119800E16BA26B636B294800960195256C06F0FC
:1011A80039FDA16A626A236A254806F033FD26697B
:1011B800E169A26963692348009606F02BFD266859
:1011C800E168A26863682048009606F023FD15F0E0
:1011D800804F14BF5A227A2215F0005F14BF4323B0
:1011E800632305F0704C15F0805F14BF56267626F1
:1011F8001648BCF1000FB4BF4E216E21009606F0D0
:1012080009FD206C22AA00F01F01114C02EB81039A
:10121800104A10F0800F14BF2146114610F0400FFD
:1012280018BF22460C4C53F8803C0C48009406F03A
:10123800F1FC22B070BD00BF082E0100882E01000D
:10124800D02E0100F42E0100242F0100542F01009C
:10125800682F0100642F01002C4D01006C2F010044
:1012680008B503480BF07CF80020024B984708BDEE
:101278008C2F01006D0C002010B50446044806F0C0
:10128800C9FC2046FFF77AFFBDE81040E8E700BF39
:10129800A02F010010B50446044806F0BBFC204608
:1012A800FFF76CFFBDE81040DAE700BFB42F01007C
:1012B80010B50446044806F0ADFC2046FFF75EFF73
:1012C800BDE81040CCE700BFCC2F010010B50446A4
:1012D800044806F09FFC2046FFF750FFBDE8104089
:1012E800BEE700BFD82F010010B50446044806F039
:1012F80091FC2046FFF742FFBDE81040B0E700BF71
:10130800E42F010010B50446044806F083FC20468B
:10131800FFF734FFBDE81040A2E700BFF42F01003B
:1013280010B50446044806F075FC2046FFF726FF72
:10133800BDE8104094E700BF083001004FF0FF30CF
:10134800704700BF014B1868704700BFA40E00200B
:10135800104B5A689AB1D8B1136B9A420FD0012139
:1013680010F0010F0DD0884201F1010C0ED01B6B5B
:101378000CF101019A4202D01B6B9A42F3D1002072
:1013880070471B6B9A42FAD00221ECE71846704767
:1013980010467047A40E00200B4A536883B11268A8
:1013A800934209D0002001E0934206D01B6B013024
:1013B800002BF9D1002070470020002AFAD070478E
:1013C8004FF0FF30704700BFA40E002010B5054C49
:1013D80023682BB11846D96A884723680122DA6145
:1013E80010BD00BFA40E002008B5064B84461B683C
:1013F8000A4623B1184661465B6A984708BD4FF014
:10140800FF3008BDA40E002008B5054B1B681BB1B2
:101418001846996A884708BD4FF0FF3008BD00BFDD
:10142800A40E00200349044B0868002808BF18468A
:10143800704700BFA40E00202831010070B5084D88
:1014480006466C6844B121463046FFF727F828B1B4
:10145800246B6B689C42F6D1002070BD204670BD9D
:10146800A40E002070B5154C2368002B21D005F080
:1014780091FBA168054611B1E068854206D0104885
:1014880005F022FCE5600146A06098B125680B4E86
:10149800284600E0B168FFF701F850B12268106BE8
:1014A80085422060F6D106482946BDE8704005F01F
:1014B8002BBE70BD01490D68F5E700BFA40E0020E2
:1014C8003031010038B50546144805F0FDFB18B168
:1014D8001349FEF7E3FF90B1124C23687BB17DB945
:1014E8001B6B1148236005F0EFFB58B10D4A1168DA
:1014F800FEF7D4FF30B92168206988420AD038BD88
:101508002361EDE72168084805F0FEFD21682069A0
:101518008842F4D1054B01221A6038BD38310100E8
:1015280044310100A40E002030310100140F0020C6
:1015380038B50F4D0446696851B10A4600E01A46AD
:10154800136B9942FBD1146300202163E06138BD1D
:1015580008486C602C6005F0B7FB18B12968FEF7E5
:101568009DFF18B10348296805F0CEFD6968EBE7CF
:10157800A40E00203031010030B587B001AC0A4616
:101588000546054920460BF03FFE2846214605F052
:10159800BBFD07B030BD00BF4831010030B50C4677
:1015A80083B0002855D001AD102229460AF050FD1D
:1015B800019B207093F90020002A48D1621C002B5F
:1015C8004AD01846294610220AF042FD019B607055
:1015D80093F90000002838D1A21C002B3FD01846F0
:1015E800102229460AF034FD019BA07093F90020CF
:1015F800002A28D1E21C002B34D018462946102294
:101608000AF026FD019BE07093F90000C8B9221D7D
:10161800002B2AD01846102229460AF019FD019BF2
:10162800207193F9002052B9621D002B20D0184672
:10163800294610220AF00CFD607103B030BD013359
:10164800F2E70133E3E70133D4E70133C4E70133B9
:10165800B4E70A4602F8010B00231370A21C00210C
:101668001170E21C00231370221D00211170621DED
:1016780000231370E1E700BF10B50C4605F024FB0A
:101688002146FFF78BFF237813F0010F01D00020CC
:1016980010BD607894F802C0E27840EA0C010B4370
:1016A8002179134362790B431A430CBF00200120B0
:1016B80010BD00BF30B50246084B094889B0002A62
:1016C80018BF03460D46684619460BF09DFD68464F
:1016D80029466C46FFF7D0FF09B030BD4C310100F8
:1016E800543101002DE9F044234E82B0336882461C
:1016F800002B3BD0746800256F4605E0246B7068AA
:101708001D4A844211D0013569462846FFF7D2FFA9
:101718000028F3D0062204F110006946FFF7B4F858
:10172800246B7068144A8442EDD11468154621462A
:10173800124806F06FFA3368514618461A6A9047FD
:1017480000280F480CDA06F065FA0020FFF7BAFE09
:1017580029688C42ECD14FF0FF3002B0BDE8F0842C
:10176800054A02211068C1610020F6E7054806F025
:1017780039FA4FF0FF30F0E7A40E00207431010071
:1017880080310100603101002DE9F04E574F0023F0
:1017980082B03B607B600446402007F0E7FE08F01B
:1017A800F1FA20460AF046F80028C0F28F807C68DB
:1017B800002C00F092804E4805F086FA81464120C0
:1017C80007F0D4FE21464B4806F024FA00256E4661
:1017D800DFF818B149462046B9F1000F02D0FEF7EC
:1017E8005DFE00B328466946FFF764FF6846424934
:1017F8000622FFF7E9F8013528BB246B79683F48D2
:101808008C4232D006F0EEF921463A4806F002FA48
:10181800DFF8D8B049462046B9F1000FE2D0FEF70C
:101828003DFE0028DED136483C6006F0DBF928464C
:101838006946FFF73FFF68462F490622FFF7C4F8BD
:1018480001350028D9D004F1100A2B490622504648
:10185800FFF7BAF8E8B9694606225046FFF714F8C8
:10186800246B796825488C42CCD1DBF8001000291C
:1018780028D0244805F028FAF8B1DBF80010FEF764
:101888000DFED0B90A2006F089FA284602B0BDE854
:10189800F08E062269465046FFF796F80028DAD0FF
:1018A8002146194806F0B6F95146184806F0B2F92B
:1018B8001748694606F0AEF9CDE73968114805F0D2
:1018C80023FCDFE70F4805F01FFCDBE72046FFF7A6
:1018D80035FD7C68002C7FF46EAF0E4806F082F967
:1018E8006FF03F0007F042FE2546CEE7A40E002029
:1018F80088310100C06701002031010094310100E6
:101908009831010030310100A4310100D0310100CB
:10191800F031010060310100014B02221A6070476A
:10192800B80E0020704700BF014B5860704700BFD9
:10193800B80E0020002910B42DDD01234A1E8B4269
:1019480002EA0304028812D02CB1022330F803C043
:101958008B4262440BD003F1010C30F8133030F89D
:101968001C40D2180CF1010312198B42F3D191B229
:1019780001EB124C1FFA8CF303EB1C404FF6FE717F
:10198800421CC0F2000102EA0100D0F1010038BF98
:10199800002010BC70470120FBE700BF002910B4ED
:1019A80023DD01234A1E8B4202EA0304028812D077
:1019B8002CB1022330F803C08B4262440BD003F1F0
:1019C800010C30F8133030F81C40D2180CF1010328
:1019D80012198B42F3D11FFA82FC0CEB124290B21F
:1019E80000EB124188B210BC70470020FBE700BF33
:1019F80010B491F90030222B2ED0013A002A12DDC2
:101A08000B7883B1222B0ED002F1FF3C1CF0010FA2
:101A18001BD0BCF1000200F8013B04DD4B7813B188
:101A28000131222B11D10021017010BC70474B7875
:101A3800611C002BF7D0222BF5D000F8013B63780E
:101A4800013A002BEFD0222BEDD0013A4C1C002A92
:101A580000F8013BEBDCE6E70131013ACDE700BFD6
:101A680008B520B101783039CBB2092B02D94FF62D
:101A78000F7008BD0A2200210AF0EAFA82B21302A6
:101A880043EA122080B208BD10B505F01DF9BDE883
:101A98001040E5E7094A10884FF6FF72010A41EA4B
:101AA80000239BB2934207D01805030D40F6FF7C34
:101AB800634501D0122070470E2070473000002087
:101AC800020A42EA002C1FFA8CF24FF6FF739A4280
:101AD80009D040F6FF70824205D013050846044934
:101AE8001A0D0BF091BB08460249FEF763BC00BF14
:101AF800203201001832010030B5020642EA1065B2
:101B080000F47F4345EA032400F47F0044EA1022EE
:101B180083B0C2F3072502F0FF04C2F30743084667
:101B2800120E0349009501940BF06EFB03B030BD13
:101B3800243201000422FEF7A7BE00BF70B51B4E79
:101B48004FF6FF7334881646220A42EA0425ADB2DE
:101B58009D4204461BD00622FEF796FE2D0506225E
:101B6800A01D1349FEF790FE2A0D15F5801F16D00B
:101B7800B6B22D0F330A45EA022543EA06264FF08E
:101B8800810C2682E581A4F80CC0122070BD0622C3
:101B9800FEF77AFEA01D06490622FEF775FEB0B2D2
:101BA800010A41EA0026A6810E2070BD30000020FF
:101BB800C00E0020FFF718BC2DE9F04E934D0D29FB
:101BC80084B004462861696133DD914E8389728847
:101BD80030884FEA122C070A1E0A47EA00204CEA0E
:101BE800022C46EA032640F6FF724FF6FF7380B2D6
:101BF8001FFA8CFCB6B240F2E9579C4508BF9446E0
:101C0800984214BF03461346BE4215DDB6F5014F90
:101C18004AD00E3904F10E071B051B0D40F6FF7064
:101C2800834217D0824204BF4FEA0C52120D9342EE
:101C380010D004B0BDE8F08EA08A1B05060A46EA5B
:101C480000271B0D40F6FF7016398342BEB204F11F
:101C58001607E7D140F6060C66453AD048F2350239
:101C6800964211D0B6F5006FE3D11B29E1D97888E7
:101C7800020A42EA002C1FFA8CF28A4240F3D6800C
:101C8800644805F0C7FFD4E71B2940F3B980F888FA
:101C9800020A42EA002C0FFA8CFEBEF1040F7DD036
:101CA8005D4805F09FFFC4E71129C2DD0005000D5E
:101CB8009042BED0E789208A3E0A46EA0722060AF1
:101CC80046EA00271205BEB2120D123904F11207B6
:101CD800A2E71B2940F394803B881A0A42EA0320B2
:101CE80001B20129A5D17888030A43EA00210FFA35
:101CF80081FCBCF5006F9CD197F804A0BAF1060FDF
:101D080097D17A79042A94D1A969DFF8009100293A
:101D18008FD007F1180103AB019118460199009380
:101D2800FEF7B2FDD9F81800039A07F1080B9042A4
:101D3800009B7FF47EAFF888020A42EA002E1FFA61
:101D48008EF2012A00F0D880022A7FF472AFE96986
:101D58002E4C00293FF46DAF206A00283FF469AF8C
:101D6800042218460BF10601FEF78EFD626A039BFA
:101D78009A427FF45EAF59460622206AFEF784FD38
:101D8800216A0622A06AFEF77FFDE16AA06AFFF7D2
:101D98002BFB00212162E161E1624AE73888020AEF
:101DA80042EA00210BB2012B7FF47AAF7B88190A33
:101DB80041EA032C0FFA8CFEBEF5006F7FF470AF7A
:101DC800B88840F2064290427FF46AAF134807F1A0
:101DD8001801FFF7AFFE2B6B07F1080423B907F1D1
:101DE8000E010F48FFF7A6FE214606220D48FEF712
:101DF8004BFD00206C68014602460346A04718E7E1
:101E080009481C2205F006FF13E700BFB80E0020A2
:101E1800300000205C32010044320100D00E002066
:101E2800E80E0020EC0E0020303201003B7803F071
:101E3800F00140297FF4FDAE03F00F03052B3FF7B7
:101E4800F8AE38460A21FFF775FD00283CD0042279
:101E580003A807F11001FEF717FDAB69039A6BB1F0
:101E6800B3EB020E18BF4FF0010EB2F1FF3F0CBFEB
:101E780000200EF0010000287FF4DBAEF888020A8B
:101E880042EA002399048A0C002A7FF4D2AE7B7AB6
:101E9800012B1DD0112B7FF4CCAE3B8BB7F816E08D
:101EA800BA8A190A41EA0324100A4FEA1E2C4CEA9E
:101EB8000E2140EA0222A3B207F11C006C6889B225
:101EC80092B2083BA047B4E61F4805F08BFEB0E687
:101ED80097F814C007F11403BCF1050F7FF4A9AEFD
:101EE80093F801E0BEF1010F7FF4A3AE07F11801EA
:101EF800164805F08FFE9CE63246A11D2046FFF7E6
:101F08001DFE4FF4007CA7F806C05246064607F1AE
:101F18000E05594607F11200FEF7B6FC019829464E
:101F2800FFF708FE524609F108015846FEF7ACFCD7
:101F3800284609F11801FFF7FDFD204606F11C01AE
:101F4800FFF752FA75E600BF7032010080320100D7
:101F58002DE9F044294D82B0EE6B294940F606027E
:101F68003046FFF7EBFD4FF48072341806233252E7
:101F78004FF0080C4FF0040A4FF4807604F108077C
:101F88001A462371A4F802C0E68005F1080184F816
:101F980005A03846FEF778FCA96902AE46F8041D8C
:101FA8005246314604F10E00FEF76EFC0023E3753D
:101FB800A374E37423756375A375EB69A8692A6C28
:101FC80083EA0001114201D06B6C83B16B62314628
:101FD80007F1100004220193FEF756FCE86BC0F1EC
:101FE8001C010919FFF700FA02B0BDE8F0840548A2
:101FF80005F0F8FDEB696B62E9E700BFB80E002059
:1020080034000020A032010038B5044610B9054B51
:10201800986438BD034D0020A964FEF7A3FE2C6523
:10202800E86438BDB80E002038B5254804F04CFEE9
:10203800044618B12349FEF731FAE8B9224D6B6D11
:102048005C1C6C65FFF7C2F9AA6D1F4CD2F1010048
:1020580038BF0020FFF736FA41460868FFF742FB11
:10206800E86D30B1236E0020E065DBB90422226000
:1020780038BD0223236038BD20461449FEF70EFA06
:1020880028B9114DFFF7A2F904232B6038BD20466B
:102098000F49FEF703FA68B901200B4D6B6D9842A2
:1020A800CED8EFE70B4942F21070FFF7ADFF0A49AF
:1020B800616038BD002120460A4609F0C9FFECE7F7
:1020C800CC320100D8320100B80E002044310100A2
:1020D800DC320100211900002D19000010B50F4C49
:1020E800E36903B910BD0020FEF73CFE636E41F2C0
:1020F8008831C21A8A42F5D9A16E4A1C042AA266FE
:1021080003DC6066BDE8104022E7054805F06AFD7B
:102118000020A066BDE8104086E700BFB80E00208A
:10212800E43201002DE9F04482B0089F019117F0D4
:10213800010F044615469A4603D007F11C030022F6
:10214800C25400263349452323706670CB6EBFB254
:1021580007F11C0290B29AB24FEA122C4FEA102EE5
:102168004EEA002001334CEA022ECB66A4F804E0C4
:102178004FF0FF334FF0400E1122237260806272DD
:102188001831A4F806E00422668104F10C0008372F
:10219800FEF77AFB1FFA8AFA01A90422ADB2BFB290
:1021A80004F11000FEF770FB4FEA1A2C280A3B0ACC
:1021B8004CEA0A2A40EA052543EA0727A4F814A0AE
:1021C800E58227836683A21C2088638851880232AF
:1021D800C318508802325B18518802321B18508885
:1021E80002325B18518802321B18508802325B1881
:1021F80051881B1892885B18D31898B200EB134CBF
:102208001FFA8CF202EB1C41C843608102B0BDE8A2
:10221800F08400BFB80E00202DE9F04E84B093463C
:1022280099460C9D0E46002928D1344F344C384627
:1022380004F170010622FEF7C7FB4FF0FF36844613
:1022480000282AD0D4F83CA039464FF40062504602
:10225800FFF774FC0AEB0007384631465A464B46EE
:102268000095FFF75FFFE06B05F11C033F1AD919D2
:10227800FFF7BAF8002004B0BDE8F08E1F4F204CDD
:10228800B1F1FF3F18BF0746384604F17001062236
:10229800FEF79AFB84460028D4D1D4F828A0394602
:1022A8004FF400625046CDF80CC0E6612762FFF794
:1022B80045FC0AEB00074B46314638465A4600951E
:1022C800FFF730FFA26AE06BB91A1C3109182A46D9
:1022D80007F11C00FEF7D8FAA36ADDF80CC0FF1A54
:1022E8001C3560460126ED19E562A666FEF73AFD43
:1022F8006066FFF72DFE3046BDE700BF34000020C2
:10230800B80E00202DE9F04E934D944C05F5E2737C
:10231800DE1C04F19709002329F01F02414626F02C
:102328001F07012602F5406C02F5C06E88B0E36213
:10233800A36523662362E3616362E263A76266655D
:102348000F68C5F8A0E1C5F8A4C18146FFF73EF8BB
:10235800FFF788F83846FFF7C5F90028C0F2F7807C
:1023680006FA09F240F2131BC0F2000B02EA0B0056
:10237800B246009226468346FEF7E4FF062200F1A5
:1023880010017748FEF780FA43461F68C4F800A09A
:10239800019704F0FFFBD5F8C8170746884224D0F8
:1023A80001980422011D6F48FEF76EFA6E4804F08A
:1023B8008BFC09F0EDFD70646C4804F085FC09F0B5
:1023C800E7FD30646A4804F07FFC09F0E1FD306302
:1023D8006848FFF759FB684B58806848FFF754FB7B
:1023E8005D49654AC1F8C8771080B9F1090F09D964
:1023F800C4F860A0B9F1040F35D8DFE809F06B2EF6
:1024080034686100BBF1000F13D055485C490622BF
:10241800FEF7DAFA0028EBD1FEF7BEFFB0F1FF3F76
:102428007AD000287ED1574805F0DCFBFFF7FCFD89
:102438001CE0009A12F4027FDAD0216B002978D0D0
:10244800B369002BE1D1504805F0CCFBFEF7BEFF85
:102458004FF0FF3008B0BDE8F08E4C4F0023A36169
:102468003B6000F0A9F80020C5F8CC07FEF7CCFFC8
:1024780005F0B2FC0746002861D1FFF72FFEA16CDA
:10248800384631B1FEF76EFCF16C336D421A9A4250
:1024980012D82368032B07D0042BD9D0022BE5D1FF
:1024A8002E4FC7F858A067E7D5F8CC17C9B9FEF77B
:1024B8008DFFD5F8CC07CDE7B06CB7648047E8E767
:1024C800334800270760A76100F018FECBE700F04B
:1024D8009DF9C8E72E4A00211160A16100F044FD72
:1024E800C1E70A462B4805F095FB1B4903ACD1F818
:1024F800CC27204628490AF087FE2146274804F0C1
:1025080003FE274B24491A6820460AF07DFE21461F
:10251800244804F0F9FDCAE7234805F063FBFEF7F9
:1025280055FF95E70146214805F074FBFFF77CFD50
:102538009CE71F4805F056FBFEF748FF88E7FEF7C3
:1025480045FF1C4805F04EFB4FF0FF3082E7FEF7D1
:102558003DFF4FF0FF307DE7B01F0020B80E002090
:10256800C00E0020D00E0020103301001C330100E3
:1025780024330100303301003000002038330100DB
:1025880010320100A03301006033010088280020C8
:1025980044290020E83301000C3401001034010004
:1025A800540000201C34010080330100C0330100B6
:1025B80040330100E03301002DE9F047264DDFF8F4
:1025C800B4902E682548741C21462C6005F022FB27
:1025D800D9F80060224948F235023046FFF7AEFAD2
:1025E800204F4FF4807C341826F800C006254FF0A1
:1025F800040A4FF008024FF440706280E0803946C8
:102608002A46257184F805A004F10800FEF73CF974
:102618005246154904F10E00FEF736F92A463946A6
:1026280004F11200FEF730F94FF0FF33E37623761A
:102638006376A376D9F80000C0F11C010919FFF7E9
:10264800B9FA41F288300949FFF7DEFC0848BDE8CD
:10265800F047FFF769B900BF882800202834010037
:1026680034000020C00E0020D00E0020B526000047
:1026780081260000F40E0020094810B505F0CAFABA
:10268800084804F021FB18B190F900306E2B03D0F4
:10269800BDE8104000F0BAB803480322026010BD3C
:1026A8003C3401004C340100B80E0020094810B534
:1026B8000368042B07DC41F288300749FFF7A4FCC4
:1026C800BDE8104078E7054805F08CFABDE81040F1
:1026D800FFF7AABC88280020B5260000583401005E
:1026E800F0B53E4883B00768FFF7D4F93C4C1C307E
:1026F80021683D184B1E042B6DD8DFE803F0342702
:102708001A0327004FF4A0614FF400733952281DB3
:102718006B803449FDF74EFE1725D4F89030D4F875
:102728008810D4F88C2030480095FFF775FD03B069
:10273800F0BD4FF4A0624FF4407E3A522B49281D59
:10274800A5F802E0FDF736FE1325E6E7B4F8841095
:102758004FF4806C27F800C0080A40EA01239AB2B7
:102768006A800425D9E74FF4807EAE1C27F800E084
:102778001F493046FDF71EFE1D48FDF715FF411C99
:1027880076181C4F1C493046FDF714FE1B49B01D36
:10279800FDF710FE386844F6D35CC1F2620CACFB5E
:1027A80000130E369A09164930460AF02DFD3146B7
:1027B800144805F02FFA3046FDF7F6FE421CBB8898
:1027C800B618002730463A460F4900970AF01CFD14
:1027D8003618751BA1E700259FE700BFF40E0020FF
:1027E8008C280020C8340100EC0E0020B834010009
:1027F800902800203C00002080340100F0340100C3
:10280800883401008C340100A8340100F0B5724806
:1028180083B004F059FA002800F0D38000210A227E
:1028280009F07CFC6D4DA8806D4804F04DFA002835
:1028380000F0BA800A22002109F070FC0246B2F5C5
:102848007A7F2860C0F0B5806648A98805F0E2F96B
:10285800654F6648664C036897F90060C4F888308D
:10286800002E40F08180634904F194000A686249AF
:10287800C2F3074CC2F30723170ED2B2CDF800C03B
:1028880001970AF0C1FC04F19401201D8022FDF794
:1028980099FD5A48211D84F8836005F0BBF9FEF7BD
:1028A800C1FD534E534F0146554805F0B3F906F1A3
:1028B800880154483A4605F0ADF953490B681BB1F5
:1028C80052480368002B63D10A20514E05F066FA7E
:1028D8005049514805F09EF9318841B149024F48A5
:1028E80005F098F933884E49580209F0F9F80A209A
:1028F80005F054FA4B4A4C48116805F08BF94B48DF
:1029080005F070F9EE684A492868AE60FFF77CFB6D
:1029180000264848FFF708F8452301223046C4F846
:102928008C302260C4F8A460FEF71CFA4AF6AB2C7F
:10293800CAF6AA2CACFB0031CB0A03EB4302A0EB8E
:10294800822101F58063062231463B48C4F8903065
:10295800C4F88460FDF72AFF4FF4007CA5F810C086
:1029680003B0BDE8F040BBE638463A21FDF7E2FD8A
:10297800064640B3384609F00BFB711CC4F88800C2
:102988008022201D0026FDF71DFD84F8836086E760
:102998003A68D6F8880003EA020E03409E4593D0B1
:1029A800264805F037F98FE72A68B2F57A7FBFF431
:1029B8004BAF1146224805F02DF94FF47A722A6080
:1029C80042E7064D30E73946201D8022FDF7FAFC24
:1029D80084F8836063E700BFDC3401003C0000201A
:1029E800EC3401003035010008280020E80E0020F2
:1029F8008C280020D00E00205835010074350100C5
:102A0800A0350100B4350100FC0E0020F80E0020AE
:102A18000428002090280020043601001436010004
:102A28002C4D0100540000202C36010044360100D2
:102A38004D2A0000992A0000EC0E0020E435010020
:102A4800F83401000D4A10B50D4CD2F8A400A16865
:102A5800431C8B42C2F8A43009DC0A4805F0C2F8CE
:102A680020680949FFF7D0FABDE8104038E6074862
:102A780005F0B8F8BDE81040FFF7D6BA8C2800205A
:102A88003C000020503601004D2A00005834010057
:102A98002DE9F046A04C0646D4F8900083B0884251
:102AA800154602D003B0BDE8F0862268012A03D09B
:102AB800D4F88C10A942F5D1012BF3D9374637F851
:102AC800021BA3F1020A080A40EA012C1FFA8CF142
:102AD800052900F0E680062979D00329E2D1BAF168
:102AE800010FDFD973888C4E190A41EA032083B29B
:102AF800C4F88430002B00F038814CF6CD41581EC4
:102B0800CCF6CC41A1FB00C1C90801EB810CB0EBAC
:102B18004C0F00F03E8143F2FD3CCCF6A61CACFB0A
:102B2800030140F28A20490A00FB1133002B00F010
:102B38003E81012A00F04081012A14BF00230123AD
:102B4800052A14BF1A4643F00102002A00F0CD807E
:102B5800D4F8843000200221012B2160C4F88C5065
:102B6800C4F8AC00C4F8B000C4F8A80040F016815E
:102B78006A4DC4F8B0300A2369492868AB60FFF78A
:102B880043FAD4F88420B5F810C0D4F8AC30501EFD
:102B980000FB0C346349AAF1020A0A68B91CA018A0
:102BA8005246FDF771FE604B54441868844288BF52
:102BB8001C60FFF795FDB5F810C0E245BFF472AF91
:102BC8005A4805F00FF85A48032101606AE7384669
:102BD8000193FDF7E9FC431CFA185648394605F0FD
:102BE80019F80522BAF1080FC4F88C502260019B2D
:102BF80053D90B3B5049384603F00105FDF74EFC0D
:102C0800DFF818910146002877D00126BC19BAF1DF
:102C1800090F42D9DDB148492046FDF73FFC01467E
:102C2800002800F09380013606F1080E0134F245C1
:102C38000DD832E040492846FDF730FC0136014600
:102C4800E8B106F109026C1C0136924525D93A49CA
:102C58002046FDF723FC651C01460028EAD104F153
:102C680008070A22384609F0F3F91FFA80FC3946AA
:102C780062463248A9F810C004F0CCFFDAE70934FC
:102C88000A22204609F0E4F983B221461A462B4865
:102C9800A9F8103004F0BEFFD3E703B0BDE8F04652
:102CA8001EE57388B91C1A0A42EA032E1FFA8EF22F
:102CB800234804F0AFFF7188080A40EA012C1FFA84
:102CC8008CF35A1E012A08D81E4804F08BFFFEF721
:102CD8007DFB174804210160E4E61B4804F082FFED
:102CE80003B0BDE8F046FFF79FB9D4F88430D4F8B4
:102CF800B02093423FF4D6AE3AE70A360A2230466D
:102D080009F0A6F984B2314622460C48A9F81040C9
:102D180004F080FF79E700BF8C2800203C000020E9
:102D28004D2A0000540000207C27002010370100A5
:102D3800B80E0020543601006836010070360100D4
:102D480018370100303701004437010009370A22DB
:102D5800384609F07DF91FFA80FC39466246194861
:102D6800A9F810C004F056FF5DE71749D6F8A80087
:102D7800D6F8AC30B1F810E0421C03EB0E43C6F8AD
:102D8800A820190D1148C6F8AC3004F043FF32688A
:102D9800CFE6232005F002F83268CAE619460C4847
:102DA80004F038FF03B0BDE8F046FFF73DB9094825
:102DB80004F018FF3268BCE6074804F02BFF2268CD
:102DC800BAE600BF703601003C00002088360100DA
:102DD800D0360100A0360100A436010000B583B04A
:102DE8000146042201A8FDF74FFD019803B000BD7C
:102DF8002DE9F00E4FF0630C044604F801CB661C75
:102E0800751C6F1C07F1010A0AF1010987B009F165
:102E1800010B01970BF1010704970137039701375D
:102E280005976FF07D0747704FF05307677086F876
:102E380001C04FF0350C85F801C0019C4FF0010C22
:102E480084F801C04FF002078AF80110392189F887
:102E580001108BF80170049D40216F70039C617014
:102E6800059F07EB0C0194463AB3120642EA1C662A
:102E78004F1C0CF47F4546EA05297E1C751C6C1C0A
:102E880003940CF47F0B059C49EA1B224FF0360A89
:102E980084F801A04FEA226C4FEA22494FEA222B1C
:102EA8004FF0040A81F801A087F801C086F8019064
:102EB80085F801B0039F7A70B91C0BB30A461D064A
:102EC800322402F8014B45EA136903F47F4649EAC4
:102ED800062A03F47F07561C4AEA1723751C6C1C44
:102EE8004FEA236A1F144FEA232C4FF0040981F894
:102EF800019082F801A0A11C777085F801C0637069
:102F08000A46372502F8015B541C631C1B1A4FF054
:102F1800000C4FF0FF35402B81F801C055701EDCC6
:102F28000B1D181A034681F803C0C0F14100591C53
:102F3800402B00F0010012DC38B10B460131481E6D
:102F4800402882F803C0224609DC501C4B1C82F83A
:102F580003C0591C421C402B80F803C0F5DD1846FD
:102F680007B0BDE8F00E70472DE9F04E5B4EDFF874
:102F780088B1706886B0421C0025114658483560F3
:102F8800726004F047FEDBF80040294640F2EE523A
:102F98002046FDF70BFC53494FF400622046FEF72C
:102FA800CDFD241804F11C0901274FF0060A2777E4
:102FB80089F8017089F802A089F803502846029719
:102FC800CDF80CA0FDF7CEFE44F6D353C1F2620350
:102FD800A3FB001CCCF38F120DF1180A110A4AF852
:102FE800045D41EA0227A9F808705146042204F159
:102FF8002800FDF749FC5146042204F12C000595F0
:10300800FDF742FC5146042204F130000595FDF716
:103018003BFC5146042204F13400334F0595FDF77B
:1030280033FCDDF80CA03946524604F13800FDF7B0
:103038002BFC04F1880080222C49FEF7D9FC029B66
:103048002A46194604F584702B46FFF7D1FE8246BE
:10305800F878BA780304797943EA026097F804C0EB
:10306800084340EA0C212846B160FDF77BFEB368AF
:103078003146C3181A0642EA136503F47F4003F485
:103088007F0C45EA002242EA1C2541F8085F042229
:1030980004F12000FDF7F8FBDBF80000432244238D
:1030A8000AF1EC05C0EB09094FF0FF312046009505
:1030B800FFF738F80E4940F6B830FEF7A5FFA944E7
:1030C80003230C483360FEF72FFCDBF80000494669
:1030D800FEF770FD06B0BDE8F08E00BF4029002065
:1030E8005837010034000020C00E002008280020B6
:1030F80009310000DD320000F40E002034E700BF83
:10310800094810B54368042B07DC41F288300749A9
:10311800FEF77AFFBDE8104026E7054804F062FD97
:10312800BDE81040FEF780BF4029002009310000AB
:10313800583401002DE9F04E037882B0FF2B044685
:10314800894600F509763FD06C31DFF874B10191FA
:1031580000275A1E6578422A4BD8DFE802F0444A15
:103168003E4A4A384A4A4A4A4A224A4A2E4A784AEB
:103178004A4A4A4A4A4A4A4A4A4A4A4A4A4A4A4AA7
:103188004A4A4A4A4A4A4A4A4A4A4A4A4A4A4A4A97
:10319800724A2E4F4A4A4A2E2E4A4A4A4A4A4A2ECA
:1031A80055001F2DDCBF2A46AA4666DC3C48A11CF8
:1031B800FDF76AFB3A4B03F80A7002356419A64218
:1031C80002D92378FF2BC4D102B0BDE8F08EA11C30
:1031D80004223448FDF758FBEFE7A11C04223248CB
:1031E800FDF752FBE9E7A11C04223048FDF74CFB30
:1031F800E3E719462E4804F00DFDDEE7A11C042282
:103208002C48FDF741FBD8E77F2D2CDC2A1E18BF80
:103218000122AA4699F96CC0BCF1000F14BF002125
:1032280002F001010029C8D0234804F0F3FC0198FA
:10323800A11C5246FDF728FB0AEB090383F86C70C2
:10324800BBE7A11C04221D48FDF71EFBB5E73F2D77
:10325800DCBF2A46AA4619DC1948A11CFDF714FB55
:103268000BF80A70A9E72A4616481749802304F084
:10327800D1FC4FF07F0A0122CCE72A4611481349B6
:10328800202304F0C7FC1F2292468FE72A460D48E8
:103298000F49402304F0BEFC3F229246DCE700BF02
:1032A800A427002080270020FC0E0020F80E002014
:1032B800FC37010050290020CC3701004C290020A0
:1032C800C42700206C370100BC370100A437010077
:1032D800B03701002DE9F04EAB4E0D461446D6F836
:1032E80000C011462A46443D18BF012586B007464E
:1032F800432C0CBF2C4645F00104A448CDF800C06F
:103308009A4604F087FC3CB14FF0FF31A04804F026
:1033180081FC06B0BDE8F08EBAF1EB0F98BF6FF0F4
:103328000101F3D93B78591EC8B2591F18BF0121B2
:10333800012894BF002201F0010222B1062B18BF18
:103348006FF00201E2D17B78012B18BF6FF0030107
:10335800DCD197F802E0BEF1060F18BF6FF0040148
:10336800D4D107F1040B5846FFF738FDB268864CF4
:10337800904202D06FF00501C8E70021844804F0AC
:1033880049FC25685346432144228248009504F0AD
:1033980041FC2368042B07D0062BBAD0032B69D035
:1033A8007D4804F01FFCB4E77C4807F1EC0404F006
:1033B80031FC2046FFF712FD48F2632CC6F2533C5D
:1033C8006045A6D197F8F03007F1F005FF2BA0D0A3
:1033D800352B2B4607D05978881C1B181A78FF2ADA
:1033E80097D0352AF7D193F802E0BEF1050F90D1B6
:1033F8002046FFF7F3FC48F26323C6F253339842A2
:1034080000F0FD8007F110010422654807F114045B
:10341800FDF73AFA042204A82146FDF735FA049A82
:10342800002A40F0E6805F486C37046806225E4850
:10343800A11DFDF729FA3846FDF7B6F8002840F037
:10344800D1805A4C59495A4804F0E4FB94F90010C9
:1034580019B15848554903F057FE062232605648BC
:103468004F4904F0D7FB554803F02EFC544B032278
:103478001A604EE707F16C01524804F0CBFB0425B3
:10348800514804F0C7FB07F1EC002560FFF7A6FCE4
:1034980048F26329C6F2533948456ED0DFF840A197
:1034A8004A4941F28830FEF7AFFD494804F0B2FBC3
:1034B800DAF800400021204640F2EE52FDF776F996
:1034C800204644494FF40062FEF738FB241804F103
:1034D8001C05002101224FF00609E9706A70227765
:1034E80085F8029008460391FDF73CFC44F6D35357
:1034F800C1F26203A3FB001CCCF38F12039B100ADA
:1035080040EA022C06A9A5F808C041F8083D0422A3
:1035180004F13400FDF7B8F94A4604F138002E49A1
:10352800FDF7B2F95946042204F12000FDF7ACF981
:1035380007F11001042205A8FDF7A6F93269059BD9
:10354800032104F58470FFF753FCDAF8001000F14A
:10355800EC06681A85194322204644234FF0FF31B0
:103568000096FEF7DFFD29461C4804F053FBDAF805
:1035780000002946FEF71EFBCBE607F1F0003946AE
:10358800FFF7D8FD8AE700BF40290020283801004E
:1035980068380100843901006C39010020390100C4
:1035A800D00E0020C80E0020EC0E002008280020B5
:1035B80038390100D82D0100483901004C34010088
:1035C800B80E00207C380100A43801000931000041
:1035D800C838010034000020C00E0020F438010073
:1035E800F40E0020084C394620468022FEF700FAE7
:1035F80028E7214604220548FDF746F913E728463F
:103608003946FFF797FDFDE608280020E80E002060
:1036180008B50320FDF78AFC43469A68996800EBD1
:10362800C2000B01B0FBF3F008BD00BF064B013828
:1036380010B553F820402046FFF7EAFF0146204620
:10364800BDE8104000F078B8C83901000120EDE766
:10365800024B013853F8200000F098B8C83901002F
:103668000120F5E708B5044B013853F8200000F0B5
:1036780085F840B208BD00BFC83901000120F1E754
:10368800034A0139034652F82100194600F06EB882
:10369800C83901000121F3E70A2870B5044609D0AA
:1036A800094B013953F8215028462146BDE870409E
:1036B80000F05CB8044A481E52F820500D212846F4
:1036C80000F054F8F0E700BFC83901000121E3E732
:1036D80038B503780D4643B1044658B22946FFF77A
:1036E800DBFF14F8013F002BF7D138BD0121EFE7CC
:1036F80008B54FF08040FFF78BFF01464FF0804040
:1037080000F002F8002008BD00226FF07C0C027166
:10371800032380F80CC010B40270C1F307240271AF
:10372800C9B2072203730374027280F80CC00170D7
:103738000471037310BC7047002210B46FF07C044E
:103748000271032304730270027107220373C1F329
:10375800072C0374C9B202726FF07F020273017002
:1037680080F804C0037310BC704700BF037D13F0DA
:10377800200FFBD0C9B20170704700BF037D13F062
:10378800010FFBD0007840B2704700BF007D00F009
:103798000100704730B543461C6885B0E26823488D
:1037A800234904F037FAA2682048224904F032FA83
:1037B80022691E48204904F02DFA00221B481F499F
:1037C80004F028FA626919481D4904F023FAA2692D
:1037D80016481C4904F01EFA01221448174904F03F
:1037E80019FAE2691148164904F014FA01AD226A7F
:1037F8000E48144904F00EFA13492846FCF7DAFD7E
:10380800284603F061FA114A2946002818BF0246E3
:103818000F4804F0FFF9211D0E4804F0FBF9216858
:103828000D4804F0F7F9002005B030BDD839010083
:10383800E8390100F4390100FC390100083A0100B7
:10384800143A0100203A01004C310100283A0100E5
:10385800343A0100403A0100543A010008B50346E1
:1038680008461146984708BD012A70B5144619DD67
:103878005868102200211D1D08F0EAFB0646014683
:103888000B4804F0C7F9611E2A463046FFF7E6FFE9
:1038980004460146003C18BF0124064804F0BAF962
:1038A800204670BD012403F0CDFE204670BD00BF48
:1038B800903A0100B83A0100704700BF021E18BFD5
:1038C800012280280CBF002202F0010210B552B973
:1038D8001C6E0648214604F09DF90F2005F046FEAF
:1038E80043461868A047012010BD00BF783B01007F
:1038F8002DE9F04EB0F1000C18BF4FF0010C84B068
:1039080080280CBF00200CF001000C4615460093DF
:1039180000287ED193F82230009A042B166800F014
:10392800848000260196022C77DDA868FCF73CFE0F
:103938000326A4F1030A471CB4420AF0010A1ADD5F
:10394800BAF1000F07D0E868FCF72EFE0426C1196B
:103958004F1CB4420FDD55F82600FCF725FE013652
:10396800C31955F826005F1CFCF71EFE0136C7195F
:103978000137B442EFDC384604F06EFB14F0010F57
:103988004FF002094FF0000A4FF0200B064620D1F5
:10399800A968FCF70FFD4FF00309A868FCF704FEBF
:1039A8004C4527DD06F800B000F1010A043510E0A7
:1039B80006F80AB0B968FCF7FDFCB868FCF7F4FD36
:1039C80000EB050C09F1010906F80CB00CF1010A2D
:1039D8003D1DA96806EB0A00FCF7ECFCA868FCF79B
:1039E800E3FD82442F1D09F101090AF1010570194F
:1039F8004C45DDDC0098046E1248214604F00AF9B3
:103A08000F2005F0B3FD42461068019933460E4A6F
:103A1800A047012004B0BDE8F08E0C4803F054F92B
:103A2800094E002818BF0646E4E70121304603AADC
:103A380002AB05F049FA029900293FF472AF0196EA
:103A480071E700BFC03B01002C4D0100B43B0100F1
:103A580084B02DE9F04E82B00DF1280C8CE80F00EF
:103A68009DF83D109DF83CB00D9B06460846019315
:103A7800109DDDF844A00E9C0B9FDDF8309005F0FA
:103A88009BF9BBF1000F26D1A64201465DD039480B
:103A980004F0C0F8A14506D049462046019A4FF4E3
:103AA800803305F0A3FA019B3348E2182A6004F03A
:103AB80099F8314804F096F8304821462A6804F00D
:103AC800A9F8BAF1000F2ED0072005F04FFDA74244
:103AD8002BD8002008E0BBF1010F0AD0284859462E
:103AE80004F098F86FF0020002B0BDE8F04E04B0A0
:103AF80070470146234804F08DF820464A464FF4A3
:103B0800000101AB08F0F2F918BB019960182860B0
:103B1800194804F067F8194821462A6804F07AF829
:103B2800BAF1000FD0D1A742D3D92A68B242D0D96E
:103B380031463A46144804F06DF8144821462A687C
:103B480004F068F86FF00100CEE7114804F062F85D
:103B5800A9E7104804F046F8BAF1000F02D14FF077
:103B6800FF30C1E76FF0050005F000FD4FF0FF30B2
:103B7800BAE700BF1C3C0100303C0100C83C010012
:103B8800A43C0100343C0100F43C0100243D010048
:103B98000C3C0100503C01002DE9F04EAD4C0021D9
:103BA80082B0174681468C2220469A46FCF7FEFDD5
:103BB800A94805F02FFA012FC4F8840040F3E680E5
:103BC8000021DAF80400102208F042FA05460146FE
:103BD800A24804F01FF8012005F0C8FC284605F0AB
:103BE8001BF94FF0000B0646C4F854B0C4F850B0A7
:103BF800054605F053F9012818D0D9F8001098485F
:103C080004F008F86FF06B0005F0B0FC5D46626DDB
:103C1800904E002A54D0284605F040F901288346E2
:103C280053D0904803F0DEFF012097E08E483146DC
:103C380003F0F0FF336841F65612190641EA1361A2
:103C480003F47F4041EA002C03F47F0B4CEA1B206D
:103C5800C2F205727F499042D1F884B040F0B18039
:103C6800022005F083FC304605F0F0F9002800F04A
:103C7800DF80032005F07AFC304605F02FFABBF10F
:103C8800000F0BD0794803F0ADFF304605F000FA7D
:103C9800002800F0D680764803F0A4FF042005F041
:103CA80065FC717F02295CD0724803F0B3FF6FF0A6
:103CB800030005F05BFC0025626D664E002AAAD160
:103CC8006D4803F08FFF012048E0A97F86F85D105A
:103CD800E87F86F85C00287F86F85E00EA682B6932
:103CE8004FEA026949EA126E02F47F4C4EEA0C2947
:103CF80002F47F024FEA036C4CEA136E49EA12227F
:103D080003F47F494EEA092C03F47F0E4CEA1E2384
:103D18004032B365736C5219F264002B00F0838053
:103D2800B369022914BF002201224FEA036949EA54
:103D3800136E03F47F494EEA092C03F47F0E4CEA14
:103D48001E23042914BF114642F0010133660029DD
:103D580023D10120C4F88800A564002002B0BDE882
:103D6800F08E052005F002FCB37F022B4AD0042B0D
:103D780030D0012B46D0D9F80010404803F04AFF54
:103D88006FF0040005F0F2FB002540E73C4B3D488E
:103D98001D68294603F03EFF1DE70528D9D138469E
:103DA800324606F1640751466836022300970196A9
:103DB80005F0D6FA0028CCD0334803F013FF584654
:103DC800CCE7324803F00EFF4FF0FF3005F0CEFB92
:103DD800002571E72E4A30460021131D05F074F8BE
:103DE800314640222B48FCF79DFD0620266001261F
:103DF800666405F0BBFB626D2748216D134603F02E
:103E080009FF04E7F36806F14002190641EA136165
:103E180003F47F4041EA002C03F47F0E4CEA1E2392
:103E280022656365DCE71D4803F0DCFE584695E72C
:103E38001B4803F0D7FE6FF0010005F097FB002543
:103E48003AE7184803F0E6FE6FF0020005F08EFB33
:103E5800002531E754290020503D01008C3D010028
:103E6800B83E0100FC3E0100B83D0100183E0100CB
:103E7800303C0100443E0100DC3E0100643E01008C
:103E880054000020583D0100443F0100EC3D010072
:103E9800A429002058290020883E0100203F010065
:103EA800003E0100343E01002DE9F044044686B08E
:103EB80058680D461746404906221E4603F0CEFBB9
:103EC800331D002832D0D0F80CA0BAF1010F6BD006
:103ED8003A4DD5F888309A4525DD4AEA030095F829
:103EE8005E20374BBAF1200FC5F8880053F82240FE
:103EF80024D007DCBAF1020F2CD0BAF1100F47D04A
:103F0800002417E0BAF1400F36D0BAF1800FF7D18C
:103F1800FDF732F9FFF7D0FC5046394632462B46BA
:103F2800A047002406E0274803F074FE204603F06B
:103F380089FB0124204606B0BDE8F0845046394686
:103F480032462B46A04704460028F3D01E4803F00B
:103F580061FEEFE705F1480CEE46583595E8030099
:103F68008EE8030005AC9CE80F000294002403943B
:103F7800FFF76EFD0446DDE75046394632462B46CC
:103F8800A04704460028D5D0104803F043FED1E7E7
:103F98005046394632462B46A04704460028C9D029
:103FA8000B4803F037FEC5E7204629467A1EFFF77F
:103FB800F3FD0446BEE700BF580000205429002046
:103FC8002C3B01006C3F0100BC3F0100DC3F0100BD
:103FD800983F01002DE9F04E144690B00022012CC4
:103FE8000F9207468A461D4612DD58680EA9102210
:103FF80008F02EF80E9B93F90030181E18BF012008
:104008003A2B0CBF002000F0010008B1232B6FD120
:104018003846514622462B46FFF7BEFDD8B17248B6
:1040280003F0E0FD714802F04FFE71490446FCF7C9
:1040380035FA00284FD16F496C4803F065F804F051
:1040480065FD00200146024603460CF007FF0120EB
:1040580010B0BDE8F08EFDF78FF8DFF89C916A4646
:1040680009F15803834693E8030082E8030009F145
:10407800480C0FAE9CE80F00029601260396FFF746
:10408800E7FC00286DDB99F85D005B4B012847D001
:104098000820059305F06AFA059B584A93F85E00D4
:1040A80052F82060002E2AD00593FFF705FC059BE7
:1040B80021462A460020B0476FF0080005F056FA5E
:1040C8004F4803F08FFD3846514622462B460CF0E8
:1040D800C5FE0120BCE720464649FCF7DFF9002869
:1040E800AFD14349414803F00FF804F00FFDA8E7AA
:1040F8003846514622462B46FFF7D6FEA8E7BBF1C5
:10410800000F42D104F02CFE99F85E2001463D488C
:1041180003F080FD6FF0070005F028FA012097E70B
:10412800BBF1000F01D0FDF725F8374802F0CCFDB0
:1041380028B13649FCF7B2F90646002838D0D9F834
:104148006020601E130643EA126E02F47F414EEAB5
:10415800012302F47F0243EA122C291DE0470020C4
:1041680076E7B0F1FF3F37D010F1020F13D010F10E
:10417800030F88D1BBF1000F01D0FCF7FBFF6FF0F4
:10418800060005F0F3F9012062E7FCF7F3FF059953
:1041980091F85E00B6E7D9F84410B1B199F822E079
:1041A800BEF1040F7FF46FAF194803F01BFD6AE7F7
:1041B80006ACD9F854201749204609F025F82146BD
:1041C800154802F0A1FF304642E7144803F00AFD03
:1041D8006FF0700005F0CAF93846514622462B4662
:1041E8000CF03CFE4FE700BFFC3F01003C400100E3
:1041F8004440010054400100542900202C3B010098
:1042080020410100F0400100E44001004431010078
:10421800604001000C340100103401009C40010092
:1042280030B50D4C0D4D8646281B801000EB40051F
:1042380005EB051C0CEB0C2583B08C4605EB0545FE
:104248000092019300EB850172462046634603F015
:104258009FFA03B030BD00BF288D0100948F010084
:1042680048F20001C4F20301D1F898202D4BC2F3A3
:10427800422CBCF1070F10B4D1F89010186027D168
:104288000124C1F30241B0FBF4F407295C6029D191
:104298000124C2F38201B0FBF4F407299C602BD1FE
:1042A8000124C2F34211B0FBF4F40729DC602DD1DC
:1042B8000121C2F34232B0FBF1F1072A19612FD074
:1042C800194951F82220B0FBF2F0586110BC704730
:1042D800154CC1F3024154F82C400729B0FBF4F403
:1042E8005C60D5D0104C54F82140C2F38201B0FB79
:1042F800F4F407299C60D3D00B4C54F82140C2F346
:104308004211B0FBF4F40729DC60D1D0064CC2F3AB
:10431800423254F82110072AB0FBF1F11961CFD1CC
:104328000122D0E7E0290020D8410100704700BFF2
:104338002DE9F04E46F20006C4F2010688B0316855
:104348006C4803F067FC48F20002C4F20302916C67
:10435800694803F05FFC4EF20403CEF200031D68C7
:104368004EF2001205F01F00411C49014FEA511C92
:1043780001232024CEF200026FF070400CF1FF3EC2
:10438800634542F824000EEA030412D034B1022334
:104398004FF02109634542F829000AD003F12009AA
:1043A80003F121070233634542F8290042F8270048
:1043B800F4D14EF200148E0801204FF0000ECEF218
:1043C8000004B04284F800E3754621D001254DB1C0
:1043D8004EF201130220CEF20003B04283F800E34C
:1043E800754615D04EF20014CEF2000400F1010C0F
:1043F80002190CEB04050CF101004EF2001482F8CE
:1044080000E385F800E30025B042CEF20004E9D1CC
:10441800D4F880204EF2004694F80073CEF20006DD
:10442800009701964EF280134EF600564EF204079E
:10443800CEF20006CEF20007CEF200032F4803F0BA
:10444800E9FB31682E4872683B680197009703F0D2
:10445800E1FB2C4F46F20003C4F201034FF40021A4
:10446800C4F880109D60C4F880113D763D84BD621B
:104478007D8687F8345018684EF2802C40F0100280
:104488001A6018684EF2002E20F020021A60986810
:104498004EF2801220F0010098609868CEF2000C6D
:1044A80040F0020098602160D4F88010D4F8803180
:1044B800D4F800A0D4F80091D6F804B07669CEF20A
:1044C800000ECEF200021048CDF800C0CDF804A0CE
:1044D8000294CDF80C90CDF810E0CDF814B0FD6141
:1044E8007D62FD623D86069603F094FB08B0BDE848
:1044F800F08E00BFF84101001C4201004442010057
:1045080084420100E0290020C442010070B5564EE3
:1045180082B00546152355488DF8043086F8355085
:104528008DF805504EF2001403F074FB46F20003B8
:10453800C4F201034FF40021CEF200040022C4F8B3
:1045480080109A60C4F880111868194640F001027A
:104558001A600C6846F2000304F001000090009A0B
:10456800C4F20103002AF4D102A911F8040D4FF096
:10457800020E3076A6F820E0B2627286307E1C68A1
:10458800F16124F004013A4C4FF0030C1960F46215
:104598007262A6F830C019464A6846F2000302F073
:1045A80001040094009AC4F20103002AF4D098612F
:1045B800196821F004021A605C6804F00100009098
:1045C8000099002943D09DF805204FF0000C1A618E
:1045D8005C6804F001000090009B0523A6F820C049
:1045E80086F8343046F20003C4F201039A684EF2AA
:1045F800001042F00304CEF200004FF400219C604A
:104608000160B6F832E0184CBEF1020FF9D1B4F8E7
:1046180032C018481FFA8CF294F8391094F83830E0
:1046280003F0F8FA4DB1012D0CD0022D03D194F806
:10463800393084F83E3002B070BD94F8390084F8FF
:104648003C00F8E794F8391084F83D10F3E7318C12
:104658000DF10502481E1FFA80FE0124A6F820E08D
:10466800F26186F83440BDE7E02900202C430100C0
:10467800182A00204C43010010B51B4848F20004DA
:10468800C4F2030403F0C6FA184803F0C3FAA16B96
:10469800174803F0BFFAA16F164803F0BBFAD4F825
:1046A800F010154803F0B6FAD4F8F410134803F0E4
:1046B800B1FAD4F80C11124803F0ACFAD4F810117E
:1046C800104803F0A7FAD4F890110F4803F0A2FAA3
:1046D8004EF20013CEF200034FF00052C3F88021CF
:1046E800C3F8802010BD00BF94430100B44301000B
:1046F800CC430100EC430100144401003C44010098
:10470800644401008C440100B444010070B5E02801
:1047180086B003D0E1282FD006B070BD48F2000162
:1047280042F210730593C4F20301D1F89800059C76
:10473800621E10F4805F059202D1059D002DF4D110
:104748001A4848F20006C4F20306D6F898104FF249
:104758008004D6F89C200669059DC368C0F2FA2437
:10476800134800960194029503F054FA114806B0D4
:10477800BDE8704003F04EBA0C4C48F20003C4F296
:104788000303D3F898102569D3F89C20E3684FF207
:104798008004C0F2FA2408480095019403F03AFA1C
:1047A800064806B0BDE8704003F034BAE02900209E
:1047B800D444010018450100384501007445010042
:1047C80046F20003C4F201032DE9F04E5C689A68D2
:1047D800E4B2144014F0020F86B01CD114F0010F9B
:1047E80002D106B0BDE8F08E914C94F83420022A2C
:1047F80000F0A080052A21D0012A00F0ED8046F2C1
:104808000003C4F201039A68002022F001019960B4
:1048180084F83400E5E7864A186992F8343085B29E
:10482800E8B205F40045052B00F25581DFE813F0E6
:1048380057014D014D01330175012D01A26A002A6E
:1048480031D1276C636CA56C07F5806EEA18964524
:104858009CBF4FF48066039601D9D61B03969742F6
:10486800C0F09C817349002003900291029E94F845
:10487800351094F850206662FF1A6F48039B009722
:10488800019503F0C7F9039BA362A06A58B946F2E1
:104898000003C4F201039A68654922F0010003226B
:1048A800986081F83420A16A614B002900F06A8180
:1048B80046F20002C4F201029D6A1068596A20F0AB
:1048C80004031360536803F001000590059B002B57
:1048D80000F08A81002D00F087810B781361506801
:1048E8006B1E00F001060596059803F001060123EA
:1048F800D0B1012D18D926B1487802230CE09D4289
:1049080012D9C85C01331061506800F001000590AD
:10491800059848B1C85C01331061506800F0010087
:10492800059005980028EAD1A26AC918D31A6162CD
:10493800A36256E7A16A00293FF453AF46F200018B
:10494800C4F20101A56A0B68606A23F004030B60D6
:104958004B6803F001030593059B002B00F0488189
:10496800002D00F0458103780B614E686B1E06F040
:1049780001070597059E03F001070123DEB1012D0C
:1049880019D92FB1467813460E610DE09D4212D910
:10499800C25C01330A614A6802F001020592059A75
:1049A8004AB1C25C01330A614A6802F00102059209
:1049B800059A002AEAD1A16A1D4A994200F2D580D7
:1049C80046F20003C4F20103996821F001009860DF
:1049D800032082F8340004E7238C002B3FF401AF56
:1049E80046F20001C4F20101258C0B68ADB223F038
:1049F800040008604B68E06903F001030593059B18
:104A0800002B00F0F380002D00F0F08003780B619C
:104A18004E686B1E06F001070597059E03F0010717
:104A2800134606B3012D1ED957B14278022312E06E
:104A3800E0290020302A0020904501009D4212D92B
:104A4800C25C01330A614A6802F001020592059AC4
:104A58004AB1C25C01330A614A6802F00102059258
:104A6800059A002AEAD1218C6B4A1FFA81FC9C45E1
:104A780000F281804FF0000CA2F820C0906A002854
:104A8800A6D0022382F83430ABE60DBBD16A487059
:104A980082F83450A2E6002D3FF4A0AE127E5E4BA1
:104AA800904215D14FF0000159865A8ED96A1FFAE3
:104AB80082FC01F80C005A8E0421501C1FFA80FC5D
:104AC800A3F832C083F8341088E6002D3FF486AE90
:104AD800FFF71CFE82E6002082F834007EE6002DF7
:104AE8003FF47CAEF128F3D14FF000015186508E8F
:104AF800D36A80B26FF00E0C03F800C0508E0130FC
:104B08001FFA80FCA2F832C0508E1FFA80FC03F80E
:104B18000C10042182F8341060E6002DD8D1B2F8C8
:104B280032C0D16A1FFA8CF3CE1816F8013C3A4EFF
:104B3800F12B5FD0B6F832C0338E1FFA8CFC9C453F
:104B480009D2B6F832C01FFA8CFC01F80C00718E3D
:104B5800481C81B27186508E82B293427FF43EAE79
:104B68002D4B002183F8341038E6916AC018CB1A0F
:104B78005062936235E6118CC018CB1A9BB2D06193
:104B880013842EE646F20002C4F20102906820F077
:104B980001010320916083F8340022E6D4F84CA088
:104BA8001E4B3D4602935746DDF80C904FF0000B24
:104BB800AA4601E0AA44AB44029A4FF6FA75A94501
:104BC80038BF4D4602EB0B035146FE6838462A466D
:104BD800B04710B9B9EB0509ECD1276C0399636CA0
:104BE800CF19A56C276441E600239DE600233AE728
:104BF8000023E0E6B6F832C01FFA8CF3C854B6F8C2
:104C080032E01FFA8EF00A1812F8010CFFF77EFD49
:104C180086F83450E2E500BFE0290020302A002061
:104C280070B51A4D82B0E96C06460A68184802F059
:104C3800F1FF402003F010FA0446002821D0EB6C65
:104C480031461846DD6840222346A847A0B92146C8
:104C5800104802F0DFFF04250F4802F0DBFF2A4668
:104C6800214610232046009506F086FF204603F0D3
:104C780027F9012002B070BD084802F0CBFF0020E0
:104C8800F8E7074802F0C6FF0120F3E7E029002013
:104C9800C045010028460100005C010010460100E3
:104CA800F045010070B51C4D0446E86C82B008B1AF
:104CB8000CF0FCF84EF20012CEF20002042148F289
:104CC8000003C2F88010C4F203039E6C002046F46F
:104CD80000769E64C2F88011996C224621F4007116
:104CE8009964014603230CF0BDF9044658B14268A3
:104CF80080680026810A33460848EC64009602F072
:104D080089FF02B070BD01460548224602B0BDE8E1
:104D1800704002F07FBF00BFE02900207446010008
:104D2800484601002D4830B5056848F20004C4F231
:104D38000304E560416883B0C4F89810826842F2C1
:104D48001073C4F89C2021460193D1F89830019C37
:104D5800621E13F4805F019202D0019D002DF4D1F0
:104D6800426848F200051E4CC4F2030546F60000EE
:104D7800C5F89820C0F68910FFF772FA21694BF23E
:104D8800C53C01F56123C9F2A21CACFB0310010D5F
:104D98004FF08040FEF7B8FC00202168FCF7D0F8FF
:104DA80001206168FCF7CCF80220A168FCF7C8F87C
:104DB8000320E168FCF7C4F804202169FCF7C0F877
:104DC80061690520FCF7BCF8D5F898100548D5F8B6
:104DD8009C2003B0BDE8304002F01CBFD00000208A
:104DE800E0290020A04601002DE9F0444A4888B097
:104DF80002F010FF494848F200010568C4F20301B7
:104E080045F4FF54CC60D1F89C200022C1F89C20C6
:104E1800D1F89C3043F40077C1F89C70D1F89C60BD
:104E280042F2107346F48065C1F89C50D1F89C405A
:104E380044F00202C1F89C200693069F7E1E069647
:104E480006990029F9D148F2000142F2107307933C
:104E5800C4F20301D1F89840079D6A1E14F4805FDC
:104E6800079202D1079E002EF4D14FF0000A48F2B3
:104E7800000780F80CA0C4F20307D7F898504FF247
:104E8800800425F46E6E2EF01C02254EC0F2FA2422
:104E9800C7F898202046FFF7E3F931694BF2C53C83
:104EA80001F56123C9F2A21CACFB0310050D2946CC
:104EB8004FF08040FEF728FC50463168FCF740F878
:104EC80001207168FCF73CF80220B168FCF738F85B
:104ED8000320F168FCF734F804203169FCF730F856
:104EE80071690520FCF72CF80320D6F80CA0FCF714
:104EF8001DF8D7F89810D7F89C20079F069E0090B9
:104F080053460848019502940397049602F082FEDE
:104F180008B0BDE8F08400BFBC460100D000002006
:104F2800E0290020D0460100F0B446F200034EF21A
:104F38000017C4F201034FF40024CEF20007002644
:104F4800C7F880409E60C7F880411D6882B045F070
:104F580001041C601F6846F2000407F00105009573
:104F6800009DC4F20104002DF4D1214E274630766D
:104F78003584B5627586307E2368F26223F00402B8
:104F88004FF006032260F561756233867A6846F24F
:104F9800000302F001020092009AC4F20103002A01
:104FA800F4D098611A68184642F004021A60426800
:104FB80046F2000302F001020192019AC4F20103D1
:104FC800002AF4D059611968032021F004021A60FC
:104FD80086F8340099684EF2001041F00202CEF2D1
:104FE80000004FF400219A60016002B0F0BC7047E5
:104FF800E0290020F0B585B0224C03AE002305203F
:10500800314601AA84F850348DF80C308DF80D30F3
:10501800FFF78AFF608E1B4D0628FBD1698E9DF82D
:105028000420062913D0638E17489BB2C82102F0CA
:10503800F1FD314615489DF80C209DF80D3002F021
:10504800E9FD4FF0FF3E84F854E405B0F0BD052AB1
:10505800E9D19DF80570B5F832C00B481FFA8CF3FA
:10506800394602F0D7FD314608489DF80C209DF8D6
:105078000D3002F0CFFD002FE3D19DF80C2085F80C
:105088005424E2E7E02900202C4701008047010072
:105098002DE9F04E94B00EAC0023251D45F8043BD5
:1050A80045F8043B0120214612AA2B600E93FFF716
:1050B8003BFF2948428E062AFCD1274F9DF84820FD
:1050C8007E8E062E41D0C821B0F8329023481FFAB0
:1050D80089F302F09FFD9DF841509DF842009DF82C
:1050E800431007959DF84450089009919DF8450094
:1050F8009DF846109DF83AC09DF83B709DF83C60BD
:105108009DF83DE09DF83EA09DF83F909DF840B089
:105118000A959DF847500B900C919DF838209DF802
:10512800393021460E48CDF800C001970296CDF8D7
:105138000CE0CDF810A0CDF81490CDF818B00D956E
:1051480002F068FD14B0BDE8F08E012A0CBF9DF88E
:105158004910C821B8E700BFE0290020B447010082
:1051680004480100F0B5012A89B005466FDD5E6884
:1051780062B648F20003C4F20303DC68964F97480E
:105188003C60D3F89820964C7A60D3F89C10B960AC
:10519800396802F03FFD7968924802F03BFD924879
:1051A800B96802F037FD4FF0FF33904884F83E307D
:1051B80084F83C3084F83D3001F086FD002850D05A
:1051C80000210A2206F044FFA064894801F07CFD12
:1051D800002853D000210A2206F03AFF60643046C6
:1051E8008449FBF75BF948B9FFF7A2F8FFF750FFCE
:1051F800FFF700FF72B6012009B0F0BD30467E49C6
:10520800FBF74CF940B330467C49FBF747F90028D7
:105218003BD1FFF78DF844F64030C0F24C00FFF761
:1052280041FD606CFFF7FCFC754802F0F3FCFFF7EA
:10523800DBFD734802F0EEFCFFF77AF8606CFFF7CD
:10524800EFFC6F4802F0E6FCFFF76CFDD2E772B6A0
:10525800284602F0F7F9CEE7FFF76AF8FFF7C4FD32
:10526800C8E7684802F0D6FC4EF6D000C0F2240029
:10527800A0645F4801F028FD0028ABD1624802F025
:10528800C9FC4FF482016164A9E730465F49FBF726
:1052980005F920BB4FF28000C0F2FA20FFF702FDAB
:1052A800606CFFF7BDFC606C4030FFF7B9FC606CC8
:1052B8008030FFF7B5FC606CC030FFF7B1FC606C64
:1052C80000F58070FFF7ACFC626C02F5A070FFF788
:1052D800A7FC636C03F5C070FFF7A2FC8AE73046B1
:1052E8004B49FBF7DBF8074618BBFFF721F844F6F4
:1052F8004030C0F24C00FFF7D5FC656C3846256499
:10530800FFF704F994F83C2094F83D3094F83E50A7
:1053180003AC20463F49009507F076FF21463E48FA
:1053280001F0F2FE3D493E4801F0EEFE03F0EEFBCF
:1053380060E730463B49FBF7B1F878B9FEF7F8FF6C
:10534800FFF752FD4FF28000C0F2FA20FFF7AAFCE7
:10535800616C01202164FFF7D9F84BE730463249E8
:10536800FBF79CF878B9FEF7E3FFFFF73DFD4FF236
:105378008000C0F2FA20FFF795FC636C02202364DA
:10538800FFF7C4F836E730462849FBF787F80028C6
:105398004ED1FEF7CDFF44F64030C0F24C00FFF787
:1053A80081FCFFF721FD656C01202564FFF7AEF84D
:1053B80094F839200A4D002A7FF41CAF696C02204A
:1053C8002964FFF7A3F895F8390000287FF412AF95
:1053D800FFF7A8FC96E700BFD00000207C4801003A
:1053E800E029002094480100B4480100D448010095
:1053F80008490100B4340100084C0100344C010094
:105408003C490100E448010018490100F83901004D
:10541800085A010048490100684901004440010058
:105428003C400100E44F0100784901007C4901003B
:1054380030463F49FBF732F8002833D1FEF778FFB2
:10544800FFF726FEFFF7D6FD44F64030C0F24C00C9
:10545800FFF728FC606CE56C00F5BE72511C354BFB
:1054680001222846ED68A847334894F8541494F864
:10547800552402F0CFFB94F854C494F855349C4555
:1054880008D0636C00202364FFF740F894F83910C3
:105498002A4C79B172B62A4801F016FC002104F0B2
:1054A800B9F8A8E630462749FAF7F8FFB0B9FFF788
:1054B80039FC9FE6FFF798FC616C01202164FFF737
:1054C80025F894F83920002A7FF494AE636C022002
:1054D8002364FFF71BF8FFF725FCDBE730461A4982
:1054E800FAF7DCFF0028D5D030461849FAF7D6FF7E
:1054F80060B948F20001C4F203010A6E22F001000B
:10550800086605F0B7FD05F039FE73E63046104928
:10551800FAF7C4FF10B905F099FF6BE630460D495C
:10552800FAF7BCFF00287FF492AE05F027FE61E68B
:105538003C560100352E002080490100E02900205A
:105548003C4001005C3101009850010050310100DD
:10555800BC490100CC490100C3B203F06002402AF3
:1055680006D003F07F033F2B08BF40F04000704790
:1055780020F04000704700BF037863B1002259B2A1
:1055880010F8013F5218002BF9D1C2F3811082188C
:1055980002F03F0070471846704700BF024B0021D9
:1055A8009A6819605A607047382E0020034B1A68B1
:1055B8001AB9596801F8010B59607047382E002054
:1055C8000348002208B5C2600369984708BD00BFB8
:1055D800382E0020034BD8681A6859685861D96179
:1055E8009A617047382E0020034B58699A69D96927
:1055F800D86059601A607047382E002010B5114CD9
:105608000346E2689AB1C1B201F060004028226AFC
:1056180008BF23F0400305D001F07F013F2908BFF0
:1056280043F04003184690470023E36010BD94F907
:1056380024C0844502D0216A884710BD0122E26057
:1056480010BD00BF382E002070B5124DAC6A002C7A
:105658001CDD013C95F92C0004F0010602F09EFBCC
:10566800002C14DD36B1013C95F92C0002F096FBB4
:10567800002C0DDD013C95F92C0002F08FFB013C5C
:1056880095F92C0002F08AFB002CF3DC70BD70BD8C
:1056980070BD00BF382E002010B50446FFF7D4FFB8
:1056A800237833B158B202F079FB14F8013F002B8C
:1056B800F8D110BD6C4B00211A6B30B499620D24DF
:1056C80003F1470583F82C10674983F82D402324FC
:1056D800AA4208BF03F1460201F1340C08BF1A635D
:1056E800CCEB0202002A83F8244066DD4FF07E0CE2
:1056F800013A81F84CC000F09C802125013A81F8DC
:105708004D5000F08F8091F93640203C04F0FF05A1
:10571800013A4FF020048D6281F84E4000F08D80F0
:1057280091F837105FFA81FC0CF06005402D08BF36
:105738000CF0BF0106D00CF07F0CBCF13F0F08BF86
:1057480041F0400183F82C104021013A83F84F10B2
:10575800454C79D094F838102D252039C9B2013A32
:1057680084F8505084F82D1060D094F839504FF0D8
:10577800230C013A84F8245084F851C06BD04FF0C0
:105788004E0C013A84F852C068D03125013A84F8A9
:10579800535066D0012A84F854C059D07E2222255D
:1057A8004FF0200C84F8555084F8582084F856C0DF
:1057B80084F857201125302402E00D2104252324E4
:1057C80000F1200C83F84940EA1883F84AC0002009
:1057D80001244FF0590C83F8484083F84BC082F8F5
:1057E800480093F84920002A2BD0204C4FFA82FC1D
:1057F80014F8012F6044002AF8D1C0F3811C0CEB87
:10580800000202F03F0000F1200C681CC218EB18DF
:10581800174883F848C0002382F8493082F84810B6
:1058280030BC39E70D2106252524C9E70925282498
:10583800C6E70D2105252424C2E70D2107252624C6
:10584800BEE74FF0200CE0E70D2108252724B7E735
:105858000D252C24B4E70A252924B1E70B252A2491
:10586800AEE70C252B24ABE7382E0020812E002034
:10587800802E0020154A2030232300214FF0010CF0
:1058880082F84A004E2082F84B0082F848C082F81D
:10589800493082F84C1002F149004FFA83FC10F8A5
:1058A800013F6144002BF8D1C1F3811000EB010CDA
:1058B8000CF03F0000F1200C92F82D10044882F8FB
:1058C8004E3082F84CC082F84D10E5E6382E0020A4
:1058D800802E0020154A2030232300214FF0010C90
:1058E80082F84A00592082F84B0082F848C082F8B2
:1058F800493082F84C1002F149004FFA83FC10F845
:10590800013F6144002BF8D1C1F3811000EB010C79
:105918000CF03F0000F1200C92F82D10044882F89A
:105928004E3082F84CC082F84D10B5E6382E002073
:10593800802E00202DE9F044ADF5866D0DF5846AC2
:105948000AF10C0A0223074651460DF58460CDF88A
:10595800243405F0A1FA0546002833D104466E46E2
:1059680003E0ED18E418FAF78FFF4FF48061524610
:10597800304605F0D3F8E119031E1A4608463146A9
:10598800EFDC2C46504604F04BFE0020134904F08F
:1059980095FE384621460BF05FFA0DF580642946DE
:1059A8002A460F4802F036F92A460E49204607F0E3
:1059B8002BFC21460C4801F0A7FB38460DF5866DF7
:1059C800BDE8F084DDF82C0404F008FE002401464C
:1059D800064802F01FF92546D4E700BFF959000030
:1059E800EC490100144A010010340100D85C0100A0
:1059F80010B502F0DDF910B94FF0FF3010BDBDE869
:105A0800104002F0DFB900BF2DE9F04EAB488CB072
:105A180016461F4601F058F9002800F07A81002147
:105A2800102206F015FB04464346012E9D6808DD4A
:105A380000211022786806F00BFB032E044600F0C4
:105A48006B812E4638689E49FAF728FD07460028DC
:105A580021D19C482146324602F0DCF82046FFF767
:105A680069FFAE4213D02946974802F0D3F84CF2AA
:105A7800503006F0DBFA43469D60FDF7E7FD4CF237
:105A8800503006F0D3FA02F09DF91B28FBD13846B6
:105A98000CB0BDE8F08E8D48214632468C4F02F09E
:105AA800B9F88C498C4A0D234FF0000A232039613C
:105AB8003A6287F82D3087F82400BC60C7F828A020
:105AC80087F82CA0FFF77CFDF9683A687B68796154
:105AD800BA61FB614FF0FF3B07F13409029403956B
:105AE800C7F8309002F06EF9012852D00328F9D196
:105AF800029C039D00274FF0000A0FE04FF47A70D4
:105B080006F094FA02F054F9C0B90AF1010A4FF408
:105B18007A7006F08BFABAF1640F1AD00AF1010A0A
:105B280002F046F90028E9D002F04CF94FF47A70F7
:105B380006F07CFA02F03CF90028E6D002F042F9BF
:105B48000AF1010A4FF47A7006F070FABAF1640F9C
:105B5800E4D1204639460BF07FF90DF1100A5F4871
:105B680039463A4602F056F83A465D49504607F03B
:105B78004BFB51465B4801F0C7FAB4F1FF3F00F018
:105B8800EC805948214602F045F85848002704603F
:105B980067E702F017F944B214F0E00F00F0AB80A9
:105BA80002F010F945B215F0E00F00F0A480A5F15D
:105BB800200A0AF0FF0ADA4500F01681F9683B6806
:105BC80078687961BB61F86102F0FCF84FFA80FBF4
:105BD8001BF0E00F00F08E8005F0FF03A4F1200C0D
:105BE80004F0FF020BF0FF059C180CF0FF0064198D
:105BF800851E002800F0BC80012D40F3FF8002F0D4
:105C0800E1F8C1B248B210F0E00F05F0010371D01D
:105C180000F0FF02A418013DBBF1440F00F02A81F7
:105C2800BBF1530F00F01A81012D40F3E780ABB1AF
:105C380002F0C8F8C1B248B210F0E00F5AD000F034
:105C4800FF03E418013DBBF1440F00F08E80BBF167
:105C5800530F00F0F780012D40F3D08002F0B2F826
:105C6800C3B258B210F0E00F44D000F0FF0164183E
:105C7800013DBBF1440F00F0BE80BBF1530F00F0B3
:105C8800A88002F09FF8C3B258B210F0E00F31D0EC
:105C980000F0FF02A418013DBBF1440F65D0BBF131
